:4000000000800020110000001D0E00001D0E000080B500AF024A034B1B68136000F032FFBC760040FA46004010B5054C237833B9044B13B10448AFF300800123237010BD90
:400040008081FF1F00000000945D0000084B10B51BB108490848AFF300800848036803B910BD074B002BFBD0BDE81040184700BF000000008481FF1F945D0000C880FF1FB0
:400080000000000080B500AF01F092F803461A46064B1A80064B01221A70064B1B88184601F092F801F068F800BF80BD1082FF1F9C81FF1FCC80FF1F2DE9F04387B000AFB1
:4000C00001F078FAF860BE4B1B6CFA68D31ABB60BB4AFB681364B86803F0A6FAB2A4D4E900341A46234603F005FB03460C4625461C46B44B184603F0A9FA02460B4620465C
:40010000294603F021FC03460C4625461C46AE4B184603F09BFA02460B462046294603F013FC03460C46A64AC2E9043401F018FDF860A64B1B6CFA68D31ABB60A34AFB688B
:400140001364B86803F070FA97A4D4E900341A46234603F0CFFA03460C4625461C46994B184603F073FA02460B462046294603F0EBFB03460C4625461C46934B184603F0F2
:4001800065FA02460B462046294603F0DDFB03460C468E4AC2E90434894BD3E90401884B03F13804D4E900341A46234603F0A2FA03460C46824AC2E90634844BD3E9040194
:4001C000824B03F13804D4E900341A46234603F091FA03460C467D4AC2E906347B4BD3E90601774B03F11804D4E900341A46234603F0CCF803460C4618462146744B03F1A4
:400200001804D4E900341A46234603F09DFB03460C466F4AC2E90A346C4BD3E90601684B03F11804D4E900341A46234603F0B0F803460C46184621464FF000024FF08043EB
:4002400003F082FB03460C46614AC2E90834604BD3E900455E4BD3E90A895A4B184603F0F5F902460B464046494603F043FA02460B462046294603F08BF803460C46544A5E
:40028000C2E90034524BD3E90045514BD3E900014FF000024F4B03F057FB02460B461046194601F035FF4FF000024A4B03F022FA02460B462046294603F068F803460C4694
:4002C000434AC2E90034424BD3E902453D4B184603F0BCF93E4BD3E9082303F00BFA02460B46904699463A4BD3E900231046194601F0C6FE02460B464046494603F0FAF95C
:4003000002460B462046294603F042F803460C462F4AC2E902342E4BD3E90445294B184603F094F92A4BD3E9082303F0E3F902460B4690469946264BD3E9002310461946DF
:4003400001F06EFF02460B464046494603F0D2F902460B462046294603F01AF803460C461B4AC2E904341A4BD3E90E01184B18CB1A46234603F00AF803460C46C7E90434A6
:400380000BA3D3E90023D7E9040103F043FC0346002B25D008A3D3E90023D7E9040102F0F5FF19E0AFF30080112D4454FB211940182D4454FB210940182D4454FB21294011
:4003C0001882FF1F0AD7A33CB87E6045C881FF1FF882FF1F0080764003460C46C7E9043451A3D3E90023D7E9040103F0F5FB0346002B0AD04EA3D3E90023D7E9040102F0A2
:40040000C7FF03460C46C7E904344B4BD3E91401D7E9042302F0BCFF03460C46464AC2E91434454BD3E91201D7E9042303F062F903460C461D4626463F4BD3E910013E4B7C
:4004400003F15004D4E900341A46234603F052F903460C461A4623462846314602F098FF03460C46C7E90034334BD3E90C45324BD3E90601D7E9002303F03CF902460B467C
:40048000104619464FF000024FF0804303F05CFA02460B462046294602F07AFF03460C4618462146254B03F13804D4E900341A46234603F049FA03460C46204AC2E9083446
:4004C0001D4BD3E90C451C4BD3E90601D7E9002303F010F902460B46104619464FF000024FF0804303F030FA02460B462046294602F04CFF03460C4618462146104B03F176
:400500003804D4E900341A46234603F01DFA03460C460B4AC2E9083400BF1C37BD46BDE8F08300BFAFF30080182D4454FB2109C0182D4454FB211940F882FF1FC881FF1FC3
:400540001882FF1FF0B583B000AF514BD3E908014F4B03F11004D4E900341A46234602F015FF03460C46C7E90034494BD3E90201D7E9002302F00CFF03460C46444AC2E9F3
:400580000234434BD3E90045414BD3E90C01D7E9002303F0AFF802460B462046294602F0F7FE03460C461D462646394BD3E90A01374B03F10804D4E900341A46234603F06B
:4005C00099F803460C461A4623462846314602F0DFFE03460C462E4AC2E900342C4B18CB1846214600F040F92A4BD3E90801294B03F11004D4E900341A46234602F0C6FEF2
:4006000003460C46C7E90034224BD3E90201D7E9002302F0BDFE03460C461E4AC2E902341C4BD3E900451B4BD3E90C01D7E9002303F060F802460B462046294602F0A8FED0
:4006400003460C461D462646124BD3E90A01114B03F10804D4E900341A46234603F04AF803460C461A4623462846314602F090FE03460C46074AC2E90034064B18CB18467B
:40068000214600F05DF900BF0C37BD46F0BD00BF1882FF1FC881FF1FF0B585B004AF664A4FF000034FF00004C2E90034624A4FF000034FF00004C2E902345F4A58A4D4E9E8
:4006C0000034C2E908345C4A4FF000035B4CC2E90E34594B00221A64574A53A4D4E90034C2E90A34544A52A4D4E90034C2E90C34534A4FF000034FF00004C2E90034504AA2
:400700004FF000034FF00004C2E902344C4A44A4D4E90034C2E90834494A4FF00003474CC2E90E34464B00221A64454A3EA4D4E90034C2E90A34424A3DA4D4E90034C2E923
:400740000C34404A4FF000033F4CC2E906343D4A4FF000034FF00004C2E91434394A32A4D4E90034C2E91034364A31A4D4E90034C2E9123462B600F01FFE00F0CBFC00F0C2
:4007800015FC00F0FBFE01F063F801F0CDF901F05DFA2E4800F056FD2D4801F013FC2D4801F03CF9244BD3E90856234B03F11004D4E90034204AD2E90012CDE90212CDE984
:4007C00000342A4633462449244803F0FFFF234800F050FE1EE000F0AFFC012000F08CFD1F4B1B78002B03D11D4B01221A7002E01B4B00221A701A4B1B78184600F076FE77
:4008000000F078FC012000F01BFC72B6154B00221A7062B6134B1B78012BDCD0C2E700BF333333333333D33F76830DF4F521943E7B14AE47E17A743F1882FF1F00000440FB
:40084000C881FF1FF882FF1F0000344085000000B900000045050000A85D00006082FF1F9D81FF1F9C81FF1F90B583B000AFC7E900014FF00002304BD7E9000103F0ACF914
:400880000346002B05D04FF000032B4CC7E900340EE04FF00002294BD7E9000103F0BAF90346002B04D04FF00003244CC7E900344FF000024FF00003D7E9000103F08CF9AE
:4008C0000346002B1BD03B683B607B6883F000437B60002001F05AF815A3D3E90023D7E9000102F007FF03460C461846214603F0D9F903469BB2184601F058F814E00CA337
:40090000D3E90023D7E9000102F0F4FE03460C461846214603F0C6F903469BB2184601F035F8002001F042F800BF0C37BD4690BD00000000E0FFEF400000F0BF0000F03F86
:4009400090B583B000AFC7E900014FF00002304BD7E9000103F040F90346002B05D04FF000032B4CC7E900340EE04FF00002294BD7E9000103F04EF90346002B04D04FF0EB
:400980000003244CC7E900344FF000024FF00003D7E9000103F020F90346002B1BD03B683B607B6883F000437B60002001F0EAF915A3D3E90023D7E9000102F09BFE03465F
:4009C0000C461846214603F06DF903469BB2184601F0E8F914E00CA3D3E90023D7E9000102F088FE03460C461846214603F05AF903469BB2184601F0C5F9002001F0D2F9E1
:400A000000BF0C37BD4690BD00000000E0FFEF400000F0BF0000F03F80B582B000AF786039603A680021786803F09BF900BF0837BD4680BD80B584B000AFF860B9607A6026
:400A40007A68B968F86803F081F900BF1037BD4680BD00BF80B483B000AF0346FB71FEE780B487B000AF7860396000233B6100237B6127E07B699B007A6813441B68BB604B
:400A8000BB68FB73BB6823F0FF03BB6014E03B695B003A6813441B781A46BB68134419463B695B003A6813445B780B703B6901333B61FB7B013BFB73FB7B002BE7D17B6983
:400AC00001337B617B69242BD4D900BF1C37BD4680BC704780B582B000AF3E4BEF221A803D4B18221A703D4B4FF49C721A803C4B18221A703B4B40F283521A803A4B1822C4
:400B00001A703A4B45F6BF521A80394B18221A70384B4EF65F221A80374B19221A70374B02221A704FF0402308221A70344B03221A70344B344A1278D2B21A70334B08225E
:400B40001A80334B41F251221A800023FB7019237B6014E0FB785B00DAB22E4B1B78DBB203F00103DBB21343DBB203F00303FB704FF4F07001F074FA7B68013B7B607B68E7
:400B8000002B02D0FB78032BE4D17B68002B02D10320FFF75FFF204B4FF480721A801E4B07221A701D4B00221A701D4B48221A70194B00221A701B4B02221A701A4A1A4BD7
:400BC0001B78DBB243F01F03DBB2137000BF0837BD4680BD80400040824000408440004086400040884000408A4000408C4000408E40004090400040924000400043004055
:400C000000420040A14600400801004922420040204200402542004004400040064000400840004001400040A243004080B483B000AF0B4B1B78FB710A4AFB7903F0070364
:400C4000DBB21370084AFB791B09DBB21370074B44221A7000BF0C37BD4680BC704700BFCF0100496E5800406F5800407658004080B586B000AF72B6504A504B1B78DBB2A6
:400C800043F00403DBB213700023FB7513E0FA7D13465B0013445B00494A13443B613B691A683B699B889BB219461046FFF7B4FEFB7D0133FB75FB7D072BE8D90023FB7550
:400CC0001CE0FA7D13469B0013445B003D4A1344FB60FB681B68BB60FB685B687B60FB681A7A5B7A1B0213437B807B881A467968B868FFF79FFEFB7D0133FB75FB7D002BB0
:400D0000DFD031494FF09040FFF7AAFE2F4B304A1A60304B304A1A60304A304B1B78DBB243F00203DBB213702D4A2D4B1B78DBB243F00203DBB213702A4A2A4B1B78DBB243
:400D400043F04003DBB21370274A274B1B78DBB243F01003DBB21370082224492448FFF769FE082223492448FFF764FE082223492348FFF75FFE082222492348FFF75AFE38
:400D8000224A224B1B78DBB243F00803DBB213701F4B61221A70FFF79DFE1D4B81221A701C4B01221A70FFF741FF0E220D491A48FFF740FE00BF1837BD4680BDE84600402D
:400DC000CC5D0000FC5D000094000048D806014004040484D80C0140040404440350014013500140A0430040C2430040A80C004802510040B00C0048C2510040B80C0048DF
:400E000012510040C00C004822510040224300400048004004000840B043004080B500AF02F060FF03461B680C2B00D1FEE7FEE780B584B000AF7860104B1A687B681344C2
:400E40001A460F4BD31AB3F5806F09DC0B4B1B68FB600A4B1A687B681344084A136007E002F040FF02460C2313604FF0FF33FB60FB6818461037BD4680BD00BFD080FF1F02
:400E80005883FF1F80B586B000AF224B7B61224B3B61204B7B6135E03B691B68FB603B695B68BB603B699B683B6000237B600CE0FB681A68BB681A60BB680433BB60FB68E7
:400EC0000433FB607B6804337B607A683B689A42EED13B69DB683B6000237B6008E0BB6800221A60BB680433BB607B6804337B607A683B689A42F2D13B6910333B617B692F
:400F0000013B7B617B69002BC6D102F0F1FEFFF7C3FBFEE7010000006861000080B582B000AF184B184A1A60184A184B1B6843F40073136000237B600FE07B68032B04D81B
:400F4000134A7B6852F8233000E0124B12497A6841F822307B6801337B607B682F2BECD90E4B1B78DAB20E4B1A700E4B0A4A1A60FFF77EFE0C4B00221A6000BF0837BD46B3
:400F800080BD00BF0CED00E00004FA0514ED00E0000000001D0E00000080FF1FBC760040C480FF1F08ED00E0C080FF1F80B500AF064B1B78002B04D100F00AF8034B01227D
:400FC0001A7000F02DF800BF80BD00BFA881FF1F80B582B000AF104B1B78DBB223F03F03FB710D4AFB7943F02303DBB213700B4A0A4B1B78DBB243F00103DBB21370012098
:4010000000F01EF8012000F02BF8002000F038F800BF0837BD4680BD7A6500409A65004080B400AF054A054B1B78DBB263F07F03DBB2137000BFBD4680BC70477A6500403F
:4010400080B483B000AF0346FB71044AFB79137000BF0C37BD4680BC704700BF0A65004080B483B000AF0346FB71044AFB79137000BF0C37BD4680BC704700BF4A65004044
:4010800080B483B000AF0346FB71044AFB79137000BF0C37BD4680BC704700BF2A65004080B582B000AF4FF6FF7000F071F84FF6FF7000F089F800F0DBFF0346FB710C4A7D
:4010C0000B4B1B78DBB243F01003DBB21370FB79184600F0D1FF002000F086F800F0A4F8032000F039F800BF0837BD4680BD00BF9964004080B400AF054A054B1B78DBB258
:4011000063F07F03DBB2137000BFBD4680BC70477A64004080B500AF064B1B78002B04D1FFF7BEFF034B01221A70FFF7E3FF00BF80BD00BFA981FF1F80B400AF054A054B24
:401140001B78DBB203F07F03DBB2137000BFBD4680BC70477A64004080B483B000AF0346FB71044AFB79137000BF0C37BD4680BC704700BF8964004080B400AF034B1B783F
:40118000DBB21846BD4680BC704700BF6964004080B483B000AF0346FB80044AFB88138000BF0C37BD4680BC704700BF5068004080B400AF034B1B889BB21846BD4680BCD7
:4011C000704700BF9068004080B483B000AF0346FB80044AFB88138000BF0C37BD4680BC704700BF1068004080B483B000AF0346FB71FB7903F00303FB710A4A094B1B78B5
:40120000DBB223F00303DBB213700649054B1B78DAB2FB791343DBB20B7000BF0C37BD4680BC70477A64004080B500AF01E0FFF7BFFFFFF7A1FF034603F00803002BF6D10A
:4012400000BF80BD80B582B000AF786000F03CF8786800F009F8072000F018F800F028F800BF0837BD4680BD80B485B000AF7860054B1B68FB60FB6848337A681A6000BF03
:401280001437BD4680BC704708ED00E080B483B000AF0346FB71054AFB795B01DBB2137000BF0C37BD4680BC704700BF02E400E080B400AF034B04221A6000BFBD4680BCD2
:4012C000704700BF00E100E080B400AF034B04221A6000BFBD4680BC704700BF80E100E080B483B000AF0346FB7101BE00BF0C37BD4680BC704700BF80B582B000AF034691
:40130000FB80FB88054A127802FB03F3184600F0A7FE00BF0837BD4680BD00BFDC80FF1F80B584B000AF03463960FB710F4B1B68FB60FB791F2B02D90020FFF7D1FFFB79E8
:4013400003F01F0310339B00FA6813441B68BB60FB7903F01F0310339B00FA6813443A681A60BB6818461037BD4680BD08ED00E080B582B000AF03460A46FB711346BB716A
:40138000BB79072B02D90020FFF7AAFFFB791F2B02D90020FFF7A4FFFB7903F01F0303F1604303F56443BA795201D2B21A7000BF0837BD4680BD00BF80B500AF064B1B78C3
:4013C000002B04D100F00AF8034B01221A7000F01BF800BF80BD00BFAA81FF1F80B400AF064B06221A70064B47221A70054B00221A7000BFBD4680BC704700BF2865004092
:40140000386500408865004080B582B000AF00F02FFE0346FB71094A084B1B78DBB243F01003DBB2137000F047F8FB79184600F023FE00BF0837BD4680BD00BF9865004052
:4014400080B483B000AF0346FB7100BF074B1B78DBB203F00403002BF8D1054AFB79137000BF0C37BD4680BC704700BF686500404B65004080B584B000AF78600023FB81F9
:401480000C4B1B78002B10D009E0FB897A6813441B781846FFF7D4FFFB890133FB81FB897A6813441B78002BEFD100BF1037BD4680BD00BFAA81FF1F80B400AF094A094B90
:4014C0001B78DBB243F00203DBB21370064A064B1B78DBB243F00203DBB2137000BFBD4680BC7047A2430040B243004080B483B000AF0346FB71044AFB79137000BF0C375A
:40150000BD4680BC704700BF7965004080B500AF064B08221A6006490320FFF701FF07210320FFF725FF00BF80BD00BF80E100E04116000080B582B000AF0F2000F06CF846
:4015400000F05CF800F094FD0346FB71094A094B1B78DBB243F01003DBB21370FB79184600F08AFD044B08221A6000BF0837BD4680BD00BF9665004000E100E080B500AFBB
:4015800000F0DEF84FF4004000F008F9074B00221A60074B1B78002B04D1FFF7B7FF044B01221A70FFF7C6FF00BF80BDB081FF1FAC81FF1F80B582B000AF0D4B08221A6013
:4015C00000F0FCF80346FB80FB88A3F500439BB2BB80B7F90420074B1B6813443B60064B08221A603B6818460837BD4680BD00BF80E100E0B081FF1F00E100E080B400AF5A
:40160000044B1B78DBB203F00F03DBB21846BD4680BC70476665004080B483B000AF0346FB71FB7943F00703FB71044AFB79137000BF0C37BD4680BC704700BF866500403B
:4016400080B483B000AF144B1B78FB71FB7903F00103002B07D0114B1B6803F5FF437F330E4A13600AE0FB7903F00203002B05D00A4B1B68A3F50043084A1360FB7903F0BE
:401680000403002B02D0054B00221A6000BF0C37BD4680BC704700BF66650040B081FF1F80B582B000AF1C4B1B78DBB223F00703FB71194AFB791370174B1B78DBB223F014
:4016C0000303FB71144AFB79137000F0B3F84FF4004000F08FF84FF4004000F05FF8002000F040F800F04EF84FF4004000F092F800F0BEFC0346BB71084A084B1B78DBB265
:4017000043F01003DBB21370BB79184600F0B4FC00BF0837BD4680BD766500409764004080B400AF054A054B1B78DBB263F07F03DBB2137000BFBD4680BC70477665004036
:4017400080B500AF064B1B78002B04D1FFF7A8FF034B01221A70FFF7E3FF00BF80BD00BFB481FF1F80B483B000AF0346FB71044AFB79137000BF0C37BD4680BC704700BF5C
:401780008764004080B400AF034B1B78DBB21846BD4680BC704700BF6764004080B483B000AF0346FB80044AFB88138000BF0C37BD4680BC704700BF0C68004080B400AF03
:4017C000044B1B78044B1B889BB21846BD4680BC704700BF066400408C68004080B400AF034B1B889BB21846BD4680BC704700BF8C68004080B483B000AF0346FB80044A47
:40180000FB88138000BF0C37BD4680BC704700BF4C68004080B483B000AF0346FB80044AFB88138000BF0C37BD4680BC704700BF6C68004080B500AF01E0FFF7CFFFFFF75F
:40184000A1FF034603F04003002BF6D100BF80BD80B500AF064B1B78002B04D100F00AF8034B01221A7000F053F800BF80BD00BFB581FF1F80B582B000AF214B1B78DBB2BA
:4018800023F03F03FB711E4AFB7943F00903DBB213701C4A1B4B1B78DBB243F00103DBB21370194A184B1B78DBB243F00103DBB213704FF6FF7000F03BF84FF6FF7000F061
:4018C00055F8002000F062F8002000F06FF8002000F07CF800F0CCFB0346BB710B4A0B4B1B78DBB243F01003DBB21370BB79184600F0C2FB00F02CF800BF0837BD4680BD58
:401900007F6400409A6400409B6400409F64004080B400AF054A054B1B78DBB263F07F03DBB2137000BFBD4680BC70477F64004080B483B000AF0346FB80044AFB88138027
:4019400000BF0C37BD4680BC704700BF1468004080B500AF01E000F055F800F047F8034603F01003002BF6D100BF80BD80B483B000AF0346FB80044AFB88138000BF0C3746
:40198000BD4680BC704700BF9468004080B483B000AF0346FB80044AFB88138000BF0C37BD4680BC704700BF5468004080B483B000AF0346FB80044AFB88138000BF0C3705
:4019C000BD4680BC704700BF7468004080B483B000AF0346FB71044AFB79137000BF0C37BD4680BC704700BF8F64004080B400AF034B1B78DBB21846BD4680BC704700BFB8
:401A00006F64004080B400AF034B1B889BB21846BD4680BC704700BFB468004080B582B000AF786000F03CF8786800F009F8012000F018F800F028F800BF0837BD4680BDB1
:401A400080B485B000AF7860054B1B68FB60FB6840337A681A6000BF1437BD4680BC704708ED00E080B483B000AF0346FB71054AFB795B01DBB2137000BF0C37BD4680BC06
:401A8000704700BF00E400E080B400AF034B01221A6000BFBD4680BC704700BF00E100E080B400AF034B01221A6000BFBD4680BC704700BF80E100E080B500AF064B1022FF
:401AC0001A6006490420FFF72BFC07210420FFF74FFC00BF80BD00BF80E100E0ED1B000080B582B000AF0F2000F06CF800F05CF800F0BEFA0346FB71094A094B1B78DBB24A
:401B000043F01003DBB21370FB79184600F0B4FA044B10221A6000BF0837BD4680BD00BF9E64004000E100E080B500AF00F0C2F94FF4004000F0ECF9074B00221A60074BBD
:401B40001B78002B04D1FFF7B7FF044B01221A70FFF7C6FF00BF80BDB881FF1FB681FF1F80B582B000AF0D4B10221A6000F0E0F90346FB80FB88A3F500439BB2BB80B7F98A
:401B80000420074B1B6813443B60064B10221A603B6818460837BD4680BD00BF80E100E0B881FF1F00E100E080B400AF044B1B78DBB203F00F03DBB21846BD4680BC70476D
:401BC0006E64004080B483B000AF0346FB71FB7943F00703FB71044AFB79137000BF0C37BD4680BC704700BF8E64004080B483B000AF144B1B78FB71FB7903F00103002BB3
:401C000007D0114B1B6803F5FF437F330E4A13600AE0FB7903F00203002B05D00A4B1B68A3F50043084A1360FB7903F00403002B02D0054B00221A6000BF0C37BD4680BCD1
:401C4000704700BF6E640040B881FF1F80B500AF064B1B78002B04D100F00AF8034B01221A7000F051F800BF80BD00BFBC81FF1F80B582B000AF214B1B78DBB223F03F038A
:401C8000FB711E4AFB7943F00903DBB213701C4A1B4B1B78DBB243F00103DBB21370194A184B1B78DBB243F00103DBB213704FF6FF7000F039F84FF6FF7000F053F8002049
:401CC00000F060F8002000F06DF8002000F07AF800F0CEF90346BB710A4A0A4B1B78DBB243F01003DBB21370BB79184600F0C4F900F02AF800BF0837BD4680BD73640040B4
:401D0000926400409364004080B400AF054A054B1B78DBB263F07F03DBB2137000BFBD4680BC70477364004080B483B000AF0346FB80044AFB88138000BF0C37BD4680BC64
:401D4000704700BF0468004080B500AF01E000F055F800F047F8034603F01003002BF6D100BF80BD80B483B000AF0346FB80044AFB88138000BF0C37BD4680BC704700BFDE
:401D80008468004080B483B000AF0346FB80044AFB88138000BF0C37BD4680BC704700BF4468004080B483B000AF0346FB80044AFB88138000BF0C37BD4680BC704700BF21
:401DC0006468004080B483B000AF0346FB71044AFB79137000BF0C37BD4680BC704700BF8364004080B400AF034B1B78DBB21846BD4680BC704700BF6364004080B400AF9B
:401E0000034B1B889BB21846BD4680BC704700BFA468004080B582B000AF1C4B1B78DBB223F00703FB71194AFB791370174B1B78DBB223F00303FB71144AFB79137000F039
:401E4000B3F84FF4004000F08FF84FF4004000F05FF8002000F040F800F04EF84FF4004000F092F800F004F90346BB71084A084B1B78DBB243F01003DBB21370BB79184669
:401E800000F0FAF800BF0837BD4680BD7C6400409D64004080B400AF054A054B1B78DBB263F07F03DBB2137000BFBD4680BC70477C64004080B500AF064B1B78002B04D17D
:401EC000FFF7A8FF034B01221A70FFF7E3FF00BF80BD00BFBD81FF1F80B483B000AF0346FB71044AFB79137000BF0C37BD4680BC704700BF8D64004080B400AF034B1B789F
:401F0000DBB21846BD4680BC704700BF6D64004080B483B000AF0346FB80044AFB88138000BF0C37BD4680BC704700BF1868004080B400AF044B1B78044B1B889BB21846D9
:401F4000BD4680BC704700BF0C6400409868004080B400AF034B1B889BB21846BD4680BC704700BF9868004080B483B000AF0346FB80044AFB88138000BF0C37BD4680BCC9
:401F8000704700BF5868004080B483B000AF0346FB80044AFB88138000BF0C37BD4680BC704700BF7868004080B500AF01E0FFF7CFFFFFF7A1FF034603F04003002BF6D106
:401FC00000BF80BD80B582B000AF786000F03CF8786800F009F8002000F018F800F028F800BF0837BD4680BD80B485B000AF7860054B1B68FB60FB6844337A681A6000BF81
:402000001437BD4680BC704708ED00E080B483B000AF0346FB71054AFB795B01DBB2137000BF0C37BD4680BC704700BF01E400E080B400AF034B02221A6000BFBD4680BC47
:40204000704700BF00E100E080B400AF034B02221A6000BFBD4680BC704700BF80E100E00230800803D000BF01380046FCD17047EFF3108072B6704780F31088704700BF84
:4020800030B5214A21F00043934287B01BDD1F4A934205DD02460B4601F078F907B030BD02AA00F005F900F0030001281AD002280FD008B3DDE9020101230093DDE90423E8
:4020C00001F02AF8EAE70022002300F009FB07B030BDDDE90423DDE9020100F001FB01F10041DBE70090DDE90423DDE9020101F013F801F10041D1E7DDE90423DDE90201A5
:4021000000F0EEFACAE700BFFB21E93FFFFFEF7FC1F30A522DE9F843A2F2FF36132E0B4604460D46884607461CDC002E3FDB3A4A864642FA06F901EA0902024317D034A36F
:40214000D3E9002301F024F90022002301F062FD20B1002D40DB28EA0905002738462946BDE8F883332E06DDB6F5806F2FD020461946BDE8F883A2F213424FF0FF3929FA2B
:4021800002F910EA090FF2D021A3D3E9002301F0FFF80022002301F03DFD0028DED0002D20DB454627EA090738462946D8E718A3D3E9002301F0ECF80022002301F02AFD33
:4021C0000028CBD0002D18DB00273D46C6E702460B4601F0DDF8CCE74FF4801343FA06F6B044B8E7142E10D00123C6F1340603FA06F6371928BF9844D3E725F00042074B4B
:40220000224318BF1D460027A8E705F10108C8E79C7500883CE4377EFFFF0F000000F0BF30B5214A21F00043934287B01BDD1F4A934205DD02460B4601F0A8F807B030BDDB
:4022400002AA00F035F800F0030001281ED0022811D0DDE9042300B3DDE9020100F040FA01F10041EAE7002300930022002300F053FF07B030BD01230093DDE90201DDE9C2
:40228000042300F049FF01F10041D7E7DDE90423DDE9020100F024FAD0E70124DDE90201009400F039FFC9E7FB21E93FFFFFEF7F2DE9F04F944C21F00047A7428FB040F361
:4022C00081801446914A0E46974226DC84A3D3E90023002940F3A08101F058F88C4B80469F42894600F083807FA3D3E9002301F04DF802460B464046C4E90023494601F0CF
:4023000045F879A3D3E9002301F040F80125C4E9020128460FB0BDE8F08F7E4A974240F383807D4A974258DC3D15A5F21645A7EB05518B46824601F08DFC01F075F9804606
:40234000894642464B4650465946CDE9088901F01DF80022714B01F0CDF98B46824601F079FC01F061F98046894642464B4650465946CDE90A8901F009F80022674B01F031
:40238000B9F900220023CDE90C0101F01BFC002800F06A81002340464946002201F012FC002814BF012302235D480221019000912A46214608A800F0B7FA002EC0F24A81FE
:4023C000054606E0C2E9000100250024C2E90245002528460FB0BDE8F08F02460B4600F0D5FF0025C4E90201C4E90001F1E740A3D3E9002300F0CAFF3FA3D3E9002306460F
:402400000F4600F0C3FF02460B463046C4E90023394600F0BBFF38A3D3E9002300F0B6FF0125C4E90201D4E700F02CFF34A3D3E900238046894601F05DF90022394B00F05A
:40244000A7FF01F007FC054601F0EEF824A3D3E90023CDE9040101F04DF902460B464046494600F093FF20A3D3E9002382468B46DDE9040101F03EF91F2DCDE9020155DC74
:40248000294B6A1E53F822309F424FD002460B465046594600F07AFF02460B4681468846C4E900234A4643465046594600F06EFFDDE9022300F06AFF02460B46002EC4E9EB
:4024C000022386DA4A4608F1004301F1004184E80C00E160A0606D427BE700BFAFF3008000004054FB21F93F3163621A61B4D03D0000601A61B4D03D7370032E8A19A33B62
:4025000083C8C96D305FE43FFB21E93F7BD90240FB21F93FFB213941FFFFEF7F00007041885E00000000E03F085E0000DDE902235046594600F02AFF3F15C1F30A53FB1A69
:40254000102B81468846C4E90001ABDD58A3D3E90023DDE9040101F0CDF88046894602460B465046594600F011FFCDE9060102460B465046594600F009FF42464B4600F00B
:4025800005FF4DA3D3E9002380468946DDE9040101F0B0F842464B4600F0F8FE02460B46CDE90201DDE9060100F0F0FE0B4602468846C1F30A517F1A312F8146C4E900234D
:4025C00072DD3FA3D3E90023DDE9040101F092F88046894602460B46DDE9060100F0D6FE02460B4682468B46DDE9060100F0CEFE42464B4600F0CAFE33A3D3E900238046BF
:402600008946DDE9040101F075F842464B4600F0BDFECDE9020139E700F0BAFE2E4B80469F42894622D02AA3D3E9002300F0B0FE02460B464046C4E90023494600F0A6FE20
:4026400023A3D3E9002300F0A3FE4FF0FF35C4E90201BEE66268E36802F1004203F1004345426260E360B4E603239DE610A3D3E9002300F08DFE10A3D3E9002306460F46CD
:4026800000F086FE02460B463046C4E90023394600F07CFE08A3D3E9002300F079FE4FF0FF35C4E9020194E6DDE906ABFAE600BF0000601A61B4D03D7370032E8A19A33B09
:4026C0000000002E8A19A33BC14920259A837B393163621A61B4D03DFB21F93F000000002DE9F04F21F00046B6F1795F85B00C4692469B4605466BDA01F0ACFA002800F0DB
:40270000E7802A4623462846214600F0F3FF74A3D3E900238046894600F0ECFF72A3D3E9002300F035FE42464B4600F0E3FF70A3D3E9002300F02AFE42464B4600F0DAFF4E
:402740006DA3D3E9002300F023FE42464B4600F0D1FF6BA3D3E9002300F018FE42464B4600F0C8FF68A3D3E9002300F011FE42464B4600F0BFFFCDE900010022644B4046FF
:40278000494600F0B7FFDDE9002306460F464046494600F0AFFF5246804689465B462846214600F0A7FF02460B464046494600F0EDFD02460B463046394600F0E7FD02463C
:4027C0000B460020534900F0E1FD05B0BDE8F08F02460B4600F08EFF41A3D3E900238046894600F087FF40A3D3E9002300F0D0FD42464B4600F07EFF3DA3D3E9002300F08D
:40280000C5FD42464B4600F075FF3BA3D3E9002300F0BEFD42464B4600F06CFF38A3D3E9002300F0B3FD42464B4600F063FF36A3D3E9002300F0ACFD4B46424600F05AFF05
:40284000354BCDE900019E4297DD344B00229E4238DCA6F5001300202E4916461F4600F095FDCDE902010022294B4046494600F041FF32463B4600F089FDDDE90023064678
:402880000F464046494600F035FF5246804689465B462846214600F02DFF02460B464046494600F073FD02460B463046394600F06DFD02460B46DDE9020100F067FD05B06A
:4028C000BDE8F08F164B0026CDE90223154FCAE71049002005B0BDE8F08F00BFAFF30080D43888BEE9FAA8BDC4B1B4BD9EEE213EAD529C804F7E923E9015CB19A001FA3E85
:402900007751C1166CC1563F4C5555555555A53F0000E03F0000F03F3233D33F0000E93F0000E73F0000D23F2DE9F04F794CADF51D7D1F460B93D31E84FB0354DB17C3EB79
:40294000A403A69E744C23EAE37554F826406B1C26460994A3EB83037C1E0D95029402EBC3032D1B341904900A91089316D42C44013422AEA79F08E057F8250000F054FECA
:402980000135A542E6E9020108D0002DF4DA013500200021A542E6E90201F6D1099B002B2FDB099B74AADDF8089002EBC30B0DF5E47A029B002BC0F295810B9B0026C3EB31
:4029C000090824AB03EBC808049B0027A3F1080524AB03EBC904F5E9022374E8020100F089FE02460B463046394600F0D1FC444506460F46EFD1EAE90267DA4509F10109DB
:402A0000D7D1099B10A91D4603F18043023B9B001A1D0A440B440F920E939CAB03EBC503002D53E928672BDD9CAB03EBC504A83C0DF13C0A0DF5E47B0022384B304639466B
:402A400000F058FE01F006F900F0EEFD0022344B8046894600F04EFE02460B463046394600F094FC01F0F6F874E802234AF8040F4946404600F08CFC5C4506460F46DBD195
:402A8000089C30463946224600F002FC00224FF07F5306460F4600F02DFEFFF739FB0022204B00F027FE02460B463046394600F06DFC0F46064601F0CDF8814600F0B4FDC6
:402AC00002460B463046394600F060FC002C06460F4640F3EE80681E10AB53F82030C4F1180243FA02F101FA02F29B1AC4F1170810AA42F82030894443FA08F8B8F1000F35
:402B00003DDD002D09F1010940F3D382002214460FA911E0ABAAAA2A905F00000000703E0000704100002040C3F180700BB108600124013295420DDD51F8043F002CF3D06A
:402B4000C3F1FF13013203F57F4395420B604FF00104F1DC089B002B0DDD012B00F0B180022B08D16A1E10AB53F8223010A9C3F3150341F82230B8F1020F00F08180002285
:402B800000233046394601F01DF8002800F05B82099B05F1FF3B5B4510DC05F1804310AA013B0F9802EB8303002253F80419834242EA0102F9D1002A40F0B180099B10AAA8
:402BC000013B52F82330002B40F071820E9A012352F8041901330029FAD0E9186A1C8A420C914BDC0D990B985118DB0001F180410593A79B05440139E80003EB810A24AB70
:402C0000D20003EB000B74AB13440193A2F10803069007934FF000095AF8040F00F004FD029BEBE80201002B4FF000064FF000071BDB069B03EB0904079B09EB030824AB28
:402C40001C449844049BA3F10805F5E9022374E8020100F04FFD02460B463046394600F097FB444506460F46EFD1019B09F10809E3E802670193059B9945CDD10C9DCCE65A
:402C800032463B460020B04900F080FB06460F46002C3FF474AF089A0020AB4900F0F8FA02460B463046394600F070FB06460F4665E710D16B1E10AA52F823304FEAE358D1
:402CC0001CE76A1E10AB53F8223010A9C3F3160341F822304FE700229C4B00F091FF58B980464CE700260027EAE90267DA4509F101097FF45EAE84E6002D09F10109C8BFC8
:402D00004FF002083FF702AF32463B4600208E4900F03CFB4FF0020806460F462FE7089A10AB53F82B30183ACDF81490CDF8048008926BB90BF18043013B10A901EB830361
:402D400053F804190BF1FF3B183A0029F8D00892089A00207C4900F09BFABBF1000F04460D46C0F2B6814FEACB030DF5E87810AA02EB8B0608EB03090493043609F1080711
:402D800056F8040D00F050FC22462B4600F0B2FC002267E902016E4B2046294600F0AAFCB84504460D46EBD14B46CDF818B09B460DF5987ACDF808A0DDF824A04FF00009B1
:402DC000BAF1000FC0F226815DA3D3E90023DFF884815D4600260027002403E0A14510DBF8E90223F5E8020100F084FC02460B463046394600F0CCFA0134A24506460F46E6
:402E0000ECDA029BABF1080B03EBC903C3E9006772AB5B4509F10109D2D1A69BDDF818B0DDF808A0032B00F28380DFE813F0D100950095000400BBF1000F40F35481049BA6
:402E4000CDF808B053449846D3E90067D34658E9029A32463B464846514600F099FA04460D4602460B464846514600F08FFA32463B4600F08DFAC8E9000168E90245C34510
:402E800026462F46E3D1DA46DDF808B0BBF1010F40F32981049B0DF59C7B53449846D3E90067994659E902343046CDE902341A463946234600F06CFA04460D4602460B465A
:402EC000DDE9020100F062FA32463B4600F060FAC9E9000169E90245CB4526462F46E1D100231D4608F1080850AC184678E90223294600F04DFA444503460D46F5D1019AF0
:402F0000002A00F0D880DAF80440DAF80C200A9FDAF80010DAF8080005F1004504F1004402F100427D613B617C60FA603960B860059B03F007000DF51D7DBDE8F08F00BF83
:402F400000000040FB21F93F0000F03F0000E03F0000703EA05F000000242146049D0835554475E90223204600F012FA55450446F7D1019B002B50D00A9F01F100450B4617
:402F8000DAE9000187E83000224600F0FFF9BBF1000F03460D460DDD01241846FAE90223294600F0F5F90134A34503460D46F4DA019A0AB105F10045184629460A9BC3E90F
:402FC0000201059B03F007000DF51D7DBDE8F08F00231C46049A0832924418467AE90223214600F0D5F90BF1FF3BBBF1FF3F03460C46F2D1019A0AB104F100441846214664
:403000000A9BC3E90001059B03F007000DF51D7DBDE8F08F00260027F3E626460F4622460A9C0B46DAE90001C4E9006700F0AEF9BBF1000F03460D46AEDC184629460A9BDC
:40304000C3E90201BDE7089B30465A423946CDF81490CDF8048000F01BF900222C4B06460F4600F0CDFD002840D00022294B3046394600F03FFB00F0EDFD044600F0D4FA50
:403080000022234B00F036FB0B4602463946304600F07CF900F0DEFD089B05F1010B1833089310AB43F8250043F82B4050E6012393E500244EE51846DAE90067DAE90223BC
:4030C00029460A9DC5E90067C5E90401C5E902232EE7A69B032B3FF62BAFDFE803F0151010020DF5987A00231D4608E73046394600F0B0FD10ABAB4643F8250028E6002442
:4031000021460DF5987A34E700231C4672E700BF000070410000703E2DE9F04F21F00046B6F1795F85B00C4690469946054604DA00F090FD002800F085802A46234628468C
:40314000214600F0D7FA06460F4602460B462846214600F0CFFA3EA3D3E9002382468B463046394600F0C6FA3BA3D3E9002300F00DF932463B4600F0BDFA39A3D3E9002353
:4031800000F006F932463B4600F0B4FA36A3D3E9002300F0FBF832463B4600F0ABFA34A3D3E9002300F0F4F80E9BCDE900019BB30022334B4046494600F09CFADDE90023FC
:4031C000CDE902015046594600F094FA02460B46DDE9020100F0DAF832463B4600F08AFA42464B4600F0D2F823A3D3E9002306460F465046594600F07DFA02460B4630460E
:40320000394600F0C5F802460B462846214600F0BDF805B0BDE8F08F02460B463046394600F068FA14A3D3E9002300F0AFF852465B4600F05FFA2A46234600F0A9F805B0C8
:40324000BDE8F08F2846214605B0BDE8F08F00BF7CD5CF5A3AD9E53DEB9C2B8AE6E55A3E7DFEB157E31DC73ED561C119A0012A3FA6F810111111813F495555555555C53F36
:403280000000E03F21F00041704700BF00000000F8B5C1F30A5604460D460B46174606BB21F00043034325D000222F4B00F022FA2E4A044697420D460B462ADBC1F30A56CB
:4032C000363E40F2FE723E44964228DC002E12DD23F0FF4323F4E00343EA065520462946F8BD40F2FF729642EBD102460B4600F04FF8F8BDF8BD16F1350F1DDA4CF2503368
:403300009F420CDC14A1D1E9000122462B4600F031F811A3D3E9002300F0ECF9F8BD22460FA1D1E900012B4600F024F80CA3D3E9002300F0DFF9F8BD23F0FF4323F4E0039B
:40334000363643EA0655204629460022084B00F0D1F9F8BDAFF3008059F3F8C21F6EA5019C7500883CE4377E00005043B03CFFFF0000903C03F0004321F0004242EA0301D5
:40338000704700BF81F0004102E000BF83F0004330B54FEA41044FEA430594EA050F08BF90EA020F1FBF54EA000C55EA020C7FEA645C7FEA655C00F0E2804FEA5454D4EB0C
:4033C0005555B8BF6D420CDD2C4480EA020281EA030382EA000083EA010180EA020281EA0303362D88BF30BD11F0004F4FEA01314FF4801C4CEA113102D0404261EB410180
:4034000013F0004F4FEA03334CEA133302D0524263EB430394EA050F00F0A780A4F10104D5F1200E0DDB02FA0EFC22FA05F2801841F1000103FA0EF2801843FA05F35941EE
:403440000EE0A5F120050EF1200E012A03FA0EFC28BF4CF0020C43FA05F3C01851EBE37101F0004507D54FF0000EDCF1000C7EEB00006EEB0101B1F5801F1BD3B1F5001F82
:403480000CD349085FEA30004FEA3C0C04F101044FEA445212F5800F80F09A80BCF1004F08BF5FEA500C50F1000041EB045141EA050130BD5FEA4C0C404141EB010111F45C
:4034C000801FA4F10104E9D191F0000F04BF01460020B1FA81F308BF2033A3F10B03B3F120020CDA0C3208DD02F1140CC2F10C0201FA0CF021FA02F10CE002F11402D8BF10
:40350000C2F1200C01FA02F120FA0CFCDCBF41EA0C019040E41AA2BF01EB0451294330BD6FEA04041F3C1CDA0C340EDC04F11404C4F1200220FA04F001FA02F340EA030015
:4035400021FA04F345EA030130BDC4F10C04C4F1200220FA02F001FA04F340EA0300294630BD21FA04F0294630BD94F0000F83F4801306BF81F480110134013D4EE77FEA12
:40358000645C18BF7FEA655C29D094EA050F08BF90EA020F05D054EA000C04BF1946104630BD91EA030F1EBF0021002030BD5FEA545C05D14000494128BF41F0004130BD72
:4035C00014F580043CBF01F5801130BD01F0004545F0FE4141F470014FF0000030BD7FEA645C1ABF194610467FEA655C1CBF0B46024650EA013406BF52EA033591EA030FC9
:4036000041F4002130BD00BF90F0000F04BF0021704730B54FF4806404F132044FF000054FF0000150E700BF90F0000F04BF0021704730B54FF4806404F1320410F0004507
:4036400048BF40424FF000013EE700BF42004FEAE2014FEA31014FEA02701FBF12F07F4393F07F4F81F06051704792F0000F14BF93F07F4F704730B54FF4607401F00045BF
:4036800021F0004120E700BF50EA010208BF704730B54FF000050AE050EA010208BF704730B511F0004502D5404261EB41014FF4806404F132045FEA915C3FF4DCAE4FF0D3
:4036C00003025FEADC0C18BF03325FEADC0C18BF033202EBDC02C2F1200300FA03FC20FA02F001FA03FE40EA0E0021FA02F11444C1E600BF70B54FF0FF0C4CF4E06C1CEAA4
:4037000011541DBF1CEA135594EA0C0F95EA0C0F00F0DEF82C4481EA030621EA4C5123EA4C5350EA013518BF52EA033541F4801143F4801338D0A0FB02CE4FF00005E1FBCB
:4037400002E506F00042E0FB03E54FF00006E1FB03569CF0000F18BF4EF0010EA4F1FF04B6F5007F64F5407404D25FEA4E0E6D4146EB060642EAC62141EA55514FEAC520F7
:4037800040EA5E504FEACE2EB4F1FD0C88BFBCF5E06F1ED8BEF1004F08BF5FEA500E50F1000041EB045170BD06F0004646EA010140EA020081EA0301B4EB5C04C2BFD4EB6E
:4037C0000C0541EA045170BD41F480114FF0000E013C00F3AB8014F1360FDEBF002001F0004170BDC4F10004203C35DA0C341BDC04F11404C4F1200500FA05F320FA04F0F5
:4038000001FA05F240EA020001F0004221F0004110EBD37021FA04F642EB06015EEA430E08BF20EAD37070BDC4F10C04C4F1200500FA04F320FA05F001FA04F240EA0200C8
:4038400001F0004110EBD37041F100015EEA430E08BF20EAD37070BDC4F1200500FA05F24EEA020E20FA04F301FA05F243EA020321FA04F001F0004121FA04F220EA020025
:4038800000EBD3705EEA430E08BF20EAD37070BD94F0000F0FD101F00046400041EB010111F4801F08BF013CF7D041EA060195F0000F18BF704703F00046520043EB030366
:4038C00013F4801F08BF013DF7D043EA0603704794EA0C0F0CEA135518BF95EA0C0F0CD050EA410618BF52EA4306D1D181EA030101F000414FF0000070BD50EA410606BF53
:403900001046194652EA430619D094EA0C0F02D150EA013613D195EA0C0F05D152EA03361CBF104619460AD181EA030101F0004141F0FE4141F470014FF0000070BD41F0FF
:40394000FE4141F4780170BD70B54FF0FF0C4CF4E06C1CEA11541DBF1CEA135594EA0C0F95EA0C0F00F0A7F8A4EB050481EA030E52EA03354FEA013100F088804FEA033361
:403980004FF0805545EA131343EA12634FEA022245EA111545EA10654FEA00260EF000419D4208BF964244F1FD0404F5407402D25B084FEA3202B61A65EB03055B084FEA3F
:4039C00032024FF480104FF4002CB6EB020E75EB030E22BFB61A754640EA0C005B084FEA3202B6EB020E75EB030E22BFB61A754640EA5C005B084FEA3202B6EB020E75EBC8
:403A0000030E22BFB61A754640EA9C005B084FEA3202B6EB020E75EB030E22BFB61A754640EADC0055EA060E18D04FEA051545EA16754FEA06164FEAC30343EA52734FEA18
:403A4000C2025FEA1C1CC0D111F4801F0BD141EA00014FF000004FF0004CB6E711F4801F04BF01430020B4F1FD0C88BFBCF5E06F3FF6AFAEB5EB030C04BFB6EB020C5FEAA1
:403A8000500C50F1000041EB045170BD0EF0004E4EEA113114EB5C04C2BFD4EB0C0541EA045170BD41F480114FF0000E013C90E645EA060E8DE60CEA135594EA0C0F08BF5E
:403AC00095EA0C0F3FF43BAF94EA0C0F0AD150EA01347FF434AF95EA0C0F7FF425AF104619462CE795EA0C0F06D152EA03353FF4FDAE1046194622E750EA410618BF52EA18
:403B000043067FF4C5AE50EA41047FF40DAF52EA43057FF4EBAE12E74FF0FF3C06E000BF4FF0010C02E000BF4FF0010C4DF804CD4FEA410C7FEA6C5C4FEA430C18BF7FEA32
:403B40006C5C1BD001B050EA410C0CBF52EA430C91EA030F02BF90EA020F0020704710F1000F91EA030F58BF994208BF90422CBFD8176FEAE37040F0010070474FEA410C38
:403B80007FEA6C5C02D150EA013C07D14FEA430C7FEA6C5CD6D152EA033CD3D05DF8040B704700BF8446104662468C461946634600E000BF01B5FFF7B7FF002848BF10F187
:403BC000000F01BD4DF808EDFFF7F4FF0CBF012000205DF808FB00BF4DF808EDFFF7EAFF34BF012000205DF808FB00BF4DF808EDFFF7E0FF94BF012000205DF808FB00BF94
:403C00004DF808EDFFF7CEFF94BF012000205DF808FB00BF4DF808EDFFF7C4FF34BF012000205DF808FB00BF4FEA410C7FEA6C5C02D150EA013C0AD14FEA430C7FEA6C5C09
:403C400002D152EA033C02D14FF0000070474FF0010070474FEA410212F5001215D211D56FF47873B3EB625212D94FEAC12343F0004343EA505311F0004F23FA02F018BFB0
:403C8000404270474FF00000704750EA013005D111F0004008BF6FF0004070474FF00000704700BF4A0011D212F5001211D20DD56FF47873B3EB62520ED44FEAC12343F0A4
:403CC000004343EA505323FA02F070474FF00000704750EA013002D14FF0FF3070474FF000007047014B1868704700BF4481FF1F0E4B70B51E460E4C0025E41AA410A5427D
:403D000004D056F8253098470135F8E702F01AFA084B094C1E46E41AA4100025A54204D056F8253098470135F8E770BD50610000506100005061000058610000024B014650
:403D4000186800F063B800BF4481FF1F10B5431E0A44914204D011F8014B03F8014FF8E710BD03460244934202D003F8011BFAE77047000038B50546002944D051F8043CCC
:403D80000C1F002BB8BFE41801F084FB1E4A1368114613B96360146030E0A3420DD92268A018834201BF18685B681218226063600C6023E0A24203D813465A68002AF9D1FC
:403DC00018681918A1420BD12168014458188242196013D110685268014419605A600DE002D90C232B6009E021686018824201BF106852680918216062605C602846BDE8F5
:403E0000384001F048BB38BDC481FF1F70B5CD1C25F0030508350C2D38BF0C25002D064601DBA94202D90C23336046E001F032FB234B1C681A462146A1B10B685B1B0ED4FE
:403E40000B2B03D90B60CC18CD501EE08C420BBF63684B681360636018BF0C4615E00C464968E9E7174C23681BB9304600F09EFC20602946304600F099FC431C18D0C41CB6
:403E800024F00304A0420DD12560304601F003FB04F10B00231D20F00700C31A0ED05A42E25070BD211A304600F080FC0130EBD10C233360304601F0EEFA002070BD00BF09
:403EC000C481FF1FC081FF1F2DE9F04788B0149F002B1E461299B8BF03F1004327F02007B6BF1E4600232D23462F1446109DDDF84CA00B7003D0452F03D1013501E0032346
:403F000000E0022307AA049206AA03928DE828042246334600F014FD472F804602D1119BDB0728D5462F08EB050911D198F80030302B0AD10022002320463146FFF742FE2D
:403F400018B9C5F10105CAF80050DAF8003099440022002320463146FFF734FE08B9302202E0CDF81C9006E0079B994503D9591C07911A70F8E74046079B159AC8EB0303CB
:403F8000136008B0BDE8F087034673B50029B8BF494203F8022BB4BF2D222B22092942701ADD0DF1070216460A2591FBF5F405FB1411092C01F1300102F8011D2146F4DC39
:403FC0003031541E02F8011CB4421A460AD214F8012B03F8012BF7E71A463024214402F8024B5970101A02B070BD00002DE9F04F91B00C46DDF8688016461F46054601F094
:4040000037FA03681846099300F004FC00230E93D8F800300A90073323F0070303F1080294F81890D4F800B0C8F80020D3E90023C4E91223D4F84CA0D4F848802AF000434D
:404040000B934FF0FF32A74B40460B99FFF7ECFDA0B94FF0FF32A34B40460B99FFF7C6FD60B90022002340465146FFF7B5FD10B12D2384F843309C4B9C4A0AE042465346A2
:4040800040465146FFF7D0FD002800F09281984B984AB9F1470F8CBF90469846032323612BF0040323604FF0000A3DE0B9F1670F00F08A81B9F1470F00F086812360019353
:4040C000636800210DF13302059002920093424653460691CDF81090CDF80CE02846FFF7F3FE09F0DF03472B804600F08481B9F1650F0D9900F28D8101394A4604F15000E7
:404100000D91FFF741FF0E9A82468318012A236100F37C812268D10700F178819DF8333013B12D2384F84330009733460FAA2146284600F09FF9013002D14FF0FF3096E1AB
:4041400023685A0501D4236965E0B9F1650F40F2D580D4E9120100220023FFF733FD78B30123654A31462846B8470130E5D00E9B0D9A9A420BDB2368D80708D423689B0782
:4041800040F111814FF0000804F1190906E10A9B099A31462846B8470130CED04FF0000804F11A090E9B013B9845E7DA01234A4631462846B8470130BFD008F10108F1E7E8
:4041C0000D9B002B29DC01234B4A31462846B8470130B2D00D9B23B90E9B13B92368D907CCD50A9B099A31462846B8470130A4D04FF0000904F11A0A0D9B5B42994509DA5A
:404200000123524631462846B847013095D009F10109F1E70E9B4246A7E00E9AA36D9A42A8BF1A46002A914606DC4FF0000A29EAE97904F11A0B11E01346314642462846E7
:40424000B8470130F1D178E701235A4631462846B84701303FF471AF0AF1010AA36DC9EB03029245F0DB08EB03090D9A0E9B9A420FDB2368DA070CD40E9B0D9A9844C9EB0F
:4042800008089B1A9845A8BF9846B8F1000F08DC0FE00A9B099A31462846B8470130EBD14BE743464A4631462846B84701303FF444AF4FF0000928EAE87804F11A0A09E031
:4042C0000123524631462846B84701303FF435AF09F101090D9A0E9B9B1AC8EB03039945EEDB4BE7FFFFEF7FE25F0000E65F0000EA5F0000EE5F0000F25F00000E9A012A8F
:4043000001DCDB0738D50123424631462846B84701303FF412AF0A9B099A31462846B84701303FF40AAFD4E9120100220023FFF749FC20B14FF0000804F11A090EE00E9B9C
:4043400008F10102013B19E001234A4631462846B84701303FF4F1AE08F101080E9B013B9845F1DB534604F1500231462846B84701307FF403AFE0E6424601233146284670
:40438000B8470130EED1D8E601234A4631462846B84701303FF4D1AE08F10108E3680F9A9B1A9845F0DBE0680F9B9842B8BF18465DE062680EA8531C0DF1340E4BF4806353
:4043C0007FF474AE062201E012B90122626075E6002106910DF133018DE80C00236005904246CDF81090CDF80CE0029153462846FFF76AFD80460D9BD81C02DB626893421E
:404400001DDDA9F102095FFA89F970E60133236184E6B9F1660F14D10029636807DD216113B92268D2071DD501330B4419E013B92268D00701D5023313E0012311E04FF010
:4044400067090D9B0E9A934205DB22682361D10708D5013305E0002BD4BFC3F102030123134423610D9B4FF0000AA36556E611B0BDE8F08F2DE9F04791461F460A698B686C
:4044800006469342B8BF1346C9F8003091F843200C46DDF8208012B10133C9F800302368990642BFD9F800300233C9F80030256815F0060510D104F1190A07E001235246F4
:4044C00039463046C04701301AD00135E368D9F800209B1A9D42F1DB94F843302268003318BF012392060FD5E118302081F843005A1C94F845102244023382F8431003E0F9
:404500004FF0FF30BDE8F08704F1430239463046C0470130F4D02268D9F80050E36802F00602042A08BF5D1B2269A3680CBF25EAE57500259342C4BF9B1AED184FF0000920
:404540001A344D4509D00123224639463046C0470130D5D009F10109F3E70020BDE8F0872DE9F04317460A7E85B06E2A984606460C460C9B01F1430E00F0AE8011D8632A15
:4045800022D009D8002A00F0BB80582A40F0CA8081F84520834955E0642A1ED0692A1CD0C0E0732A00F0B08009D86F2A2ED0702A40F0B8800A6842F020020A603EE0752A39
:4045C00024D0782A3AD0ADE01A6801F14205111D1960136884F84230A8E021681A6811F0800F02D0111D196008E011F0400F02F10401196002D0B2F9003000E01368002B4B
:404600003CDA2D225B4284F8432037E021681A6811F0800F02D0111D196007E011F0400F02F10401196001D0138800E01368227E5C496F2A14BF0A2208221BE078225A49C0
:4046400084F845202268186812F0800F00F104051D6003D1550601D5038800E00368D00744BF42F0200222601BB9226822F0200222601022002084F8430001E049490A22F8
:404680006568002DA56008DB206820F0040020602BB9002D7DD175460CE0002B79D07546B3FBF2F002FB1033CB5C05F8013D03460028F5D1082A0BD12368DA0708D523697B
:4046C00062689A42DEBF302305F8013C05F1FF35C5EB0E0323612EE008681A6810F0800F496903D0101D1860136808E010F0400F02F104001860136801D0198000E0196063
:4047000000232361754616E01A68111D1960156800216268284600F0AFFE08B1401B6060636804E004F1420584F8422001232361002384F84330CDF800803B4603AA214654
:404740003046FFF797FE013002D14FF0FF3026E023692A4639463046C0470130F5D023689B0710D5002504F1190907E001234A4639463046C0470130E7D00135E368039AE7
:404780009B1A9D42F2DBE068039B9842B8BF184605E00B7804F1420584F842308AE705B0BDE8F083F45F00000560000038B5064C0023054608462360FCF73AFB431C02D1A3
:4047C000236803B12B6038BD5083FF1F0EB400B54FF402719CB0ADF814106FF00041049107914FF6FF711DAB02900690084853F8042BADF81610006802A9019301F08AF9A5
:40480000029B00221A701CB05DF804EB03B070474481FF1F034613F8012B002AFBD1181A013870472DE9F74F03690C6980469C427FDC013C01F114074FEA840E00F11406DE
:4048400006EB0E0357F82450019356F824300135B3FBF5F507EB0E09C5B34FF0000A3846B446D34650F8043B9AB205FB02A21B0C4FEA124A05FB03A392B2C2EB0B0BBCF880
:4048800000204FEA134A5A441FFA83FBDCF800308145CBEB134303EB224392B242EA03424FEA234B4CF8042BDCD256F80E306BB9019B043B9E421A4602D3C8F8104005E0D2
:4048C0001268043B002AF8D1013CF3E7404600F0F0FF00282BDB304601354FF0000E57F8042B036891B2C1EB0E0E120C99B27144C2EB134303EB214389B24FEA234EB9451F
:4049000041EA034340F8043BE9D256F8242006EB840362B9043B9E421A4602D3C8F8104005E01268043B002AF8D1013CF3E7284600E0002003B0BDE8F08F0000000000005E
:404940002DE9F04F456A95B08246219CCDE9022345B91020FFF7F2F9CAF82400456085600560C560DAF82430196859B15A68012393404A608B60504600F0C3FDDAF824301A
:4049800000221A60039BA04A002BBDBF01232360039B0023BCBF23F000430393DDF80C80A8BF236028F000431B0D1B0593421DD142F20F73209A1360029B43B9934A944B74
:4049C000C8F31300002814BF1846104600E09048229B002B00F04685C37813B100F1080300E0C31C229A136000F03CBDDDE902450022002320462946FFF7E4F8074658B1BE
:404A0000209A01231360229B002B00F01E8581481860013800F026BD12AB019313AB009322462B46504600F0BFFFC8F30A56049056B1C5F3130343F07F51204641F440112B
:404A4000A6F2FF3611971DE0139B129E1E4406F23243202B0ADD029A06F21240C3F1400322FA00F008FA03F3184304E0C3F12000029B03FA00F0FEF7C7FD0123A1F1F8710F
:404A8000013E11930022644BFEF780FC58A3D3E90023FEF72FFE58A3D3E90023FEF778FC044630460D46FEF7BFFD55A3D3E90023FEF720FE02460B4620462946FEF768FC1D
:404AC00004460D46FFF7C6F800228346002320462946FFF781F858B15846FEF7A5FD02460B4620462946FFF76DF808B90BF1FF3BBBF1160F0DD8DDE90223484901EBCB012B
:404B0000D1E90001FFF786F830B10BF1FF3B002300E00123109300E01090129B9E1B731E079343BFC3F10008002307934FF00008BBF1000F06DB079BCDF82CB05B4407937A
:404B4000002705E00023CBEB0808CBF100070B931E9B092B28D8052BC4BF043B1E931E9BC8BF0025A3F10203D8BF0125032B20D8DFE803F0060E0204012302E0012308E088
:404B800000230A931F9B002B1DDD9946059321E000230A931F9B0BEB030909F10103012B0593B8BF012315E0012500231E930A9501E001230A934FF0FF390022CDF81490D3
:404BC00012231F9206E04FF001094B46CDF81490CDF87C90DAF8244000226260042101F114029A421CD86268490001326260F6E761436F63A787D23FB3C8608B288AC63F07
:404C0000FB799F501344D33F0000F07F166000001F600000F35F00000000F83F306000006168504600F038FCDAF8243020601B680693059B0E2B00F25B81002D00F0588149
:404C4000DDE90234BBF1000FCDE90E3430DD9F4A0BF00F034FEA2B1502EBC303E80618CBCDE908340CD5DDE90E01994B05F00F05D3E90823FEF768FE0324CDE9020100E0EE
:404C80000224934E6DB1E90708D5DDE90801D6E90023FEF72FFDCDE9080101346D100836F0E7DDE90823DDE90201FEF74DFE20E0CBF1000505B3DDE90E01844B05F00F028D
:404CC00003EBC203D3E90023FEF714FDCDE902017F4E2D110023022455B1EA0705D5D6E90023FEF707FD013401236D100836F3E71BB1CDE9020100E00224109BE3B1DDE9E5
:404D000002560022734B28463146FEF765FF98B1059B8BB1B9F1000F40F3E6800BF1FF330893314600226C4B2846FEF7E3FC0134CDE902014E4602E0059ECDF820B0204629
:404D4000FEF772FCDDE90223FEF7D4FC634B0022FEF71EFBA1F1507304460C931D46D6B9DDE9020100225E4BFEF710FB22460C9BCDE90201FEF74EFF002840F03F820C99B6
:404D8000224601F10043DDE90201FEF725FF002840F02B82A8E00A9A4C4B711E002A49D003EBC103D3E9002300204E49FEF7CCFD22462B46FEF7EAFACDE90C01069CDDE9F7
:404DC0000201FEF747FF0546FEF72EFC02460B46DDE90201FEF7DAFADDE90C23303504F8015BCDE90201FEF7F7FE002840F01D83DDE9022300203749FEF7C8FADDE90C235C
:404E0000FEF7EAFE002840F0D180069BE31AB3426ADADDE90C0100222F4BFEF76BFC0022CDE90C01DDE902012B4BFEF763FCCDE90201C4E703EBC1012246D1E900012B462A
:404E4000FEF758FC069BCDE90C011D469C19DDE90201FEF7FFFE0646FEF7E6FB02460B46DDE90201FEF792FA303605F8016BAC42CDE902014FF0000222D11A4BDDE90C01CB
:404E8000FEF786FA02460B46DDE90201FEF7C2FE002840F08B80DDE90C2300201149FEF775FA02460B46DDE90201FEF795FED8B114F8013C621E302B40F0B7821446F7E7F8
:404EC000054BFEF717FCCDE90201C0E730600000086100000000F03F0000244000001C40000014400000E03FDDE90E34CDE90234139B002B7CDBBBF10E0F79DCAB4B03EB79
:404F0000CB03D3E900671F9B002B14DA059B002B11DC40F06C810022A54B30463946FEF7E9FBDDE90223FEF76BFE059D2E46002840F05F8165E1069CDDE9028932463B462F
:404F400040464946FEF700FDFEF784FE0546FEF76BFB32463B46FEF7CDFB0B46024649464046FEF713FA05F1300E069B04F801EBC3EB040E059B73452DD102460B46FEF746
:404F800007FA8046894602460B4630463946FEF723FE78B942464B4630463946FEF712FE002800F04482EB0704D440E2DDF820B000E01C4614F8012C631E392A07D1069A2D
:404FC0009A42F6D1069930220BF1010B0A701A7801321A702BE20022764BFEF78BFB0022002380468946FEF7EDFD0028A6D01EE20A9A002A2BD01E9A012A0ADC119A12B18A
:4050000003F2334302E0129BC3F136033D46444613E0059B5D1EAF42BFBF0B9BEA1B9B180B93059BB6BF2F467D1B0025002BA7BF4446059BC3EB08040023079A01211A4403
:4050400050469844079200F0FBFA064602E03D4644460A9E5CB1079B002B08DDA342A8BF2346079AC3EB0808E41AD31A0793002F1DDD0A9BABB18DB131462A46504600F030
:4050800079FB049A01460646504600F0E2FA04990890504600F035FA089B04937A1B06D000E03A460499504600F064FB04900121504600F0C5FA0B9B05465BB31A460146D7
:4050C000504600F057FB1E9B0546012B18DC029B83B9039BC3F3130373B9039B23F000473F0D3F054FB1079B08F1010801330793012702E0002700E0029F0B9B73B100E0EF
:4051000000272B6905EB8303186900F04CFAC0F1200004E01E9B012BD9DD0B9F0120079B184410F01F0008D0C0F12003042B02DDC0F11C0002E006D018461C30079B804400
:40514000034404440793B8F1000F05DD42460499504600F05DFB0490079B002B05DD29461A46504600F054FB0546109B23B32946049800F09EFB00281EDA00230A22049916
:40518000504600F0D5F90A9B0BF1FF3B0490002B00F05F81314600230A22504600F0C8F9B9F1000F06463FDC3BE000BF306000000000144000002440059B002B2BDC1E9B57
:4051C000022B28DDDDF81490B9F1000F11D129464B460522504600F0ABF901460546049800F067FB00280CDC03E0354600E000252E461F9B069C6FEA030B09E03546DDF8B5
:4052000020B0069B069A5C1C312313700BF1010B05960026F7E00A9BDDF8149023B9069CB2E01E9B022BCFDC002C05DD31462246504600F0EDFA06469FB17168504600F05A
:405240002BF90446326906F10C01023292000C30FEF77CFD01222146504600F0D9FA059000E00596029B069F03F00103079329460498FFF7D7FA3146044600F13008049893
:4052800000F017FB059A02902946504600F02DFBC36802463BB901460A90049800F009FB0A9A034600E00123114650460A9300F028F90A9B53B91E9A42B9079A32B9B8F1A1
:4052C000390F2AD0029B002B1CDC1DE0029A002A04DB1BD11E9ACAB9079ABAB9002B13DD01220499504600F093FA2946049000F0E0FA002803DC07D118F0010F04D0B8F1A0
:40530000390F0AD004F131087C1C0CE0002B07F101040BDDB8F1390F03D139233B70013756E008F1010887F800806CE0069B2746E31A4B4504F8018C3BD000230A220499E7
:40534000504600F0F5F8059B04909E424FF00A024FF000033146504604D100F0E9F80646059084E700F0E4F8002306460A220599504600F0DDF8059079E700230A220499D9
:40538000504600F0D5F8049029460498FFF74AFA069B00F1300804F8018BE31A4B45ECDB069B0596B9F1010FACBF4B4401331F46002601220499504600F02AFA29460490FF
:4053C00000F077FA002803DC15D118F0010F12D03C4614F8013C621E392B09D1069B934204D10BF1010B3123069A02E01446F0E70133137007E03C4614F8013C621E302B3E
:4054000001D11446F8E72946504600F07AF8059B6BB12EB19E4203D03146504600F071F80599504600F06DF801E0DDF820B00499504600F066F80023209A23700BF1010346
:405440001360229B1BB11C6001E008480AE0069808E0B9F1000F3FF7E2AE1E9B022B7FF7DEAEB1E615B0BDE8F08F00BFF25F0000004870474881FF1F10B5C9B202449042DE
:40548000034605D01C7801308C42F8D1184610BD002010BD7047704770B5456A04460E463DB91020FEF74AFC6062456085600560C560656AEB6843B1636ADB6853F82600AC
:4054C00078B1026843F8262017E021220421204600F0B8FA636AE860DB68002BECD1002070BD012101FA06F56A1D9200204600F0A9FA0028F3D04660856000230361C3605A
:4055000070BD70B5446A06460D463CB91020FEF715FC7062446084600460C4603DB1736A6A68DB6853F82210296043F8225070BD2DE9F04106460C460D691F4601F1140E2B
:405540000023DEF80000013381B202FB0171000C0F0C02FB007089B201EB00419D424FEA10474EF8041BECDCD7B1A3689D4212DB616830460131FFF78FFF8046226904F12A
:405580000C01023292000C30FEF7E0FB21463046FFF7B7FF444604EB850301355F6125612046BDE8F081030C1B0413B90004102300E0002310F07F4F04BF0002083310F088
:4055C000704F04BF0001043310F0404F04BF80000233002803DB420003D5581C70471846704720207047036813F007020BD0D90722D49A074BBF5B089B08036003604CBFE9
:4056000001200220704799B209B91B0C102213F0FF0F04BF1B0A0832190704BF1B090432990704BF9B080232D90702D45B0805D00132036010467047002070472020704701
:4056400010B50C460121FFF727FF01224461026110BD2DE9F74F14460A69236988469A42BEBF0B46A0461C46D8F81070D4F81090D8F80830D8F8041007EB09069E42C8BF58
:405680000131FFF709FF00F114052B4605EB860C0022634502D243F8042BFAE704F1140208F1140102EB890301EB87070093009B0192934257D9B2F800B0BBF1000F23D0FA
:4056C0008946AE464FF0000859F8044BBEF800A0A3B20BFB03A34FEA144ADEF8004043444FEA14480BFB0A84F24604EB13449BB243EA04434F454FEA14484AF8043B01D989
:40570000D646E1E7CEF80480019B0432B3F802A0BAF1000F21D02C4689462B684FF00008B9F800E0B4F802B09BB20AFB0EBEA346F04443EA08434BF8043B59F8043BB4F8F6
:4057400004E01B0C0AFB03E34F4503EB18434FEA134801D95C46E3E763600435A7E75CF8043D13B9013E002EF9DC066103B0BDE8F08F00002DE9F843154612F00302064612
:405780000F4607D0214C013A002354F82220FFF7CFFE0746AD1036D0746A3CB91020FEF7CDFA7062446084600460C460D6F82480D8F808404CB940F271213046FFF740FFF2
:4057C00004460023C8F8080003604FF00008EB070AD5394622463046FFF73BFF814639463046FFF78EFE4F466D100CD0206808B10446ECE7224621463046FFF72AFF2060FE
:40580000C0F80080F4E73846BDE8F883F86000002DE9F0470C460746914626694FEA621A56444968A368751CAB4202DA01315B00FAE73846FFF730FE002380461A4600F15E
:405840001401534503DA41F823200133F9E72AEAEA73206901EB830319F01F0904F1140101EB800E14D0C9F1200C002208689A4600FA09F0024343F8042B51F8042B8E45C4
:4058800022FA0CF2F2D8CAF8042042B1B51C06E0043B51F8042B8E4543F8042FF9D8013D3846C8F810502146FFF72BFE4046BDE8F08703690A6910B59B1A11D19200143096
:4058C000143183180A4453F8044D52F8041D8C4202D007D3012010BD9842F4D3002010BD184610BD4FF0FF3010BD2DE9F8430C460746114620461546FFF7DBFF061E08D142
:4059000031463846FFF7C8FD012303614661BDE8F883BCBF23462C4638466168BABF1D4601260026FFF7B8FD2B69C660266905F1140904F1140101EB860709EB830800F1A8
:4059400014054FF0000C51F8042B59F8044B93B29C44A3B2240CC3EB0C03C4EB124202EB23429BB24FEA224CC84543EA02428E4645F8042BE7D8BE450ED25EF8041B8AB2EA
:405980006244131403EB114392B242EA03424FEA234C45F8042BEEE755F8043D0BB9013EFAE70661BDE8F8832DE9F3411C4601219046089E099DFFF76FFDC4F31302C4F36C
:4059C0000A5407460CB142F480120192B8F1000F19D002A840F8088DFFF705FE009B48B1019AC0F1200102FA01F10B43C2407B61019200E07B61019B002B14BF022101218A
:405A0000BB61396107E001A8FFF7EDFD019B01217B613961203034B1A4F2334404443460C0F1350009E0A0F2324007EB810330601869FFF7B8FDC0EB41102860384602B035
:405A4000BDE8F08138B502FB01F42146FEF7DEF9054618B122460021FEF783F9284638BD2DE9F0478E6882469E420C46914698463ED88A8912F4906F3AD02568096902233F
:405A80006F1A656905EB450595FBF3F57B1C43449D4238BF1D4653050FD52946FEF7B6F9064698B13A462169FEF750F9A38923F4906343F08003A38113E02A4600F039F9C5
:405AC000064670B921695046FEF754F90C23CAF80030A3894FF0FF3043F04003A381BDE8F08726613E44266046466561ED1BA560464528BF464649463246206800F0FEF8FD
:405B0000A36800209B1BA36023681E442660BDE8F08700002DE9F04F9DB003938B8980461C060D4616460DD50B695BB94021FEF76DF92860286118B90C23C8F80030CDE03B
:405B400040236B610023099320238DF82930DFF89CB130238DF82A3037463C4614F8013B1BB9B7EB060910D003E0252BF9D02746F3E74B46324629464046FFF771FF01303C
:405B800000F0A780099B4B4409933B78002B00F0A08000234FF0FF3204930793059206938DF853301A930126052221784E48FFF763FC671C049B38B14B4A3C46801A06FADA
:405BC00000F018430490EFE7D90644BF20228DF853201A0744BF2B228DF8532022782A2A03D0079A00210A200BE0039A111D12680391002A10DA524243F0020007920490F0
:405C00000BE027463B780134303B092B03D800FB02320121F5E701B107923B782E2B1ED17B782A2B0AD1039B02371A1D1B680392002BB8BF4FF0FF33059310E000231946D1
:405C40000593781C0A2407463A780130303A092A03D804FB01210123F5E703B10591032239782248FFF708FC40B14023CBEB000003FA00F0049B01371843049039780622E7
:405C80001B487E1C8DF82810FFF7F6FB88B1194B33B9039B073323F007030833039314E003AB00932A46144B04A94046FEF79EF907E003AB00932A460F4B04A94046FEF717
:405CC0004FFCB0F1FF3F824603D0099B5344099342E7AB895B0601D4099801E04FF0FF301DB0BDE8F08F00BF30610000366100003A610000ED3F0000615A0000884210B59C
:405D000001EB020301D8421E0BE09842FBD28118D21AD34204D013F8014D01F8014DF8E710BD994204D011F8014B02F8014FF8E710BDF8B5074615460E4621B91146BDE874
:405D4000F840FEF763B81AB9FEF714F82846F8BD00F015F885420ED929463846FEF756F8044650B131462A46FDF7F0FF31463846FEF700F801E03046F8BD2046F8BD51F8A2
:405D8000040C0028BEBF091851F8043CC01804387047000000000000B87E60450AD7A33C112D4454FB211940646573697265643A20256C662C2061637475616C3A20256CF1
:405DC000662C2064633A256C660A0000305100404000F0510040100000000140800800090140000700140140000800400140000A004C014000020050014020008008014052
:405E0000280C004880000000FB21F93FFB2109407CD91240FB2119407A6A1F407CD92240BBFD2540FB2129403A462C407A6A2F405C4731407CD932409C6B3440BBFD354033
:405E4000DB8F3740FB2139401BB43A403A463C405AD83D407A6A3F404C7E40405C4741406C1042407CD942408CA243409C6B4440AC344540BBFD4540CBC64640DB8F47402C
:405E8000EB584840FB21494083F9A200444E6E00FC291500D1572700DD34F50062DBC0003C999500419043006351FE00BBDEAB00B761C5003A6E2400D24D42004906E0001B
:405EC00009EA2E001C92D100EB1DFE0029B11C00E83EA700F535820044BB2E009CE98400B4267000417E5F00D6913900538339009CF439008B5F840028F9BD00F81F3B00D9
:405F0000DEFF97000F980500112FEF000A5A8B006D1F6D00CF7E360009CB2700464FB7009E663F002DEA5F00BA277500E5EBC7003D7BF100F739070092528A00FB6BEA001C
:405F40001FB15F00085D8D00300356007BFC4600F0AB6B0020BCCF0036F49A00E3A91D005E619100081BE60085996500A0145F008D40680080D8FF0027734D0006063100FD
:405F8000CA561500C9A873007BE260006B8CC0000200000003000000040000000600000000000040FB21F93F000000002D44743E000000809846F83C0000006051CC783BCC
:405FC00000000080831BF0390000004020257A38000000802282E336000000001DF369354300494E4600696E66004E414E006E616E00300030313233343536373839414201
:4060000043444546003031323334353637383961626364656600496E66696E697479004E614E00504F534958002E000000000000000000000000F03F000000000000244051
:4060400000000000000059400000000000408F40000000000088C34000000000006AF8400000000080842E4100000000D01263410000000084D797410000000065CDCD41DF
:40608000000000205FA00242000000E876483742000000A2941A6D42000040E59C30A2420000901EC4BCD64200003426F56B0C430080E03779C3414300A0D88557347643A3
:4060C00000C84E676DC1AB43003D9160E458E143408CB5781DAF154450EFE2D6E41A4B4492D54D06CFF08044F64AE1C7022DB544B49DD9794378EA440500000019000000E0
:406100007D000000000000000080E03779C34143176E05B5B5B89346F5F93FE9034F384D321D30F94877825A3CBF737FDD4F1575232D302B2000686C4C0065666745464774
:4061400000000000F8B500BFF8BC08BC9E4670474D0000001D0F0000F8B500BFF8BC08BC9E4670472900000078610000C880FF1FB8000000D801000000000000FFFF0000B1
:406180005883FF1F00366E01C05D0000180000000000E02E0000000000000000000000000000000000000000000000000000000000000000E05F00000000000000000000BF
:4061C00000000000000000000000000000000000000000000000000000000000000000000000000000000000000000000000000000000000E480FF1F2960000035610000FE
:406200003561000035610000356100003561000035610000356100003561000035610000FFFFFFFFFFFFFFFFFFFFFFFFFFFF000000000000000000000000000000000000BC
:40624000000000000000000000000000000000000000000000000000000000000000000000000000000000000000000000000000000000000000000000000000000000001E
:4062800000000000000000000000000000000000000000000000000000000000000000000000000000000000000000000000000000000000000000000000000000000000DE
:4062C000000000000000000000000000000000000000000000000000000000000000000000000000000000000000000000000000000000000000000000000000000000009E
:40630000000000000000000000000000000000000000000000000000000000000000000000000000000000000000000000000000000000000000000000000000000000005D
:020000040003F7
:0200000480007A
:40000000055200400664004002650040010101405B020140380301400C050140690601403F0701402508014045090140600A01404A0B01405C0C0140470D01403E0E0140E9
:40004000350F01400D15014046160140441701405918014050190140641A0140491B0140094001400D41014007420140054301400C4501400746014002470140054801403B
:40008000054901400A4C0140044D01400D5001400251014000800180100911116180830F876F890F8D6F8E0F8F0F860F880FE2040301051C0B020D040F0813201510160107
:4000C0001B1C1D041F0827102B022D1C2E0131023401353C37014060410249FF4AFF4BFF4DA04F045018580459045A045C995D095F01604062C06440654066C068C06AC0D9
:400100006CC06EC087018B0491029204970299029A029D02A101A502A601AA02B001B101B202B306B404BE04C020C106C5D1C605C702C817C9FFCAFFCBFFCDAFCE0FCF0499
:40014000D018D280D407D804D904DA04DB04DC99DD99DF01E040E2C0E440E540E6C0E8C0EAC0ECC0EEC00A440F2012041304158019061A041B101E0821042380244025109E
:4001800026202701290A2C012D082F1430253180340436A139203B043C083D803E023F2042044604480849014B0C4F20508851405204582059055B807240802088808E0460
:4001C000C22AC486CA73CCFFCEF6D024D224D60FE240E604EE089108952097209C05A110A424A5C0A681A840B301B602E840043005CF06080730081C0B0F0D940F6011FD5C
:4002000013021401153017C91A3C1C301D9E1E041F6022012573260328202A042C2C2E10300131FF3202343C3E013F014041410249FF4AFF4BFF4DA04F0150185804590400
:400240005A045C095D095F016040628064406540668068406A806C406D206E8082038402870189A38B5C91FE930195969768990E9BF09DC59F3AA57FB002B201B5FFBE012F
:40028000BF10C041C103C523C6C4C70EC81FC9FFCAFFCBFFCDAFCE07CF01D018D40FD804D904DA04DB04DC09DD99DF05E040E280E440E540E680E840EA80EC40ED20EE8016
:4002C00001080240040406080C200D800E2014051508168019081A401C041D121E241F10211026012A082B202F20302531803405368039083B203C103DA03E0440104102FC
:4003000043404512460447404B0552585A4A5B2062187B20832189809108952097209C05A110A424A5C0A681C06CC2E0C4F0CA42CCDFCE76D0BBD60FD806DE02E8080210DF
:4003400004201405160A180F1C0C1E03200A2205262028032A0C2C0730103220340F4052420649FF4AFF4BFF4F01501858045A045C095D025F0160406240644065406680F4
:4003800068806A806C806E80000801610220064007100A830B100D840E041055130A1526160219B01A801C801D021E241F01221023102841299030103B104209460C4915FB
:4003C0004D204E01520459055A6060808901902091049242954196109742980499429A509B0B9C809E04A020A208A301A50CA632A708A820AE40B504B601C03FC2EDC4FF59
:40040000CA0DCC04CE04D02CD234D60FD801E020EA0102040340041C05120A020B070C140D070E080F781124120316101738197F1D3F1E012003211B260229092A082E0C32
:400440002F3F3003313F340C354036103A023E403F104010410449FF4AFF4BFF4DA04F0450185283580459045A045B045C225D295F01604062C06440654066C068C06AC01D
:400480006CC06EC087018B028F0196029E01AA02AE01B002B301B401B702BE11C010C104C5D5C721C833C9FFCAFFCBFFCDAFCE0FCF04D018D804D904DA04DC90DD09DF01BE
:4004C000E040E2C0E440E540E6C0E8C0EAC0ECC0EEC001610220088009060D800F20100612801304160619601A801B101E44210222112640271028C029202A803004310218
:4005000032E039403A053B143D803E284180430245C14D044F015501560A57026B0A7002728089018B108F109020950496349743980499029A309B019C409E08A180A2084F
:40054000A301A508A652A708A904AA10B020B210B480B710C00FC2ADC4CFCA0DCC0FCE7FD099E804EC2401020401070109020E010F08100211021F01260227022B042D0225
:400580002E01300133013402350837063E014046410349FF4AFF4BFF4DA04F0150185280580459045A045B045C995D995F016040628064406540668068406A806C406D205F
:4005C0006E8082028F019C04A001A204A401A501A801B004B202B401B701B820BE11BF40C046C103C523C6C4C70EC81FC9FFCAFFCBFFCDAFCE07CF01D018D40FD804D904AB
:40060000DA04DB04DC09DD99DF05E040E280E440E540E680E840EA80EC40ED20EE800240040807010A010E801080120813041620174019291A081D12224024082544270165
:4006400029082C202F09368238803D843E103F02410A450A488049204B0C4E045040526459015A805B18622477407A08811084048A20902092019614974F99029B089C4035
:400680009D089E18A180A288A301A480A508A610AC40C0A8C211C4AECA72CC90CEF8D0C3D224D60FD806DE04E208E480030104200502080E0E2010181204142017011818C9
:4006C0001A021C101D021E0222012501261E2C162E08301E310234203601370139023E103F40540F5604580459045B045C995D905F018310870889068D0595039A019D08F0
:40070000A520AA02AB20AD06B002B108B307B401B520B710B908BF10D280D407D804D904DB04DC99DD90DF0100800108020809180A400B020F0410811210134016081912D0
:400740001A411B011E801F20208021012240246025802688270829082E402F24308031083404364839023B083C023D203E183F40580559105A805C405E245F016380740106
:400780008340C007C24FC44DCA72CC5ACEF3D6FFD8018101882489409C04A420A541AA01AC20B104B720E601EA04EE0801060410050608060B010C061005150116101803EF
:4007C0001B011E08250428103008310432103302340737013820390A3E043F415280540F5604580459045B045C995D905F01801C820383208401861687108E03900191206A
:40080000920E970F99089A089B019D0C9F02A21CA507A620A820A90CAB01AD0BAF04B01AB120B310B420B60FB70FBA82BE10BF01D804D904DC91DF01010402010380051850
:40084000070208200A800C010D080E080F011102132416041A881B801C081D011E281F20218022812322250826402750280329102B202F2030243181350837103B053D2055
:400880003F055C025EA86740768087408B808E409305960A980199189A049C049E809F40A110A424A5C0A680A720AC01B310C0EDC2FAC44ECA4ECC6FCEE3D6F0D880EA02D2
:4008C000010C03010710087F090C0B020E01100E110B12F0130414A31507165C19601CC51D401E3A20FE2201232024962560266829082B012F0F316032FF3310350F390201
:400900003E043F014001464049FF4A074BFF4C404D204EF04F0550085401580459045A045B045C905D115F01604061A862406320809E8131826083C2843085C086C987345B
:4009400089548BA08C948E6091F79577960F98CF9A30A1A1A352A708A873AB07ACFDAE02B1F0B2FFB30FBE04D804D904DB04DC90DF01008001020210042007010804091843
:400980000D020E300F02120A1502163019081F0821092202234024082510261027502804290A2C802E212F11320A36AA38083A103B023D243F0247404C8057205D015E8034
:4009C0005F186804694078017A8081848A808E2090209104930295689610974099029A109B019E029F10A060A102A208A301A404A50CA602A708AD40AE04B181C0CDC2B640
:400A0000C433CAF7CCF3CEE7D010D6F0E090E820EC080C1012071405170118011A1E1B02201028022A0C3008320433023403350136103A083C284024410645104702481671
:400A400049FF4AFF4BFF4DA04F0450185280580459045A045B045C905F01604062C06440654066C068C06AC06CC06EC0834084138580860487038914960897409803994C7D
:400A80009A049B119C209D209E05A110A413A550A60CA70CA909AB10AC0AAD1CAE14AF42B180B230B31FB40FB520B740B808BA20BF51C031C102C5ECC6B0C80BC9FFCAFF12
:400AC000CBFFCEF0CF44D00CD804D904DA04DC11DD01DF01E6C0EA40EB02008007100A240B400E110F0410881411184019801A241B011E101F1821142504264227082C515F
:400B00002F1830203208350836A037103D083E234040420444104602471048484D094E804F04508856206508671073407B018308860A891492019529973098419D809F0856
:400B4000A020A220A640A880AC40AF20B310B602C021C2EEC4AACAF0CC76CEE0D075D204DE08E002E208E6A0E840EA2032043380354037023A208220CCF0CE10E220020848
:400B80000440590864208D089D409F02A780AE04C0C0D640D880EE109D409F02A208A780A820B440EE209D409F02A780AE08E81006200B010D0455045C4062088620C004BC
:400BC000C206D402D604D8028D0491089301A504A840AA08E4029108AB0187029D409F02A780E6401B801D409D40A780C6C00E01630291089601A301AF01B201C201D6025B
:400C0000EE01710285069108DC010004010109010B010C040D010F01100311011A021B011C031D0100FF010301004000C00002002003009C410084000000070008001000C4
:400C40000003003C000007001855000A08001000040080FF180500EAC00000F0070F38000000C008000010001200060000EC000213FFFFFF00830301180000000300040083
:400C8000040404042222000140004000404080008000800080008000000000000000000000000000000000000CC0C000C00000000080800080000000C0CB0B0040000000BD
:400CC000631B180019000000000000000000000000000000000000000000000000000000000000000000000000000000000000000000000000000000000000000000000045
:400D000000000000000000000000000000000000000000000000000000000000000000000000000000000000000000000000000000000000000000000000000000000000B3
:400D40000000000000000000000000000000000000000000000000000000000000000000000000000000000000000000000000000000000000000000000000000000000073
:400D80000000000000000000000000000000000000000000000000000000000000000000000000000000000000000000000000000000000000000000000000000000000033
:400DC00000000000000000000000000000000000000000000000000000000000000000000000000000000000000000000000000000000000000000000000000000000000F3
:0200000490006A
:0400000000004005B7
:0200000490105A
:04000000BC90ACAF55
:0200000490303A
:02000000D7A186
:0200000490402A
:4000000000000000000000000000000000000000000000000000000000000000000000000000000000000000000000000000000000000000000000000000000000000000C0
:400040000000000000000000000000000000000000000000000000000000000000000000000000000000000000000000000000000000000000000000000000000000000080
:400080000000000000000000000000000000000000000000000000000000000000000000000000000000000000000000000000000000000000000000000000000000000040
