:400000000080002011000000491900004919000080B500AF024A034B1B68136001F0C8FCBC760040FA46004010B5054C237833B9044B13B10448AFF300800123237010BD8E
:400040007081FF1F00000000E47D0000084B10B51BB108490848AFF300800848036803B910BD074B002BFBD0BDE81040184700BF000000007481FF1FE47D0000C880FF1FF0
:400080000000000000000000B0B5B2B010AFAEA4D4E90034C7E91834B94A4FF000034FF00004C2E90034B64A4FF000034FF00004C2E90234B24A4FF000034FF00004C2E982
:4000C00008344FF00002AF4BD7E9180105F0FAFA03460C46AA4AC2E90E34A94B00221A64A74A9BA4D4E90034C2E90A34A44A9AA4D4E90034C2E90C34A34A4FF000034FF037
:400100000004C2E90034A04A4FF000034FF00004C2E902349C4A4FF000034FF00004C2E908348FA3D3E90023D7E9180105F0CAFA03460C46184621464FF00002914B05F025
:40014000C1FA03460C46904AC2E90E348E4B00221A648D4A7EA4D4E90034C2E90A348A4A7DA4D4E90034C2E90C34884A7EA4D4E90034C2E90634854A4FF000034FF0000427
:40018000C2E91434814A7AA4D4E90034C2E910347E4A4FF000037E4CC2E912347B4A4FF000034FF00004C2E90C34784A4FF000034FF00004C2E90E34744A4FF00003754C94
:4001C000C2E91A34714A4FF00003734CC2E916346E4A4FF00003714CC2E9183462B601F021FE01F02FFD01F077FC01F0EDFE02F021F802F03BF902F0A7F902F087FB4EF6A7
:40020000602002F0CDFB02224121412000F012FAF8654FF00003624CCDE902344FF00003604CCDE900344FF000025F4B052000F0E5FBB865FB6D002B02D14FF0FF33D9E102
:40024000FB6DDB68002B02D14FF0FF33D2E1BB6D002B02D14FF0FF33CCE1BB6D9B6A002B02D14FF0FF33C5E10023C7F884300FE10023C7F880305DE006F088FA03461846B7
:4002800005F0BAF94FF00002484B05F01BFA03460C461846214638A3D3E9002305F03CFB03460C46184621464FF00002404B05F057F803460C461846214605F0B3FC0246B6
:4002C000D7F880309B0007F188010B4443F8802C06F05CFA0346184605F08EF94FF00002344B05F0EFF903460C461846214622A3D3E9002305F010FB03460C4618462146BD
:400300004FF00002264B05F02BF803460C461846214605F0AFFC0246D7F8803008339B0007F188010B4443F8802CD7F880300133C7F88030D7F88030032B9DDD0423FB67CD
:400340008BE000BFAFF300804A7B832F4CA6EE3F54E41071732AC93E7B14AE47E17A643F6ABC74931804F03F52B81E85EBC13540691D554D1075FF3E0000C0FFFFFFDF41AF
:400380000882FF1F00000640B881FF1FE882FF1F0000E83F0000F03F00005940000059C000001440000024400000344000004440008056400040504006F0E8F90346184654
:4003C00005F01AF94FF000028F4B05F07BF903460C46184621468AA3D3E9002305F09CFA03460C461846214605F01CFC0246FB6F9B0007F188010B4443F8802C06F0C6F954
:400400000346184605F0F8F84FF000027F4B05F059F903460C461846214679A3D3E9002305F07AFA03460C46184621464FF00002774B04F095FF03460C461846214605F0DA
:4004400019FC0246FB6F08339B0007F188010B4443F8802CFB6F0133FB67FB6F072BABDD6D4607F108040FCC0FC50FCC0FC50FCC0FC594E80F0085E80F0000234122412151
:40048000F86D00F031F9D7F884300133C7F88430D7F88430B3F57A7FFFF6EAAEFB6D5B68013BBB6724E000237B6716E0FB6DDA68FB6D1B68796F01FB03F1BB6F0B449B00D9
:4004C00013441B681A465349534806F0A9F9524801F006FD7B6F01337B67FB6D1A687B6F9A42E3DC4D4801F0FBFCBB6F013BBB67BB6F002BD7DA4A4801F0F2FC0523002230
:400500000021F86D00F006FA78657B6D5B68013B3B6724E00023FB6616E07B6DDA687B6D1B68F96E01FB03F13B6F0B449B0013441B681A463749384806F072F9364801F0D7
:40054000CFFCFB6E0133FB667B6D1A68FB6E9A42E3DC324801F0C4FC3B6F013B3B673B6F002BD7DA2E4801F0BBFCF96DB86D00F09FFA0023BB6611E0BB6D9A6ABB6EDB0074
:40058000134418CB1A4623462649234806F048F9214801F0A5FCBB6E0133BB66BB6D5A68BB6E9A42E8DC1E4801F09AFC2D21B86D00F006FDC7E91201D7E912231A4916482F
:4005C00006F02EF9144801F08BFC184B1B78012B7FF464AF01F074FB0346DB439AB2144B1A80FF2001F0C2FA72B6104B00221A7062B653E718468837BD46B0BDAFF300805A
:400600000000C0FFFFFFDF41000044400040504000001440F87D00005082FF1F007E0000047E00000C7E0000147E00008C81FF1F0082FF1F80B588B000AFF860B9607A6082
:40064000102005F063FB03467B617B69002B04D1786905F063FB002340E07B69FA681A607B69BA685A607B697A689A60FB68BA6802FB03F39B00184605F048FB03461A46E5
:400680007B69DA607B69DB68002B06D17B69DB68184605F043FB002320E00023FB6118E00023BB610EE07B69DA68FB69F96801FB03F1BB690B449B00134400221A60BB6974
:4006C0000133BB61BA69BB689A42ECDBFB690133FB61FA69FB689A42E2DB7B6918462037BD4680BD00000000F0B59BB000AFF860B9607A603B60FB68002B01D10023FCE0B1
:40070000FB68DB68002B01D10023F6E000237B6619E07B6E083307F1800252F82330FA689268B3FBF2F3184604F056FF03460C467A6ED20007F168010A44583AC2E90034DA
:400740007B6E01337B667B6E072BE2DD0023FB65CEE0FB6D07F1800252F823203B681344002B0ADAFB6D07F1800252F823203B68134403F5B4733B661CE0FB6D07F18002F1
:4007800052F823203B681344B3F5B47F0ADBFB6D07F1800252F823203B681344A3F5B4733B6607E0FB6D07F1800252F823203B6813443B66FB689B68BA6892FBF3F6FB6DD2
:4007C000DB0007F168021344583BD3E90045386E04F012FF4CA3D3E9002304F073FF02460B46104619464FF00002494B05F094F802460B461046194602F002F902460B467A
:400800002046294604F05EFF03460C461846214602F03EF903460C461846214605F002FA03463344BB65FB689B687A6892FBF3F6FB6DDB0007F168021344583BD3E900458A
:40084000386E04F0D9FE30A3D3E9002304F03AFF02460B46104619464FF000022C4B05F05BF802460B461046194602F099F902460B462046294604F025FF03460C46184689
:40088000214602F005F903460C461846214605F0C9F9034633447B65FB681A68BB6D9A4223DDFB685A687B6D9A421EDDBB6D002B1BDB7B6D002B18DBFB68DA68FB681B6883
:4008C000B96D01FB03F17B6D0B449B001344FA68D168FA681268B86D00FB02F07A6D024492000A44126801321A60FB6D0133FB65FB6D072B7FF72DAF012318466C37BD46EC
:40090000F0BD00BFAFF30080182D4454FB2109400080664080B58AB000AFF860B9607A603B60FB689B681A4639683868FFF782FEF861FB69002B57D000237B624FE00023DF
:400940003B6245E0FB689B68BA6892FBF3F27B6A1A443B68013BD90F0B445B10D31ABB61FB689B687A6892FBF3F23B6A1A443B68013BD90F0B445B10D31A7B61FB681A6802
:40098000BB699A4221DDFB685A687B699A421CDDBB69002B19DB7B69002B16DBFB69DA687B6A396801FB03F13B6A0B449B001344FA68D168FA681268B86900FB02F07A69AE
:4009C000024492000A4412681A603B6A01333B623A6A3B689A42B5DB7B6A01337B627A6A3B689A42ABDB04E0F86905F097F9002300E0FB6918462837BD4680BD90B587B02B
:400A000000AFF860C7E90023302005F07FF903463B613B69002B04D1386905F07FF9002342E03B69FA681A604FF4B472FB6892FBF3F23B695A603A69D7E90034C2E90234AF
:400A40003B695B68DB00184605F060F903461A463B699A623A69D7E90A34C2E906343A69D7E90C34C2E908343B699B6A002B04D1386905F053F9002316E000237B610DE09F
:400A80003B699A6A7B69DB001A444FF000034FF00004C2E900347B6901337B613B695A687B699A42ECDC3B6918461C37BD4690BD2DE9F04F9DB000AFF860B960BB681B681E
:400AC0003B64BB685B68FB634FF00002B44BC7E90C23D7E90C0102460B4604F041FC02460B4692469B463B6C013B184604F084FDA7A3D3E9002304F0E5FD02460B46504627
:400B0000594604F009FF02460B46C7E90A230023FB660DE0FB689A6AFB6EDB00D1184FF000024FF00003C1E90023FB6E0133FB66FB685A68FB6E9A42ECDC0023BB66EDE00E
:400B400000237B66E2E0FB6BDA0F13445B101A467B6E9B1A184604F04FFD82468B463B6CDA0F13445B101A46BB6E9B1A184604F043FD02460B465046594602F059F84FF0F7
:400B80000002884B04F09EFD02460B461046194681A3D3E9002304F0BFFE02460B46C7E916234FF000024FF00003D7E9160104F0FBFF0346002B0AD04FF000027A4BD7E9F1
:400BC000160104F0CDFB02460B46C7E91623BB68DA68BB6E396C01FB03F17B6E0B449B0013441B68184604F0F7FC4FF000024FF0804302F01FF8C7E908013B6CDA0F13449F
:400C00005B101A46BB6E9B1A184604F0F5FC4FF000024FF0804302F00DF882468B46FB6BDA0F13445B101A467B6E9B1A184604F0E3FC4FF000024FF0804301F0FBFF02463F
:400C40000B465046594604F08BFB02460B461046194602F087F9D7E90A2304F033FD02460B46D7E90C0104F079FB02460B46D7E9080104F027FD02460B46C7E90823FB6884
:400C80009E6AFB681B68184604F0B6FC02460B46D7E9160104F040FE02460B461046194601F0F6FE02460B461046194604F0BAFF0346DB001E44FB689B6A7B60FB681B68C3
:400CC000184604F099FC02460B46D7E9160104F023FE02460B461046194601F0D9FE02460B461046194604F09DFF0346DB007A681344D3E90001D7E9082304F031FB024627
:400D00000B46C6E900237B6E01337B667A6EFB6B9A42FFF618AFBB6E0133BB66BA6E3B6C9A42FFF60DAF0523FB61FB6859686B469A464B1EBB610B461A464FF000034FEAE8
:400D4000831949EA92694FEA82180B461A464FF000039D0145EA926594010B46DB0007330733DB08DB00ADEB030D6B460733DB08DB007B61FB685A68FB699A4240F3A28045
:400D80000023FB6498E00123BB6452E0AFF30080CD3B7F669EA0F63F182D4454FB2109400000F03F0080664000807640FA69BB6CD31A184604F020FC80468946FB689C6A92
:400DC000FA6CBB6CD21AFB685B681946104600F099F80346DB002344D3E90045FB689E6AFA6CBB6C1A44FB685B681946104600F089F80346DB003344D3E9002320462946A1
:400E000004F0AEFA03460C461A4623464046494604F058FC03460C461A462346D7E9140104F09EFA03460C46C7E91434BB6C0133BB64BA6CFB699A42B8DBF86904F0DCFB5E
:400E4000FB689A6AFB6CDB00134418CB1A46234604F038FC03460C461A462346D7E9140104F07EFA03460C46C7E91434FB695B000133184604F0C0FB03460C461A46234602
:400E80004FF000001E4904F047FD03460C461A462346D7E9140104F015FC03460C46C7E914347A69FB6CDB001A44D7E91434C2E90034FB6C0133FB64FB685A68FB6C9A42B7
:400EC0003FF761AF00237B640EE0FB689A6A7B6CDB001A4479697B6CDB000B4418CBC2E900347B6C01337B64FB685A687B6C9A42EBDCD54600BF7437BD46BDE8F08F00BF6C
:400F00000000F03F80B485B000AF786039607B683A6893FBF2F2396801FB02F29B1AFB60FB68002B03DAFA683B68134400E0FB6818461437BD4680BC704700BF80B485B090
:400F400000AF786039603B68002B02DA3B685B423B607B683A6893FBF2F2396801FB02F29B1AFB60FB68002B03DAFA683B68134400E0FB6818461437BD4680BC704700BFCC
:400F800080B586B000AFF860B9607A60FA68BB68D31A79681846FFF7D1FF7861BA68FB68D31A79681846FFF7C9FF38613A697B699342A8BF134618461837BD4680BD00BFAC
:400FC0002DE9F04FB7B004AF786139616B467B604FF47A73C7F88C301223C7F888307B695B68C7F88430182004F090FE0346C7F8C430D7F884305A1ED7F8C4309A60D7F8D5
:40100000C43000225A61D7F884104B1EC7F880300B461A464FF000035801F860F86840EAD260F8605301BB600B461A464FF000034FEA431B4BEAD26B4FEA421A0B469B0000
:4010400003330733DB08DB00ADEB030D04AB03339B089B00FB670023C7F8C03026E07B699A6AD7F8C030DB001344D3E900ABD7F88C0004F0C1FA0A46014601231E4613467B
:401080000A465046594604F0ADFD0346002B01D100231E46F3B21946FB6FD7F8C02043F82210D7F8C0300133C7F8C030D7F8C020D7F884309A42D2DBD7F8C430C7F8BC30EB
:4010C000D7F884106B461E464B1EBB670B461A464FF000034FEA431949EAD2694FEA42180B461A464FF000035D0145EAD26554010B469B0003330733DB08DB00ADEB030D96
:4011000004AB03339B089B007B670023C7F8B8300023C7F8B43080E0D7F8B430002B0ED1FB6F1A68D7F88430591EFB6F53F82130D11A7B6FD7F8B42043F8221010E0FB6FD2
:40114000D7F8B42053F82220D7F8B430591EFB6F53F82130D11A7B6FD7F8B42043F822107B6FD7F8B42053F82230B3F1FF3F08D1D7F8BC30D7F8B4209A600123C7F8B83022
:4011800046E07B6FD7F8B42053F82230012B3FD1D7F8B830002B3BD00023C7F8B830D7F8BC30D7F8B420DA60D7F8BC30DA68D7F8BC309B68D21AD7F8BC301A617B691A6811
:4011C000D7F8BC309968D7F8BC301B69D80F03445B100B4403FB02F3184604F00DFA03460C46D7F8BC20C2E90034182004F08EFD03463B673B6F00225A613B6F4FF0FF3258
:401200009A60D7F8BC303A6F5A613B6FC7F8BC30D7F8B4300133C7F8B430D7F8B420D7F884309A42FFF678AFD7F8BC309B68B3F1FF3F57D00023C7F8B03004E0D7F8B0307C
:401240000133C7F8B0307B6FD7F8B02053F82230012BF3D1D7F8BC30D7F8B020DA60D7F8BC309B68D7F88420D21AD7F8BC30DB681A44D7F8BC301A617B691A68D7F8BC3021
:401280009968D7F8BC301B69D80F03445B100B4403FB02F3A34A83FB02121A441112DA178A1A4FF4B47101FB02F29A1A104604F0A3F903460C46D7F8BC20C2E9003418202F
:4012C00004F024FD0346FB66FB6E00225A61FB6E4FF0FF329A60D7F8BC30FA6E5A61FB6EC7F8BC30D7F8C430C7F8AC30D7F8C430C7F8A8304FF000038B4CC7E928347B6963
:401300001B683A6992FBF3F3BB6653E0D7F8A8309B68D7F88420B96E1846FFF731FE0346184604F069F903460C46C7E91834D7F8A830DB68D7F88420B96E1846FFF720FE6F
:401340000346184604F058F903460C46C7E91634D7E91623D7E9180104F026FC0346002B02D0D7E9183401E0D7E91634C7E91434D7E92823D7E9140104F016FC0346002B75
:4013800007D0D7E91434C7E92834D7F8A830C7F8AC3007F11C00D7E91423644905F040FA07F11C03184600F09BFDD7F8A8305B69C7F8A830D7F8A8305B69002BA6D1D7F83E
:4013C000C430C7F89C301FE0D7F89C309968D7F89C30DD68D7F89C3018CBD7F89C20126907F11C000292CDE900342B460A46504905F016FA07F11C03184600F071FDD7F8DC
:401400009C305B69C7F89C30D7F89C305B69002BDAD1D7F8AC301A69D7F888309A4205DCD7F8AC3018CBC7E924346BE0D7F8A8309B68D7F88420B96E1846FFF7A1FD03468A
:40144000184604F0D9F803460C46C7E91234D7F8A830DB68D7F88420B96E1846FFF790FD0346184604F0C8F803460C46C7E91034D7E92823D7E9120104F08CFB0346002B9C
:401480001AD07B691B68D7F8AC20926802FB03F2D7F88830D90F0B445B1013444FF4B4711846FFF74BFD0346184604F0A5F803460C46C7E9243425E07B691B68D7F8AC20EE
:4014C000D26802FB03F2D7F88830D90F0B445B10D31A4FF4B4711846FFF730FD0346184604F08AF803460C46C7E924340AE0D7F8C430FB63D7F8C4305B69C7F8C430F86B59
:4015000004F00CFCD7F8C430002BF0D1D7E92434B546D7F804D018462146CC37BD46BDE8F08F00BFB7600BB600806640247E0000307E000080B582B000AF786039603A6825
:401540000021786804F0FDFB00BF0837BD4680BD80B584B000AFF860B9607A607A68B968F86804F0E3FB00BF1037BD4680BD00BF80B483B000AF0346FB71FEE780B487B088
:4015800000AF7860396000233B6100237B6127E07B699B007A6813441B68BB60BB68FB73BB6823F0FF03BB6014E03B695B003A6813441B781A46BB68134419463B695B0055
:4015C0003A6813445B780B703B6901333B61FB7B013BFB73FB7B002BE7D17B6901337B617B69232BD4D900BF1C37BD4680BC704780B582B000AF454B19221A80444B182298
:401600001A70444BEF221A80434B18221A70434B40F283521A80424B18221A70414B4BF67F321A80404B18221A70404B4EF65F221A803F4B19221A703E4B40F2E7321A8006
:401640003D4B1B221A703D4B42F20F721A803C4B1B221A703B4B02221A704FF0402308221A70394B03221A70384B394A1278D2B21A70384B08221A80374B41F251221A8092
:401680000023FB7019237B6014E0FB785B00DAB2324B1B78DBB203F00103DBB21343DBB203F00303FB704FF4F07001F099F97B68013B7B607B68002B02D0FB78032BE4D179
:4016C0007B68002B02D10320FFF752FF244B4FF480721A80224B07221A70224B00221A70214B48221A701E4B00221A701F4B02221A701F4A1E4B1B78DBB243F07F03DBB267
:40170000137000BF0837BD4680BD00BF80400040824000408440004086400040884000408A4000408C4000408E40004090400040924000409440004096400040984000408D
:401740009A4000400043004000420040A14600400801004922420040204200402542004004400040064000400840004001400040A243004080B483B000AF0B4B1B78FB7141
:401780000A4AFB7903F00703DBB21370084AFB791B09DBB21370074B44221A7000BF0C37BD4680BC704700BFCF0100496E5800406F5800407658004080B582B000AF72B6EF
:4017C000444A444B1B78DBB243F00403DBB213700023FB7113E0FA7913465B0013445B003D4A13443B603B681A683B689B889BB219461046FFF79EFEFB790133FB71FB7987
:40180000052BE8D935494FF09040FFF7B7FE344B344A1A60344B354A1A60354B354A1A60354B364A1A60364A354B1B78DBB243F00203DBB21370334A324B1B78DBB243F0E8
:401840000203DBB21370304A2F4B1B78DBB243F04003DBB213702D4A2C4B1B78DBB243F01003DBB21370082229492A48FFF770FE082229492948FFF76BFE0A222849294869
:40188000FFF766FE082228492848FFF761FE0A2227492848FFF75CFE274A274B1B78DBB243F00803DBB21370244B61221A70FFF79FFE224B81221A70214B01221A70FFF709
:4018C00059FF0E2210491F48FFF742FE00BF0837BD4680BDE84600405C7E000090000048D806014004040444580A014004040044D818014000040484D81A0140444404042E
:401900000350014013500140A0430040C2430040F00C004802510040F80C0048C2510040000D0048F05100400C0D004812510040140D004820510040224300400048004070
:4019400004000840B043004080B500AF04F0B2F903461B680C2B00D1FEE7FEE780B584B000AF7860104B1A687B6813441A460F4BD31A4CF25032934209DC0B4B1B68FB606B
:40198000094B1A687B681344074A136007E004F091F902460C2313604FF0FF33FB60FB6818461037BD4680BDCC80FF1F6083FF1F80B586B000AF224B7B61224B3B61204BAE
:4019C0007B6135E03B691B68FB603B695B68BB603B699B683B6000237B600CE0FB681A68BB681A60BB680433BB60FB680433FB607B6804337B607A683B689A42EED13B6921
:401A0000DB683B6000237B6008E0BB6800221A60BB680433BB607B6804337B607A683B689A42F2D13B6910333B617B69013B7B617B69002BC6D104F043F9FEF725FBFEE746
:401A4000010000004082000080B582B000AF184B184A1A60184A184B1B6843F40073136000237B600FE07B68032B04D8134A7B6852F8233000E0124B12497A6841F822302D
:401A80007B6801337B607B682F2BECD90E4B1B78DAB20E4B1A700E4B0A4A1A60FFF78CFE0C4B00221A6000BF0837BD4680BD00BF0CED00E00004FA0514ED00E00000000083
:401AC000491900000080FF1FBC760040C480FF1F08ED00E0C080FF1F80B500AF064B1B78002B04D100F00AF8034B01221A7000F02DF800BF80BD00BF9881FF1F80B582B0BC
:401B000000AF104B1B78DBB223F03F03FB710D4AFB7943F02403DBB213700B4A0A4B1B78DBB243F00103DBB21370FF2000F01EF8FF2000F02BF8FF2000F038F800BF0837E0
:401B4000BD4680BD786500409A65004080B400AF054A054B1B78DBB263F07F03DBB2137000BFBD4680BC70477865004080B483B000AF0346FB71044AFB79137000BF0C375E
:401B8000BD4680BC704700BF0A65004080B483B000AF0346FB71044AFB79137000BF0C37BD4680BC704700BF4A65004080B483B000AF0346FB71044AFB79137000BF0C37F9
:401BC000BD4680BC704700BF2A65004080B582B000AF4FF6FF7000F063F84FF6FF7000F07BF800F005FF0346FB710D4A0C4B1B78DBB243F01003DBB21370FB79184600F0A6
:401C0000FBFE00F079F8002000F086F800F0A4F8032000F029F800BF0837BD4680BD00BF9965004080B400AF054A054B1B78DBB263F07F03DBB2137000BFBD4680BC704785
:401C40007964004080B500AF064B1B78002B04D1FFF7BCFF034B01221A70FFF7E3FF00BF80BD00BF9981FF1F80B483B000AF0346FB71044AFB79137000BF0C37BD4680BCB7
:401C8000704700BF8965004080B400AF034B1B78DBB21846BD4680BC704700BF6965004080B483B000AF0346FB80044AFB88138000BF0C37BD4680BC704700BF506A00401F
:401CC00080B400AF034B1B889BB21846BD4680BC704700BF906A004080B483B000AF0346FB80044AFB88138000BF0C37BD4680BC704700BF106A004080B400AF054A054B45
:401D00001B78DBB243F01003DBB2137000BFBD4680BC70477964004080B483B000AF0346FB71FB7903F00303FB710A4A094B1B78DBB223F00303DBB213700649054B1B7894
:401D4000DAB2FB791343DBB20B7000BF0C37BD4680BC70477964004080B500AF01E0FFF7AFFFFFF791FF034603F00803002BF6D100BF80BD80B483B000AF0346FB7101BE42
:401D800000BF0C37BD4680BC704700BF80B584B000AF03463960FB710F4B1B68FB60FB791F2B02D90020FFF7E5FFFB7903F01F0310339B00FA6813441B68BB60FB7903F016
:401DC0001F0310339B00FA6813443A681A60BB6818461037BD4680BD08ED00E080B582B000AF03460A46FB711346BB71BB79072B02D90020FFF7BEFFFB791F2B02D90020C4
:401E0000FFF7B8FFFB7903F01F0303F1604303F56443BA795201D2B21A7000BF0837BD4680BD00BF80B500AF064B1B78002B04D100F00AF8034B01221A7000F01BF800BF2E
:401E400080BD00BF9A81FF1F80B400AF064B06221A70064B47221A70054B00221A7000BFBD4680BC704700BF28640040386400408B65004080B582B000AF00F0B9FD0346B6
:401E8000FB71094A084B1B78DBB243F01003DBB2137000F047F8FB79184600F0ADFD00BF0837BD4680BD00BF9B65004080B483B000AF0346FB7100BF074B1B78DBB203F0D3
:401EC0000403002BF8D1054AFB79137000BF0C37BD4680BC704700BF6B6500404B65004080B584B000AF78600023FB810C4B1B78002B10D009E0FB897A6813441B781846CF
:401F0000FFF7D4FFFB890133FB81FB897A6813441B78002BEFD100BF1037BD4680BD00BF9A81FF1F80B400AF094A094B1B78DBB243F00103DBB21370064A064B1B78DBB279
:401F400043F00103DBB2137000BFBD4680BC7047A2430040B243004080B500AF064B10221A6006490420FFF711FF07210420FFF735FF00BF80BD00BF80E100E045200000DA
:401F800080B582B000AF0F2000F048F800F038F800F02EFD0346FB71094A094B1B78DBB243F01003DBB21370FB79184600F024FD044B10221A6000BF0837BD4680BD00BFC4
:401FC0009D64004000E100E080B500AF00F0BAF84FF4004000F0E4F8074B00221A60074B1B78002B04D1FFF7B7FF044B01221A70FFF7C6FF00BF80BDA081FF1F9C81FF1F5E
:4020000080B400AF044B1B78DBB203F00F03DBB21846BD4680BC70476D64004080B483B000AF0346FB71FB7943F00703FB71044AFB79137000BF0C37BD4680BC704700BF73
:402040008D64004080B483B000AF144B1B78FB71FB7903F00103002B07D0114B1B6803F5FF437F330E4A13600AE0FB7903F00203002B05D00A4B1B68A3F50043084A1360EA
:40208000FB7903F00403002B02D0054B00221A6000BF0C37BD4680BC704700BF6D640040A081FF1F80B582B000AF1C4B1B78DBB223F00703FB71194AFB791370174B1B784D
:4020C000DBB223F00303FB71144AFB79137000F0A3F84FF4004000F07FF84FF4004000F05FF8002000F040F800F04EF84FF4004000F082F800F07CFC0346BB71084A084B4D
:402100001B78DBB243F01003DBB21370BB79184600F072FC00BF0837BD4680BD7B6400409A64004080B400AF054A054B1B78DBB263F07F03DBB2137000BFBD4680BC704762
:402140007B64004080B500AF064B1B78002B04D1FFF7A8FF034B01221A70FFF7E3FF00BF80BD00BFA481FF1F80B483B000AF0346FB71044AFB79137000BF0C37BD4680BCB9
:40218000704700BF8A64004080B400AF034B1B78DBB21846BD4680BC704700BF6A64004080B483B000AF0346FB80044AFB88138000BF0C37BD4680BC704700BF1868004054
:4021C00080B400AF034B1B889BB21846BD4680BC704700BF9868004080B483B000AF0346FB80044AFB88138000BF0C37BD4680BC704700BF5868004080B483B000AF034617
:40220000FB80044AFB88138000BF0C37BD4680BC704700BF7868004080B500AF01E0FFF7CFFFFFF7B1FF034603F04003002BF6D100BF80BD80B500AF064B1B78002B04D184
:4022400000F00AF8034B01221A7000F051F800BF80BD00BFA581FF1F80B582B000AF214B1B78DBB223F03F03FB711E4AFB7943F00903DBB213701C4A1B4B1B78DBB243F08C
:402280000103DBB21370194A184B1B78DBB243F00103DBB2137041F2883000F039F841F2883000F053F8002000F060F8002000F06DF8002000F07AF800F09AFB0346BB7152
:4022C0000A4A0A4B1B78DBB243F01003DBB21370BB79184600F090FB00F02AF800BF0837BD4680BD7F6400409E6400409F64004080B400AF054A054B1B78DBB263F07F0343
:40230000DBB2137000BFBD4680BC70477F64004080B483B000AF0346FB80044AFB88138000BF0C37BD4680BC704700BF1C68004080B500AF01E000F055F800F047F8034682
:4023400003F01003002BF6D100BF80BD80B483B000AF0346FB80044AFB88138000BF0C37BD4680BC704700BF9C68004080B483B000AF0346FB80044AFB88138000BF0C37F0
:40238000BD4680BC704700BF5C68004080B483B000AF0346FB80044AFB88138000BF0C37BD4680BC704700BF7C68004080B483B000AF0346FB71044AFB79137000BF0C3739
:4023C000BD4680BC704700BF8F64004080B400AF034B1B78DBB21846BD4680BC704700BF6F64004080B400AF034B1B889BB21846BD4680BC704700BFBC68004080B500AF02
:40240000064B20221A6006490520FFF7BFFC07210520FFF7E3FC00BF80BD00BF80E100E0E924000080B582B000AF0F2000F048F800F038F800F0DCFA0346FB71094A094B88
:402440001B78DBB243F01003DBB21370FB79184600F0D2FA044B20221A6000BF0837BD4680BD00BF9664004000E100E080B500AF00F09EF94FF4004000F0C8F9074B002242
:402480001A60074B1B78002B04D1FFF7B7FF044B01221A70FFF7C6FF00BF80BDA881FF1FA681FF1F80B400AF044B1B78DBB203F00F03DBB21846BD4680BC70476664004090
:4024C00080B483B000AF0346FB71FB7943F00703FB71044AFB79137000BF0C37BD4680BC704700BF8664004080B483B000AF144B1B78FB71FB7903F00103002B07D0114B91
:402500001B6803F5FF437F330E4A13600AE0FB7903F00203002B05D00A4B1B68A3F50043084A1360FB7903F00403002B02D0054B00221A6000BF0C37BD4680BC704700BF85
:4025400066640040A881FF1F80B500AF064B1B78002B04D100F00AF8034B01221A7000F051F800BF80BD00BFAC81FF1F80B582B000AF214B1B78DBB223F03F03FB711E4A4B
:40258000FB7943F00903DBB213701C4A1B4B1B78DBB243F00103DBB21370194A184B1B78DBB243F00103DBB2137041F2883000F039F841F2883000F053F8002000F060F85E
:4025C000002000F06DF8002000F07AF800F010FA0346BB710A4A0A4B1B78DBB243F01003DBB21370BB79184600F006FA00F02AF800BF0837BD4680BD776400409264004033
:402600009364004080B400AF054A054B1B78DBB263F07F03DBB2137000BFBD4680BC70477764004080B483B000AF0346FB80044AFB88138000BF0C37BD4680BC704700BF17
:402640000468004080B500AF01E000F055F800F047F8034603F01003002BF6D100BF80BD80B483B000AF0346FB80044AFB88138000BF0C37BD4680BC704700BF846800401F
:4026800080B483B000AF0346FB80044AFB88138000BF0C37BD4680BC704700BF4468004080B483B000AF0346FB80044AFB88138000BF0C37BD4680BC704700BF6468004038
:4026C00080B483B000AF0346FB71044AFB79137000BF0C37BD4680BC704700BF8364004080B400AF034B1B78DBB21846BD4680BC704700BF6364004080B400AF034B1B88AD
:402700009BB21846BD4680BC704700BFA468004080B582B000AF1C4B1B78DBB223F00703FB71194AFB791370174B1B78DBB223F00303FB71144AFB79137000F0A3F84FF443
:40274000004000F07FF84FF4004000F05FF8002000F040F800F04EF84FF4004000F082F800F046F90346BB71084A084B1B78DBB243F01003DBB21370BB79184600F03CF907
:4027800000BF0837BD4680BD766400409764004080B400AF054A054B1B78DBB263F07F03DBB2137000BFBD4680BC70477664004080B500AF064B1B78002B04D1FFF7A8FFCB
:4027C000034B01221A70FFF7E3FF00BF80BD00BFAD81FF1F80B483B000AF0346FB71044AFB79137000BF0C37BD4680BC704700BF8764004080B400AF034B1B78DBB218465E
:40280000BD4680BC704700BF6764004080B483B000AF0346FB80044AFB88138000BF0C37BD4680BC704700BF0C68004080B400AF034B1B889BB21846BD4680BC704700BFFB
:402840008C68004080B483B000AF0346FB80044AFB88138000BF0C37BD4680BC704700BF4C68004080B483B000AF0346FB80044AFB88138000BF0C37BD4680BC704700BF46
:402880006C68004080B500AF01E0FFF7CFFFFFF7B1FF034603F04003002BF6D100BF80BD80B582B000AF4FF6FF7000F05DF84FF6FF7000F075F800F09BF80346FB710A4ABC
:4028C000094B1B78DBB243F01003DBB21370FB79184600F091F800F073F8002000F028F800BF0837BD4680BD9565004080B400AF054A054B1B78DBB263F07F03DBB2137039
:4029000000BFBD4680BC70477465004080B500AF064B1B78002B04D1FFF7C2FF034B01221A70FFF7E3FF00BF80BD00BFAE81FF1F80B483B000AF0346FB71044AFB7913705F
:4029400000BF0C37BD4680BC704700BF8565004080B400AF034B1B78DBB21846BD4680BC704700BF6565004080B483B000AF0346FB80044AFB88138000BF0C37BD4680BC89
:40298000704700BF486A004080B400AF034B1B889BB21846BD4680BC704700BF886A004080B483B000AF0346FB80044AFB88138000BF0C37BD4680BC704700BF086A0040A2
:4029C00080B500AF01E0FFF7DFFFFFF7C1FF034603F00803002BF6D100BF80BD000000000230800803D000BF01380046FCD17047EFF3108072B6704780F31088704700BF32
:402A000030B5214A21F00043934287B01BDD1F4A934205DD02460B4602F0A0FC07B030BD02AA01F02DF900F0030001281AD002280FD008B3DDE9020101230093DDE9042309
:402A400002F016F9EAE70022002301F0F5FB07B030BDDDE90423DDE9020101F0EDFB01F10041DBE70090DDE90423DDE9020102F0FFF801F10041D1E7DDE90423DDE9020166
:402A800001F0DAFBCAE700BFFB21E93FFFFFEF7FC1F30A522DE9F843A2F2FF36132E0B4604460D46884607461CDC002E3FDB3A4A864642FA06F901EA0902024317D034A3F8
:402AC000D3E9002302F04CFC0022002303F08AF820B1002D40DB28EA0905002738462946BDE8F883332E06DDB6F5806F2FD020461946BDE8F883A2F213424FF0FF3929FA51
:402B000002F910EA090FF2D021A3D3E9002302F027FC0022002303F065F80028DED0002D20DB454627EA090738462946D8E718A3D3E9002302F014FC0022002303F052F805
:402B40000028CBD0002D18DB00273D46C6E702460B4602F005FCCCE74FF4801343FA06F6B044B8E7142E10D00123C6F1340603FA06F6371928BF9844D3E725F00042074B94
:402B8000224318BF1D460027A8E705F10108C8E79C7500883CE4377EFFFF0F000000F0BF30B5214A21F00043934287B01BDD1F4A934205DD02460B4602F0D0FB07B030BD26
:402BC00002AA01F05DF800F0030001281ED0022811D0DDE9042300B3DDE9020101F02CFB01F10041EAE7002300930022002302F03FF807B030BD01230093DDE90201DDE93B
:402C0000042302F035F801F10041D7E7DDE90423DDE9020101F010FBD0E70124DDE90201009402F025F8C9E7FB21E93FFFFFEF7F00F0F6B92DE9F04F8DB006460F461446D7
:402C40001D4600F0B9FADFF81093CDE9000199F90080B8F1FF3F46D022462B462046294602F0CAFF834600283DD132463B463046394602F0C1FF8246002874D130463946DC
:402C80000022002302F086FF002833D0002200232046294602F07EFF8346B8B1A94A012300200021CDF828A0CDE90467CDE90645CDE9080103920293B8F1000F6CD0A24BA1
:402CC0000022104619460DB0BDE8F08F2046294602F028FA38B1002200232046294602F063FF00286AD1DDE90023104619460DB0BDE8F08FDDE9000102F014FA8046002845
:402D00007DD0DDE900014FF0000A4FF0000B52465B4602F03FFF0028E5D03046394602F001FA0028DFD02046294602F0FBF90028D9D099F90030834804210022022BCDE9AA
:402D40000467CDE90645CDE908AB039002910A9204D002A802F0ECF9002847D102F0AAFF2223036042E0002200232046294602F011FF0028B7D0744B724800220121B8F191
:402D8000020FCDF828B0CDE90467CDE90645CDE9082303900291A8D002A802F0C9F900287ED00A9B43B302F085FFDDE908230A990160104619460DB0BDE8F08F614999F918
:402DC00000300122CDF828B0CDE90467CDE9064503910292002B68D05C490020022BCDE9080166D102F066FF212303600A9B1BB102F060FF0A9B0360DDE9082375E73046C3
:402E0000394602F08FF900283FF47BAF2046294602F088F900283FF474AFDDE900231046194602F0E9FE00286FD1464B99F90080039303230A90CDE90467CDE906450293BF
:402E4000B8F1000F3BD1DFF814B14FF0604A0022002330463946CDE908AB02F0A5FE00283FF477AF00223A4B2046294602F02AFC04460D4602F064F902460B462046294662
:402E800002F088FE00283DD1324B4FF06042CDE9082399F90080B8F1020F7FF45AAF5DE702F008FF212303607BE700230024CDE9083402A802F03CF9002897D192E7DFF8AD
:402EC000A0B04FF0000A0022002330463946CDE908AB02F069FE0028DDD000221C4B2046294602F0EFFB04460D4602F029F902460B462046294602F04DFE18B9134B002281
:402F0000CDE9082399F90080C5E70E4A99F900900123CDF82880CDE90467CDE9064503920293B9F1000FC0D0002200231046194602F0F2FCB9F1020FCDE908013FF452AFCA
:402F4000B7E700BF807E00000000F03F0000F0FF0000E03FFFFFEFC7D080FF1FFFFFEF470000F07F2DE9F04F8BB004460D4601F09DF8284B064693F900A00F46BAF1FF3F18
:402F800012D022462B462046294602F035FE834650B94FF000084FF000092046294642464B4602F001FE20B9304639460BB0BDE8F08F194A0123CDF820B0CDE90445CDE99E
:402FC000024501920093BAF1000F15D042464B464046494602F0A0FCBAF1020FCDE906010CD102F067FE21230360089B63B9DDE906010BB0BDE8F08FCDE90689684602F065
:4030000097F80028F1D1ECE702F054FE089B0360EDE700BFD080FF1F847E0000000000002DE9F84F5442144323F00049DFF880E149EAD474744506460D463ED84442044363
:4030400021F0004B4BEAD47474458A4635D803F1404404F58014144344D09C1704F0020444EAD17450EA0B012FD052EA090133D0F14546D0F3452FD0C9EB0B094FEA2959BD
:40308000B9F13C0F34DC002B57DB3046294602F043FC02F043F801F0A3FE012C4AD0022C3BD084B132A3D3E9002302F057F932A3D3E9002302F052F905E01046194632462B
:4030C0002B4602F04DF9BDE8F88F022C14D0032C0CD12D482D49F6E7BAF1000F2A480EDB2B49F0E7BDE8F84F01F07ABE2946EAE723A1D1E90001D0E723482649E3E7264917
:40310000E1E7CB451FD0022CF6D0032CE1D0012C4FF0000020D00146D5E715A3D3E9002302F01CF902460B4613A1D1E9000102F015F9C8E701F10041C5E719F13C0FA4DA8E
:4031400000200021A9E7022C0ED0032C09D0012C0D4804D01149B6E74FF00041B3E71049B1E710481049AEE70E481049ABE700BF075C143326A6A13C182D4454FB21094037
:40318000182D4454FB21F93F182D4454FB2109C0FB21F93FFB210940FB21F9BFFB21E93FFB21E9BFD221337F7CD902C07CD902400000F07F000000002DE9F04F23F0004815
:4031C00058EA020993B03CD0714C21F00046A64283460D460CDD06F1404606F5801656EA0B0038D183466B49584613B0BDE8F08F9A4696462BD0A045EDDC654CA04578D08B
:40320000002D0F468146CDE9002376DB0024BEF1000F27D15E4B984500F08B805D4B984552D0BAF1804F00F0C9835B4B9A4519D1002D17DB4846394613B0BDE8F04F00F031
:4032400035BFCB465846534913B0BDE8F08F0028C1D1B045D1DD514813B0BDE8F04F01F069BF00244846394601F058FFBBF1000F1CD0ED0F013D54EA050370D0484B984522
:4032800040F3948003F10473984540F30D84454B9E4270DDBAF1000F70DD3BA3D3E900231046194602F00EFA83469DE726B1394B25F040429A42DCD1BAF1000FC0F2B7831D
:4032C000002D08DB83468FE7BAF1000FC0F25E84CB46394688E706F1404606F5801656EA040300F08384012CECD101F1004183467AE7BEF1000F83D06DE72B4B98452CDCDF
:40330000A3F15473984581DD4FEA2853A3F2FF33142B40F35384C3F134032EFA03F202FA03F39E457FF472AF02F00102C2F102046DE706F1404303F5801353EA0B0300F080
:403340003A83184B9E4240F36783BAF1000F15DBDDE900349B46214646E7022457E74A4648463B46394601F0F9FF02460B4602F0D3FA834638E7BAF1000F8EDB4FF0000BFF
:40338000594631E7AFF300809C7500883CE4377E0000F07F0000F03F0000E03F887E00000000E041FFFFEF3FFFFF3F43B6F5801F4FF0000205DAD04B02F084F90E466FF08F
:4033C0003402DFF844E33315C6F31306A3F2FF3346F07F57764503EB020A47F4401740F3C983C64B00229E4240F304840023CDE90823CDE90C23C24B0022CDE906230AF126
:40340000010AA7F5801700263946DDE90623CDE90A0101F0A3FFDDE9062380468946DDE90A0101F09DFF02460B460020B44902F073FA0A4601461346CDE90E1202464946D2
:40344000404602F03FF98C4683467B1043F0005303F5002399190020CDE904BC06460F464FF0000B6146584632463B46CDE910BCCDE9020102F026F902460B46404649466A
:4034800001F06CFFDDE90623804689463046394601F064FF02460B46DDE90A0101F05EFFDDE9022302F00EF902460B464046494601F054FFDDE90E2302F004F9DDE904782D
:4034C000CDE906013A4643463846414602F0FAF877A3D3E9002306460F4602F0F3F876A3D3E9002301F03CFF32463B4602F0EAF873A3D3E9002301F033FF32463B4602F0B2
:40350000E1F871A3D3E9002301F02AFF32463B4602F0D8F86EA3D3E9002301F021FF32463B4602F0CFF86CA3D3E9002301F018FF3246804689463B463046394602F0C2F812
:4035400002460B464046494602F0BCF8DDE9022306460F46DDE9040101F002FFDDE9062302F0B0F832463B4601F0FAFEDDE902678046894632463B463046394602F0A2F805
:403580000022604BCDE90A0101F0EAFE42464B4601F0E6FEDDE910BC0F46DDE902015A463B46CDE90EBC5E4602F08CF80022CDE90201544B3046394601F0D0FEDDE90A232A
:4035C00001F0CCFE02460B464046494601F0C6FEDDE9042302F076F8324680468946DDE906013B4602F06EF802460B464046494601F0B6FE8046894602460B46DDE9020163
:4036000001F0AEFEDDE90EBC35A3D3E900235846CDE906BC5E460F4602F054F8DDE90223CDE904013046394601F098FE02460B464046494601F092FE2BA3D3E9002302F069
:4036400041F82BA3D3E90023804689463046394602F038F802460B464046494601F080FEDDE90C2301F07CFE80465046894601F0C3FF06460F46DDE9040142464B4601F0E7
:403680006FFEDDE9082301F06BFE32463B4601F067FEDDE906BC324658463B46DA468B4601F05CFEDDE9082330E000BFAFF30080EF4E454A287ECA3F65DBC9934A86CD3FD3
:4036C00001411DA96074D13F4D268F515555D53FFFAB6FDBB66DDB3F033333333333E33F000000E009C7EE3FFD033ADC09C7EE3FF5015B14E02F3EBE0000404379B60B005B
:403700000000F03F000008408E98030001F026FEDDE9042301F022FE02460B464046494601F01CFE80468946DDE90012013C54EA050314BFD64CD74C0023CDE904340B46B3
:403740001446CDE9023400230293DDE9024508462B461146224601F001FE52465B4601F0B1FFDDE9002306460F464046494601F0A9FF02460B463046394601F0F1FD064605
:403780000F4622462B4650465946CDE9006701F099FF0B460246804689463046394601F0DFFDBD4B064699420D460C4640F30E8101F13F4303F5E003034340F0F081A0A301
:4037C000D3E90023DDE9000101F0CAFD424682468B464B463046294601F0C0FD02460B465046594602F0FEF9002840F0D8812F463B154FF48012A3F2FE3342FA03F32344C5
:40380000C3F30A52A54EA2F2FF321641C3F3130B0020C2F1140523EA06014BF4801B02460B46002C4BFA05FB40464946B8BFCBF1000B01F093FD02460B4680468946DDE9E7
:40384000000101F08DFD4FEA0B5A00247EA3D3E9002320460D4601F035FF424606460F464B462046294601F079FD02460B46DDE9000101F073FD76A3D3E9002301F022FF6B
:4038800075A3D3E90023804689462046294601F019FF02460B464046494601F061FD8046894602460B463046394601F059FD32463B4604460D4601F051FD02460B46404643
:4038C000494601F04BFD2246804689462B462046294601F0F7FE62A3D3E9002306460F4601F0F0FE60A3D3E9002301F037FD32463B4601F0E7FE5EA3D3E9002301F030FD9F
:4039000032463B4601F0DEFE5BA3D3E9002301F025FD32463B4601F0D5FE59A3D3E9002301F01EFD32463B4601F0CCFE02460B462046294601F012FD06460F4602460B46D1
:403940002046294601F0BEFE0022CDE900014FF080433046394601F001FD02460B46DDE9000101F0D9FF424606460F464B462046294601F0A7FE42464B4601F0F1FC024679
:403980000B463046394601F0E9FC22462B4601F0E5FC02460B4600203D4901F0DFFC8A44BAF5801FC0F237815146DDE9042301F089FE834618E4F346354915E44A46484620
:4039C0003B46394601F07EFE83460DE4344B21F000479F4240F30181324B0B4403430CD142464B4601F0BAFC02460B46DDE9000102F0E4F800283FF4FBAE23A3D3E90023AD
:403A0000DDE9040101F05EFE1FA3D3E9002301F059FE8346FFF7E8BBBAF1000FBFF6AEACDDE900349B4604F10041FFF7DDBB02460B460020164901F06FFF41E4AFF30080FD
:403A4000FE822B654715973C00000000432EE63FEF39FAFE422EE63F396CA80C615C20BED0A4BE726937663EF16BD2C541BDBB3E2CDE25AF6A56113F93BDBE166CC1663F12
:403A80003E5555555555C53F59F3F8C21F6EA5010000F03F0000F0BFFFFF8F40FFFF0F00FFCB904000346F3F6F4B9E427FF763AC6E4B9E423FF7EEAB00226C4B01F04EFC13
:403AC0005BA3D3E9002306460F4601F0FBFD5AA3D3E90023804689463046394601F0F2FD002282468B46624B3046394601F0EAFD02460B4652A1D1E9000101F02FFC324609
:403B00003B4601F0DFFD02460B460020594901F025FC3246CDE902013B463046394601F0D1FD02460B46DDE9020101F0CBFD46A3D3E9002301F0C6FD02460B4650465946FF
:403B400001F00CFC02460B4606460F464046494601F006FC42464B46002082468B4601F0FDFB02460B463046394601F0F7FB80468946D9E500220023CDE90823CDE90C2380
:403B80003A4B00220026CDE906233DE44A463B460020364901F0C0FE8346FFF725BB2CA3D3E90023DDE9040101F08CFD28A3D3E9002301F087FD8346FFF716BBBEF1000FDA
:403BC0007FF44FABC3F1140348FA03F202FA03F3984524D07446FFF721BB264B9F423FF707AEDDE902349A469B462EE602460B46FFF7B9BB204B4FF48026CDE9062316A30A
:403C0000D3E90023CDE9082315A3D3E90023CDE90C23FFF7F9BB5A4601F022FBC5E602F00102C2F10204FFF7F9BA00BFAFF30080000000604715F73F44DF5DF80BAE543E58
:403C4000555555555555D53FFE822B654715F73F9C7500883CE4377E0000004003B8E23F06D0CF43EBFD4C3EFEFFEF3F0000F03F0000D03F0000E03F0000F83F00000000ED
:403C80002DE9F04F944C21F00047A7428FB040F381801446914A0E46974226DC84A3D3E90023002940F3A08101F058FB8C4B80469F42894600F083807FA3D3E9002301F0BE
:403CC0004DFB02460B464046C4E90023494601F045FB79A3D3E9002301F040FB0125C4E9020128460FB0BDE8F08F7E4A974240F383807D4A974258DC3D15A5F21645A7EBFE
:403D000005518B46824601F08DFF01F075FC8046894642464B4650465946CDE9088901F01DFB0022714B01F0CDFC8B46824601F079FF01F061FC8046894642464B46504656
:403D40005946CDE90A8901F009FB0022674B01F0B9FC00220023CDE90C0101F01BFF002800F06A81002340464946002201F012FF002814BF012302235D480221019000914C
:403D80002A46214608A800F07BFB002EC0F24A81054606E0C2E9000100250024C2E90245002528460FB0BDE8F08F02460B4601F0D5FA0025C4E90201C4E90001F1E740A346
:403DC000D3E9002301F0CAFA3FA3D3E9002306460F4601F0C3FA02460B463046C4E90023394601F0BBFA38A3D3E9002301F0B6FA0125C4E90201D4E701F090F934A3D3E922
:403E000000238046894601F05DFC0022394B01F0A7FA01F007FF054601F0EEFB24A3D3E90023CDE9040101F04DFC02460B464046494601F093FA20A3D3E9002382468B462A
:403E4000DDE9040101F03EFC1F2DCDE9020155DC294B6A1E53F822309F424FD002460B465046594601F07AFA02460B4681468846C4E900234A4643465046594601F06EFAA5
:403E8000DDE9022301F06AFA02460B46002EC4E9022386DA4A4608F1004301F1004184E80C00E160A0606D427BE700BFAFF3008000004054FB21F93F3163621A61B4D03D05
:403EC0000000601A61B4D03D7370032E8A19A33B83C8C96D305FE43FFB21E93F7BD90240FB21F93FFB213941FFFFEF7F000070410C7F00000000E03F8C7E0000DDE90223DE
:403F00005046594601F02AFA3F15C1F30A53FB1A102B81468846C4E90001ABDD58A3D3E90023DDE9040101F0CDFB8046894602460B465046594601F011FACDE906010246F5
:403F40000B465046594601F009FA42464B4601F005FA4DA3D3E9002380468946DDE9040101F0B0FB42464B4601F0F8F902460B46CDE90201DDE9060101F0F0F90B46024666
:403F80008846C1F30A517F1A312F8146C4E9002372DD3FA3D3E90023DDE9040101F092FB8046894602460B46DDE9060101F0D6F902460B4682468B46DDE9060101F0CEF9C9
:403FC00042464B4601F0CAF933A3D3E9002380468946DDE9040101F075FB42464B4601F0BDF9CDE9020139E701F0BAF92E4B80469F42894622D02AA3D3E9002301F0B0F91A
:4040000002460B464046C4E90023494601F0A6F923A3D3E9002301F0A3F94FF0FF35C4E90201BEE66268E36802F1004203F1004345426260E360B4E603239DE610A3D3E9BA
:40404000002301F08DF910A3D3E9002306460F4601F086F902460B463046C4E90023394601F07CF908A3D3E9002301F079F94FF0FF35C4E9020194E6DDE906ABFAE600BF9F
:404080000000601A61B4D03D7370032E8A19A33B0000002E8A19A33BC14920259A837B393163621A61B4D03DFB21F93F2DE9F0415F4E0C46B6460E407645054600F09880DC
:4040C00000290B46024674DD5FEA215E7FD0AEF2FF3EC3F313031EF0010F43F4801363D100273E4603EBD2710B444FEA6E0E520016204FF4001174189C424FEAD2754FEAF2
:40410000420202DC1B1B66180F44013805EB43034FEA5101EFD1844620244FF0004109E020D003EBD275013C4FEA51012B444FEA420220D09E4201EB0C05F1DA002D05EB97
:40414000010C09DBB0469542A3EB060300D9013B4646521B0844E4E7BCF1000FF2DB06F10108F0E7954217D8002D05EB010C49DB98460023ECE7134310D140087B1003F17F
:404180007F5303F50013FA0703EB0E57394648BF40F00040BDE8F0813346C2E7411C35D000F001031844E8E75B0003EBD273520096E721F000460643ECD079BB8E46D30A81
:4041C000AEF1150E5205002BF9D0DD0221D4002100E001465B00DC0201F10100F9D5C0F1200422FA04F42343C1EB0E0E82406EE702460B4601F066FA2A46234601F0B0F812
:40420000BDE8F081BCF1000FA9DAB1E701372046B4E720244FF0FF310020E2E702460B4601F09CF802460B4601F076FBB2E700BF0000F07F000000002DE9F04F21F0004630
:40424000B6F1795F85B00C4692469B4605466BDA01F0E8FC002800F0E7802A4623462846214601F02FFA74A3D3E900238046894601F028FA72A3D3E9002301F071F842465F
:404280004B4601F01FFA70A3D3E9002301F066F842464B4601F016FA6DA3D3E9002301F05FF842464B4601F00DFA6BA3D3E9002301F054F842464B4601F004FA68A3D3E9C7
:4042C000002301F04DF842464B4601F0FBF9CDE900010022644B4046494601F0F3F9DDE9002306460F464046494601F0EBF95246804689465B462846214601F0E3F90246C1
:404300000B464046494601F029F802460B463046394601F023F802460B460020534901F01DF805B0BDE8F08F02460B4601F0CAF941A3D3E900238046894601F0C3F940A302
:40434000D3E9002301F00CF842464B4601F0BAF93DA3D3E9002301F001F842464B4601F0B1F93BA3D3E9002300F0FAFF42464B4601F0A8F938A3D3E9002300F0EFFF4246DE
:404380004B4601F09FF936A3D3E9002300F0E8FF4B46424601F096F9354BCDE900019E4297DD344B00229E4238DCA6F5001300202E4916461F4600F0D1FFCDE902010022FA
:4043C000294B4046494601F07DF932463B4600F0C5FFDDE9002306460F464046494601F071F95246804689465B462846214601F069F902460B464046494600F0AFFF02469C
:404400000B463046394600F0A9FF02460B46DDE9020100F0A3FF05B0BDE8F08F164B0026CDE90223154FCAE71049002005B0BDE8F08F00BFAFF30080D43888BEE9FAA8BD8D
:40444000C4B1B4BD9EEE213EAD529C804F7E923E9015CB19A001FA3E7751C1166CC1563F4C5555555555A53F0000E03F0000F03F3233D33F0000E93F0000E73F0000D23FF3
:404480002DE9F04F794CADF51D7D1F460B93D31E84FB0354DB17C3EBA403A69E744C23EAE37554F826406B1C26460994A3EB83037C1E0D95029402EBC3032D1B3419049028
:4044C0000A91089316D42C44013422AEA79F08E057F8250001F090F80135A542E6E9020108D0002DF4DA013500200021A542E6E90201F6D1099B002B2FDB099B74AADDF8E3
:40450000089002EBC30B0DF5E47A029B002BC0F295810B9B0026C3EB090824AB03EBC808049B0027A3F1080524AB03EBC904F5E9022374E8020101F0C5F802460B46304610
:40454000394600F00DFF444506460F46EFD1EAE90267DA4509F10109D7D1099B10A91D4603F18043023B9B001A1D0A440B440F920E939CAB03EBC503002D53E928672BDD6D
:404580009CAB03EBC504A83C0DF13C0A0DF5E47B0022384B3046394601F094F801F042FB01F02AF80022344B8046894601F08AF802460B463046394600F0D0FE01F032FB09
:4045C00074E802234AF8040F4946404600F0C8FE5C4506460F46DBD1089C30463946224600F03EFE00224FF07F5306460F4601F069F8FEF74DFA0022204B01F063F802467C
:404600000B463046394600F0A9FE0F46064601F009FB814600F0F0FF02460B463046394600F09CFE002C06460F4640F3EE80681E10AB53F82030C4F1180243FA02F101FA05
:4046400002F29B1AC4F1170810AA42F82030894443FA08F8B8F1000F3DDD002D09F1010940F3D382002214460FA911E0ABAAAA2A148000000000703E000070410000204043
:40468000C3F180700BB108600124013295420DDD51F8043F002CF3D0C3F1FF13013203F57F4395420B604FF00104F1DC089B002B0DDD012B00F0B180022B08D16A1E10AB4A
:4046C00053F8223010A9C3F3150341F82230B8F1020F00F08180002200233046394601F059FA002800F05B82099B05F1FF3B5B4510DC05F1804310AA013B0F9802EB8303C4
:40470000002253F80419834242EA0102F9D1002A40F0B180099B10AA013B52F82330002B40F071820E9A012352F8041901330029FAD0E9186A1C8A420C914BDC0D990B9867
:404740005118DB0001F180410593A79B05440139E80003EB810A24ABD20003EB000B74AB13440193A2F10803069007934FF000095AF8040F00F040FF029BEBE80201002B98
:404780004FF000064FF000071BDB069B03EB0904079B09EB030824AB1C449844049BA3F10805F5E9022374E8020100F08BFF02460B463046394600F0D3FD444506460F469C
:4047C000EFD1019B09F10809E3E802670193059B9945CDD10C9DCCE632463B460020B04900F0BCFD06460F46002C3FF474AF089A0020AB4900F034FD02460B4630463946D0
:4048000000F0ACFD06460F4665E710D16B1E10AA52F823304FEAE3581CE76A1E10AB53F8223010A9C3F3160341F822304FE700229C4B01F0CDF958B980464CE7002600277A
:40484000EAE90267DA4509F101097FF45EAE84E6002D09F10109C8BF4FF002083FF702AF32463B4600208E4900F078FD4FF0020806460F462FE7089A10AB53F82B30183A5E
:40488000CDF81490CDF8048008926BB90BF18043013B10A901EB830353F804190BF1FF3B183A0029F8D00892089A00207C4900F0D7FCBBF1000F04460D46C0F2B6814FEA23
:4048C000CB030DF5E87810AA02EB8B0608EB03090493043609F1080756F8040D00F08CFE22462B4600F0EEFE002267E902016E4B2046294600F0E6FEB84504460D46EBD1BC
:404900004B46CDF818B09B460DF5987ACDF808A0DDF824A04FF00009BAF1000FC0F226815DA3D3E90023DFF884815D4600260027002403E0A14510DBF8E90223F5E802019A
:4049400000F0C0FE02460B463046394600F008FD0134A24506460F46ECDA029BABF1080B03EBC903C3E9006772AB5B4509F10109D2D1A69BDDF818B0DDF808A0032B00F28B
:404980008380DFE813F0D100950095000400BBF1000F40F35481049BCDF808B053449846D3E90067D34658E9029A32463B464846514600F0D5FC04460D4602460B4648461B
:4049C000514600F0CBFC32463B4600F0C9FCC8E9000168E90245C34526462F46E3D1DA46DDF808B0BBF1010F40F32981049B0DF59C7B53449846D3E90067994659E90234E7
:404A00003046CDE902341A463946234600F0A8FC04460D4602460B46DDE9020100F09EFC32463B4600F09CFCC9E9000169E90245CB4526462F46E1D100231D4608F10808B0
:404A400050AC184678E90223294600F089FC444503460D46F5D1019A002A00F0D880DAF80440DAF80C200A9FDAF80010DAF8080005F1004504F1004402F100427D613B61DE
:404A80007C60FA603960B860059B03F007000DF51D7DBDE8F08F00BF00000040FB21F93F0000F03F0000E03F0000703E2880000000242146049D0835554475E902232046D3
:404AC00000F04EFC55450446F7D1019B002B50D00A9F01F100450B46DAE9000187E83000224600F03BFCBBF1000F03460D460DDD01241846FAE90223294600F031FC013439
:404B0000A34503460D46F4DA019A0AB105F10045184629460A9BC3E90201059B03F007000DF51D7DBDE8F08F00231C46049A0832924418467AE90223214600F011FC0BF19E
:404B4000FF3BBBF1FF3F03460C46F2D1019A0AB104F10044184621460A9BC3E90001059B03F007000DF51D7DBDE8F08F00260027F3E626460F4622460A9C0B46DAE90001A9
:404B8000C4E9006700F0EAFBBBF1000F03460D46AEDC184629460A9BC3E90201BDE7089B30465A423946CDF81490CDF8048000F057FB00222C4B06460F4601F009F80028EA
:404BC00040D00022294B3046394600F07BFD01F029F8044600F010FD0022234B00F072FD0B4602463946304600F0B8FB01F01AF8089B05F1010B1833089310AB43F8250090
:404C000043F82B4050E6012393E500244EE51846DAE90067DAE9022329460A9DC5E90067C5E90401C5E902232EE7A69B032B3FF62BAFDFE803F0151010020DF5987A0023C9
:404C40001D4608E73046394600F0ECFF10ABAB4643F8250028E6002421460DF5987A34E700231C4672E700BF000070410000703E2DE9F04F21F00046B6F1795F85B00C4690
:404C800090469946054604DA00F0CCFF002800F085802A4623462846214600F013FD06460F4602460B462846214600F00BFD3EA3D3E9002382468B463046394600F002FD4C
:404CC0003BA3D3E9002300F049FB32463B4600F0F9FC39A3D3E9002300F042FB32463B4600F0F0FC36A3D3E9002300F037FB32463B4600F0E7FC34A3D3E9002300F030FBB1
:404D00000E9BCDE900019BB30022334B4046494600F0D8FCDDE90023CDE902015046594600F0D0FC02460B46DDE9020100F016FB32463B4600F0C6FC42464B4600F00EFB99
:404D400023A3D3E9002306460F465046594600F0B9FC02460B463046394600F001FB02460B462846214600F0F9FA05B0BDE8F08F02460B463046394600F0A4FC14A3D3E9DE
:404D8000002300F0EBFA52465B4600F09BFC2A46234600F0E5FA05B0BDE8F08F2846214605B0BDE8F08F00BF7CD5CF5A3AD9E53DEB9C2B8AE6E55A3E7DFEB157E31DC73E77
:404DC000D561C119A0012A3FA6F810111111813F495555555555C53F0000E03F000000002DE9F84FC04B21F000469E420D468A4604460FDDBD4B9E4200F3B28000F0AD80C1
:404E0000BB4BBC49BC4CBAF1000FC8BF19462046BDE8F88FB94B9E4200F3BC80A3F1DE739E4240F3A7804FF0FF3B22462B462046294600F047FC02460B468046894600F083
:404E400041FC91A3D3E9002306460F4600F03AFC8FA3D3E9002300F083FA32463B4600F031FC8DA3D3E9002300F07AFA32463B4600F028FC8AA3D3E9002300F071FA324628
:404E80003B4600F01FFC88A3D3E9002300F068FA32463B4600F016FC85A3D3E9002300F05FFA42464B4600F00DFC83A3D3E90023804689463046394600F004FC80A3D3E94F
:404EC000002300F04BFA32463B4600F0FBFB7EA3D3E9002300F042FA32463B4600F0F2FB7BA3D3E9002300F039FA32463B4600F0E9FB79A3D3E9002300F030FA32463B467E
:404F000000F0E0FBBBF1FF3F02460B4669D04046494600F025FA22462B4600F0D3FB784E784B4FEACB0B5E449B44DBE9002300F015FA22462B4600F011FA02460B46D6E904
:404F4000000100F00BFABAF1000F0446BFF65FAF01F100412046BDE8F88F00283FF450AF224620462B46294600F0FAF904462046BDE8F88F5AA3D3E9002300F0F1F9002210
:404F8000614B00F02FFE00283FF44DAF29462046BDE8F88F00F0C2F85C4B04469E420D462FDCA3F550239E4254DC02460B4600F0D7F90022544B00F0D1F9002206460F4645
:404FC0004FF080432046294600F0CAF902460B463046394600F0A0FC4FF0000B04460D4623E74046494600F0BBF922462B4600F069FB02460B462046294600F0AFF90446E6
:4050000005E7434B9E421ADC0022424B00F0A6F9002206460F463F4B2046294600F052FB0022394B00F09CF902460B463046394600F072FC4FF0020B04460D46F5E6024660
:405040000B460020344900F067FC4FF0030B04460D46EAE600222C4B00F080F9002206460F46294B2046294600F07AF902460B463046394600F050FC4FF0010B04460D4612
:40508000D3E600BFAFF3008011DA22E33AAD903FEB0D76244B7BA93F513DD0A0660DB13F6E204CC5CD45B73FFF8300922449C23F0D5555555555D53F2F6C6A2C44B4A2BF92
:4050C0009AFDDE522DDEAD3F6D9A74AFF2B0B33F711623FEC671BC3FC4EB98999999C93F9C7500883CE4377EFFFF0F440000F07FFB21F93FFB21F9BF182D4454FFFFDB3FF5
:4051000088800000688000000000F03FFFFFF23FFF7F03400000F83F0000F0BF21F00041704700BF41F0004101F58010C00F70470020704700200149704700BF0000F87F06
:40514000F0B5C1F30A5EAEF2FF36132E83B002460B460C464FEAD17507462EDC002E49DB3D49314103EA010010432BD049080B4053EA02070CD04FF48023132E24EA0101E9
:4051800043FA06F444EA01040CBF4FF000470027324B214603EBC505D5E90045384622462B4600F0DDF8CDE90001DDE9000122462B4600F0D3F803B0F0BD332E06DDB6F5F1
:4051C000806F45D01046194603B0F0BDAEF2134E4FF0FF3121FA0EF10842F3D049080842D6D04FF0804320EA010143FA0EFE4EEA0107CDE721F0004101431946E4D0C3F314
:40520000130343EA000CCCF1000343EA0C0C134B640C4FEA1C3C0CF4002C03EBC5036404D3E900674CEA040132463B4600F098F8CDE90001DDE9000132463B4600F08EF8AD
:40524000024621F0004141EAC57310461946BBE700F086F8B8E700BFFFFF0F00A8800000F8B5C1F30A5604460D460B46174606BB21F00043034325D000222F4B00F022FAD5
:405280002E4A044697420D460B462ADBC1F30A56363E40F2FE723E44964228DC002E12DD23F0FF4323F4E00343EA065520462946F8BD40F2FF729642EBD102460B4600F0E4
:4052C0004FF8F8BDF8BD16F1350F1DDA4CF250339F420CDC14A1D1E9000122462B4600F031F811A3D3E9002300F0ECF9F8BD22460FA1D1E900012B4600F024F80CA3D3E9F7
:40530000002300F0DFF9F8BD23F0FF4323F4E003363643EA0655204629460022084B00F0D1F9F8BDAFF3008059F3F8C21F6EA5019C7500883CE4377E00005043B03CFFFF8B
:405340000000903C03F0004321F0004242EA0301704700BF81F0004102E000BF83F0004330B54FEA41044FEA430594EA050F08BF90EA020F1FBF54EA000C55EA020C7FEA83
:40538000645C7FEA655C00F0E2804FEA5454D4EB5555B8BF6D420CDD2C4480EA020281EA030382EA000083EA010180EA020281EA0303362D88BF30BD11F0004F4FEA0131FD
:4053C0004FF4801C4CEA113102D0404261EB410113F0004F4FEA03334CEA133302D0524263EB430394EA050F00F0A780A4F10104D5F1200E0DDB02FA0EFC22FA05F280186D
:4054000041F1000103FA0EF2801843FA05F359410EE0A5F120050EF1200E012A03FA0EFC28BF4CF0020C43FA05F3C01851EBE37101F0004507D54FF0000EDCF1000C7EEB5E
:4054400000006EEB0101B1F5801F1BD3B1F5001F0CD349085FEA30004FEA3C0C04F101044FEA445212F5800F80F09A80BCF1004F08BF5FEA500C50F1000041EB045141EA71
:40548000050130BD5FEA4C0C404141EB010111F4801FA4F10104E9D191F0000F04BF01460020B1FA81F308BF2033A3F10B03B3F120020CDA0C3208DD02F1140CC2F10C0279
:4054C00001FA0CF021FA02F10CE002F11402D8BFC2F1200C01FA02F120FA0CFCDCBF41EA0C019040E41AA2BF01EB0451294330BD6FEA04041F3C1CDA0C340EDC04F11404A7
:40550000C4F1200220FA04F001FA02F340EA030021FA04F345EA030130BDC4F10C04C4F1200220FA02F001FA04F340EA0300294630BD21FA04F0294630BD94F0000F83F49F
:40554000801306BF81F480110134013D4EE77FEA645C18BF7FEA655C29D094EA050F08BF90EA020F05D054EA000C04BF1946104630BD91EA030F1EBF0021002030BD5FEAB9
:40558000545C05D14000494128BF41F0004130BD14F580043CBF01F5801130BD01F0004545F0FE4141F470014FF0000030BD7FEA645C1ABF194610467FEA655C1CBF0B46D0
:4055C000024650EA013406BF52EA033591EA030F41F4002130BD00BF90F0000F04BF0021704730B54FF4806404F132044FF000054FF0000150E700BF90F0000F04BF0021DE
:40560000704730B54FF4806404F1320410F0004548BF40424FF000013EE700BF42004FEAE2014FEA31014FEA02701FBF12F07F4393F07F4F81F06051704792F0000F14BFE6
:4056400093F07F4F704730B54FF4607401F0004521F0004120E700BF50EA010208BF704730B54FF000050AE050EA010208BF704730B511F0004502D5404261EB41014FF4FA
:40568000806404F132045FEA915C3FF4DCAE4FF003025FEADC0C18BF03325FEADC0C18BF033202EBDC02C2F1200300FA03FC20FA02F001FA03FE40EA0E0021FA02F11444EA
:4056C000C1E600BF70B54FF0FF0C4CF4E06C1CEA11541DBF1CEA135594EA0C0F95EA0C0F00F0DEF82C4481EA030621EA4C5123EA4C5350EA013518BF52EA033541F48011E2
:4057000043F4801338D0A0FB02CE4FF00005E1FB02E506F00042E0FB03E54FF00006E1FB03569CF0000F18BF4EF0010EA4F1FF04B6F5007F64F5407404D25FEA4E0E6D41F9
:4057400046EB060642EAC62141EA55514FEAC52040EA5E504FEACE2EB4F1FD0C88BFBCF5E06F1ED8BEF1004F08BF5FEA500E50F1000041EB045170BD06F0004646EA010129
:4057800040EA020081EA0301B4EB5C04C2BFD4EB0C0541EA045170BD41F480114FF0000E013C00F3AB8014F1360FDEBF002001F0004170BDC4F10004203C35DA0C341BDC22
:4057C00004F11404C4F1200500FA05F320FA04F001FA05F240EA020001F0004221F0004110EBD37021FA04F642EB06015EEA430E08BF20EAD37070BDC4F10C04C4F120051F
:4058000000FA04F320FA05F001FA04F240EA020001F0004110EBD37041F100015EEA430E08BF20EAD37070BDC4F1200500FA05F24EEA020E20FA04F301FA05F243EA020386
:4058400021FA04F001F0004121FA04F220EA020000EBD3705EEA430E08BF20EAD37070BD94F0000F0FD101F00046400041EB010111F4801F08BF013CF7D041EA060195F084
:40588000000F18BF704703F00046520043EB030313F4801F08BF013DF7D043EA0603704794EA0C0F0CEA135518BF95EA0C0F0CD050EA410618BF52EA4306D1D181EA0301FB
:4058C00001F000414FF0000070BD50EA410606BF1046194652EA430619D094EA0C0F02D150EA013613D195EA0C0F05D152EA03361CBF104619460AD181EA030101F00041EF
:4059000041F0FE4141F470014FF0000070BD41F0FE4141F4780170BD70B54FF0FF0C4CF4E06C1CEA11541DBF1CEA135594EA0C0F95EA0C0F00F0A7F8A4EB050481EA030E14
:4059400052EA03354FEA013100F088804FEA03334FF0805545EA131343EA12634FEA022245EA111545EA10654FEA00260EF000419D4208BF964244F1FD0404F5407402D2AD
:405980005B084FEA3202B61A65EB03055B084FEA32024FF480104FF4002CB6EB020E75EB030E22BFB61A754640EA0C005B084FEA3202B6EB020E75EB030E22BFB61A7546BB
:4059C00040EA5C005B084FEA3202B6EB020E75EB030E22BFB61A754640EA9C005B084FEA3202B6EB020E75EB030E22BFB61A754640EADC0055EA060E18D04FEA051545EADC
:405A000016754FEA06164FEAC30343EA52734FEAC2025FEA1C1CC0D111F4801F0BD141EA00014FF000004FF0004CB6E711F4801F04BF01430020B4F1FD0C88BFBCF5E06FB3
:405A40003FF6AFAEB5EB030C04BFB6EB020C5FEA500C50F1000041EB045170BD0EF0004E4EEA113114EB5C04C2BFD4EB0C0541EA045170BD41F480114FF0000E013C90E6F6
:405A800045EA060E8DE60CEA135594EA0C0F08BF95EA0C0F3FF43BAF94EA0C0F0AD150EA01347FF434AF95EA0C0F7FF425AF104619462CE795EA0C0F06D152EA03353FF4C1
:405AC000FDAE1046194622E750EA410618BF52EA43067FF4C5AE50EA41047FF40DAF52EA43057FF4EBAE12E74FF0FF3C06E000BF4FF0010C02E000BF4FF0010C4DF804CDD5
:405B00004FEA410C7FEA6C5C4FEA430C18BF7FEA6C5C1BD001B050EA410C0CBF52EA430C91EA030F02BF90EA020F0020704710F1000F91EA030F58BF994208BF90422CBFE2
:405B4000D8176FEAE37040F0010070474FEA410C7FEA6C5C02D150EA013C07D14FEA430C7FEA6C5CD6D152EA033CD3D05DF8040B704700BF8446104662468C4619466346CF
:405B800000E000BF01B5FFF7B7FF002848BF10F1000F01BD4DF808EDFFF7F4FF0CBF012000205DF808FB00BF4DF808EDFFF7EAFF34BF012000205DF808FB00BF4DF808ED03
:405BC000FFF7E0FF94BF012000205DF808FB00BF4DF808EDFFF7CEFF94BF012000205DF808FB00BF4DF808EDFFF7C4FF34BF012000205DF808FB00BF4FEA410C7FEA6C5C88
:405C000002D150EA013C0AD14FEA430C7FEA6C5C02D152EA033C02D14FF0000070474FF0010070474FEA410212F5001215D211D56FF47873B3EB625212D94FEAC12343F03B
:405C4000004343EA505311F0004F23FA02F018BF404270474FF00000704750EA013005D111F0004008BF6FF0004070474FF00000704700BF4A0011D212F5001211D20DD54D
:405C80006FF47873B3EB62520ED44FEAC12343F0004343EA505323FA02F070474FF00000704750EA013002D14FF0FF3070474FF000007047014B1868704700BF3481FF1FD5
:405CC0000E4B70B51E460E4C0025E41AA410A54204D056F8253098470135F8E702F09EFA084B094C1E46E41AA4100025A54204D056F8253098470135F8E770BD28820000A9
:405D0000288200002882000030820000024B0146186800F06BB800BF3481FF1F024B0146186800F017B800BF3481FF1F10B5431E0A44914204D011F8014B03F8014FF8E7A5
:405D400010BD03460244934202D003F8011BFAE77047000038B50546002944D051F8043C0C1F002BB8BFE41801F0BCFB1E4A1368114613B96360146030E0A3420DD9226860
:405D8000A018834201BF18685B681218226063600C6023E0A24203D813465A68002AF9D118681918A1420BD12168014458188242196013D110685268014419605A600DE051
:405DC00002D90C232B6009E021686018824201BF106852680918216062605C602846BDE8384001F080BB38BDB481FF1F70B5CD1C25F0030508350C2D38BF0C25002D06460D
:405E000001DBA94202D90C23336046E001F06AFB234B1C681A462146A1B10B685B1B0ED40B2B03D90B60CC18CD501EE08C420BBF63684B681360636018BF0C4615E00C4674
:405E40004968E9E7174C23681BB9304600F0D8FC20602946304600F0D3FC431C18D0C41C24F00304A0420DD12560304601F03BFB04F10B00231D20F00700C31A0ED05A42AF
:405E8000E25070BD211A304600F0BAFC0130EBD10C233360304601F026FB002070BD00BFB481FF1FB081FF1F2DE9F04788B0149F002B1E461299B8BF03F1004327F02007E9
:405EC000B6BF1E4600232D23462F1446109DDDF84CA00B7003D0452F03D1013501E0032300E0022307AA049206AA03928DE828042246334600F04CFD472F804602D1119B3F
:405F0000DB0728D5462F08EB050911D198F80030302B0AD10022002320463146FFF73AFE18B9C5F10105CAF80050DAF8003099440022002320463146FFF72CFE08B9302211
:405F400002E0CDF81C9006E0079B994503D9591C07911A70F8E74046079B159AC8EB0303136008B0BDE8F087034673B50029B8BF494203F8022BB4BF2D222B220929427088
:405F80001ADD0DF1070216460A2591FBF5F405FB1411092C01F1300102F8011D2146F4DC3031541E02F8011CB4421A460AD214F8012B03F8012BF7E71A463024214402F8AB
:405FC000024B5970101A02B070BD00002DE9F04F91B00C46DDF8688016461F46054601F06FFA03681846099300F03EFC00230E93D8F800300A90073323F0070303F1080235
:4060000094F81890D4F800B0C8F80020D3E90023C4E91223D4F84CA0D4F848802AF000430B934FF0FF32A74B40460B99FFF7E4FDA0B94FF0FF32A34B40460B99FFF7BEFDD3
:4060400060B90022002340465146FFF7ADFD10B12D2384F843309C4B9C4A0AE04246534640465146FFF7C8FD002800F09281984B984AB9F1470F8CBF9046984603232361BC
:406080002BF0040323604FF0000A3DE0B9F1670F00F08A81B9F1470F00F0868123600193636800210DF13302059002920093424653460691CDF81090CDF80CE02846FFF79F
:4060C000F3FE09F0DF03472B804600F08481B9F1650F0D9900F28D8101394A4604F150000D91FFF741FF0E9A82468318012A236100F37C812268D10700F178819DF8333012
:4061000013B12D2384F84330009733460FAA2146284600F09FF9013002D14FF0FF3096E123685A0501D4236965E0B9F1650F40F2D580D4E9120100220023FFF72BFD78B3BA
:406140000123654A31462846B8470130E5D00E9B0D9A9A420BDB2368D80708D423689B0740F111814FF0000804F1190906E10A9B099A31462846B8470130CED04FF00008B3
:4061800004F11A090E9B013B9845E7DA01234A4631462846B8470130BFD008F10108F1E70D9B002B29DC01234B4A31462846B8470130B2D00D9B23B90E9B13B92368D90786
:4061C000CCD50A9B099A31462846B8470130A4D04FF0000904F11A0A0D9B5B42994509DA0123524631462846B847013095D009F10109F1E70E9B4246A7E00E9AA36D9A4268
:40620000A8BF1A46002A914606DC4FF0000A29EAE97904F11A0B11E01346314642462846B8470130F1D178E701235A4631462846B84701303FF471AF0AF1010AA36DC9EBDE
:4062400003029245F0DB08EB03090D9A0E9B9A420FDB2368DA070CD40E9B0D9A9844C9EB08089B1A9845A8BF9846B8F1000F08DC0FE00A9B099A31462846B8470130EBD1AB
:406280004BE743464A4631462846B84701303FF444AF4FF0000928EAE87804F11A0A09E00123524631462846B84701303FF435AF09F101090D9A0E9B9B1AC8EB0303994514
:4062C000EEDB4BE7FFFFEF7FBA800000BE800000C2800000C6800000CA8000000E9A012A01DCDB0738D50123424631462846B84701303FF412AF0A9B099A31462846B8476D
:4063000001303FF40AAFD4E9120100220023FFF741FC20B14FF0000804F11A090EE00E9B08F10102013B19E001234A4631462846B84701303FF4F1AE08F101080E9B013B7E
:406340009845F1DB534604F1500231462846B84701307FF403AFE0E64246012331462846B8470130EED1D8E601234A4631462846B84701303FF4D1AE08F10108E3680F9AE5
:406380009B1A9845F0DBE0680F9B9842B8BF18465DE062680EA8531C0DF1340E4BF480637FF474AE062201E012B90122626075E6002106910DF133018DE80C002360059025
:4063C0004246CDF81090CDF80CE0029153462846FFF76AFD80460D9BD81C02DB626893421DDDA9F102095FFA89F970E60133236184E6B9F1660F14D10029636807DD2161DA
:4064000013B92268D2071DD501330B4419E013B92268D00701D5023313E0012311E04FF067090D9B0E9A934205DB22682361D10708D5013305E0002BD4BFC3F10203012354
:40644000134423610D9B4FF0000AA36556E611B0BDE8F08F2DE9F04791461F460A698B6806469342B8BF1346C9F8003091F843200C46DDF8208012B10133C9F80030236830
:40648000990642BFD9F800300233C9F80030256815F0060510D104F1190A07E00123524639463046C04701301AD00135E368D9F800209B1A9D42F1DB94F843302268003337
:4064C00018BF012392060FD5E118302081F843005A1C94F845102244023382F8431003E04FF0FF30BDE8F08704F1430239463046C0470130F4D02268D9F80050E36802F0E1
:406500000602042A08BF5D1B2269A3680CBF25EAE57500259342C4BF9B1AED184FF000091A344D4509D00123224639463046C0470130D5D009F10109F3E70020BDE8F0876C
:406540002DE9F04317460A7E85B06E2A984606460C460C9B01F1430E00F0AE8011D8632A22D009D8002A00F0BB80582A40F0CA8081F84520834955E0642A1ED0692A1CD028
:40658000C0E0732A00F0B08009D86F2A2ED0702A40F0B8800A6842F020020A603EE0752A24D0782A3AD0ADE01A6801F14205111D1960136884F84230A8E021681A6811F08B
:4065C000800F02D0111D196008E011F0400F02F10401196002D0B2F9003000E01368002B3CDA2D225B4284F8432037E021681A6811F0800F02D0111D196007E011F0400F74
:4066000002F10401196001D0138800E01368227E5C496F2A14BF0A2208221BE078225A4984F845202268186812F0800F00F104051D6003D1550601D5038800E00368D0073E
:4066400044BF42F0200222601BB9226822F0200222601022002084F8430001E049490A226568002DA56008DB206820F0040020602BB9002D7DD175460CE0002B79D075464A
:40668000B3FBF2F002FB1033CB5C05F8013D03460028F5D1082A0BD12368DA0708D5236962689A42DEBF302305F8013C05F1FF35C5EB0E0323612EE008681A6810F0800FC0
:4066C000496903D0101D1860136808E010F0400F02F104001860136801D0198000E0196000232361754616E01A68111D1960156800216268284600F0E7FE08B1401B606011
:40670000636804E004F1420584F8422001232361002384F84330CDF800803B4603AA21463046FFF797FE013002D14FF0FF3026E023692A4639463046C0470130F5D023680A
:406740009B0710D5002504F1190907E001234A4639463046C0470130E7D00135E368039A9B1A9D42F2DBE068039B9842B8BF184605E00B7804F1420584F842308AE705B00B
:40678000BDE8F083CC800000DD800000194B10B51C68A36BD3B91820FFF7B8FA43F20E33A06303804AF6CD33438041F2342383804EF26D63C3804DF6EC6303810523438110
:4067C0000B23838101220023C0E90423A16B0A4C0B6948695C43094A02FB0040A3FB02230132034443F10003C1E9042323F0004010BD00BF3481FF1F2DF451582D7F954C4D
:4068000038B5064C0023054608462360FBF7A6F8431C02D1236803B12B6038BD5883FF1F0EB400B54FF402719CB0ADF814106FF00041049107914FF6FF711DAB02900690AC
:40684000084853F8042BADF81610006802A9019301F088F9029B00221A701CB05DF804EB03B070473481FF1F034613F8012B002AFBD1181A013870472DE9F74F03690C69FF
:4068800080469C427FDC013C01F114074FEA840E00F1140606EB0E0357F82450019356F824300135B3FBF5F507EB0E09C5B34FF0000A3846B446D34650F8043B9AB205FBC2
:4068C00002A21B0C4FEA124A05FB03A392B2C2EB0B0BBCF800204FEA134A5A441FFA83FBDCF800308145CBEB134303EB224392B242EA03424FEA234B4CF8042BDCD256F8F8
:406900000E306BB9019B043B9E421A4602D3C8F8104005E01268043B002AF8D1013CF3E7404600F0EEFF00282BDB304601354FF0000E57F8042B036891B2C1EB0E0E120CB1
:4069400099B27144C2EB134303EB214389B24FEA234EB94541EA034340F8043BE9D256F8242006EB840362B9043B9E421A4602D3C8F8104005E01268043B002AF8D1013CE5
:40698000F3E7284600E0002003B0BDE8F08F00002DE9F04F456A95B08246219CCDE9022345B91020FFF7B2F9CAF82400456085600560C560DAF82430196859B15A680123AF
:4069C00093404A608B60504600F0C3FDDAF8243000221A60039BA04A002BBDBF01232360039B0023BCBF23F000430393DDF80C80A8BF236028F000431B0D1B0593421DD178
:406A000042F20F73209A1360029B43B9934A944BC8F31300002814BF1846104600E09048229B002B00F04685C37813B100F1080300E0C31C229A136000F03CBDDDE9024567
:406A40000022002320462946FFF7A4F8074658B1209A01231360229B002B00F01E8581481860013800F026BD12AB019313AB009322462B46504600F0BFFFC8F30A5604908D
:406A800056B1C5F3130343F07F51204641F44011A6F2FF3611971DE0139B129E1E4406F23243202B0ADD029A06F21240C3F1400322FA00F008FA03F3184304E0C3F120004D
:406AC000029B03FA00F0FEF787FD0123A1F1F871013E11930022644BFEF740FC58A3D3E90023FEF7EFFD58A3D3E90023FEF738FC044630460D46FEF77FFD55A3D3E9002376
:406B0000FEF7E0FD02460B4620462946FEF728FC04460D46FFF786F800228346002320462946FFF741F858B15846FEF765FD02460B4620462946FFF72DF808B90BF1FF3B5B
:406B4000BBF1160F0DD8DDE90223484901EBCB01D1E90001FFF746F830B10BF1FF3B002300E00123109300E01090129B9E1B731E079343BFC3F10008002307934FF0000888
:406B8000BBF1000F06DB079BCDF82CB05B440793002705E00023CBEB0808CBF100070B931E9B092B28D8052BC4BF043B1E931E9BC8BF0025A3F10203D8BF0125032B20D8F6
:406BC000DFE803F0060E0204012302E0012308E000230A931F9B002B1DDD9946059321E000230A931F9B0BEB030909F10103012B0593B8BF012315E0012500231E930A9531
:406C000001E001230A934FF0FF390022CDF8149012231F9206E04FF001094B46CDF81490CDF87C90DAF8244000226260042101F114029A421CD86268490001326260F6E7D4
:406C400061436F63A787D23FB3C8608B288AC63FFB799F501344D33F0000F07FEE800000F7800000CB8000000000F83F088100006168504600F038FCDAF8243020601B686B
:406C80000693059B0E2B00F25B81002D00F05881DDE90234BBF1000FCDE90E3430DD9F4A0BF00F034FEA2B1502EBC303E80618CBCDE908340CD5DDE90E01994B05F00F055A
:406CC000D3E90823FEF728FE0324CDE9020100E00224934E6DB1E90708D5DDE90801D6E90023FEF7EFFCCDE9080101346D100836F0E7DDE90823DDE90201FEF70DFE20E00F
:406D0000CBF1000505B3DDE90E01844B05F00F0203EBC203D3E90023FEF7D4FCCDE902017F4E2D110023022455B1EA0705D5D6E90023FEF7C7FC013401236D100836F3E773
:406D40001BB1CDE9020100E00224109BE3B1DDE902560022734B28463146FEF725FF98B1059B8BB1B9F1000F40F3E6800BF1FF330893314600226C4B2846FEF7A3FC013486
:406D8000CDE902014E4602E0059ECDF820B02046FEF732FCDDE90223FEF794FC634B0022FEF7DEFAA1F1507304460C931D46D6B9DDE9020100225E4BFEF7D0FA22460C9B44
:406DC000CDE90201FEF70EFF002840F03F820C99224601F10043DDE90201FEF7E5FE002840F02B82A8E00A9A4C4B711E002A49D003EBC103D3E9002300204E49FEF78CFD7C
:406E000022462B46FEF7AAFACDE90C01069CDDE90201FEF707FF0546FEF7EEFB02460B46DDE90201FEF79AFADDE90C23303504F8015BCDE90201FEF7B7FE002840F01D8396
:406E4000DDE9022300203749FEF788FADDE90C23FEF7AAFE002840F0D180069BE31AB3426ADADDE90C0100222F4BFEF72BFC0022CDE90C01DDE902012B4BFEF723FCCDE985
:406E80000201C4E703EBC1012246D1E900012B46FEF718FC069BCDE90C011D469C19DDE90201FEF7BFFE0646FEF7A6FB02460B46DDE90201FEF752FA303605F8016BAC429E
:406EC000CDE902014FF0000222D11A4BDDE90C01FEF746FA02460B46DDE90201FEF782FE002840F08B80DDE90C2300201149FEF735FA02460B46DDE90201FEF755FED8B138
:406F000014F8013C621E302B40F0B7821446F7E7054BFEF7D7FBCDE90201C0E708810000E08100000000F03F0000244000001C40000014400000E03FDDE90E34CDE90234D5
:406F4000139B002B7CDBBBF10E0F79DCAB4B03EBCB03D3E900671F9B002B14DA059B002B11DC40F06C810022A54B30463946FEF7A9FBDDE90223FEF72BFE059D2E4600285F
:406F800040F05F8165E1069CDDE9028932463B4640464946FEF7C0FCFEF744FE0546FEF72BFB32463B46FEF78DFB0B46024649464046FEF7D3F905F1300E069B04F801EB8A
:406FC000C3EB040E059B73452DD102460B46FEF7C7F98046894602460B4630463946FEF7E3FD78B942464B4630463946FEF7D2FD002800F04482EB0704D440E2DDF820B0C3
:4070000000E01C4614F8012C631E392A07D1069A9A42F6D1069930220BF1010B0A701A7801321A702BE20022764BFEF74BFB0022002380468946FEF7ADFD0028A6D01EE2D2
:407040000A9A002A2BD01E9A012A0ADC119A12B103F2334302E0129BC3F136033D46444613E0059B5D1EAF42BFBF0B9BEA1B9B180B93059BB6BF2F467D1B0025002BA7BFCB
:407080004446059BC3EB08040023079A01211A4450469844079200F0FBFA064602E03D4644460A9E5CB1079B002B08DDA342A8BF2346079AC3EB0808E41AD31A0793002F4E
:4070C0001DDD0A9BABB18DB131462A46504600F079FB049A01460646504600F0E2FA04990890504600F035FA089B04937A1B06D000E03A460499504600F064FB04900121BC
:40710000504600F0C5FA0B9B05465BB31A460146504600F057FB1E9B0546012B18DC029B83B9039BC3F3130373B9039B23F000473F0D3F054FB1079B08F1010801330793FF
:40714000012702E0002700E0029F0B9B73B100E000272B6905EB8303186900F04CFAC0F1200004E01E9B012BD9DD0B9F0120079B184410F01F0008D0C0F12003042B02DDD9
:40718000C0F11C0002E006D018461C30079B8044034404440793B8F1000F05DD42460499504600F05DFB0490079B002B05DD29461A46504600F054FB0546109B23B3294652
:4071C000049800F09EFB00281EDA00230A220499504600F0D5F90A9B0BF1FF3B0490002B00F05F81314600230A22504600F0C8F9B9F1000F06463FDC3BE000BF0881000010
:407200000000144000002440059B002B2BDC1E9B022B28DDDDF81490B9F1000F11D129464B460522504600F0ABF901460546049800F067FB00280CDC03E0354600E0002581
