:4000000000800020110000006D1D00006D1D000080B500AF024A034B1B68136001F0DAFEBC760040FA46004010B5054C237833B9044B13B10448AFF300800123237010BD2A
:400040008881FF1F0000000030890000084B10B51BB108490848AFF300800848036803B910BD074B002BFBD0BDE81040184700BF000000008C81FF1F30890000C880FF1F10
:400080000000000098B500AF164B1C8802F036F80346E31A9AB2144B1A80144B1B781846114B1B881946124A831D42F823100F4B1B780133DAB20D4B1A700C4B1B78062BD3
:4000C00005D10A4B00221A700A4B01221A60074B1B78184602F0F0F940F2DC5001F064FF00BF98BDCC80FF1F3082FF1FA581FF1F8883FF1FB481FF1F2DE9F04F89B000AF1C
:4001000002F012FD7861B84B1B6C7A69D31A3B61B54A7B691364386906F04AF8A6A3D3E9002306F0ABF802460B4610461946A4A3D3E9002306F0CCF902460B46104619467E
:40014000A1A3D3E9002306F0C3F902460B46A649C1E9042302F014FA7861A44B1B6C7A69D31A3B61A14A7B691364386906F020F891A3D3E9002306F081F802460B46104630
:4001800019468FA3D3E9002306F0A2F902460B46104619468CA3D3E9002306F099F902460B469249C1E90423904BD3E904018F4BD3E90E2306F062F802460B468B49C1E94B
:4001C0000623894BD3E90401874BD3E90E2306F055F802460B468449C1E90623824BD3E90601824BD3E9062305F094FE02460B46104619467E4BD3E9002306F069F90246A7
:400200000B467B49C1E90A23774BD3E90601774BD3E9062305F080FE02460B46104619464FF000024FF0804306F052F902460B466F49C1E908236E4BD3E902896C4BD3E9C8
:400240000A015FA3D3E9002306F018F802460B464046494605F060FE02460B461046194601F0B2FA02460B466149C1E90223604BD3E904895E4BD3E9080151A3D3E9002359
:4002800005F0FCFF02460B4692469B46584BD3E902231046194603F089F902460B465046594605F0EBFF02460B464046494605F033FE02460B464E49C1E904234C4BD3E979
:4002C00006894B4BD3E908013DA3D3E9002305F0D5FF02460B4692469B46454BD3E902231046194603F034FA02460B465046594605F0C4FF02460B464046494605F00CFEC0
:4003000002460B463A49C1E90623394BD3E90E01374BD3E9022305F0FDFD02460B46C7E906232BA3D3E90023D7E9060106F036FA0346002B0AD020A3D3E90023D7E906016A
:4003400005F0E8FD02460B46C7E9062322A3D3E90023D7E9060106F003FA0346002B0AD015A3D3E90023D7E9060105F0D5FD02460B46C7E906231E4BD3E90C89BC69FB69AB
:4003800023F0004516A3D3E900232046294605F075FF03460C46184621460DA3D3E9002306F096F803460C46184621464FF00002104B05F0B1FD1FE0182D4454FB211940AC
:4003C0007B14AE47E17A943FA4703D0AD70FAC40182D4454FB210940182D4454FB2109C0D2AE2816157EFB3FE881FF1F3882FF1F1883FF1F0000F03F03460C4618462146E8
:4004000003F0D2F803460C461A4623464FF000004C4905F07FFD03460C461A4623464046494605F02BFF03460C46C7E90234464BD3E91401D7E9062305F06EFD03460C46F7
:40044000414AC2E91434404BD3E91201D7E9062305F014FF03460C461D4626463A4BD3E91001394B03F15004D4E900341A46234605F004FF03460C461A4623462846314630
:4004800005F04AFD03460C46C7E900342E4BD3E90001D7E9002305F0F1FE03460C46184621464FF000024FF0804306F011F803460C4618462146D7E9022305F02DFD034635
:4004C0000C4618462146214B03F13804D4E900341A46234605F0FCFF03460C461B4AC2E90834194BD3E90001D7E9002305F0C6FE03460C46184621464FF000024FF0804358
:4005000005F0E6FF03460C461A462346D7E9020105F000FD03460C46184621460C4B03F13804D4E900341A46234605F0D1FF03460C46074AC2E9083400BF2437BD46BDE8CD
:40054000F08F00BF0000F03F1883FF1FE881FF1F3882FF1FF0B583B000AF514BD3E908014F4B03F11004D4E900341A46234605F0D1FC03460C46C7E90034494BD3E902011E
:40058000D7E9002305F0C8FC03460C46444AC2E90234434BD3E90045414BD3E90C01D7E9002305F06BFE02460B462046294605F0B3FC03460C461D462646394BD3E90A01A9
:4005C000374B03F10804D4E900341A46234605F055FE03460C461A4623462846314605F09BFC03460C462E4AC2E900342C4B18CB1846214600F0C4FE2A4BD3E90801294B31
:4006000003F11004D4E900341A46234605F082FC03460C46C7E90034224BD3E90201D7E9002305F079FC03460C461E4AC2E902341C4BD3E900451B4BD3E90C01D7E900232F
:4006400005F01CFE02460B462046294605F064FC03460C461D462646124BD3E90A01114B03F10804D4E900341A46234605F006FE03460C461A4623462846314605F04CFC85
:4006800003460C46074AC2E90034064B18CB1846214600F0E1FE00BF0C37BD46F0BD00BF3882FF1FE881FF1F80B400AF064B1B68002B0CBF01230023DBB21A46024B1A602F
:4006C00000BFBD4680BC7047B881FF1F000000002DE9F043B7B00CAF62B6B34801F068FDB24802F053FCB24802F07CF9B14802F0FDFE01F039FE01F0C3FC01F0FFFB01F0E4
:4007000023FF02F08BF802F0F3F902F083FA02F0C1FC02F0FBFD02F025FD4EF6602002F003FD95A4D4E90034C7E91E3494A4D4E90034C7E91C3494A4D4E90034C7E91A34F6
:40074000D7E91A34CDE90234D7E91C34CDE90034D7E91E23984800F0A7FFD7E91A34CDE90234D7E91C34CDE90034D7E91E23934800F09AFF86A4D4E90034C7E9183486A474
:40078000D4E90034C7E916344FF000038C4CC7E914344FF000038B4CC7E912344FF000034FF00004C7E910344FF000034FF00004C7E90E347AA4D4E90034C7E90C34D7E97E
:4007C0000C34CDE90A34D7E90E34CDE90834D7E91034CDE90634D7E91234CDE90434D7E91434CDE90234D7E91634CDE90034D7E91823754800F094FF744B00221A60734BAD
:400800001E225A60714B5A229A60704B4FF48772DA606E4B4FF4A5721A610223FB626C4B3C460FCB84E80F00674A4FF000034FF00004C2E91634644A4FF000034FF000045F
:40084000C2E918340023BB62624BC7F8A4305A23C7F8A0305C4A52A4D4E90034C2E90E344FF000037B625C4B3B625C4BC7F89C305B4BC7F898300023FB610023C7F8943094
:400880000023C7F890300023C7F88C300F23BB615523C7F88830534B1B68002BFBD04B4B9B69184606F0ECF80346D7F89C10184606F0D8FA0346002B00F05984434BDB6AD4
:4008C000184606F0DDF80346D7F89C10184606F0C9FA0346002B00F04A843B4BD3E91656394BD3E91889384B03F11004D4E90034354AD2E90612CDE90212CDE90034424629
:400900004B462846314600F0ADFF03460C462E4AC2E91A342D4BDA6A2C4B9B699342A8BF1346184606F0ACF80346C7F884302E49D7F8840006F0ACF90346C7F88430224B8B
:40094000D3E91A45D7F8840005F044FC02460B462046294605F0E0FA03460C4625461C46D7F8880005F024FC02460B46204629463CE000BFAFF30080A60A46257502EE3F99
:4009800054E41071732AC93E7B14AE47E17A643F90C2F5285C0F354076830DF4F521943E182D4454FB21F93F85000000F900000055050000A90600003882FF1FE881FF1F10
:4009C0000000FC3F000014401883FF1F8883FF1F48890000DB0FC93F0AD7A33B0000484200002042B481FF1F0000204105F0B8FE0346002B48D0B64A4FF000034FF00004A8
:400A0000C2E90C34642001F02DFC14E0B14BDA6AB04B9B699342A8BF1346184606F030F80346C7F88430AC49D7F8840006F030F90346C7F88430A64BD3E91A45D7F88400AB
:400A400005F0C8FB02460B462046294605F064FA03460C4625461C46D7F8880005F0A8FB02460B462046294605F07AFE0346002BCCD10123C7F88C30B86905F099FB034628
:400A80000C46934AC2E90C34D7F88C30002B03D00023C7F88C306AE3D7F8A0305A2B0DD05A2B03DC002B00F087800DE3B42B00F0F581B3F5877F00F07B8205E3844A4FF05C
:400AC00000034FF00004C2E90C34092000F0BEFD7F4BD3E902017CA3D3E9002305F01AFA03460C461846214600F06EFE03460C461846214605F0BAFE0346C7F8A430D7F8ED
:400B0000A40005F067FB03460C461846214600F00FFD6F4B03F11004D4E900346C4AC2E916346B4B03F11804D4E90034684AC2E91834D7F8A0305A3B184600F071FEC7F8F0
:400B4000A000B86905F034FB03460C46604AC2E90C34624B00221A60614B1B68002B03D1604BC7F89C3002E05F4BC7F89C30D7F8980006F09FF90246564BDA61D7F898001C
:400B800006F098F90246534B1A62D7F8980006F091F902464F4B5A62D7F8980006F08AF902464C4B9A624B4B42F210729A61494B42F21072DA62DAE2D7F89030002B40F099
:400BC000CA80434A4FF000034FF00004C2E90C343F4BD3E902013CA3D3E9002305F09AF903460C461846214600F0EEFD03460C461846214605F03AFE0346C7F8A430D7F8AC
:400C0000A40005F0E7FA03460C461846214600F08FFC334B1B68002B6AD1062000F016FD2B4BD3E9020128A3D3E9002305F072F903460C461846214600F0C6FD03460C46E2
:400C40001846214605F012FE0346C7F8A430D7F8A030B43B184600F0E3FDC7F8A000D7F8A40005F0B7FA03460C461846214600F05FFC174B03F11004D4E90034144AC2E98B
:400C80001634134B03F11804D4E90034104AC2E918341E23C7F888300123C7F894300F4B00221A60B86905F083FA03460C46084AC2E90C340D4BC7F898300C4BC7F89C30B9
:400CC000C7E000BFAFF30080182D4454FB21F93F1883FF1F8883FF1F00002041B481FF1FB881FF1F0000F0430000D74300001643022000F0ABFCA84BD3E90201A4A3D3E93A
:400D0000002305F009F903460C461846214600F05BFD03460C461846214605F0A7FD0346C7F8A430D7F8A40005F054FA03460C461846214600F0FCFB984BC7F89C3001238D
:400D4000C7F89030B86905F033FA03460C46924AC2E90C347DE0904A4FF000034FF00004C2E90C348C4BD3E9020189A3D3E9002305F0D0F803460C461846214600F024FDD9
:400D800003460C461846214605F070FD0346C7F8A430D7F8A40005F01DFA03460C461846214600F0C5FB042000F050FC7A4BD3E9020177A3D3E9002305F0ACF803460C46F5
:400DC0001846214600F000FD03460C461846214605F04CFD0346C7F8A430D7F8A40005F0F9F903460C461846214600F0A1FB6A4B03F11004D4E90034674AC2E91634664B7C
:400E000003F11804D4E90034634AC2E91834642001F028FAD7F8A030B43B184600F000FDC7F8A000B86905F0C3F903460C465A4AC2E90C345A4B00221A600123C7F894305A
:400E40000023C7F89030574BC7F89830554BC7F89C30D7F8980006F02DF80246524BDA61D7F8980006F026F802464F4B1A62D7F8980006F01FF802464B4B5A62D7F898008C
:400E800006F018F80246484B9A62474B42F210729A61454B42F21072DA6268E13E4A4FF000034FF00004C2E90C343B4BD3E9020137A3D3E9002305F02FF803460C4618463C
:400EC000214600F081FC03460C461846214605F0CDFC0346C7F8A430D7F8A40005F07AF903460C461846214600F022FB2A4B03F11004D4E90034284AC2E91634264B03F1A2
:400F00001804D4E90034244AC2E91834D7F8A0305A33184600F084FCC7F8A000B86905F047F903460C461C4AC2E90C341F4BC7F89C301A4BC7F89830194B00221A604B2355
:400F4000C7F88830D7F8980005F0B4FF0246164BDA61D7F8980005F0ADFF0246124B1A62D7F8980005F0A6FF02460F4B5A62D7F8980005F09FFF02460B4B9A620A4B42F262
:400F800010729A61084B42F21072DA62EFE000BF182D4454FB21F93F1883FF1F00008C42B481FF1F000016438883FF1F0000C842B14A4FF000034FF00004C2E90C34AE4AE7
:400FC000A7A4D4E90034C2E91234AB4BD3E90201A5A3D3E9002304F09DFF03460C461846214600F0F1FB03460C461846214605F03DFC0346C7F8A430D7F8A40005F0EAF868
:4010000003460C461846214600F092FAD7F8A030B43B184600F004FCC7F8A000964A4FF00003964CC2E91234934B03F11004D4E90034914AC2E916348F4B03F11804D4E956
:4010400000348D4AC2E9183440F6B83001F00AF9B86905F0ADF803460C46874AC2E90C34874B00221A60874BC7F89830864BC7F89C300023C7F894305023C7F88830D7F8C8
:40108000980005F017FF0246804BDA61D7F8980005F010FF02467D4B1A62D7F8980005F009FF0246794B5A62D7F8980005F002FF0246764B9A62754B42F210729A61734B8B
:4010C00042F21072DA6252E06B4A4FF000034FF00004C2E90C3466A1D1E9000100F028FAD7F8A40005F076F861A3D3E9002304F011FF03460C461846214600F065FB03461D
:401100000C461846214605F0B1FB0346C7F8A430B86905F04DF803460C46574AC2E90C34574B00221A60D7F8980005F0C3FE0246564BDA61D7F8980005F0BCFE0246534B1E
:401140001A62D7F8980005F0B5FE02464F4B5A62D7F8980005F0AEFE02464C4B9A624B4B42F210729A61494B42F21072DA624FF000037B61454B9B69632B05DC434BDB6AA2
:40118000632B01DC012300E000233B61D7F89430002B02D0012B58D0CCE03B69002B05D1B86905F005F803460C4602E04FF00003374C314AC2E90C34344BDA69334B1B6A4C
:4011C0009A420CDA314BDB69184605F059FC03461946D7F8980005F09DFB03460BE02B4B1B6A184605F04CFC03461946D7F8980005F090FB03467B612649786905F050FE18
:401200000346002B40F0A5807B6983F00043396A184605F089FC03467B62796AD7F8A40005F07AFB0346184604F0D4FF03460C461846214600F0C8FA03460C460E4AC2E9CC
:401240000E340F4B00221A6087E03B69002B23D1B86904F0ADFF03460C4620E0AFF30080CDCCCCCCCCCCEC3F182D4454FB210940182D4454FB21F93F1883FF1F0000FC3F33
:40128000B481FF1F00002042000048428883FF1F00002440000016434FF00003324C334AC2E90C34324B5A6A314B9B6A9A420CDA2F4B5B6A184605F0E3FB03461946D7F876
:4012C000980005F027FB03460BE0294B9B6A184605F0D6FB03461946D7F8980005F01AFB03467B612349786905F0DAFD0346002B32D17B6983F00043396A184605F014FC00
:4013000003467B62796AD7F8A40005F003FB0346184604F05FFF03460C461846214600F053FA03460C46114AC2E90E34124B00221A6012E00D4A4FF000034FF00004C2E953
:401340000C340A4A06A4D4E90034C2E90E34FFF7A2BA00BFFFF79FBA00BFFFF79CBA00BF0000000080310741000024401883FF1F8883FF1F00001643B481FF1F000000003C
:4013800090B583B000AFC7E900014FF00002304BD7E9000105F0E4F90346002B05D04FF000032B4CC7E900340EE04FF00002294BD7E9000105F0F2F90346002B04D04FF055
:4013C0000003244CC7E900344FF000024FF00003D7E9000105F0C4F90346002B1BD03B683B607B6883F000437B60002001F0B2FA15A3D3E90023D7E9000104F03FFF0346FF
:401400000C461846214605F011FA03469BB2184601F0B0FA14E00CA3D3E90023D7E9000104F02CFF03460C461846214605F0FEF903469BB2184601F08DFA002001F09AFA47
:4014400000BF0C37BD4690BD000000000088C3400000F0BF0000F03F90B583B000AFC7E900014FF00002304BD7E9000105F078F90346002B05D04FF000032B4CC7E9003410
:401480000EE04FF00002294BD7E9000105F086F90346002B04D04FF00003244CC7E900344FF000024FF00003D7E9000105F058F90346002B1BD03B683B607B6883F00043B6
:4014C0007B60002001F042FC15A3D3E90023D7E9000104F0D3FE03460C461846214605F0A5F903469BB2184601F040FC14E00CA3D3E90023D7E9000104F0C0FE03460C4601
:401500001846214605F092F903469BB2184601F01DFC002001F02AFC00BF0C37BD4690BD000000000088B3400000F0BF0000F03F90B585B000AFC7E90001434AD7E900342B
:40154000C2E90E34404BD3E902013F4B03F13804D4E900341A46234604F0DCFC03460C461846214605F082F9034623F00043FB60F86804F02FFE30A3D3E9002305F00EF9FB
:401580000346002B13D0F86804F024FE03460C461A4623462AA1D1E9000104F0BBFC03460C461846214605F061F90346FB6035E0254BD3E90201244B03F13804D4E90034A2
:4015C0001A46234604F0A6FC03460C461846214605F04CF9034623F00043FB60F86804F0F9FD15A3D3E9002305F0D8F80346002B00D113E0F86804F0EDFD03460C461A46E1
:4016000023460FA1D1E9000104F084FC03460C461846214605F02AF90346FB604FF07A51F86805F03DFC0346002BC1D100BF1437BD4690BDAFF30080182D4454FB210940EA
:40164000182D4454FB2119401883FF1F80B582B000AF7860642000F005FE4FF4FA6001F0DDFE4FF47A6001F0E9FE7B68DBB2184601F02CFF642000F017FE012001F016FF02
:4016800040F6FC0000F0EEFD4FF47A6001F0C6FE4FF4FA6001F0D2FE002001F007FF00BF0837BD4680BD00BF90B585B000AFF860C7E90023FA684FF000034FF00004C2E9F3
:4016C0000034FA684FF000034FF00004C2E90234FA684FF000034FF00004C2E908344FF000020E4BD7E9000104F0C8FD03460C46FA68C2E90E34FB6800221A64FA68D7E9FD
:401700000834C2E90A34FA68D7E90A34C2E90C34FB6818461437BD4690BD00BF0000064090B484B000AFF860C7E90023FA68D7E90034C2E90034FA684FF000034FF000046A
:40174000C2E91434FA68D7E90634C2E91034FA68D7E90834C2E91234FA684FF000034FF00004C2E90C34FA684FF000034FF00004C2E90E34FA68D7E91034C2E90234FA688D
:40178000D7E90C34C2E90434FA68D7E90E34C2E90634FA68D7E90A34C2E91A34FA684FF000034FF00004C2E91634FA684FF000034FF00004C2E91834FB6818461037BD46DF
:4017C00090BC70470000000090B583B000AFC7E9000111A3D3E90023D7E9000104F078FE03460C461846214601F02AFF0AA3D3E9002304F043FD03460C461A462346D7E9F2
:40180000000104F087FB03460C46184621460C37BD4690BDAFF30080182D4454FB21194080B483B000AF78607B680D4A83FB02121A441112DA178A1A4FF4B47101FB02F2A2
:401840009B1A7B607B68002B03DA7B6803F5B4737B607B6818460C37BD4680BC704700BFB7600BB6B0B586B000AFC7E90201C7E90023D7E90223D7E90A0104F04BFB0346FC
:401880000C46184621464FF000024FF0804302F027F804460D46D7E90023D7E90C0104F039FB02460B46104619464FF000024FF0804302F015F802460B462046294604F056
:4018C0002BFB03460C461846214602F0A1F9C7E90401D7E90434184621461837BD46B0BD80B582B000AF786039603A680021786805F03DFB00BF0837BD4680BD80B584B0A7
:4019000000AFF860B9607A607A68B968F86805F023FB00BF1037BD4680BD00BF80B483B000AF0346FB71FEE780B487B000AF7860396000233B6100237B6127E07B699B00B3
:401940007A6813441B68BB60BB68FB73BB6823F0FF03BB6014E03B695B003A6813441B781A46BB68134419463B695B003A6813445B780B703B6901333B61FB7B013BFB731A
:40198000FB7B002BE7D17B6901337B617B69282BD4D900BF1C37BD4680BC704780B582B000AF464B0B221A80454B18221A70454B8C221A80444B18221A70444BEF221A80C7
:4019C000434B18221A70434B4FF49C721A80424B18221A70414B4BF67F321A80404B18221A70404B47F22F521A803F4B19221A703E4B4EF65F221A803D4B19221A703D4B79
:401A000040F2E7321A803C4B1B221A703B4B02221A704FF0402308221A70394B03221A70384B394A1278D2B21A70384B08221A80374B41F251221A800023FB7019237B606A
:401A400014E0FB785B00DAB2324B1B78DBB203F00103DBB21343DBB203F00303FB704FF4F07001F091FD7B68013B7B607B68002B02D0FB78032BE4D17B68002B02D103205A
:401A8000FFF74CFF244B4FF480721A80224B07221A70224B00221A70214B48221A701E4B00221A701F4B02221A701F4B1B781E4BFF221A7000BF0837BD4680BD8040004092
:401AC000824000408440004086400040884000408A4000408C4000408E40004090400040924000409440004096400040984000409A4000409C4000409E4000400043004073
:401B000000420040A14600400801004922420040204200402542004004400040064000400840004001400040A243004080B483B000AF0B4B1B78FB710A4AFB7903F0070355
:401B4000DBB21370084AFB791B09DBB21370074B44221A7000BF0C37BD4680BC704700BFCF0100496E5800406F5800407658004080B586B000AF72B65A4A5A4B1B78DBB283
:401B800043F00403DBB213700023FB7513E0FA7D13465B0013445B00534A13443B613B691A683B699B889BB219461046FFF798FEFB7D0133FB75FB7D052BE8D90023FB7555
:401BC0001CE0FA7D13469B0013445B00474A1344FB60FB681B68BB60FB685B687B60FB681A7A5B7A1B0213437B807B881A467968B868FFF783FEFB7D0133FB75FB7D012BB2
:401C0000DFD93B494FF09040FFF78EFE394B3A4A1A603A4B3A4A1A603A4B3B4A1A603B4B3B4A1A603B4B3C4A1A603C4A3B4B1B78DBB243F00203DBB21370394A384B1B7836
:401C4000DBB243F00203DBB21370364A354B1B78DBB243F04003DBB21370334A324B1B78DBB243F01003DBB2137008222F493048FFF744FE08222F492F48FFF73FFE0A22AF
:401C80002E492F48FFF73AFE08222E492E48FFF735FE0A222D492E48FFF730FE08222D492D48FFF72BFE2D4A2C4B1B78DBB243F00803DBB213702A4B61221A70FFF76EFE18
:401CC000274B81221A70274B01221A70FFF72EFF0E2214492448FFF711FE00BF1837BD4680BD00BFE8460040588900007C890000A4000048D802014004040444D80601402E
:401D0000444404005808014004040484580A014004040044581601408B8B048B0350014013500140A0430040C2430040F011004802510040F8110048C25100400012004829
:401D4000F05100400C1200481251004014120048205100402012004832510040224300400048004004000840B043004080B500AF05F0C6F803461B680C2B00D1FEE7FEE79C
:401D800080B584B000AF7860104B1A687B6813441A460F4BD31A4CF25032934209DC0B4B1B68FB60094B1A687B681344074A136007E005F0A5F802460C2313604FF0FF331F
:401DC000FB60FB6818461037BD4680BDD080FF1FC093FF1F80B586B000AF224B7B61224B3B61204B7B6135E03B691B68FB603B695B68BB603B699B683B6000237B600CE069
:401E0000FB681A68BB681A60BB680433BB60FB680433FB607B6804337B607A683B689A42EED13B69DB683B6000237B6008E0BB6800221A60BB680433BB607B6804337B6010
:401E40007A683B689A42F2D13B6910333B617B69013B7B617B69002BC6D105F057F8FEF737FCFEE701000000DC8C000080B582B000AF184B184A1A60184A184B1B6843F48B
:401E80000073136000237B600FE07B68032B04D8134A7B6852F8233000E0124B12497A6841F822307B6801337B607B682F2BECD90E4B1B78DAB20E4B1A700E4B0A4A1A600A
:401EC000FFF756FE0C4B00221A6000BF0837BD4680BD00BF0CED00E00004FA0514ED00E0000000006D1D00000080FF1FBC760040C480FF1F08ED00E0C080FF1F80B500AFD8
:401F0000064B1B78002B04D100F00AF8034B01221A7000F039F800BF80BD00BFBC81FF1F80B582B000AF154B1B78DBB223F03F03FB71124AFB7943F02103DBB21370104AB1
:401F40000F4B1B78DBB243F00103DBB213700D4A0C4B1B78DBB243F00103DBB2137042F2107000F021F842F2107000F02DF8012000F03AF800BF0837BD4680BD7C64004064
:401F8000986500409965004080B400AF054A054B1B78DBB263F07F03DBB2137000BFBD4680BC70477C64004080B483B000AF0346FB80044AFB88138000BF0C37BD4680BCCB
:401FC000704700BF106A004080B483B000AF0346FB80044AFB88138000BF0C37BD4680BC704700BF906A004080B483B000AF0346FB80044AFB88138000BF0C37BD4680BC03
:40200000704700BF506A004080B582B000AF40F6C31000F063F840F6C31000F07BF801F0BBFA0346FB710D4A0C4B1B78DBB243F01003DBB21370FB79184601F0B1FA00F07D
:4020400079F8002000F086F800F0A4F8032000F029F800BF0837BD4680BD00BF9864004080B400AF054A054B1B78DBB263F07F03DBB2137000BFBD4680BC70477864004010
:4020800080B500AF064B1B78002B04D1FFF7BCFF034B01221A70FFF7E3FF00BF80BD00BFBD81FF1F80B483B000AF0346FB71044AFB79137000BF0C37BD4680BC704700BFF6
:4020C0008864004080B400AF034B1B78DBB21846BD4680BC704700BF6864004080B483B000AF0346FB80044AFB88138000BF0C37BD4680BC704700BF5668004080B400AF6E
:40210000034B1B889BB21846BD4680BC704700BF9668004080B483B000AF0346FB80044AFB88138000BF0C37BD4680BC704700BF1668004080B400AF054A054B1B78DBB2BB
:4021400043F01003DBB2137000BFBD4680BC70477864004080B483B000AF0346FB71FB7903F00303FB710A4A094B1B78DBB223F00303DBB213700649054B1B78DAB2FB7971
:402180001343DBB20B7000BF0C37BD4680BC70477864004080B500AF01E0FFF7AFFFFFF791FF034603F00803002BF6D100BF80BD80B582B000AF786000F03CF8786800F0A7
:4021C00009F8022000F018F800F028F800BF0837BD4680BD80B485B000AF7860054B1B68FB60FB684C337A681A6000BF1437BD4680BC704708ED00E080B483B000AF0346DE
:40220000FB71054AFB795B01DBB2137000BF0C37BD4680BC704700BF03E400E080B400AF034B08221A6000BFBD4680BC704700BF00E100E080B400AF034B08221A6000BFE7
:40224000BD4680BC704700BF80E100E080B483B000AF0346FB7101BE00BF0C37BD4680BC704700BF80B582B000AF786008E00C4B1B68184601F088F97B68A3F500437B600E
:402280007B68B3F5004FF2D8064B1B687A6802FB03F3184601F078F900BF0837BD4680BDE080FF1FD880FF1F80B582B000AF0346FB80FB88054A127802FB03F3184601F067
:4022C00063F900BF0837BD4680BD00BFDC80FF1F80B584B000AF03463960FB710F4B1B68FB60FB791F2B02D90020FFF7AFFFFB7903F01F0310339B00FA6813441B68BB6052
:40230000FB7903F01F0310339B00FA6813443A681A60BB6818461037BD4680BD08ED00E080B582B000AF03460A46FB711346BB71BB79072B02D90020FFF788FFFB791F2B48
:4023400002D90020FFF782FFFB7903F01F0303F1604303F56443BA795201D2B21A7000BF0837BD4680BD00BF80B500AF064B1B78002B04D100F00AF8034B01221A7000F0F6
:4023800023F800BF80BD00BFBE81FF1F80B500AF09490620FFF79CFF07210620FFF7C0FF064B06221A70064B47221A70054B02221A7000BF80BD00BF152400002A650040F2
:4023C0003A6500408464004080B582B000AF01F0E3F80346FB710C4A0B4B1B78DBB243F01003DBB21370094B40221A60084B40221A6000F047F8FB79184601F0D1F800BF44
:402400000837BD4680BD00BF9464004080E200E000E100E080B400AF18E0154B1B889BB2B3F5805F02D3124B00221A80114B104A128892B21146104A525CD2B21A700C4B2B
:402440001B889BB201339AB2094B1A80084B1B889AB20A4B1B889A4206D0094B1B78DBB203F00403002BD8D000BFBD4680BC7047C081FF1F44640040B883FF1FC281FF1F1B
:402480006464004080B400AF094A094B1B78DBB243F00803DBB21370064A064B1B78DBB243F00803DBB2137000BFBD4680BC7047A2430040B243004080B483B000AF03469F
:4024C000FB71044AFB79137000BF0C37BD4680BC704700BF7965004080B500AF064B10221A6006490420FFF7F3FE07210420FFF717FF00BF80BD00BF80E100E00D26000094
:4025000080B582B000AF0F2000F06CF800F05CF801F042F80346FB71094A094B1B78DBB243F01003DBB21370FB79184601F038F8044B10221A6000BF0837BD4680BD00BFD6
:402540009664004000E100E080B500AF00F0DEF84FF4004000F008F9074B00221A60074B1B78002B04D1FFF7B7FF044B01221A70FFF7C6FF00BF80BDC881FF1FC581FF1F45
:4025800080B582B000AF0D4B10221A6000F0FCF80346FB80FB88A3F500439BB2BB80B7F90420074B1B6813443B60064B10221A603B6818460837BD4680BD00BF80E100E05B
:4025C000C881FF1F00E100E080B400AF044B1B78DBB203F00F03DBB21846BD4680BC70476664004080B483B000AF0346FB71FB7943F00703FB71044AFB79137000BF0C3742
:40260000BD4680BC704700BF8664004080B483B000AF144B1B78FB71FB7903F00103002B07D0114B1B6803F5FF437F330E4A13600AE0FB7903F00203002B05D00A4B1B6816
:40264000A3F50043084A1360FB7903F00403002B02D0054B00221A6000BF0C37BD4680BC704700BF66640040C881FF1F80B582B000AF1C4B1B78DBB223F00703FB71194AB2
:40268000FB791370174B1B78DBB223F00303FB71144AFB79137000F0B3F84FF4004000F08FF84FF4004000F05FF8002000F040F800F04EF84FF4004000F092F800F06CFF92
:4026C0000346BB71084A084B1B78DBB243F01003DBB21370BB79184600F062FF00BF0837BD4680BD716400409364004080B400AF054A054B1B78DBB263F07F03DBB2137056
:4027000000BFBD4680BC70477164004080B500AF064B1B78002B04D1FFF7A8FF034B01221A70FFF7E3FF00BF80BD00BFCC81FF1F80B483B000AF0346FB71044AFB79137061
:4027400000BF0C37BD4680BC704700BF8364004080B400AF034B1B78DBB21846BD4680BC704700BF6364004080B483B000AF0346FB80044AFB88138000BF0C37BD4680BC91
:40278000704700BF0C68004080B400AF044B1B78044B1B889BB21846BD4680BC704700BF066400408C68004080B400AF034B1B889BB21846BD4680BC704700BF8C68004092
:4027C00080B483B000AF0346FB80044AFB88138000BF0C37BD4680BC704700BF4C68004080B483B000AF0346FB80044AFB88138000BF0C37BD4680BC704700BF6C680040E7
:4028000080B500AF01E0FFF7CFFFFFF7A1FF034603F04003002BF6D100BF80BD80B500AF064B1B78002B04D100F00AF8034B01221A7000F051F800BF80BD00BFCD81FF1FF7
:4028400080B582B000AF214B1B78DBB223F03F03FB711E4AFB7943F00903DBB213701C4A1B4B1B78DBB243F00103DBB21370194A184B1B78DBB243F00103DBB2137041F237
:40288000883000F039F841F2883000F053F8002000F060F8002000F06DF8002000F07AF800F07AFE0346BB710A4A0A4B1B78DBB243F01003DBB21370BB79184600F070FECE
:4028C00000F02AF800BF0837BD4680BD796400409E6400409F64004080B400AF054A054B1B78DBB263F07F03DBB2137000BFBD4680BC70477964004080B483B000AF03462E
:40290000FB80044AFB88138000BF0C37BD4680BC704700BF1C68004080B500AF01E000F055F800F047F8034603F01003002BF6D100BF80BD80B483B000AF0346FB80044AA7
:40294000FB88138000BF0C37BD4680BC704700BF9C68004080B483B000AF0346FB80044AFB88138000BF0C37BD4680BC704700BF5C68004080B483B000AF0346FB80044A25
:40298000FB88138000BF0C37BD4680BC704700BF7C68004080B483B000AF0346FB71044AFB79137000BF0C37BD4680BC704700BF8F64004080B400AF034B1B78DBB218467D
:4029C000BD4680BC704700BF6F64004080B400AF034B1B889BB21846BD4680BC704700BFBC68004080B582B000AF786000F03CF8786800F009F8012000F018F800F028F863
:402A000000BF0837BD4680BD80B485B000AF7860054B1B68FB60FB6844337A681A6000BF1437BD4680BC704708ED00E080B483B000AF0346FB71054AFB795B01DBB2137035
:402A400000BF0C37BD4680BC704700BF01E400E080B400AF034B02221A6000BFBD4680BC704700BF00E100E080B400AF034B02221A6000BFBD4680BC704700BF80E100E052
:402A800080B500AF064B20221A6006490520FFF71FFC07210520FFF743FC00BF80BD00BF80E100E0B52B000080B582B000AF0F2000F06CF800F05CF800F06EFD0346FB7155
:402AC000094A094B1B78DBB243F01003DBB21370FB79184600F064FD044B20221A6000BF0837BD4680BD00BF9D64004000E100E080B500AF00F0C2F94FF4004000F0ECF9A5
:402B0000074B00221A60074B1B78002B04D1FFF7B7FF044B01221A70FFF7C6FF00BF80BDD081FF1FCE81FF1F80B582B000AF0D4B20221A6000F0E0F90346FB80FB88A3F5B5
:402B400000439BB2BB80B7F90420074B1B6813443B60064B20221A603B6818460837BD4680BD00BF80E100E0D081FF1F00E100E080B400AF044B1B78DBB203F00F03DBB24E
:402B80001846BD4680BC70476D64004080B483B000AF0346FB71FB7943F00703FB71044AFB79137000BF0C37BD4680BC704700BF8D64004080B483B000AF144B1B78FB7127
:402BC000FB7903F00103002B07D0114B1B6803F5FF437F330E4A13600AE0FB7903F00203002B05D00A4B1B68A3F50043084A1360FB7903F00403002B02D0054B00221A60AD
:402C000000BF0C37BD4680BC704700BF6D640040D081FF1F80B500AF064B1B78002B04D100F00AF8034B01221A7000F051F800BF80BD00BFD481FF1F80B582B000AF214BBF
:402C40001B78DBB223F03F03FB711E4AFB7943F00903DBB213701C4A1B4B1B78DBB243F00103DBB21370194A184B1B78DBB243F00103DBB2137041F2883000F039F841F2A9
:402C8000883000F053F8002000F060F8002000F06DF8002000F07AF800F07EFC0346BB710A4A0A4B1B78DBB243F01003DBB21370BB79184600F074FC00F02AF800BF0837C2
:402CC000BD4680BD75640040906400409164004080B400AF054A054B1B78DBB263F07F03DBB2137000BFBD4680BC70477564004080B483B000AF0346FB80044AFB8813807F
:402D000000BF0C37BD4680BC704700BF0068004080B500AF01E000F055F800F047F8034603F01003002BF6D100BF80BD80B483B000AF0346FB80044AFB88138000BF0C3786
:402D4000BD4680BC704700BF8068004080B483B000AF0346FB80044AFB88138000BF0C37BD4680BC704700BF4068004080B483B000AF0346FB80044AFB88138000BF0C3759
:402D8000BD4680BC704700BF6068004080B483B000AF0346FB71044AFB79137000BF0C37BD4680BC704700BF8164004080B400AF034B1B78DBB21846BD4680BC704700BF06
:402DC0006164004080B400AF034B1B889BB21846BD4680BC704700BFA068004080B582B000AF1C4B1B78DBB223F00703FB71194AFB791370174B1B78DBB223F00303FB71CB
:402E0000144AFB79137000F0B3F84FF4004000F08FF84FF4004000F05FF8002000F040F800F04EF84FF4004000F092F800F0B4FB0346BB71084A084B1B78DBB243F0100344
:402E4000DBB21370BB79184600F0AAFB00BF0837BD4680BD7B6500409A64004080B400AF054A054B1B78DBB263F07F03DBB2137000BFBD4680BC70477B65004080B500AF3F
:402E8000064B1B78002B04D1FFF7A8FF034B01221A70FFF7E3FF00BF80BD00BFD581FF1F80B483B000AF0346FB71044AFB79137000BF0C37BD4680BC704700BF8A6400409A
:402EC00080B400AF034B1B78DBB21846BD4680BC704700BF6A64004080B483B000AF0346FB80044AFB88138000BF0C37BD4680BC704700BF1068004080B400AF044B1B78EE
:402F0000044B1B889BB21846BD4680BC704700BF086400409068004080B400AF034B1B889BB21846BD4680BC704700BF9068004080B483B000AF0346FB80044AFB881380B1
:402F400000BF0C37BD4680BC704700BF5068004080B483B000AF0346FB80044AFB88138000BF0C37BD4680BC704700BF7068004080B500AF01E0FFF7CFFFFFF7A1FF03462D
:402F800003F04003002BF6D100BF80BD80B582B000AF786000F03CF8786800F009F8002000F018F800F028F800BF0837BD4680BD80B485B000AF7860054B1B68FB60FB681B
:402FC00048337A681A6000BF1437BD4680BC704708ED00E080B483B000AF0346FB71054AFB795B01DBB2137000BF0C37BD4680BC704700BF02E400E080B400AF034B042257
:403000001A6000BFBD4680BC704700BF00E100E080B400AF034B04221A6000BFBD4680BC704700BF80E100E080B582B000AF4FF6FF7000F05DF84FF6FF7000F075F800F04B
:40304000ABFA0346FB710A4A094B1B78DBB243F01003DBB21370FB79184600F0A1FA00F073F8002000F028F800BF0837BD4680BD9264004080B400AF054A054B1B78DBB2DA
:4030800063F07F03DBB2137000BFBD4680BC70477064004080B500AF064B1B78002B04D1FFF7C2FF034B01221A70FFF7E3FF00BF80BD00BFD681FF1F80B483B000AF034681
:4030C000FB71044AFB79137000BF0C37BD4680BC704700BF8264004080B400AF034B1B78DBB21846BD4680BC704700BF6264004080B483B000AF0346FB80044AFB8813809A
:4031000000BF0C37BD4680BC704700BF4468004080B400AF034B1B889BB21846BD4680BC704700BF8468004080B483B000AF0346FB80044AFB88138000BF0C37BD4680BC0D
:40314000704700BF0468004080B500AF01E0FFF7DFFFFFF7C1FF034603F00803002BF6D100BF80BD80B500AF064B1B78002B04D100F00AF8034B01221A7000F051F800BFFC
:4031800080BD00BFD781FF1F80B582B000AF204B1B78DBB223F03F03FB711D4AFB7943F00B03DBB213701B4A1A4B1B78DBB243F00103DBB21370184A174B1B78DBB243F0C7
:4031C0000103DBB2137040F6CA0000F039F840F6CA0000F053F8002000F060F8002000F06DF800F0D9F90346BB710C4A0B4B1B78DBB243F01003DBB21370BB79184600F0A7
:40320000CFF900F02DF800BF0837BD4680BD00BF7765004094650040956500409665004080B400AF054A054B1B78DBB263F07F03DBB2137000BFBD4680BC70477765004092
:4032400080B483B000AF0346FB80044AFB88138000BF0C37BD4680BC704700BF086A004080B500AF01E000F045F800F037F8034603F01003002BF6D100BF80BD80B483B0F2
:4032800000AF0346FB80044AFB88138000BF0C37BD4680BC704700BF886A004080B483B000AF0346FB80044AFB88138000BF0C37BD4680BC704700BF486A004080B483B000
:4032C00000AF0346FB71044AFB79137000BF0C37BD4680BC704700BF8665004080B400AF034B1B78DBB21846BD4680BC704700BF6665004080B400AF034B1B889BB2184655
:40330000BD4680BC704700BFA86A004080B500AF064B1B78002B04D100F00AF8034B01221A7000F047F800BF80BD00BFD881FF1F80B582B000AF1C4A1B4B1B78DBB243F03B
:403340000103DBB21370194A184B1B78DBB243F00103DBB2137049F6404000F031F849F6404000F04BF84FF47A6000F057F84FF4FA6000F063F8002000F070F800F00CF991
:403380000346FB710A4A0A4B1B78DBB243F01003DBB21370FB79184600F002F900F020F800BF0837BD4680BD96650040976500409465004080B400AF00BFBD4680BC7047EE
:4033C00080B483B000AF0346FB80044AFB88138000BF0C37BD4680BC704700BF0C6A004080B500AF01E000F055F800F047F8034603F01003002BF6D100BF80BD80B483B04D
:4034000000AF0346FB80044AFB88138000BF0C37BD4680BC704700BF8C6A004080B483B000AF0346FB80044AFB88138000BF0C37BD4680BC704700BF4C6A004080B483B076
:4034400000AF0346FB80044AFB88138000BF0C37BD4680BC704700BF6C6A004080B483B000AF0346FB71044AFB79137000BF0C37BD4680BC704700BF8465004080B400AFD5
:40348000034B1B78DBB21846BD4680BC704700BF6465004080B400AF034B1B889BB21846BD4680BC704700BFAC6A004080B483B000AF0346FB71044AFB79137000BF0C37E6
:4034C000BD4680BC704700BF7665004080B483B000AF0346FB71044AFB79137000BF0C37BD4680BC704700BF7664004080B582B000AF786000F03CF8786800F009F8072011
:4035000000F018F800F028F800BF0837BD4680BD80B485B000AF7860054B1B68FB60FB6840337A681A6000BF1437BD4680BC704708ED00E080B483B000AF0346FB71054AFE
:40354000FB795B01DBB2137000BF0C37BD4680BC704700BF00E400E080B400AF034B01221A6000BFBD4680BC704700BF00E100E080B400AF034B01221A6000BFBD4680BC21
:40358000704700BF80E100E00230800803D000BF01380046FCD17047EFF3108072B6704780F31088704700BF00F01AB930B5214A21F00043934287B01BDD1F4A934205DDA8
:4035C00002460B4602F0A6FC07B030BD02AA01F0D3FA00F0030001281AD002280FD008B3DDE9020101230093DDE9042302F0BCFAEAE70022002301F09BFD07B030BDDDE9A8
:403600000423DDE9020101F093FD01F10041DBE70090DDE90423DDE9020102F0A5FA01F10041D1E7DDE90423DDE9020101F080FDCAE700BFFB21E93FFFFFEF7F000000001E
:40364000C1F30A522DE9F843A2F2FF36132E0B4604460D46884607461CDC002E3FDB3A4A864642FA06F901EA0902024317D034A3D3E9002302F050FC0022002303F08EF837
:4036800020B1002D40DB28EA0905002738462946BDE8F883332E06DDB6F5806F2FD020461946BDE8F883A2F213424FF0FF3929FA02F910EA090FF2D021A3D3E9002302F0F4
:4036C0002BFC0022002303F069F80028DED0002D20DB454627EA090738462946D8E718A3D3E9002302F018FC0022002303F056F80028CBD0002D18DB00273D46C6E702460C
:403700000B4602F009FCCCE74FF4801343FA06F6B044B8E7142E10D00123C6F1340603FA06F6371928BF9844D3E725F00042074B224318BF1D460027A8E705F10108C8E743
:403740009C7500883CE4377EFFFF0F000000F0BF30B5214A21F00043934287B01BDD1F4A934205DD02460B4602F0D4FB07B030BD02AA01F001FA00F0030001281ED002288D
:4037800011D0DDE9042300B3DDE9020101F0D0FC01F10041EAE7002300930022002302F0E3F907B030BD01230093DDE90201DDE9042302F0D9F901F10041D7E7DDE9042382
:4037C000DDE9020101F0B4FCD0E70124DDE90201009402F0C9F9C9E7FB21E93FFFFFEF7F2DE9F0418AB004460D4600F06DFA374B064693F900800F46B8F1FF3F0DD0224642
:403800002B462046294602F0D3FF30B9002200232046294602F0C2FF20B1304639460AB0BDE8F0812A4B0890CDE90245CDE904450193B8F1000F19D1264F4FF06046204633
:40384000294600220023CDE9066702F07FFF002834D002230093684602F046FAA8B1089BC3B9DDE906010AB0BDE8F0811A4F00262046294600220023CDE9066702F066FF05
:4038800068B1022398450093E5D103F039FB22230360E4E703F034FB089B0360E1E70123B8F1020F00930BD103F02AFB212303600A4802F01BFACDE90601D0E7012300938A
:4038C000684602F011FA0028F2D1EDE7E480FF1F90890000FFFFEFC70000F0FF9C8900002DE9F04F8DB006460F4614461D4600F0DFFBDFF81093CDE9000199F90080B8F155
:40390000FF3F46D022462B462046294602F050FF834600283DD132463B463046394602F047FF8246002874D1304639460022002302F00CFF002833D000220023204629466E
:4039400002F004FF8346B8B1A94A012300200021CDF828A0CDE90467CDE90645CDE9080103920293B8F1000F6CD0A24B0022104619460DB0BDE8F08F2046294602F0AEF929
:4039800038B1002200232046294602F0E9FE00286AD1DDE90023104619460DB0BDE8F08FDDE9000102F09AF9804600287DD0DDE900014FF0000A4FF0000B52465B4602F03D
:4039C000C5FE0028E5D03046394602F087F90028DFD02046294602F081F90028D9D099F90030834804210022022BCDE90467CDE90645CDE908AB039002910A9204D002A80B
:403A000002F072F9002847D103F07AFA2223036042E0002200232046294602F097FE0028B7D0744B724800220121B8F1020FCDF828B0CDE90467CDE90645CDE908230390BE
:403A40000291A8D002A802F04FF900287ED00A9B43B303F055FADDE908230A990160104619460DB0BDE8F08F614999F900300122CDF828B0CDE90467CDE906450391029203
:403A8000002B68D05C490020022BCDE9080166D103F036FA212303600A9B1BB103F030FA0A9B0360DDE9082375E73046394602F015F900283FF47BAF2046294602F00EF9C6
:403AC00000283FF474AFDDE900231046194602F06FFE00286FD1464B99F90080039303230A90CDE90467CDE906450293B8F1000F3BD1DFF814B14FF0604A0022002330462F
:403B00003946CDE908AB02F02BFE00283FF477AF00223A4B2046294602F0B0FB04460D4602F0EAF802460B462046294602F00EFE00283DD1324B4FF06042CDE9082399F904
:403B40000080B8F1020F7FF45AAF5DE703F0D8F9212303607BE700230024CDE9083402A802F0C2F8002897D192E7DFF8A0B04FF0000A0022002330463946CDE908AB02F0E1
:403B8000EFFD0028DDD000221C4B2046294602F075FB04460D4602F0AFF802460B462046294602F0D3FD18B9134B0022CDE9082399F90080C5E70E4A99F900900123CDF8CB
:403BC0002880CDE90467CDE9064503920293B9F1000FC0D0002200231046194602F078FCB9F1020FCDE908013FF452AFB7E700BF948900000000F03F0000F0FF0000E03FC3
:403C0000FFFFEFC7E480FF1FFFFFEF470000F07F2DE9F04F8BB004460D4601F0C3F9284B064693F900A00F46BAF1FF3F12D022462B462046294602F0BBFD834650B94FF05D
:403C400000084FF000092046294642464B4602F087FD20B9304639460BB0BDE8F08F194A0123CDF820B0CDE90445CDE9024501920093BAF1000F15D042464B4640464946D8
:403C800002F026FCBAF1020FCDE906010CD103F037F921230360089B63B9DDE906010BB0BDE8F08FCDE90689684602F01DF80028F1D1ECE703F024F9089B0360EDE700BF05
:403CC000E480FF1F988900002DE9F04FB1F5801F85B006460F460B465ADA024621F00044224300F0F7800029C0F279810022D64B02F0C4FA0B460F46D44906468B426FF0C0
:403D0000350249DCC3F3130505F5152404F6647404F4801E8EF07F5181F440111B15A3F2FF3341EA05079C1830460022C84B394604EB1E5402F0EEF8AB1CC3F31303022BA5
:403D400082468B464FF000022FDC002302F0FEFC002800F0C880002C00F04A81204602F027FAA5A3D3E9002306460F4602F086FAA3A3D3E9002304460D463046394602F0AC
:403D80007DFA02460B462046294602F0C5F809E0AE4900228B42B5DD32463B463046394602F0BAF805B0BDE8F08F4FF0804302F0B3F802460B465046594602F089FB064674
:403DC00020460F4602F0F4F93246CDE900013B4630463946CDE9026702F050FA02460B468046894602F04AFA87A3D3E9002306460F4602F043FA86A3D3E9002302F08CF86E
:403E000032463B4602F03AFA83A3D3E9002302F083F832463B4602F031FA81A3D3E9002302F07AF842464B4602F028FA7EA3D3E90023804689463046394602F01FFA7CA393
:403E4000D3E9002302F068F832463B4602F016FA79A3D3E9002302F05FF832463B4602F00DFA0B4602464946404602F055F8A5F5C223C5F5D725A3F27A4351351D43002D59
:403E80008046894656DD0022724B5046594602F0F5F952465B4602F0F1F906460F46002C68D132463B464046494602F035F8DDE9022302F0E3F902460B463046394602F0C5
:403EC00029F802460B465046594602F023F805B0BDE8F08F0022002300205F4902F0F8FA05B0BDE8F08F56A3D3E900235046594602F0C4F902460B460020564902F00AF81B
:403F0000524606460F465B465046594602F0B6F902460B463046394602F0B0F906460F46002C40F09B8002460B465046594601F0F1FF37E7002C00F0A5802FA3D3E90023D1
:403F4000DDE9000102F09AF942464B4604460D465046594601F0DEFFDDE9022302F08EF927A3D3E9002306460F46DDE9000102F085F921E020A3D3E90023DDE9000102F0FB
:403F80007DF932463B4604460D464046494601F0C3FFDDE9022302F071F919A3D3E9002380468946DDE9000102F068F902460B464046494601F0B0FF02460B4630463946C0
:403FC00001F0A8FF52465B4601F0A4FF02460B462046294601F09EFF05B0BDE8F08F02460B4601F097FF0022002302F071FAD9E600200021D6E600BF0000E0FE422EE63FD7
:40400000763C7935EF39EA3D44523EDF12F1C23FDE03CB966446C73F599322942449D23F935555555555E53F9FC678D0099AC33FAF788E1DC571CC3F04FA97999999D93FCB
:40404000555555555555D53F00005043FFFFEF7F0000F03F0000E03F000050C3204602F0A7F80FA3D3E900238046894602F006F90DA3D3E9002304460D464046494602F08D
:40408000FDF899E702460B465046594601F042FFDDE9022302F0F2F813E700BFAFF300800000E0FE422EE63F763C7935EF39EA3D2DE9F04F23F0004858EA020993B03CD07B
:4040C000714C21F00046A64283460D460CDD06F1404606F5801656EA0B0038D183466B49584613B0BDE8F08F9A4696462BD0A045EDDC654CA04578D0002D0F468146CDE919
:40410000002376DB0024BEF1000F27D15E4B984500F08B805D4B984552D0BAF1804F00F0C9835B4B9A4519D1002D17DB4846394613B0BDE8F04F00F035BFCB4658465349E2
:4041400013B0BDE8F08F0028C1D1B045D1DD514813B0BDE8F04F01F0C9BD00244846394601F0B8FDBBF1000F1CD0ED0F013D54EA050370D0484B984540F3948003F10473E4
:40418000984540F30D84454B9E4270DDBAF1000F70DD3BA3D3E900231046194602F06EF883469DE726B1394B25F040429A42DCD1BAF1000FC0F2B783002D08DB83468FE713
:4041C000BAF1000FC0F25E84CB46394688E706F1404606F5801656EA040300F08384012CECD101F1004183467AE7BEF1000F83D06DE72B4B98452CDCA3F15473984581DD89
:404200004FEA2853A3F2FF33142B40F35384C3F134032EFA03F202FA03F39E457FF472AF02F00102C2F102046DE706F1404303F5801353EA0B0300F03A83184B9E4240F3D4
:404240006783BAF1000F15DBDDE900349B46214646E7022457E74A4648463B46394601F059FE02460B4602F033F9834638E7BAF1000F8EDB4FF0000B594631E7AFF300808C
:404280009C7500883CE4377E0000F07F0000F03F0000E03F9C8900000000E041FFFFEF3FFFFF3F43B6F5801F4FF0000205DAD04B01F0E4FF0E466FF03402DFF844E3331559
:4042C000C6F31306A3F2FF3346F07F57764503EB020A47F4401740F3C983C64B00229E4240F304840023CDE90823CDE90C23C24B0022CDE906230AF1010AA7F5801700262F
:404300003946DDE90623CDE90A0101F003FEDDE9062380468946DDE90A0101F0FDFD02460B460020B44902F0D3F80A4601461346CDE90E1202464946404601F09FFF8C4625
:4043400083467B1043F0005303F5002399190020CDE904BC06460F464FF0000B6146584632463B46CDE910BCCDE9020101F086FF02460B464046494601F0CCFDDDE90623CF
:40438000804689463046394601F0C4FD02460B46DDE90A0101F0BEFDDDE9022301F06EFF02460B464046494601F0B4FDDDE90E2301F064FFDDE90478CDE906013A464346BF
:4043C0003846414601F05AFF77A3D3E9002306460F4601F053FF76A3D3E9002301F09CFD32463B4601F04AFF73A3D3E9002301F093FD32463B4601F041FF71A3D3E9002349
:4044000001F08AFD32463B4601F038FF6EA3D3E9002301F081FD32463B4601F02FFF6CA3D3E9002301F078FD3246804689463B463046394601F022FF02460B4640464946D5
:4044400001F01CFFDDE9022306460F46DDE9040101F062FDDDE9062301F010FF32463B4601F05AFDDDE902678046894632463B463046394601F002FF0022604BCDE90A0127
:4044800001F04AFD42464B4601F046FDDDE910BC0F46DDE902015A463B46CDE90EBC5E4601F0ECFE0022CDE90201544B3046394601F030FDDDE90A2301F02CFD02460B4674
:4044C0004046494601F026FDDDE9042301F0D6FE324680468946DDE906013B4601F0CEFE02460B464046494601F016FD8046894602460B46DDE9020101F00EFDDDE90EBC94
:4045000035A3D3E900235846CDE906BC5E460F4601F0B4FEDDE90223CDE904013046394601F0F8FC02460B464046494601F0F2FC2BA3D3E9002301F0A1FE2BA3D3E900231B
:40454000804689463046394601F098FE02460B464046494601F0E0FCDDE90C2301F0DCFC80465046894601F023FE06460F46DDE9040142464B4601F0CFFCDDE9082301F091
:40458000CBFC32463B4601F0C7FCDDE906BC324658463B46DA468B4601F0BCFCDDE9082330E000BFAFF30080EF4E454A287ECA3F65DBC9934A86CD3F01411DA96074D13F0D
:4045C0004D268F515555D53FFFAB6FDBB66DDB3F033333333333E33F000000E009C7EE3FFD033ADC09C7EE3FF5015B14E02F3EBE0000404379B60B000000F03F00000840C1
:404600008E98030001F086FCDDE9042301F082FC02460B464046494601F07CFC80468946DDE90012013C54EA050314BFD64CD74C0023CDE904340B461446CDE90234002398
:404640000293DDE9024508462B461146224601F061FC52465B4601F011FEDDE9002306460F464046494601F009FE02460B463046394601F051FC06460F4622462B46504620
:404680005946CDE9006701F0F9FD0B460246804689463046394601F03FFCBD4B064699420D460C4640F30E8101F13F4303F5E003034340F0F081A0A3D3E90023DDE9000153
:4046C00001F02AFC424682468B464B463046294601F020FC02460B465046594602F05EF8002840F0D8812F463B154FF48012A3F2FE3342FA03F32344C3F30A52A54EA2F2A6
:40470000FF321641C3F3130B0020C2F1140523EA06014BF4801B02460B46002C4BFA05FB40464946B8BFCBF1000B01F0F3FB02460B4680468946DDE9000101F0EDFB4FEA00
:404740000B5A00247EA3D3E9002320460D4601F095FD424606460F464B462046294601F0D9FB02460B46DDE9000101F0D3FB76A3D3E9002301F082FD75A3D3E900238046DC
:4047800089462046294601F079FD02460B464046494601F0C1FB8046894602460B463046394601F0B9FB32463B4604460D4601F0B1FB02460B464046494601F0ABFB2246EB
:4047C000804689462B462046294601F057FD62A3D3E9002306460F4601F050FD60A3D3E9002301F097FB32463B4601F047FD5EA3D3E9002301F090FB32463B4601F03EFDC2
:404800005BA3D3E9002301F085FB32463B4601F035FD59A3D3E9002301F07EFB32463B4601F02CFD02460B462046294601F072FB06460F4602460B462046294601F01EFDCF
:404840000022CDE900014FF080433046394601F061FB02460B46DDE9000101F039FE424606460F464B462046294601F007FD42464B4601F051FB02460B463046394601F03A
:4048800049FB22462B4601F045FB02460B4600203D4901F03FFB8A44BAF5801FC0F237815146DDE9042301F0E9FC834618E4F346354915E44A4648463B46394601F0DEFC02
:4048C00083460DE4344B21F000479F4240F30181324B0B4403430CD142464B4601F01AFB02460B46DDE9000101F044FF00283FF4FBAE23A3D3E90023DDE9040101F0BEFCD0
:404900001FA3D3E9002301F0B9FC8346FFF7E8BBBAF1000FBFF6AEACDDE900349B4604F10041FFF7DDBB02460B460020164901F0CFFD41E4AFF30080FE822B654715973C0B
:4049400000000000432EE63FEF39FAFE422EE63F396CA80C615C20BED0A4BE726937663EF16BD2C541BDBB3E2CDE25AF6A56113F93BDBE166CC1663F3E5555555555C53F57
:4049800059F3F8C21F6EA5010000F03F0000F0BFFFFF8F40FFFF0F00FFCB904000346F3F6F4B9E427FF763AC6E4B9E423FF7EEAB00226C4B01F0AEFA5BA3D3E90023064668
:4049C0000F4601F05BFC5AA3D3E90023804689463046394601F052FC002282468B46624B3046394601F04AFC02460B4652A1D1E9000101F08FFA32463B4601F03FFC0246B3
:404A00000B460020594901F085FA3246CDE902013B463046394601F031FC02460B46DDE9020101F02BFC46A3D3E9002301F026FC02460B465046594601F06CFA02460B461B
:404A400006460F464046494601F066FA42464B46002082468B4601F05DFA02460B463046394601F057FA80468946D9E500220023CDE90823CDE90C233A4B00220026CDE964
:404A800006233DE44A463B460020364901F020FD8346FFF725BB2CA3D3E90023DDE9040101F0ECFB28A3D3E9002301F0E7FB8346FFF716BBBEF1000F7FF44FABC3F11403FB
:404AC00048FA03F202FA03F3984524D07446FFF721BB264B9F423FF707AEDDE902349A469B462EE602460B46FFF7B9BB204B4FF48026CDE9062316A3D3E90023CDE9082373
:404B000015A3D3E90023CDE90C23FFF7F9BB5A4601F082F9C5E602F00102C2F10204FFF7F9BA00BFAFF30080000000604715F73F44DF5DF80BAE543E555555555555D53F99
:404B4000FE822B654715F73F9C7500883CE4377E0000004003B8E23F06D0CF43EBFD4C3EFEFFEF3F0000F03F0000D03F0000E03F0000F83F000000002DE9F04F944C21F0AA
:404B80000047A7428FB040F381801446914A0E46974226DC84A3D3E90023002940F3A08101F0B8F98C4B80469F42894600F083807FA3D3E9002301F0ADF902460B464046D2
:404BC000C4E90023494601F0A5F979A3D3E9002301F0A0F90125C4E9020128460FB0BDE8F08F7E4A974240F383807D4A974258DC3D15A5F21645A7EB05518B46824601F0BA
:404C0000EDFD01F0D5FA8046894642464B4650465946CDE9088901F07DF90022714B01F02DFB8B46824601F0D9FD01F0C1FA8046894642464B4650465946CDE90A8901F019
:404C400069F90022674B01F019FB00220023CDE90C0101F07BFD002800F06A81002340464946002201F072FD002814BF012302235D480221019000912A46214608A800F026
:404C80007BFB002EC0F24A81054606E0C2E9000100250024C2E90245002528460FB0BDE8F08F02460B4601F035F90025C4E90201C4E90001F1E740A3D3E9002301F02AF95C
:404CC0003FA3D3E9002306460F4601F023F902460B463046C4E90023394601F01BF938A3D3E9002301F016F90125C4E90201D4E700F0F0FF34A3D3E900238046894601F07C
:404D0000BDFA0022394B01F007F901F067FD054601F04EFA24A3D3E90023CDE9040101F0ADFA02460B464046494601F0F3F820A3D3E9002382468B46DDE9040101F09EFA3A
:404D40001F2DCDE9020155DC294B6A1E53F822309F424FD002460B465046594601F0DAF802460B4681468846C4E900234A4643465046594601F0CEF8DDE9022301F0CAF832
:404D800002460B46002EC4E9022386DA4A4608F1004301F1004184E80C00E160A0606D427BE700BFAFF3008000004054FB21F93F3163621A61B4D03D0000601A61B4D03D9A
:404DC0007370032E8A19A33B83C8C96D305FE43FFB21E93F7BD90240FB21F93FFB213941FFFFEF7F00007041208A00000000E03FA0890000DDE902235046594601F08AF885
:404E00003F15C1F30A53FB1A102B81468846C4E90001ABDD58A3D3E90023DDE9040101F02DFA8046894602460B465046594601F071F8CDE9060102460B465046594601F0FC
:404E400069F842464B4601F065F84DA3D3E9002380468946DDE9040101F010FA42464B4601F058F802460B46CDE90201DDE9060101F050F80B4602468846C1F30A517F1A7F
:404E8000312F8146C4E9002372DD3FA3D3E90023DDE9040101F0F2F98046894602460B46DDE9060101F036F802460B4682468B46DDE9060101F02EF842464B4601F02AF8E8
:404EC00033A3D3E9002380468946DDE9040101F0D5F942464B4601F01DF8CDE9020139E701F01AF82E4B80469F42894622D02AA3D3E9002301F010F802460B464046C4E991
:404F00000023494601F006F823A3D3E9002301F003F84FF0FF35C4E90201BEE66268E36802F1004203F1004345426260E360B4E603239DE610A3D3E9002300F0EDFF10A307
:404F4000D3E9002306460F4600F0E6FF02460B463046C4E90023394600F0DCFF08A3D3E9002300F0D9FF4FF0FF35C4E9020194E6DDE906ABFAE600BF0000601A61B4D03D12
:404F80007370032E8A19A33B0000002E8A19A33BC14920259A837B393163621A61B4D03DFB21F93F2DE9F0415F4E0C46B6460E407645054600F0988000290B46024674DD56
:404FC0005FEA215E7FD0AEF2FF3EC3F313031EF0010F43F4801363D100273E4603EBD2710B444FEA6E0E520016204FF4001174189C424FEAD2754FEA420202DC1B1B661820
:405000000F44013805EB43034FEA5101EFD1844620244FF0004109E020D003EBD275013C4FEA51012B444FEA420220D09E4201EB0C05F1DA002D05EB010C09DBB0469542A0
:40504000A3EB060300D9013B4646521B0844E4E7BCF1000FF2DB06F10108F0E7954217D8002D05EB010C49DB98460023ECE7134310D140087B1003F17F5303F50013FA0750
:4050800003EB0E57394648BF40F00040BDE8F0813346C2E7411C35D000F001031844E8E75B0003EBD273520096E721F000460643ECD079BB8E46D30AAEF1150E5205002B0C
:4050C000F9D0DD0221D4002100E001465B00DC0201F10100F9D5C0F1200422FA04F42343C1EB0E0E82406EE702460B4601F0C6F82A46234600F010FFBDE8F081BCF1000FB1
:40510000A9DAB1E701372046B4E720244FF0FF310020E2E702460B4600F0FCFE02460B4601F0D6F9B2E700BF0000F07F000000002DE9F04F21F00046B6F1795F85B00C462A
:4051400092469B4605466BDA01F048FB002800F0E7802A4623462846214601F08FF874A3D3E900238046894601F088F872A3D3E9002300F0D1FE42464B4601F07FF870A3CA
:40518000D3E9002300F0C6FE42464B4601F076F86DA3D3E9002300F0BFFE42464B4601F06DF86BA3D3E9002300F0B4FE42464B4601F064F868A3D3E9002300F0ADFE4246D7
:4051C0004B4601F05BF8CDE900010022644B4046494601F053F8DDE9002306460F464046494601F04BF85246804689465B462846214601F043F802460B464046494600F0C1
:4052000089FE02460B463046394600F083FE02460B460020534900F07DFE05B0BDE8F08F02460B4601F02AF841A3D3E900238046894601F023F840A3D3E9002300F06CFE23
:4052400042464B4601F01AF83DA3D3E9002300F061FE42464B4601F011F83BA3D3E9002300F05AFE42464B4601F008F838A3D3E9002300F04FFE42464B4600F0FFFF36A30B
:40528000D3E9002300F048FE4B46424600F0F6FF354BCDE900019E4297DD344B00229E4238DCA6F5001300202E4916461F4600F031FECDE902010022294B4046494600F042
:4052C000DDFF32463B4600F025FEDDE9002306460F464046494600F0D1FF5246804689465B462846214600F0C9FF02460B464046494600F00FFE02460B463046394600F0E3
:4053000009FE02460B46DDE9020100F003FE05B0BDE8F08F164B0026CDE90223154FCAE71049002005B0BDE8F08F00BFAFF30080D43888BEE9FAA8BDC4B1B4BD9EEE213E25
:40534000AD529C804F7E923E9015CB19A001FA3E7751C1166CC1563F4C5555555555A53F0000E03F0000F03F3233D33F0000E93F0000E73F0000D23F2DE9F04F794CADF5F9
:405380001D7D1F460B93D31E84FB0354DB17C3EBA403A69E744C23EAE37554F826406B1C26460994A3EB83037C1E0D95029402EBC3032D1B341904900A91089316D42C4445
:4053C000013422AEA79F08E057F8250000F0F0FE0135A542E6E9020108D0002DF4DA013500200021A542E6E90201F6D1099B002B2FDB099B74AADDF8089002EBC30B0DF5AA
:40540000E47A029B002BC0F295810B9B0026C3EB090824AB03EBC808049B0027A3F1080524AB03EBC904F5E9022374E8020100F025FF02460B463046394600F06DFD44458E
:4054400006460F46EFD1EAE90267DA4509F10109D7D1099B10A91D4603F18043023B9B001A1D0A440B440F920E939CAB03EBC503002D53E928672BDD9CAB03EBC504A83C80
:405480000DF13C0A0DF5E47B0022384B3046394600F0F4FE01F0A2F900F08AFE0022344B8046894600F0EAFE02460B463046394600F030FD01F092F974E802234AF8040FBC
:4054C0004946404600F028FD5C4506460F46DBD1089C30463946224600F09EFC00224FF07F5306460F4600F0C9FEFEF7A9F80022204B00F0C3FE02460B463046394600F02C
:4055000009FD0F46064601F069F9814600F050FE02460B463046394600F0FCFC002C06460F4640F3EE80681E10AB53F82030C4F1180243FA02F101FA02F29B1AC4F1170835
:4055400010AA42F82030894443FA08F8B8F1000F3DDD002D09F1010940F3D382002214460FA911E0ABAAAA2A288B00000000703E0000704100002040C3F180700BB10860CA
:405580000124013295420DDD51F8043F002CF3D0C3F1FF13013203F57F4395420B604FF00104F1DC089B002B0DDD012B00F0B180022B08D16A1E10AB53F8223010A9C3F3F7
:4055C000150341F82230B8F1020F00F08180002200233046394601F0B9F8002800F05B82099B05F1FF3B5B4510DC05F1804310AA013B0F9802EB8303002253F80419834214
:4056000042EA0102F9D1002A40F0B180099B10AA013B52F82330002B40F071820E9A012352F8041901330029FAD0E9186A1C8A420C914BDC0D990B985118DB0001F18041B0
:405640000593A79B05440139E80003EB810A24ABD20003EB000B74AB13440193A2F10803069007934FF000095AF8040F00F0A0FD029BEBE80201002B4FF000064FF0000797
:405680001BDB069B03EB0904079B09EB030824AB1C449844049BA3F10805F5E9022374E8020100F0EBFD02460B463046394600F033FC444506460F46EFD1019B09F10809F4
:4056C000E3E802670193059B9945CDD10C9DCCE632463B460020B04900F01CFC06460F46002C3FF474AF089A0020AB4900F094FB02460B463046394600F00CFC06460F46D2
:4057000065E710D16B1E10AA52F823304FEAE3581CE76A1E10AB53F8223010A9C3F3160341F822304FE700229C4B01F02DF858B980464CE700260027EAE90267DA4509F1F1
:4057400001097FF45EAE84E6002D09F10109C8BF4FF002083FF702AF32463B4600208E4900F0D8FB4FF0020806460F462FE7089A10AB53F82B30183ACDF81490CDF8048094
:4057800008926BB90BF18043013B10A901EB830353F804190BF1FF3B183A0029F8D00892089A00207C4900F037FBBBF1000F04460D46C0F2B6814FEACB030DF5E87810AA7D
:4057C00002EB8B0608EB03090493043609F1080756F8040D00F0ECFC22462B4600F04EFD002267E902016E4B2046294600F046FDB84504460D46EBD14B46CDF818B09B467C
:405800000DF5987ACDF808A0DDF824A04FF00009BAF1000FC0F226815DA3D3E90023DFF884815D4600260027002403E0A14510DBF8E90223F5E8020100F020FD02460B46E4
:405840003046394600F068FB0134A24506460F46ECDA029BABF1080B03EBC903C3E9006772AB5B4509F10109D2D1A69BDDF818B0DDF808A0032B00F28380DFE813F0D100C7
:40588000950095000400BBF1000F40F35481049BCDF808B053449846D3E90067D34658E9029A32463B464846514600F035FB04460D4602460B464846514600F02BFB324626
:4058C0003B4600F029FBC8E9000168E90245C34526462F46E3D1DA46DDF808B0BBF1010F40F32981049B0DF59C7B53449846D3E90067994659E902343046CDE902341A467D
:405900003946234600F008FB04460D4602460B46DDE9020100F0FEFA32463B4600F0FCFAC9E9000169E90245CB4526462F46E1D100231D4608F1080850AC184678E9022368
:40594000294600F0E9FA444503460D46F5D1019A002A00F0D880DAF80440DAF80C200A9FDAF80010DAF8080005F1004504F1004402F100427D613B617C60FA603960B8606A
:40598000059B03F007000DF51D7DBDE8F08F00BF00000040FB21F93F0000F03F0000E03F0000703E388B000000242146049D0835554475E90223204600F0AEFA5545044614
:4059C000F7D1019B002B50D00A9F01F100450B46DAE9000187E83000224600F09BFABBF1000F03460D460DDD01241846FAE90223294600F091FA0134A34503460D46F4DA3A
:405A0000019A0AB105F10045184629460A9BC3E90201059B03F007000DF51D7DBDE8F08F00231C46049A0832924418467AE90223214600F071FA0BF1FF3BBBF1FF3F034616
:405A40000C46F2D1019A0AB104F10044184621460A9BC3E90001059B03F007000DF51D7DBDE8F08F00260027F3E626460F4622460A9C0B46DAE90001C4E9006700F04AFABF
:405A8000BBF1000F03460D46AEDC184629460A9BC3E90201BDE7089B30465A423946CDF81490CDF8048000F0B7F900222C4B06460F4600F069FE002840D00022294B3046E5
:405AC000394600F0DBFB00F089FE044600F070FB0022234B00F0D2FB0B4602463946304600F018FA00F07AFE089B05F1010B1833089310AB43F8250043F82B4050E601235A
:405B000093E500244EE51846DAE90067DAE9022329460A9DC5E90067C5E90401C5E902232EE7A69B032B3FF62BAFDFE803F0151010020DF5987A00231D4608E73046394673
:405B400000F04CFE10ABAB4643F8250028E6002421460DF5987A34E700231C4672E700BF000070410000703E2DE9F04F21F00046B6F1795F85B00C4690469946054604DA8B
:405B800000F02CFE002800F085802A4623462846214600F073FB06460F4602460B462846214600F06BFB3EA3D3E9002382468B463046394600F062FB3BA3D3E9002300F0F5
:405BC000A9F932463B4600F059FB39A3D3E9002300F0A2F932463B4600F050FB36A3D3E9002300F097F932463B4600F047FB34A3D3E9002300F090F90E9BCDE900019BB30C
:405C00000022334B4046494600F038FBDDE90023CDE902015046594600F030FB02460B46DDE9020100F076F932463B4600F026FB42464B4600F06EF923A3D3E9002306466E
:405C40000F465046594600F019FB02460B463046394600F061F902460B462846214600F059F905B0BDE8F08F02460B463046394600F004FB14A3D3E9002300F04BF9524656
:405C80005B4600F0FBFA2A46234600F045F905B0BDE8F08F2846214605B0BDE8F08F00BF7CD5CF5A3AD9E53DEB9C2B8AE6E55A3E7DFEB157E31DC73ED561C119A0012A3F21
:405CC000A6F810111111813F495555555555C53F0000E03F21F00041704700BF41F0004101F58010C00F70470020704700200149704700BF0000F87FF0B5C1F30A5EAEF219
:405D0000FF36132E83B002460B460C464FEAD17507462EDC002E49DB3D49314103EA010010432BD049080B4053EA02070CD04FF48023132E24EA010143FA06F444EA010414
:405D40000CBF4FF000470027324B214603EBC505D5E90045384622462B4600F0DDF8CDE90001DDE9000122462B4600F0D3F803B0F0BD332E06DDB6F5806F45D010461946D6
:405D800003B0F0BDAEF2134E4FF0FF3121FA0EF10842F3D049080842D6D04FF0804320EA010143FA0EFE4EEA0107CDE721F0004101431946E4D0C3F3130343EA000CCCF1F5
:405DC000000343EA0C0C134B640C4FEA1C3C0CF4002C03EBC5036404D3E900674CEA040132463B4600F098F8CDE90001DDE9000132463B4600F08EF8024621F0004141EA29
:405E0000C57310461946BBE700F086F8B8E700BFFFFF0F00788B0000F8B5C1F30A5604460D460B46174606BB21F00043034325D000222F4B00F022FA2E4A044697420D4605
:405E40000B462ADBC1F30A56363E40F2FE723E44964228DC002E12DD23F0FF4323F4E00343EA065520462946F8BD40F2FF729642EBD102460B4600F04FF8F8BDF8BD16F14E
:405E8000350F1DDA4CF250339F420CDC14A1D1E9000122462B4600F031F811A3D3E9002300F0ECF9F8BD22460FA1D1E900012B4600F024F80CA3D3E9002300F0DFF9F8BD43
:405EC00023F0FF4323F4E003363643EA0655204629460022084B00F0D1F9F8BDAFF3008059F3F8C21F6EA5019C7500883CE4377E00005043B03CFFFF0000903C03F000435E
:405F000021F0004242EA0301704700BF81F0004102E000BF83F0004330B54FEA41044FEA430594EA050F08BF90EA020F1FBF54EA000C55EA020C7FEA645C7FEA655C00F0DF
:405F4000E2804FEA5454D4EB5555B8BF6D420CDD2C4480EA020281EA030382EA000083EA010180EA020281EA0303362D88BF30BD11F0004F4FEA01314FF4801C4CEA1131B4
:405F800002D0404261EB410113F0004F4FEA03334CEA133302D0524263EB430394EA050F00F0A780A4F10104D5F1200E0DDB02FA0EFC22FA05F2801841F1000103FA0EF2C8
:405FC000801843FA05F359410EE0A5F120050EF1200E012A03FA0EFC28BF4CF0020C43FA05F3C01851EBE37101F0004507D54FF0000EDCF1000C7EEB00006EEB0101B1F5C2
:40600000801F1BD3B1F5001F0CD349085FEA30004FEA3C0C04F101044FEA445212F5800F80F09A80BCF1004F08BF5FEA500C50F1000041EB045141EA050130BD5FEA4C0C12
:40604000404141EB010111F4801FA4F10104E9D191F0000F04BF01460020B1FA81F308BF2033A3F10B03B3F120020CDA0C3208DD02F1140CC2F10C0201FA0CF021FA02F13C
:406080000CE002F11402D8BFC2F1200C01FA02F120FA0CFCDCBF41EA0C019040E41AA2BF01EB0451294330BD6FEA04041F3C1CDA0C340EDC04F11404C4F1200220FA04F0FB
:4060C00001FA02F340EA030021FA04F345EA030130BDC4F10C04C4F1200220FA02F001FA04F340EA0300294630BD21FA04F0294630BD94F0000F83F4801306BF81F480115B
:406100000134013D4EE77FEA645C18BF7FEA655C29D094EA050F08BF90EA020F05D054EA000C04BF1946104630BD91EA030F1EBF0021002030BD5FEA545C05D140004941FB
:4061400028BF41F0004130BD14F580043CBF01F5801130BD01F0004545F0FE4141F470014FF0000030BD7FEA645C1ABF194610467FEA655C1CBF0B46024650EA013406BFD8
:4061800052EA033591EA030F41F4002130BD00BF90F0000F04BF0021704730B54FF4806404F132044FF000054FF0000150E700BF90F0000F04BF0021704730B54FF48064CB
:4061C00004F1320410F0004548BF40424FF000013EE700BF42004FEAE2014FEA31014FEA02701FBF12F07F4393F07F4F81F06051704792F0000F14BF93F07F4F704730B5F1
:406200004FF4607401F0004521F0004120E700BF50EA010208BF704730B54FF000050AE050EA010208BF704730B511F0004502D5404261EB41014FF4806404F132045FEAC3
:40624000915C3FF4DCAE4FF003025FEADC0C18BF03325FEADC0C18BF033202EBDC02C2F1200300FA03FC20FA02F001FA03FE40EA0E0021FA02F11444C1E600BF70B54FF0AC
:40628000FF0C4CF4E06C1CEA11541DBF1CEA135594EA0C0F95EA0C0F00F0DEF82C4481EA030621EA4C5123EA4C5350EA013518BF52EA033541F4801143F4801338D0A0FB73
:4062C00002CE4FF00005E1FB02E506F00042E0FB03E54FF00006E1FB03569CF0000F18BF4EF0010EA4F1FF04B6F5007F64F5407404D25FEA4E0E6D4146EB060642EAC6214B
:4063000041EA55514FEAC52040EA5E504FEACE2EB4F1FD0C88BFBCF5E06F1ED8BEF1004F08BF5FEA500E50F1000041EB045170BD06F0004646EA010140EA020081EA030112
:40634000B4EB5C04C2BFD4EB0C0541EA045170BD41F480114FF0000E013C00F3AB8014F1360FDEBF002001F0004170BDC4F10004203C35DA0C341BDC04F11404C4F120050A
:4063800000FA05F320FA04F001FA05F240EA020001F0004221F0004110EBD37021FA04F642EB06015EEA430E08BF20EAD37070BDC4F10C04C4F1200500FA04F320FA05F03A
:4063C00001FA04F240EA020001F0004110EBD37041F100015EEA430E08BF20EAD37070BDC4F1200500FA05F24EEA020E20FA04F301FA05F243EA020321FA04F001F000417A
:4064000021FA04F220EA020000EBD3705EEA430E08BF20EAD37070BD94F0000F0FD101F00046400041EB010111F4801F08BF013CF7D041EA060195F0000F18BF704703F069
:406440000046520043EB030313F4801F08BF013DF7D043EA0603704794EA0C0F0CEA135518BF95EA0C0F0CD050EA410618BF52EA4306D1D181EA030101F000414FF000004E
:4064800070BD50EA410606BF1046194652EA430619D094EA0C0F02D150EA013613D195EA0C0F05D152EA03361CBF104619460AD181EA030101F0004141F0FE4141F470017E
:4064C0004FF0000070BD41F0FE4141F4780170BD70B54FF0FF0C4CF4E06C1CEA11541DBF1CEA135594EA0C0F95EA0C0F00F0A7F8A4EB050481EA030E52EA03354FEA013180
:4065000000F088804FEA03334FF0805545EA131343EA12634FEA022245EA111545EA10654FEA00260EF000419D4208BF964244F1FD0404F5407402D25B084FEA3202B61A20
:4065400065EB03055B084FEA32024FF480104FF4002CB6EB020E75EB030E22BFB61A754640EA0C005B084FEA3202B6EB020E75EB030E22BFB61A754640EA5C005B084FEA6D
:406580003202B6EB020E75EB030E22BFB61A754640EA9C005B084FEA3202B6EB020E75EB030E22BFB61A754640EADC0055EA060E18D04FEA051545EA16754FEA06164FEA19
:4065C000C30343EA52734FEAC2025FEA1C1CC0D111F4801F0BD141EA00014FF000004FF0004CB6E711F4801F04BF01430020B4F1FD0C88BFBCF5E06F3FF6AFAEB5EB030CC0
:4066000004BFB6EB020C5FEA500C50F1000041EB045170BD0EF0004E4EEA113114EB5C04C2BFD4EB0C0541EA045170BD41F480114FF0000E013C90E645EA060E8DE60CEABF
:40664000135594EA0C0F08BF95EA0C0F3FF43BAF94EA0C0F0AD150EA01347FF434AF95EA0C0F7FF425AF104619462CE795EA0C0F06D152EA03353FF4FDAE1046194622E738
:4066800050EA410618BF52EA43067FF4C5AE50EA41047FF40DAF52EA43057FF4EBAE12E74FF0FF3C06E000BF4FF0010C02E000BF4FF0010C4DF804CD4FEA410C7FEA6C5CBB
:4066C0004FEA430C18BF7FEA6C5C1BD001B050EA410C0CBF52EA430C91EA030F02BF90EA020F0020704710F1000F91EA030F58BF994208BF90422CBFD8176FEAE37040F003
:40670000010070474FEA410C7FEA6C5C02D150EA013C07D14FEA430C7FEA6C5CD6D152EA033CD3D05DF8040B704700BF8446104662468C461946634600E000BF01B5FFF783
:40674000B7FF002848BF10F1000F01BD4DF808EDFFF7F4FF0CBF012000205DF808FB00BF4DF808EDFFF7EAFF34BF012000205DF808FB00BF4DF808EDFFF7E0FF94BF012039
:4067800000205DF808FB00BF4DF808EDFFF7CEFF94BF012000205DF808FB00BF4DF808EDFFF7C4FF34BF012000205DF808FB00BF4FEA410C7FEA6C5C02D150EA013C0AD1E0
:4067C0004FEA430C7FEA6C5C02D152EA033C02D14FF0000070474FF0010070474FEA410212F5001215D211D56FF47873B3EB625212D94FEAC12343F0004343EA505311F081
:40680000004F23FA02F018BF404270474FF00000704750EA013005D111F0004008BF6FF0004070474FF00000704700BF4A0011D212F5001211D20DD56FF47873B3EB6252F5
:406840000ED44FEAC12343F0004343EA505323FA02F070474FF00000704750EA013002D14FF0FF3070474FF0000070474FEA4102B2F1E04324BFB3F5001CDCF1FE5C0DD9C8
:4068800001F0004C4FEAC0024CEA5070B2F1004F40EB830008BF20F00100704711F0804F21D113F13872BCBF01F00040704741F480114FEA5252C2F11802C2F1200C10FA4F
:4068C0000CF320FA02F018BF40F001004FEAC1234FEAD32303FA0CFC40EA0C0023FA02F34FEA4303CCE77FEA625307D150EA01331EBF4FF0FE4040F44000704701F00040A0
:4069000040F0FE4040F40000704700BF80F0004002E000BF81F0004142001FBF5FEA410392EA030F7FEA226C7FEA236C6AD04FEA1262D2EB1363C1BFD21841404840414004
:40694000B8BF5B42192B88BF704710F0004F40F4000020F07F4018BF404211F0004F41F4000121F07F4118BF494292EA030F3FD0A2F1010241FA03FC10EB0C00C3F1200312
:4069800001FA03F100F0004302D5494260EB4000B0F5000F13D3B0F1807F06D340084FEA310102F10102FE2A51D2B1F1004F40EBC25008BF20F0010040EA0300704749008E
:4069C00040EB000010F4000FA2F10102EDD1B0FA80FCACF1080CB2EB0C0200FA0CF0AABF00EBC25052421843BCBFD0401843704792F0000F81F4000106BF80F40000013228
:406A0000013BB5E74FEA41037FEA226C18BF7FEA236C21D092EA030F04D092F0000F08BF0846704790EA010F1CBF0020704712F07F4F04D1400028BF40F00040704712F159
:406A400000723CBF00F50000704700F0004343F0FE4040F4000070477FEA226216BF08467FEA23630146420206BF5FEA412390EA010F40F4800070474FF0000304E000BF98
:406A800010F0004348BF40425FEA000C08BF704743F0964301464FF000001CE050EA010208BF70474FF000030AE000BF50EA010208BF704711F0004302D5404261EB41011D
:406AC0005FEA010C02BF84460146002043F0B64308BFA3F18053A3F50003BCFA8CF2083AA3EBC25310DB01FA02FC634400FA02FCC2F12002BCF1004F20FA02F243EB0200AE
:406B000008BF20F00100704702F1200201FA02FCC2F1200250EA4C0021FA02F243EB020008BF20EADC7070474FF0FF0C1CEAD0521EBF1CEAD15392EA0C0F93EA0C0F6FD063
:406B40001A4480EA010C400218BF5FEA41211ED04FF0006343EA501043EA5111A0FB01310CF00040B1F5000F3EBF490041EAD3715B0040EA010062F17F02FD2A1DD8B3F143
:406B8000004F40EBC25008BF20F00100704790F0000F0CF0004C08BF49024CEA502040EA51207F3AC2BFD2F1FF0340EAC250704740F400004FF00003013A5DDC12F1190F89
:406BC000DCBF00F000407047C2F10002410021FA02F1C2F1200200FA02FC5FEA310040F1000053EA4C0308BF20EADC70704792F0000F00F0004C02BF400010F4000F013A1B
:406C0000F9D040EA0C0093F0000F01F0004C02BF490011F4000F013BF9D041EA0C018FE70CEAD15392EA0C0F18BF93EA0C0F0AD030F0004C18BF31F0004CD8D180EA0100F7
:406C400000F00040704790F0000F17BF90F0004F084691F0000F91F0004F14D092EA0C0F01D142020FD193EA0C0F03D14B0218BF084608D180EA010000F0004040F0FE401A
:406C800040F40000704740F0FE4040F4400070474FF0FF0C1CEAD0521EBF1CEAD15392EA0C0F93EA0C0F69D0A2EB030280EA010C49024FEA402037D04FF0805343EA11111A
:406CC00043EA10130CF000408B4238BF5B0042F17D024FF4000C8B4224BF5B1A40EA0C00B3EB510F24BFA3EB510340EA5C00B3EB910F24BFA3EB910340EA9C00B3EBD10FBD
:406D000024BFA3EBD10340EADC001B0118BF5FEA1C1CE0D1FD2A3FF650AF8B4240EBC25008BF20F0010070470CF0004C4CEA50207F32C2BFD2F1FF0340EAC250704740F4E3
:406D400000004FF00003013A37E792F0000F00F0004C02BF400010F4000F013AF9D040EA0C0093F0000F01F0004C02BF490011F4000F013BF9D041EA0C0195E70CEAD1539D
:406D800092EA0C0F08D142027FF47DAF93EA0C0F7FF470AF084676E793EA0C0F04D14B023FF44CAF08466EE730F0004C18BF31F0004CCAD130F000427FF45CAF31F0004391
:406DC0007FF43CAF5FE700BF4FF0FF3C06E000BF4FF0010C02E000BF4FF0010C4DF804CD4FEA40024FEA41037FEA226C18BF7FEA236C11D001B052EA530C18BF90EA010F76
:406E000058BFB2EB030088BFC81738BF6FEAE17018BF40F0010070477FEA226C02D15FEA402C05D17FEA236CE4D15FEA412CE1D05DF8040B704700BF844608466146FFE72D
:406E40000FB5FFF7C9FF002848BF10F1000F0FBD4DF808EDFFF7F4FF0CBF012000205DF808FB00BF4DF808EDFFF7EAFF34BF012000205DF808FB00BF4DF808EDFFF7E0FFCC
:406E800094BF012000205DF808FB00BF4DF808EDFFF7D2FF94BF012000205DF808FB00BF4DF808EDFFF7C8FF34BF012000205DF808FB00BF4FEA4002B2F1FE4F0FD34FF0AD
:406EC0009E03B3EB12620DD94FEA002343F0004310F0004F23FA02F018BF404270474FF00000704712F1610F01D1420205D110F0004008BF6FF0004070474FF00000704711
:406F0000014B1868704700BF4881FF1F0E4B70B51E460E4C0025E41AA410A54204D056F8253098470135F8E701F0C6FE084B094C1E46E41AA4100025A54204D056F82530CD
:406F400098470135F8E770BDC48C0000C48C0000C48C0000CC8C000010B5431E0A44914204D011F8014B03F8014FF8E710BD03460244934202D003F8011BFAE770472DE946
:406F8000F04788B0149F002B1E461299B8BF03F1004327F02007B6BF1E4600232D23462F1446109DDDF84CA00B7003D0452F03D1013501E0032300E0022307AA049206AA31
:406FC00003928DE828042246334600F0B9FB472F804602D1119BDB0728D5462F08EB050911D198F80030302B0AD10022002320463146FFF7ABFB18B9C5F10105CAF8005091
:40700000DAF8003099440022002320463146FFF79DFB08B9302202E0CDF81C9006E0079B994503D9591C07911A70F8E74046079B159AC8EB0303136008B0BDE8F087034683
:4070400073B50029B8BF494203F8022BB4BF2D222B22092942701ADD0DF1070216460A2591FBF5F405FB1411092C01F1300102F8011D2146F4DC3031541E02F8011CB442F8
:407080001A460AD214F8012B03F8012BF7E71A463024214402F8024B5970101A02B070BD2DE9F04F91B00C46DDF8688016461F46054601F0DDF803681846099300F0AAFAB5
:4070C00000230E93D8F800300A90073323F0070303F1080294F81890D4F800B0C8F80020D3E90023C4E91223D4F84CA0D4F848802AF000430B934FF0FF32A74B40460B99B9
:40710000FFF756FBA0B94FF0FF32A34B40460B99FFF730FB60B90022002340465146FFF71FFB10B12D2384F843309C4B9C4A0AE04246534640465146FFF73AFB002800F043
:407140009281984B984AB9F1470F8CBF90469846032323612BF0040323604FF0000A3DE0B9F1670F00F08A81B9F1470F00F0868123600193636800210DF133020590029212
:407180000093424653460691CDF81090CDF80CE02846FFF7F4FE09F0DF03472B804600F08481B9F1650F0D9900F28D8101394A4604F150000D91FFF742FF0E9A824683185D
:4071C000012A236100F37C812268D10700F178819DF8333013B12D2384F84330009733460FAA2146284600F09FF9013002D14FF0FF3096E123685A0501D4236965E0B9F160
:40720000650F40F2D580D4E9120100220023FFF79DFA78B30123654A31462846B8470130E5D00E9B0D9A9A420BDB2368D80708D423689B0740F111814FF0000804F1190943
