:400000000080002011000000C9130000C913000080B500AF024A034B1B68136001F008FABC760040FA46004010B5054C237833B9044B13B10448AFF300800123237010BD5C
:400040008081FF1F000000001C720000084B10B51BB108490848AFF300800848036803B910BD074B002BFBD0BDE81040184700BF000000008481FF1F1C720000C880FF1F76
:400080000000000080B500AF01F066FB0346DB439AB2124B1A80124B1B7818460F4B1B881946104A031D9B00134459600C4B1B780133DAB20A4B1A70094B1B78052B02D11E
:4000C000074B00221A70064B1B78184601F08EFDFF2001F097FA00BF80BD00BF2882FF1F9D81FF1F8883FF1F2DE9F04F89B000AF02F0B4F87861B84B1B6C7A69D31A3B6111
:40010000B54A7B691364386904F0CAFCA6A3D3E9002304F02BFD02460B4610461946A4A3D3E9002304F04CFE02460B4610461946A1A3D3E9002304F043FE02460B46A649E6
:40014000C1E9042301F0B6FD7861A44B1B6C7A69D31A3B61A14A7B691364386904F0A0FC91A3D3E9002304F001FD02460B46104619468FA3D3E9002304F022FE02460B46C7
:40018000104619468CA3D3E9002304F019FE02460B469249C1E90423904BD3E904018F4BD3E90E2304F0E2FC02460B468B49C1E90623894BD3E90401874BD3E90E2304F06F
:4001C000D5FC02460B468449C1E90623824BD3E90601824BD3E9062304F014FB02460B46104619467E4BD3E9062304F0E9FD02460B467B49C1E90A23774BD3E90601774B5F
:40020000D3E9062304F000FB02460B46104619464FF000024FF0804304F0D2FD02460B466F49C1E908236E4BD3E900896C4BD3E90A015FA3D3E9002304F098FC02460B46F2
:400240004046494604F0E0FA02460B461046194600F0A6FD02460B466149C1E90023604BD3E902895E4BD3E9080151A3D3E9002304F07CFC02460B4692469B46584BD3E95A
:4002800000231046194602F02BFB02460B465046594604F06BFC02460B464046494604F0B3FA02460B464E49C1E902234C4BD3E904894B4BD3E908013DA3D3E9002304F0E9
:4002C00055FC02460B4692469B46454BD3E900231046194602F0D4FB02460B465046594604F044FC02460B464046494604F08CFA02460B463A49C1E90423394BD3E90E0110
:40030000374BD3E9002304F07DFA02460B46C7E906232BA3D3E90023D7E9060104F0B6FE0346002B0AD020A3D3E90023D7E9060104F068FA02460B46C7E9062322A3D3E963
:400340000023D7E9060104F083FE0346002B0AD015A3D3E90023D7E9060104F055FA02460B46C7E906231E4BD3E90C89BC69FB6923F0004516A3D3E900232046294604F0C1
:40038000F5FB03460C46184621460DA3D3E9002304F016FD03460C46184621464FF00002104B04F031FA1FE0182D4454FB2119407B14AE47E17A943FA4703D0AD70FAC400C
:4003C000182D4454FB210940182D4454FB2109C0D2AE2816157EFB3FE081FF1F3082FF1F1083FF1F0000F03F03460C461846214602F074FA03460C461A4623464FF00000DC
:400400004C4904F0FFF903460C461A4623464046494604F0ABFB03460C46C7E90234464BD3E91401D7E9062304F0EEF903460C46414AC2E91434404BD3E91201D7E9062325
:4004400004F094FB03460C461D4626463A4BD3E91001394B03F15004D4E900341A46234604F084FB03460C461A4623462846314604F0CAF903460C46C7E900342E4BD3E990
:400480000601D7E9002304F071FB03460C46184621464FF000024FF0804304F091FC03460C4618462146D7E9022304F0ADF903460C4618462146214B03F13804D4E9003402
:4004C0001A46234604F07CFC03460C461B4AC2E90834194BD3E90601D7E9002304F046FB03460C46184621464FF000024FF0804304F066FC03460C461A462346D7E9020181
:4005000004F080F903460C46184621460C4B03F13804D4E900341A46234604F051FC03460C46074AC2E9083400BF2437BD46BDE8F08F00BF0000F03F1083FF1FE081FF1F3A
:400540003082FF1FF0B583B000AF514BD3E908014F4B03F11004D4E900341A46234604F051F903460C46C7E90034494BD3E90201D7E9002304F048F903460C46444AC2E96B
:400580000234434BD3E90045414BD3E90C01D7E9002304F0EBFA02460B462046294604F033F903460C461D462646394BD3E90A01374B03F10804D4E900341A46234604F0F2
:4005C000D5FA03460C461A4623462846314604F01BF903460C462E4AC2E900342C4B18CB1846214600F004FB2A4BD3E90801294B03F11004D4E900341A46234604F002F97C
:4006000003460C46C7E90034224BD3E90201D7E9002304F0F9F803460C461E4AC2E902341C4BD3E900451B4BD3E90C01D7E9002304F09CFA02460B462046294604F0E4F821
:4006400003460C461D462646124BD3E90A01114B03F10804D4E900341A46234604F086FA03460C461A4623462846314604F0CCF803460C46074AC2E90034064B18CB184604
:40068000214600F021FB00BF0C37BD46F0BD00BF3082FF1FE081FF1FB0B592B008AF94A4D4E90034C7E908349D4A4FF000034FF00004C2E900349A4A4FF000034FF00004E0
:4006C000C2E90234964A4FF000034FF00004C2E908344FF00002934BD7E9080104F046FA03460C468E4AC2E90E348D4B00221A648B4A81A4D4E90034C2E90A34884A80A40F
:40070000D4E90034C2E90C34874A4FF000034FF00004C2E90034844A4FF000034FF00004C2E90234804A4FF000034FF00004C2E9083475A3D3E90023D7E9080104F016FA7A
:4007400003460C46184621464FF00002754B04F00DFA03460C46744AC2E90E34724B00221A64714A64A4D4E90034C2E90A346E4A63A4D4E90034C2E90C346C4A64A4D4E9C7
:400780000034C2E90634694A4FF000034FF00004C2E91434654A60A4D4E90034C2E91034624A4FF00003624CC2E912345F4A4FF000034FF00004C2E90C345C4A4FF00003D4
:4007C0004FF00004C2E90E34584A4FF000034FF00004C2E90034554A4FF000034FF00004C2E90234514A4FF000034FF00004C2E904344E4A4FF000034FF08044C2E91A34E5
:400800004A4A4FF000034B4CC2E91634474A4FF00003484CC2E91834474B00221A60464B1E225A60444B5A229A60434B4FF48772DA60414B4FF4A5721A613F4B4FF47A721C
:400840005A6162B63D4800F0E1FF3D4801F038FF3C4801F061FC01F0A1F800F03FFF00F07BFE01F00BFA01F073FB01F0DBFC01F06BFD01F0A9FF4EF6602001F0EFFF0222DA
:400880004121412000F0B8FA02462F4B1A604FF000032E4CCDE902344FF000032C4CCDE900344FF000022B4B052000F0FDFA0246294B1A60244B1B68002B02D14FF0FF33F1
:4008C00071E1214B1B68DB68002B02D14FF0FF3369E1214B1B68002B02D14FF0FF3362E11D4B1B689B6A002B38D14FF0FF335AE1A60A46257502EE3F54E41071732AC93E2E
:400900007B14AE47E17A643F6ABC74931804F03F90C2F5285C0F3540691D554D1075FF3E3082FF1F00000640E081FF1F1083FF1F0000E03F00004E408883FF1F85000000E3
:40094000E9000000450500008483FF1F000014400000244000003440D881FF1F9A4BD3E91801994B03F11004D4E900341A46234603F048FF03460C46C7E90634924BD3E9C4
:400980001601914B03F10804D4E900341A46234603F038FF03460C46C7E90434D7E90623D7E9060104F0E2F803460C4625461C46D7E90423D7E9040104F0D8F802460B46EE
:4009C0002046294603F020FF03460C461846214602F09EF8C7E90201D7E90423D7E9060101F07AFFC7E90001774BD3E91A01D7E9022304F041FB0346002B28D0724A4FF097
:400A000000034FF00004C2E90C34704B1B68002B05D16D4A66A4D4E90034C2E90E3442F2107000F04DFF684A4FF000034FF00004C2E91634644A4FF00003654CC2E91834F3
:400A4000614A4FF00003634CC2E90C348DE0624B5B691D2B26D8604B5B69184604F010F8D7E9022304F0FEFA0346002B1AD0564BD3E9000150A3D3E9002303F0C5FE0346A4
:400A80000C461846214600F08BF903460C464E4AC2E90E344FF6FD7001F0E0FE4F4B01221A6062E04C4B5B6A132B26D84A4B5B6A184603F0E5FFD7E9022304F0D3FA03467B
:400AC000002B1AD0404BD3E900013DA3D3E9002303F09AFE03460C461846214600F060F903460C46384AC2E90E344FF6FD7001F0B5FE3A4B01221A6037E0374B5B6A132B88
:400B00000FD9354B1B6A062B0BD9344B1B68002B07D001F0B3FE03461A464FF6F9739A4203D92E4B1B68002B1FD12C4B00221A60254AD7E90034C2E90E344FF00002284BCD
:400B4000D7E9020104F084FA0346002B07D01E4A4FF000034FF08044C2E90C3405E01A4A4FF000031B4CC2E90C341E4B1B881C4601F084FE034607930694D7E90034CDE978
:400B80000434D7E90234CDE90234D7E90634CDE90034D7E904231449144805F05BF8134800F0B0FFDAE618462837BD46B0BD00BF182D4454FB210940182D4454FB21E93F46
:400BC000E0F09C762F1BE43F1083FF1FAC81FF1F00004E4000001C408883FF1FA881FF1F000024402882FF1F307200007882FF1F90B583B000AFC7E900014FF00002304BD6
:400C0000D7E9000104F024FA0346002B05D04FF000032B4CC7E900340EE04FF00002294BD7E9000104F032FA0346002B04D04FF00003244CC7E900344FF000024FF0000316
:400C4000D7E9000104F004FA0346002B1BD03B683B607B6883F000437B60002001F014FA15A3D3E90023D7E9000103F07FFF03460C461846214604F051FA03469BB2184635
:400C800001F012FA14E00CA3D3E90023D7E9000103F06CFF03460C461846214604F03EFA03469BB2184601F0EFF9002001F0FCF900BF0C37BD4690BD000000000088C3405A
:400CC0000000F0BF0000F03F90B583B000AFC7E900014FF00002304BD7E9000104F0B8F90346002B05D04FF000032B4CC7E900340EE04FF00002294BD7E9000104F0C6F91F
:400D00000346002B04D04FF00003244CC7E900344FF000024FF00003D7E9000104F098F90346002B1BD03B683B607B6883F000437B60002001F0A4FB15A3D3E90023D7E9F4
:400D4000000103F013FF03460C461846214604F0E5F903469BB2184601F0A2FB14E00CA3D3E90023D7E9000103F000FF03460C461846214604F0D2F903469BB2184601F080
:400D80007FFB002001F08CFB00BF0C37BD4690BD000000000088B3400000F0BF0000F03F90B583B000AFC7E9000111A3D3E90023D7E9000104F004F803460C4618462146FA
:400DC00001F0D6FD0AA3D3E9002303F0CFFE03460C461A462346D7E9000103F013FD03460C46184621460C37BD4690BDAFF30080182D4454FB21194080B588B000AFF860E0
:400E0000B9607A60102004F0D5F903467B617B69002B04D1786904F0D5F9002340E07B69FA681A607B69BA685A607B697A689A60FB68BA6802FB03F39B00184604F0BAF986
:400E400003461A467B69DA607B69DB68002B06D17B69DB68184604F0B5F9002320E00023FB6118E00023BB610EE07B69DA68FB69F96801FB03F1BB690B449B001344002232
:400E80001A60BB690133BB61BA69BB689A42ECDBFB690133FB61FA69FB689A42E2DB7B6918462037BD4680BD90B587B000AFF860C7E90023302004F07DF903463B613B6996
:400EC000002B04D1386904F07DF9002342E03B69FA681A604FF4B472FB6892FBF3F23B695A603A69D7E90034C2E902343B695B68DB00184604F05EF903461A463B699A62DA
:400F00003A69D7E90A34C2E906343A69D7E90C34C2E908343B699B6A002B04D1386904F051F9002316E000237B610DE03B699A6A7B69DB001A444FF000034FF00004C2E91F
:400F400000347B6901337B613B695A687B699A42ECDC3B6918461C37BD4690BD80B582B000AF786039603A680021786804F03DF900BF0837BD4680BD80B584B000AFF860B4
:400F8000B9607A607A68B968F86804F023F900BF1037BD4680BD00BF80B483B000AF0346FB71FEE780B487B000AF7860396000233B6100237B6127E07B699B007A6813440E
:400FC0001B68BB60BB68FB73BB6823F0FF03BB6014E03B695B003A6813441B781A46BB68134419463B695B003A6813445B780B703B6901333B61FB7B013BFB73FB7B002B3C
:40100000E7D17B6901337B617B69242BD4D900BF1C37BD4680BC704780B582B000AF454BEF221A80444B18221A70444B4FF49C721A80434B18221A70424B40F283521A807E
:40104000414B18221A70414B4BF67F321A80404B18221A703F4B4EF65F221A803E4B19221A703E4B40F2E7321A803D4B1B221A703C4B40F2E7321A803B4B1B221A703B4B86
:4010800002221A704FF0402308221A70384B03221A70384B384A1278D2B21A70374B08221A80374B41F251221A800023FB7019237B6014E0FB785B00DAB2324B1B78DBB2C5
:4010C00003F00103DBB21343DBB203F00303FB704FF4F07001F0F0FB7B68013B7B607B68002B02D0FB78032BE4D17B68002B02D10320FFF751FF244B4FF480721A80224B81
:4011000007221A70214B00221A70214B48221A701D4B00221A701F4B02221A701E4A1E4B1B78DBB243F07F03DBB2137000BF0837BD4680BD8040004082400040844000405E
:4011400086400040884000408A4000408C4000408E40004090400040924000409440004096400040984000409A4000400043004000420040A146004008010049224200409D
:40118000204200402542004004400040064000400840004001400040A243004080B483B000AF0B4B1B78FB710A4AFB7903F00703DBB21370084AFB791B09DBB21370074B22
:4011C00044221A7000BF0C37BD4680BC704700BFCF0100496E5800406F5800407658004080B586B000AF72B6584A584B1B78DBB243F00403DBB213700023FB7513E0FA7D26
:4012000013465B0013445B00514A13443B613B691A683B699B889BB219461046FFF79EFEFB7D0133FB75FB7D052BE8D90023FB751CE0FA7D13469B0013445B00454A134422
:40124000FB60FB681B68BB60FB685B687B60FB681A7A5B7A1B0213437B807B881A467968B868FFF789FEFB7D0133FB75FB7D002BDFD039494FF09040FFF794FE374B384A6B
:401280001A60384B384A1A60384B394A1A60394B354A1A60384A384B1B78DBB243F00203DBB21370354A354B1B78DBB243F00203DBB21370324A324B1B78DBB243F04003D5
:4012C000DBB213702F4A2F4B1B78DBB243F01003DBB2137008222C492C48FFF74DFE08222B492C48FFF748FE0A222B492B48FFF743FE08222A492B48FFF73EFE0A222A49A8
:401300002A48FFF739FE082229492A48FFF734FE294A294B1B78DBB243F00803DBB21370264B61221A70FFF777FE244B81221A70234B01221A70FFF731FF0E2210492148CB
:40134000FFF71AFE00BF1837BD4680BDE84600406C7200009072000094000048D8020140C4C40404D80E0140040404C45818014004040444D81801400350014013500140DB
:40138000A0430040C24300401C0F004802510040240F0048C25100402C0F0048F0510040380F004812510040400F0048205100404C0F0048325100402243004000480040E0
:4013C00004000840B043004080B500AF03F0C6FE03461B680C2B00D1FEE7FEE780B584B000AF7860104B1A687B6813441A460F4BD31A4CF25032934209DC0B4B1B68FB60D9
:40140000094B1A687B681344074A136007E003F0A5FE02460C2313604FF0FF33FB60FB6818461037BD4680BDCC80FF1FB893FF1F80B586B000AF224B7B61224B3B61204BB3
:401440007B6135E03B691B68FB603B695B68BB603B699B683B6000237B600CE0FB681A68BB681A60BB680433BB60FB680433FB607B6804337B607A683B689A42EED13B69A6
:40148000DB683B6000237B6008E0BB6800221A60BB680433BB607B6804337B607A683B689A42F2D13B6910333B617B69013B7B617B69002BC6D103F057FEFFF7EDF8FEE7EE
:4014C000010000004876000080B582B000AF184B184A1A60184A184B1B6843F40073136000237B600FE07B68032B04D8134A7B6852F8233000E0124B12497A6841F82230B7
:401500007B6801337B607B682F2BECD90E4B1B78DAB20E4B1A700E4B0A4A1A60FFF760FE0C4B00221A6000BF0837BD4680BD00BF0CED00E00004FA0514ED00E00000000034
:40154000C91300000080FF1FBC760040C480FF1F08ED00E0C080FF1F80B500AF064B1B78002B04D100F00AF8034B01221A7000F039F800BF80BD00BFB081FF1F80B582B0A3
:4015800000AF154B1B78DBB223F03F03FB71124AFB7943F02103DBB21370104A0F4B1B78DBB243F00103DBB213700D4A0C4B1B78DBB243F00103DBB213704FF47A7000F0B7
:4015C00021F84FF47A7000F02DF8012000F03AF800BF0837BD4680BD726400409A6500409B65004080B400AF054A054B1B78DBB263F07F03DBB2137000BFBD4680BC70473E
:401600007264004080B483B000AF0346FB80044AFB88138000BF0C37BD4680BC704700BF146A004080B483B000AF0346FB80044AFB88138000BF0C37BD4680BC704700BFEC
:40164000946A004080B483B000AF0346FB80044AFB88138000BF0C37BD4680BC704700BF546A004080B582B000AF4FF6FF7000F063F84FF6FF7000F07BF801F025F90346B5
:40168000FB710D4A0C4B1B78DBB243F01003DBB21370FB79184601F01BF900F079F8002000F086F800F0A4F8032000F029F800BF0837BD4680BD00BF9865004080B400AFF7
:4016C000054A054B1B78DBB263F07F03DBB2137000BFBD4680BC70477C64004080B500AF064B1B78002B04D1FFF7BCFF034B01221A70FFF7E3FF00BF80BD00BFB181FF1F1A
:4017000080B483B000AF0346FB71044AFB79137000BF0C37BD4680BC704700BF8865004080B400AF034B1B78DBB21846BD4680BC704700BF6865004080B483B000AF0346E5
:40174000FB80044AFB88138000BF0C37BD4680BC704700BF5068004080B400AF034B1B889BB21846BD4680BC704700BF9068004080B483B000AF0346FB80044AFB88138031
:4017800000BF0C37BD4680BC704700BF1068004080B400AF054A054B1B78DBB243F01003DBB2137000BFBD4680BC70477C64004080B483B000AF0346FB71FB7903F00303B5
:4017C000FB710A4A094B1B78DBB223F00303DBB213700649054B1B78DAB2FB791343DBB20B7000BF0C37BD4680BC70477C64004080B500AF01E0FFF7AFFFFFF791FF0346AC
:4018000003F00803002BF6D100BF80BD80B582B000AF786000F03CF8786800F009F8022000F018F800F028F800BF0837BD4680BD80B485B000AF7860054B1B68FB60FB68E8
:401840004C337A681A6000BF1437BD4680BC704708ED00E080B483B000AF0346FB71054AFB795B01DBB2137000BF0C37BD4680BC704700BF03E400E080B400AF034B0822E5
:401880001A6000BFBD4680BC704700BF00E100E080B400AF034B08221A6000BFBD4680BC704700BF80E100E080B483B000AF0346FB7101BE00BF0C37BD4680BC704700BFAE
:4018C00080B582B000AF786008E00C4B1B68184600F0F2FF7B68A3F500437B607B68B3F5004FF2D8064B1B687A6802FB03F3184600F0E2FF00BF0837BD4680BDDC80FF1F2C
:40190000D480FF1F80B584B000AF03463960FB710F4B1B68FB60FB791F2B02D90020FFF7C3FFFB7903F01F0310339B00FA6813441B68BB60FB7903F01F0310339B00FA689F
:4019400013443A681A60BB6818461037BD4680BD08ED00E080B582B000AF03460A46FB711346BB71BB79072B02D90020FFF79CFFFB791F2B02D90020FFF796FFFB7903F0DA
:401980001F0303F1604303F56443BA795201D2B21A7000BF0837BD4680BD00BF80B500AF064B1B78002B04D100F00AF8034B01221A7000F023F800BF80BD00BFB281FF1F72
:4019C00080B500AF09490620FFF79CFF07210620FFF7C0FF064B06221A70064B47221A70054B02221A7000BF80BD00BF491B000026640040366400408565004080B582B05E
:401A000000AF00F061FF0346FB710C4A0B4B1B78DBB243F01003DBB21370094B40221A60084B40221A6000F0C7F8FB79184600F04FFF00BF0837BD4680BD00BF956500407B
:401A400080E200E000E100E080B485B000AF0346FB71264B1B88FB81254B1B88BB81FA89BB899A4208D2FA89BB89013B9A420CBF01230023DBB209E0FA89BB89D31A40F6E9
:401A8000FF7293420CBF01230023DBB2002BE0D1BA89FB899A420AD1164B1B78DBB203F00403002B03D1144AFB79137019E0FB89B3F5805F01D30023FB81FB890F49FA7952
:401AC000CA54FB890133FB81084AFB891380094B1B78DBB203F00203002B02D0084B40221A6000BF1437BD4680BC7047B681FF1FB481FF1F6565004045650040B083FF1FA6
:401B000000E200E080B584B000AF78600023FB810C4B1B78002B10D009E0FB897A6813441B781846FFF790FFFB890133FB81FB897A6813441B78002BEFD100BF1037BD46CB
:401B400080BD00BFB281FF1F80B400AF18E0154B1B889BB2B3F5805F02D3124B00221A80114B104A128892B21146104A525CD2B21A700C4B1B889BB201339AB2094B1A80C2
:401B8000084B1B889AB20A4B1B889A4206D0094B1B78DBB203F00403002BD8D000BFBD4680BC7047B481FF1F45650040B083FF1FB681FF1F6565004080B400AF094A094BCC
:401BC0001B78DBB243F00203DBB21370064A064B1B78DBB243F00203DBB2137000BFBD4680BC7047A2430040B243004080B483B000AF0346FB71044AFB79137000BF0C3753
:401C0000BD4680BC704700BF7964004080B500AF064B10221A6006490420FFF773FE07210420FFF797FE00BF80BD00BF80E100E0411D000080B582B000AF0F2000F06CF84D
:401C400000F05CF800F040FE0346FB71094A094B1B78DBB243F01003DBB21370FB79184600F036FE044B10221A6000BF0837BD4680BD00BF9764004000E100E080B500AF52
:401C800000F0DEF84FF4004000F008F9074B00221A60074B1B78002B04D1FFF7B7FF044B01221A70FFF7C6FF00BF80BDBC81FF1FB981FF1F80B582B000AF0D4B10221A60EB
:401CC00000F0FCF80346FB80FB88A3F500439BB2BB80B7F90420074B1B6813443B60064B10221A603B6818460837BD4680BD00BF80E100E0BC81FF1F00E100E080B400AF3F
:401D0000044B1B78DBB203F00F03DBB21846BD4680BC70476764004080B483B000AF0346FB71FB7943F00703FB71044AFB79137000BF0C37BD4680BC704700BF8764004034
:401D400080B483B000AF144B1B78FB71FB7903F00103002B07D0114B1B6803F5FF437F330E4A13600AE0FB7903F00203002B05D00A4B1B68A3F50043084A1360FB7903F0B7
:401D80000403002B02D0054B00221A6000BF0C37BD4680BC704700BF67640040BC81FF1F80B582B000AF1C4B1B78DBB223F00703FB71194AFB791370174B1B78DBB223F001
:401DC0000303FB71144AFB79137000F0B3F84FF4004000F08FF84FF4004000F05FF8002000F040F800F04EF84FF4004000F092F800F06AFD0346BB71084A084B1B78DBB2B1
:401E000043F01003DBB21370BB79184600F060FD00BF0837BD4680BD7F6400409F64004080B400AF054A054B1B78DBB263F07F03DBB2137000BFBD4680BC70477F6400406A
:401E400080B500AF064B1B78002B04D1FFF7A8FF034B01221A70FFF7E3FF00BF80BD00BFC081FF1F80B483B000AF0346FB71044AFB79137000BF0C37BD4680BC704700BF49
:401E80008F64004080B400AF034B1B78DBB21846BD4680BC704700BF6F64004080B483B000AF0346FB80044AFB88138000BF0C37BD4680BC704700BF1C68004080B400AFDC
:401EC000044B1B78044B1B889BB21846BD4680BC704700BF0E6400409C68004080B400AF034B1B889BB21846BD4680BC704700BF9C68004080B483B000AF0346FB80044A18
:401F0000FB88138000BF0C37BD4680BC704700BF5C68004080B483B000AF0346FB80044AFB88138000BF0C37BD4680BC704700BF7C68004080B500AF01E0FFF7CFFFFFF738
:401F4000A1FF034603F04003002BF6D100BF80BD80B500AF064B1B78002B04D100F00AF8034B01221A7000F051F800BF80BD00BFC181FF1F80B582B000AF214B1B78DBB2A9
:401F800023F03F03FB711E4AFB7943F00903DBB213701C4A1B4B1B78DBB243F00103DBB21370194A184B1B78DBB243F00103DBB2137041F2883000F039F841F2883000F0EE
:401FC00053F8002000F060F8002000F06DF8002000F07AF800F078FC0346BB710A4A0A4B1B78DBB243F01003DBB21370BB79184600F06EFC00F02AF800BF0837BD4680BD03
:402000007D6400409A6400409B64004080B400AF054A054B1B78DBB263F07F03DBB2137000BFBD4680BC70477D64004080B483B000AF0346FB80044AFB88138000BF0C3765
:40204000BD4680BC704700BF1468004080B500AF01E000F055F800F047F8034603F01003002BF6D100BF80BD80B483B000AF0346FB80044AFB88138000BF0C37BD4680BC02
:40208000704700BF9468004080B483B000AF0346FB80044AFB88138000BF0C37BD4680BC704700BF5468004080B483B000AF0346FB80044AFB88138000BF0C37BD4680BCFE
:4020C000704700BF7468004080B483B000AF0346FB71044AFB79137000BF0C37BD4680BC704700BF8B64004080B400AF034B1B78DBB21846BD4680BC704700BF6B640040E5
:4021000080B400AF034B1B889BB21846BD4680BC704700BFB468004080B582B000AF786000F03CF8786800F009F8012000F018F800F028F800BF0837BD4680BD80B485B054
:4021400000AF7860054B1B68FB60FB6840337A681A6000BF1437BD4680BC704708ED00E080B483B000AF0346FB71054AFB795B01DBB2137000BF0C37BD4680BC704700BFF2
:4021800000E400E080B400AF034B01221A6000BFBD4680BC704700BF00E100E080B400AF034B01221A6000BFBD4680BC704700BF80E100E080B500AF064B20221A60064995
:4021C0000520FFF79FFB07210520FFF7C3FB00BF80BD00BF80E100E0E922000080B582B000AF0F2000F06CF800F05CF800F06CFB0346FB71094A094B1B78DBB243F010032C
:40220000DBB21370FB79184600F062FB044B20221A6000BF0837BD4680BD00BF9D64004000E100E080B500AF00F0C2F94FF4004000F0ECF9074B00221A60074B1B78002B80
:4022400004D1FFF7B7FF044B01221A70FFF7C6FF00BF80BDC481FF1FC281FF1F80B582B000AF0D4B20221A6000F0E0F90346FB80FB88A3F500439BB2BB80B7F90420074BA3
:402280001B6813443B60064B20221A603B6818460837BD4680BD00BF80E100E0C481FF1F00E100E080B400AF044B1B78DBB203F00F03DBB21846BD4680BC70476D640040AF
:4022C00080B483B000AF0346FB71FB7943F00703FB71044AFB79137000BF0C37BD4680BC704700BF8D64004080B483B000AF144B1B78FB71FB7903F00103002B07D0114B8C
:402300001B6803F5FF437F330E4A13600AE0FB7903F00203002B05D00A4B1B68A3F50043084A1360FB7903F00403002B02D0054B00221A6000BF0C37BD4680BC704700BF87
:402340006D640040C481FF1F80B500AF064B1B78002B04D100F00AF8034B01221A7000F051F800BF80BD00BFC881FF1F80B582B000AF214B1B78DBB223F03F03FB711E4A0E
:40238000FB7943F00903DBB213701C4A1B4B1B78DBB243F00103DBB21370194A184B1B78DBB243F00103DBB2137041F2883000F039F841F2883000F053F8002000F060F860
:4023C000002000F06DF8002000F07AF800F07CFA0346BB710A4A0A4B1B78DBB243F01003DBB21370BB79184600F072FA00F02AF800BF0837BD4680BD736400409264004061
:402400009364004080B400AF054A054B1B78DBB263F07F03DBB2137000BFBD4680BC70477364004080B483B000AF0346FB80044AFB88138000BF0C37BD4680BC704700BF1D
:402440000468004080B500AF01E000F055F800F047F8034603F01003002BF6D100BF80BD80B483B000AF0346FB80044AFB88138000BF0C37BD4680BC704700BF8468004021
:4024800080B483B000AF0346FB80044AFB88138000BF0C37BD4680BC704700BF4468004080B483B000AF0346FB80044AFB88138000BF0C37BD4680BC704700BF646800403A
:4024C00080B483B000AF0346FB71044AFB79137000BF0C37BD4680BC704700BF8364004080B400AF034B1B78DBB21846BD4680BC704700BF6364004080B400AF034B1B88AF
:402500009BB21846BD4680BC704700BFA468004080B582B000AF1C4B1B78DBB223F00703FB71194AFB791370174B1B78DBB223F00303FB71144AFB79137000F0B3F84FF435
:40254000004000F08FF84FF4004000F05FF8002000F040F800F04EF84FF4004000F092F800F0B2F90346BB71084A084B1B78DBB243F01003DBB21370BB79184600F0A8F911
:4025800000BF0837BD4680BD786400409965004080B400AF054A054B1B78DBB263F07F03DBB2137000BFBD4680BC70477864004080B500AF064B1B78002B04D1FFF7A8FFC6
:4025C000034B01221A70FFF7E3FF00BF80BD00BFC981FF1F80B483B000AF0346FB71044AFB79137000BF0C37BD4680BC704700BF8965004080B400AF034B1B78DBB2184641
:40260000BD4680BC704700BF6965004080B483B000AF0346FB80044AFB88138000BF0C37BD4680BC704700BF106A004080B400AF044B1B78044B1B889BB21846BD4680BC87
:40264000704700BF08650040906A004080B400AF034B1B889BB21846BD4680BC704700BF906A004080B483B000AF0346FB80044AFB88138000BF0C37BD4680BC704700BF9A
:40268000506A004080B483B000AF0346FB80044AFB88138000BF0C37BD4680BC704700BF706A004080B500AF01E0FFF7CFFFFFF7A1FF034603F04003002BF6D100BF80BD85
:4026C00080B582B000AF786000F03CF8786800F009F8002000F018F800F028F800BF0837BD4680BD80B485B000AF7860054B1B68FB60FB6844337A681A6000BF1437BD4628
:4027000080BC704708ED00E080B483B000AF0346FB71054AFB795B01DBB2137000BF0C37BD4680BC704700BF01E400E080B400AF034B02221A6000BFBD4680BC704700BF18
:4027400000E100E080B400AF034B02221A6000BFBD4680BC704700BF80E100E080B582B000AF4FF6FF7000F05DF84FF6FF7000F075F800F0A9F80346FB710A4A094B1B7873
:40278000DBB243F01003DBB21370FB79184600F09FF800F083F8002000F028F800BF0837BD4680BD9765004080B400AF054A054B1B78DBB263F07F03DBB2137000BFBD467F
:4027C00080BC70477665004080B500AF064B1B78002B04D1FFF7C2FF034B01221A70FFF7E3FF00BF80BD00BFCA81FF1F80B483B000AF0346FB71044AFB79137000BF0C3743
:40280000BD4680BC704700BF8765004080B400AF034B1B78DBB21846BD4680BC704700BF6765004080B483B000AF0346FB80044AFB88138000BF0C37BD4680BC704700BF52
:402840004C6A004080B400AF034B1B889BB21846BD4680BC704700BF8C6A004080B483B000AF0346FB80044AFB88138000BF0C37BD4680BC704700BF0C6A004080B400AF6A
:40288000044B1B78044B1B889BB21846BD4680BC704700BF066500408C6A004080B500AF01E0FFF7CFFFFFF7B1FF034603F00803002BF6D100BF80BD0230800803D000BF53
:4028C00001380046FCD17047EFF3108072B6704780F31088704700BF00F01CB900F01CB930B5214A21F00043934287B01BDD1F4A934205DD02460B4601F084FF07B030BD00
:4029000002AA00F0A5FC00F0030001281AD002280FD008B3DDE9020101230093DDE9042301F08EFCEAE70022002300F06DFF07B030BDDDE90423DDE9020100F065FF01F196
:402940000041DBE70090DDE90423DDE9020101F077FC01F10041D1E7DDE90423DDE9020100F052FFCAE700BFFB21E93FFFFFEF7FC1F30A522DE9F843A2F2FF36132E0B46EC
:4029800004460D46884607461CDC002E3FDB3A4A864642FA06F901EA0902024317D034A3D3E9002301F030FF0022002302F06EFB20B1002D40DB28EA0905002738462946AF
:4029C000BDE8F883332E06DDB6F5806F2FD020461946BDE8F883A2F213424FF0FF3929FA02F910EA090FF2D021A3D3E9002301F00BFF0022002302F049FB0028DED0002D87
:402A000020DB454627EA090738462946D8E718A3D3E9002301F0F8FE0022002302F036FB0028CBD0002D18DB00273D46C6E702460B4601F0E9FECCE74FF4801343FA06F6ED
:402A4000B044B8E7142E10D00123C6F1340603FA06F6371928BF9844D3E725F00042074B224318BF1D460027A8E705F10108C8E79C7500883CE4377EFFFF0F000000F0BFF0
:402A800030B5214A21F00043934287B01BDD1F4A934205DD02460B4601F0B4FE07B030BD02AA00F0D5FB00F0030001281ED0022811D0DDE9042300B3DDE9020100F0A4FEF2
:402AC00001F10041EAE7002300930022002301F0B7FB07B030BD01230093DDE90201DDE9042301F0ADFB01F10041D7E7DDE90423DDE9020100F088FED0E70124DDE90201C8
:402B0000009401F09DFBC9E7FB21E93FFFFFEF7F00F082B800F0DCB82DE9F0418AB004460D4600F0A1F9374B064693F900800F46B8F1FF3F0DD022462B462046294602F02F
:402B4000AFFA30B9002200232046294602F09EFA20B1304639460AB0BDE8F0812A4B0890CDE90245CDE904450193B8F1000F19D1264F4FF060462046294600220023CDE920
:402B8000066702F05BFA002834D002230093684601F0B0FDA8B1089BC3B9DDE906010AB0BDE8F0811A4F00262046294600220023CDE9066702F042FA68B102239845009374
:402BC000E5D102F0CBFA22230360E4E702F0C6FA089B0360E1E70123B8F1020F00930BD102F0BCFA212303600A4801F085FDCDE90601D0E701230093684601F07BFD0028AA
:402C0000F2D1EDE7E080FF1F9C720000FFFFEFC70000F0FFA47200002DE9F04F8BB004460D4600F02BFD284B064693F900A00F46BAF1FF3F12D022462B462046294602F0C8
:402C40002FFA834650B94FF000084FF000092046294642464B4602F0FBF920B9304639460BB0BDE8F08F194A0123CDF820B0CDE90445CDE9024501920093BAF1000F15D06C
:402C800042464B464046494602F09AF8BAF1020FCDE906010CD102F061FA21230360089B63B9DDE906010BB0BDE8F08FCDE90689684601F01FFD0028F1D1ECE702F04EFAB6
:402CC000089B0360EDE700BFE080FF1FA07200002DE9F84F5442144323F00049DFF880E149EAD474744506460D463ED84442044321F0004B4BEAD47474458A4635D803F1B4
:402D0000404404F58014144344D09C1704F0020444EAD17450EA0B012FD052EA090133D0F14546D0F3452FD0C9EB0B094FEA2959B9F13C0F34DC002B57DB3046294602F02A
:402D40003FF801F0D3FC01F033FB012C4AD0022C3BD084B132A3D3E9002301F053FD32A3D3E9002301F04EFD05E01046194632462B4601F049FDBDE8F88F022C14D0032C7C
:402D80000CD12D482D49F6E7BAF1000F2A480EDB2B49F0E7BDE8F84F01F00ABB2946EAE723A1D1E90001D0E723482649E3E72649E1E7CB451FD0022CF6D0032CE1D0012C1B
:402DC0004FF0000020D00146D5E715A3D3E9002301F018FD02460B4613A1D1E9000101F011FDC8E701F10041C5E719F13C0FA4DA00200021A9E7022C0ED0032C09D0012C8A
:402E00000D4804D01149B6E74FF00041B3E71049B1E710481049AEE70E481049ABE700BF075C143326A6A13C182D4454FB210940182D4454FB21F93F182D4454FB2109C099
:402E4000FB21F93FFB210940FB21F9BFFB21E93FFB21E9BFD221337F7CD902C07CD902400000F07F000000002DE9F04FB1F5801F85B006460F460B465ADA024621F0004469
:402E8000224300F0F7800029C0F279810022D64B01F06CFE0B460F46D44906468B426FF0350249DCC3F3130505F5152404F6647404F4801E8EF07F5181F440111B15A3F2FA
:402EC000FF3341EA05079C1830460022C84B394604EB1E5401F096FCAB1CC3F31303022B82468B464FF000022FDC002302F0A6F8002800F0C880002C00F04A81204601F0B1
:402F0000CFFDA5A3D3E9002306460F4601F02EFEA3A3D3E9002304460D463046394601F025FE02460B462046294601F06DFC09E0AE4900228B42B5DD32463B4630463946FE
:402F400001F062FC05B0BDE8F08F4FF0804301F05BFC02460B465046594601F031FF064620460F4601F09CFD3246CDE900013B4630463946CDE9026701F0F8FD02460B461C
:402F80008046894601F0F2FD87A3D3E9002306460F4601F0EBFD86A3D3E9002301F034FC32463B4601F0E2FD83A3D3E9002301F02BFC32463B4601F0D9FD81A3D3E9002347
:402FC00001F022FC42464B4601F0D0FD7EA3D3E90023804689463046394601F0C7FD7CA3D3E9002301F010FC32463B4601F0BEFD79A3D3E9002301F007FC32463B4601F033
:40300000B5FD0B4602464946404601F0FDFBA5F5C223C5F5D725A3F27A4351351D43002D8046894656DD0022724B5046594601F09DFD52465B4601F099FD06460F46002CB9
:4030400068D132463B464046494601F0DDFBDDE9022301F08BFD02460B463046394601F0D1FB02460B465046594601F0CBFB05B0BDE8F08F0022002300205F4901F0A0FE97
:4030800005B0BDE8F08F56A3D3E900235046594601F06CFD02460B460020564901F0B2FB524606460F465B465046594601F05EFD02460B463046394601F058FD06460F460A
:4030C000002C40F09B8002460B465046594601F099FB37E7002C00F0A5802FA3D3E90023DDE9000101F042FD42464B4604460D465046594601F086FBDDE9022301F036FD93
:4031000027A3D3E9002306460F46DDE9000101F02DFD21E020A3D3E90023DDE9000101F025FD32463B4604460D464046494601F06BFBDDE9022301F019FD19A3D3E9002357
:4031400080468946DDE9000101F010FD02460B464046494601F058FB02460B463046394601F050FB52465B4601F04CFB02460B462046294601F046FB05B0BDE8F08F024607
:403180000B4601F03FFB0022002301F019FED9E600200021D6E600BF0000E0FE422EE63F763C7935EF39EA3D44523EDF12F1C23FDE03CB966446C73F599322942449D23FE0
:4031C000935555555555E53F9FC678D0099AC33FAF788E1DC571CC3F04FA97999999D93F555555555555D53F00005043FFFFEF7F0000F03F0000E03F000050C3204601F0C9
:403200004FFC0FA3D3E900238046894601F0AEFC0DA3D3E9002304460D464046494601F0A5FC99E702460B465046594601F0EAFADDE9022301F09AFC13E700BFAFF300803F
:403240000000E0FE422EE63F763C7935EF39EA3D2DE9F04F944C21F00047A7428FB040F381801446914A0E46974226DC84A3D3E90023002940F3A08101F0C4FA8C4B804610
:403280009F42894600F083807FA3D3E9002301F0B9FA02460B464046C4E90023494601F0B1FA79A3D3E9002301F0ACFA0125C4E9020128460FB0BDE8F08F7E4A974240F31F
:4032C00083807D4A974258DC3D15A5F21645A7EB05518B46824601F0F9FE01F0E1FB8046894642464B4650465946CDE9088901F089FA0022714B01F039FC8B46824601F051
:40330000E5FE01F0CDFB8046894642464B4650465946CDE90A8901F075FA0022674B01F025FC00220023CDE90C0101F087FE002800F06A81002340464946002201F07EFE37
:40334000002814BF012302235D480221019000912A46214608A800F07BFB002EC0F24A81054606E0C2E9000100250024C2E90245002528460FB0BDE8F08F02460B4601F06F
:4033800041FA0025C4E90201C4E90001F1E740A3D3E9002301F036FA3FA3D3E9002306460F4601F02FFA02460B463046C4E90023394601F027FA38A3D3E9002301F022FAE1
:4033C0000125C4E90201D4E701F090F934A3D3E900238046894601F0C9FB0022394B01F013FA01F073FE054601F05AFB24A3D3E90023CDE9040101F0B9FB02460B46404606
:40340000494601F0FFF920A3D3E9002382468B46DDE9040101F0AAFB1F2DCDE9020155DC294B6A1E53F822309F424FD002460B465046594601F0E6F902460B4681468846DD
:40344000C4E900234A4643465046594601F0DAF9DDE9022301F0D6F902460B46002EC4E9022386DA4A4608F1004301F1004184E80C00E160A0606D427BE700BFAFF300801C
:4034800000004054FB21F93F3163621A61B4D03D0000601A61B4D03D7370032E8A19A33B83C8C96D305FE43FFB21E93F7BD90240FB21F93FFB213941FFFFEF7F00007041AD
:4034C000287300000000E03FA8720000DDE902235046594601F096F93F15C1F30A53FB1A102B81468846C4E90001ABDD58A3D3E90023DDE9040101F039FB80468946024631
:403500000B465046594601F07DF9CDE9060102460B465046594601F075F942464B4601F071F94DA3D3E9002380468946DDE9040101F01CFB42464B4601F064F902460B4609
:40354000CDE90201DDE9060101F05CF90B4602468846C1F30A517F1A312F8146C4E9002372DD3FA3D3E90023DDE9040101F0FEFA8046894602460B46DDE9060101F042F98E
:4035800002460B4682468B46DDE9060101F03AF942464B4601F036F933A3D3E9002380468946DDE9040101F0E1FA42464B4601F029F9CDE9020139E701F026F92E4B80467A
:4035C0009F42894622D02AA3D3E9002301F01CF902460B464046C4E90023494601F012F923A3D3E9002301F00FF94FF0FF35C4E90201BEE66268E36802F1004203F1004317
:4036000045426260E360B4E603239DE610A3D3E9002301F0F9F810A3D3E9002306460F4601F0F2F802460B463046C4E90023394601F0E8F808A3D3E9002301F0E5F84FF073
:40364000FF35C4E9020194E6DDE906ABFAE600BF0000601A61B4D03D7370032E8A19A33B0000002E8A19A33BC14920259A837B393163621A61B4D03DFB21F93F2DE9F04109
:403680005F4E0C46B6460E407645054600F0988000290B46024674DD5FEA215E7FD0AEF2FF3EC3F313031EF0010F43F4801363D100273E4603EBD2710B444FEA6E0E520092
:4036C00016204FF4001174189C424FEAD2754FEA420202DC1B1B66180F44013805EB43034FEA5101EFD1844620244FF0004109E020D003EBD275013C4FEA51012B444FEA2E
:40370000420220D09E4201EB0C05F1DA002D05EB010C09DBB0469542A3EB060300D9013B4646521B0844E4E7BCF1000FF2DB06F10108F0E7954217D8002D05EB010C49DBA2
:4037400098460023ECE7134310D140087B1003F17F5303F50013FA0703EB0E57394648BF40F00040BDE8F0813346C2E7411C35D000F001031844E8E75B0003EBD2735200B7
:4037800096E721F000460643ECD079BB8E46D30AAEF1150E5205002BF9D0DD0221D4002100E001465B00DC0201F10100F9D5C0F1200422FA04F42343C1EB0E0E82406EE7FA
:4037C00002460B4601F0D2F92A46234601F01CF8BDE8F081BCF1000FA9DAB1E701372046B4E720244FF0FF310020E2E702460B4601F008F802460B4601F0E2FAB2E700BF8C
:403800000000F07F000000002DE9F04F21F00046B6F1795F85B00C4692469B4605466BDA01F054FC002800F0E7802A4623462846214601F09BF974A3D3E9002380468946A0
:4038400001F094F972A3D3E9002300F0DDFF42464B4601F08BF970A3D3E9002300F0D2FF42464B4601F082F96DA3D3E9002300F0CBFF42464B4601F079F96BA3D3E9002332
:4038800000F0C0FF42464B4601F070F968A3D3E9002300F0B9FF42464B4601F067F9CDE900010022644B4046494601F05FF9DDE9002306460F464046494601F057F952468C
:4038C000804689465B462846214601F04FF902460B464046494600F095FF02460B463046394600F08FFF02460B460020534900F089FF05B0BDE8F08F02460B4601F036F9E7
:4039000041A3D3E900238046894601F02FF940A3D3E9002300F078FF42464B4601F026F93DA3D3E9002300F06DFF42464B4601F01DF93BA3D3E9002300F066FF42464B465E
:4039400001F014F938A3D3E9002300F05BFF42464B4601F00BF936A3D3E9002300F054FF4B46424601F002F9354BCDE900019E4297DD344B00229E4238DCA6F50013002049
:403980002E4916461F4600F03DFFCDE902010022294B4046494601F0E9F832463B4600F031FFDDE9002306460F464046494601F0DDF85246804689465B462846214601F05B
:4039C000D5F802460B464046494600F01BFF02460B463046394600F015FF02460B46DDE9020100F00FFF05B0BDE8F08F164B0026CDE90223154FCAE71049002005B0BDE82D
:403A0000F08F00BFAFF30080D43888BEE9FAA8BDC4B1B4BD9EEE213EAD529C804F7E923E9015CB19A001FA3E7751C1166CC1563F4C5555555555A53F0000E03F0000F03F19
:403A40003233D33F0000E93F0000E73F0000D23F2DE9F04F794CADF51D7D1F460B93D31E84FB0354DB17C3EBA403A69E744C23EAE37554F826406B1C26460994A3EB83034A
:403A80007C1E0D95029402EBC3032D1B341904900A91089316D42C44013422AEA79F08E057F8250000F0FCFF0135A542E6E9020108D0002DF4DA013500200021A542E6E947
:403AC0000201F6D1099B002B2FDB099B74AADDF8089002EBC30B0DF5E47A029B002BC0F295810B9B0026C3EB090824AB03EBC808049B0027A3F1080524AB03EBC904F5E962
:403B0000022374E8020101F031F802460B463046394600F079FE444506460F46EFD1EAE90267DA4509F10109D7D1099B10A91D4603F18043023B9B001A1D0A440B440F923D
:403B40000E939CAB03EBC503002D53E928672BDD9CAB03EBC504A83C0DF13C0A0DF5E47B0022384B3046394601F000F801F0AEFA00F096FF0022344B8046894600F0F6FF64
:403B800002460B463046394600F03CFE01F09EFA74E802234AF8040F4946404600F034FE5C4506460F46DBD1089C30463946224600F0AAFD00224FF07F5306460F4600F06D
:403BC000D5FFFEF7D5FE0022204B00F0CFFF02460B463046394600F015FE0F46064601F075FA814600F05CFF02460B463046394600F008FE002C06460F4640F3EE80681EC2
:403C000010AB53F82030C4F1180243FA02F101FA02F29B1AC4F1170810AA42F82030894443FA08F8B8F1000F3DDD002D09F1010940F3D382002214460FA911E0ABAAAA2A90
:403C4000307400000000703E0000704100002040C3F180700BB108600124013295420DDD51F8043F002CF3D0C3F1FF13013203F57F4395420B604FF00104F1DC089B002BB1
:403C80000DDD012B00F0B180022B08D16A1E10AB53F8223010A9C3F3150341F82230B8F1020F00F08180002200233046394601F0C5F9002800F05B82099B05F1FF3B5B45D8
:403CC00010DC05F1804310AA013B0F9802EB8303002253F80419834242EA0102F9D1002A40F0B180099B10AA013B52F82330002B40F071820E9A012352F804190133002927
:403D0000FAD0E9186A1C8A420C914BDC0D990B985118DB0001F180410593A79B05440139E80003EB810A24ABD20003EB000B74AB13440193A2F10803069007934FF00009EA
:403D40005AF8040F00F0ACFE029BEBE80201002B4FF000064FF000071BDB069B03EB0904079B09EB030824AB1C449844049BA3F10805F5E9022374E8020100F0F7FE02460E
:403D80000B463046394600F03FFD444506460F46EFD1019B09F10809E3E802670193059B9945CDD10C9DCCE632463B460020B04900F028FD06460F46002C3FF474AF089AD5
:403DC0000020AB4900F0A0FC02460B463046394600F018FD06460F4665E710D16B1E10AA52F823304FEAE3581CE76A1E10AB53F8223010A9C3F3160341F822304FE7002220
:403E00009C4B01F039F958B980464CE700260027EAE90267DA4509F101097FF45EAE84E6002D09F10109C8BF4FF002083FF702AF32463B4600208E4900F0E4FC4FF00208E8
:403E400006460F462FE7089A10AB53F82B30183ACDF81490CDF8048008926BB90BF18043013B10A901EB830353F804190BF1FF3B183A0029F8D00892089A00207C4900F0AE
:403E800043FCBBF1000F04460D46C0F2B6814FEACB030DF5E87810AA02EB8B0608EB03090493043609F1080756F8040D00F0F8FD22462B4600F05AFE002267E902016E4B75
:403EC0002046294600F052FEB84504460D46EBD14B46CDF818B09B460DF5987ACDF808A0DDF824A04FF00009BAF1000FC0F226815DA3D3E90023DFF884815D460026002738
:403F0000002403E0A14510DBF8E90223F5E8020100F02CFE02460B463046394600F074FC0134A24506460F46ECDA029BABF1080B03EBC903C3E9006772AB5B4509F101095E
:403F4000D2D1A69BDDF818B0DDF808A0032B00F28380DFE813F0D100950095000400BBF1000F40F35481049BCDF808B053449846D3E90067D34658E9029A32463B46484663
:403F8000514600F041FC04460D4602460B464846514600F037FC32463B4600F035FCC8E9000168E90245C34526462F46E3D1DA46DDF808B0BBF1010F40F32981049B0DF5D7
:403FC0009C7B53449846D3E90067994659E902343046CDE902341A463946234600F014FC04460D4602460B46DDE9020100F00AFC32463B4600F008FCC9E9000169E90245E3
:40400000CB4526462F46E1D100231D4608F1080850AC184678E90223294600F0F5FB444503460D46F5D1019A002A00F0D880DAF80440DAF80C200A9FDAF80010DAF80800AE
:4040400005F1004504F1004402F100427D613B617C60FA603960B860059B03F007000DF51D7DBDE8F08F00BF00000040FB21F93F0000F03F0000E03F0000703E40740000D9
:4040800000242146049D0835554475E90223204600F0BAFB55450446F7D1019B002B50D00A9F01F100450B46DAE9000187E83000224600F0A7FBBBF1000F03460D460DDD0E
:4040C00001241846FAE90223294600F09DFB0134A34503460D46F4DA019A0AB105F10045184629460A9BC3E90201059B03F007000DF51D7DBDE8F08F00231C46049A08324E
:40410000924418467AE90223214600F07DFB0BF1FF3BBBF1FF3F03460C46F2D1019A0AB104F10044184621460A9BC3E90001059B03F007000DF51D7DBDE8F08F0026002729
:40414000F3E626460F4622460A9C0B46DAE90001C4E9006700F056FBBBF1000F03460D46AEDC184629460A9BC3E90201BDE7089B30465A423946CDF81490CDF8048000F0B1
:40418000C3FA00222C4B06460F4600F075FF002840D00022294B3046394600F0E7FC00F095FF044600F07CFC0022234B00F0DEFC0B4602463946304600F024FB00F086FF6C
:4041C000089B05F1010B1833089310AB43F8250043F82B4050E6012393E500244EE51846DAE90067DAE9022329460A9DC5E90067C5E90401C5E902232EE7A69B032B3FF670
:404200002BAFDFE803F0151010020DF5987A00231D4608E73046394600F058FF10ABAB4643F8250028E6002421460DF5987A34E700231C4672E700BF000070410000703E1E
:404240002DE9F04F21F00046B6F1795F85B00C4690469946054604DA00F038FF002800F085802A4623462846214600F07FFC06460F4602460B462846214600F077FC3EA3FE
:40428000D3E9002382468B463046394600F06EFC3BA3D3E9002300F0B5FA32463B4600F065FC39A3D3E9002300F0AEFA32463B4600F05CFC36A3D3E9002300F0A3FA324640
:4042C0003B4600F053FC34A3D3E9002300F09CFA0E9BCDE900019BB30022334B4046494600F044FCDDE90023CDE902015046594600F03CFC02460B46DDE9020100F082FA62
:4043000032463B4600F032FC42464B4600F07AFA23A3D3E9002306460F465046594600F025FC02460B463046394600F06DFA02460B462846214600F065FA05B0BDE8F08FE2
:4043400002460B463046394600F010FC14A3D3E9002300F057FA52465B4600F007FC2A46234600F051FA05B0BDE8F08F2846214605B0BDE8F08F00BF7CD5CF5A3AD9E53DA7
:40438000EB9C2B8AE6E55A3E7DFEB157E31DC73ED561C119A0012A3FA6F810111111813F495555555555C53F0000E03F000000002DE9F84FC04B21F000469E420D468A4644
:4043C00004460FDDBD4B9E4200F3B28000F0AD80BB4BBC49BC4CBAF1000FC8BF19462046BDE8F88FB94B9E4200F3BC80A3F1DE739E4240F3A7804FF0FF3B22462B4620462E
:40440000294600F0B3FB02460B468046894600F0ADFB91A3D3E9002306460F4600F0A6FB8FA3D3E9002300F0EFF932463B4600F09DFB8DA3D3E9002300F0E6F932463B4623
:4044400000F094FB8AA3D3E9002300F0DDF932463B4600F08BFB88A3D3E9002300F0D4F932463B4600F082FB85A3D3E9002300F0CBF942464B4600F079FB83A3D3E9002312
:40448000804689463046394600F070FB80A3D3E9002300F0B7F932463B4600F067FB7EA3D3E9002300F0AEF932463B4600F05EFB7BA3D3E9002300F0A5F932463B4600F0DD
:4044C00055FB79A3D3E9002300F09CF932463B4600F04CFBBBF1FF3F02460B4669D04046494600F091F922462B4600F03FFB784E784B4FEACB0B5E449B44DBE9002300F07E
:4045000081F922462B4600F07DF902460B46D6E9000100F077F9BAF1000F0446BFF65FAF01F100412046BDE8F88F00283FF450AF224620462B46294600F066F90446204676
:40454000BDE8F88F5AA3D3E9002300F05DF90022614B00F09BFD00283FF44DAF29462046BDE8F88F00F0C2F85C4B04469E420D462FDCA3F550239E4254DC02460B4600F0C2
:4045800043F90022544B00F03DF9002206460F464FF080432046294600F036F902460B463046394600F00CFC4FF0000B04460D4623E74046494600F027F922462B4600F0BA
:4045C000D5FA02460B462046294600F01BF9044605E7434B9E421ADC0022424B00F012F9002206460F463F4B2046294600F0BEFA0022394B00F008F902460B463046394647
:4046000000F0DEFB4FF0020B04460D46F5E602460B460020344900F0D3FB4FF0030B04460D46EAE600222C4B00F0ECF8002206460F46294B2046294600F0E6F802460B465F
:404640003046394600F0BCFB4FF0010B04460D46D3E600BFAFF3008011DA22E33AAD903FEB0D76244B7BA93F513DD0A0660DB13F6E204CC5CD45B73FFF8300922449C23FAC
:404680000D5555555555D53F2F6C6A2C44B4A2BF9AFDDE522DDEAD3F6D9A74AFF2B0B33F711623FEC671BC3FC4EB98999999C93F9C7500883CE4377EFFFF0F440000F07F08
:4046C000FB21F93FFB21F9BF182D4454FFFFDB3FA0740000807400000000F03FFFFFF23FFF7F03400000F83F0000F0BF21F00041704700BF0020704700200149704700BF11
:404700000000F87F00000000F8B5C1F30A5604460D460B46174606BB21F00043034325D000222F4B00F022FA2E4A044697420D460B462ADBC1F30A56363E40F2FE723E440E
:40474000964228DC002E12DD23F0FF4323F4E00343EA065520462946F8BD40F2FF729642EBD102460B4600F04FF8F8BDF8BD16F1350F1DDA4CF250339F420CDC14A1D1E933
:40478000000122462B4600F031F811A3D3E9002300F0ECF9F8BD22460FA1D1E900012B4600F024F80CA3D3E9002300F0DFF9F8BD23F0FF4323F4E003363643EA06552046E5
:4047C00029460022084B00F0D1F9F8BDAFF3008059F3F8C21F6EA5019C7500883CE4377E00005043B03CFFFF0000903C03F0004321F0004242EA0301704700BF81F0004173
:4048000002E000BF83F0004330B54FEA41044FEA430594EA050F08BF90EA020F1FBF54EA000C55EA020C7FEA645C7FEA655C00F0E2804FEA5454D4EB5555B8BF6D420CDDE6
:404840002C4480EA020281EA030382EA000083EA010180EA020281EA0303362D88BF30BD11F0004F4FEA01314FF4801C4CEA113102D0404261EB410113F0004F4FEA0333E3
:404880004CEA133302D0524263EB430394EA050F00F0A780A4F10104D5F1200E0DDB02FA0EFC22FA05F2801841F1000103FA0EF2801843FA05F359410EE0A5F120050EF173
:4048C000200E012A03FA0EFC28BF4CF0020C43FA05F3C01851EBE37101F0004507D54FF0000EDCF1000C7EEB00006EEB0101B1F5801F1BD3B1F5001F0CD349085FEA3000ED
:404900004FEA3C0C04F101044FEA445212F5800F80F09A80BCF1004F08BF5FEA500C50F1000041EB045141EA050130BD5FEA4C0C404141EB010111F4801FA4F10104E9D17D
:4049400091F0000F04BF01460020B1FA81F308BF2033A3F10B03B3F120020CDA0C3208DD02F1140CC2F10C0201FA0CF021FA02F10CE002F11402D8BFC2F1200C01FA02F1A1
:4049800020FA0CFCDCBF41EA0C019040E41AA2BF01EB0451294330BD6FEA04041F3C1CDA0C340EDC04F11404C4F1200220FA04F001FA02F340EA030021FA04F345EA030109
:4049C00030BDC4F10C04C4F1200220FA02F001FA04F340EA0300294630BD21FA04F0294630BD94F0000F83F4801306BF81F480110134013D4EE77FEA645C18BF7FEA655C02
:404A000029D094EA050F08BF90EA020F05D054EA000C04BF1946104630BD91EA030F1EBF0021002030BD5FEA545C05D14000494128BF41F0004130BD14F580043CBF01F520
:404A4000801130BD01F0004545F0FE4141F470014FF0000030BD7FEA645C1ABF194610467FEA655C1CBF0B46024650EA013406BF52EA033591EA030F41F4002130BD00BFB0
:404A800090F0000F04BF0021704730B54FF4806404F132044FF000054FF0000150E700BF90F0000F04BF0021704730B54FF4806404F1320410F0004548BF40424FF00001AC
:404AC0003EE700BF42004FEAE2014FEA31014FEA02701FBF12F07F4393F07F4F81F06051704792F0000F14BF93F07F4F704730B54FF4607401F0004521F0004120E700BFDC
:404B000050EA010208BF704730B54FF000050AE050EA010208BF704730B511F0004502D5404261EB41014FF4806404F132045FEA915C3FF4DCAE4FF003025FEADC0C18BF49
:404B400003325FEADC0C18BF033202EBDC02C2F1200300FA03FC20FA02F001FA03FE40EA0E0021FA02F11444C1E600BF70B54FF0FF0C4CF4E06C1CEA11541DBF1CEA13556D
:404B800094EA0C0F95EA0C0F00F0DEF82C4481EA030621EA4C5123EA4C5350EA013518BF52EA033541F4801143F4801338D0A0FB02CE4FF00005E1FB02E506F00042E0FBEC
:404BC00003E54FF00006E1FB03569CF0000F18BF4EF0010EA4F1FF04B6F5007F64F5407404D25FEA4E0E6D4146EB060642EAC62141EA55514FEAC52040EA5E504FEACE2E50
:404C0000B4F1FD0C88BFBCF5E06F1ED8BEF1004F08BF5FEA500E50F1000041EB045170BD06F0004646EA010140EA020081EA0301B4EB5C04C2BFD4EB0C0541EA045170BD28
:404C400041F480114FF0000E013C00F3AB8014F1360FDEBF002001F0004170BDC4F10004203C35DA0C341BDC04F11404C4F1200500FA05F320FA04F001FA05F240EA020000
:404C800001F0004221F0004110EBD37021FA04F642EB06015EEA430E08BF20EAD37070BDC4F10C04C4F1200500FA04F320FA05F001FA04F240EA020001F0004110EBD370E2
:404CC00041F100015EEA430E08BF20EAD37070BDC4F1200500FA05F24EEA020E20FA04F301FA05F243EA020321FA04F001F0004121FA04F220EA020000EBD3705EEA430E3A
:404D000008BF20EAD37070BD94F0000F0FD101F00046400041EB010111F4801F08BF013CF7D041EA060195F0000F18BF704703F00046520043EB030313F4801F08BF013DED
:404D4000F7D043EA0603704794EA0C0F0CEA135518BF95EA0C0F0CD050EA410618BF52EA4306D1D181EA030101F000414FF0000070BD50EA410606BF1046194652EA43062F
:404D800019D094EA0C0F02D150EA013613D195EA0C0F05D152EA03361CBF104619460AD181EA030101F0004141F0FE4141F470014FF0000070BD41F0FE4141F4780170BD8B
:404DC00070B54FF0FF0C4CF4E06C1CEA11541DBF1CEA135594EA0C0F95EA0C0F00F0A7F8A4EB050481EA030E52EA03354FEA013100F088804FEA03334FF0805545EA13137E
:404E000043EA12634FEA022245EA111545EA10654FEA00260EF000419D4208BF964244F1FD0404F5407402D25B084FEA3202B61A65EB03055B084FEA32024FF480104FF4C9
:404E4000002CB6EB020E75EB030E22BFB61A754640EA0C005B084FEA3202B6EB020E75EB030E22BFB61A754640EA5C005B084FEA3202B6EB020E75EB030E22BFB61A754600
:404E800040EA9C005B084FEA3202B6EB020E75EB030E22BFB61A754640EADC0055EA060E18D04FEA051545EA16754FEA06164FEAC30343EA52734FEAC2025FEA1C1CC0D12B
:404EC00011F4801F0BD141EA00014FF000004FF0004CB6E711F4801F04BF01430020B4F1FD0C88BFBCF5E06F3FF6AFAEB5EB030C04BFB6EB020C5FEA500C50F1000041EB1A
:404F0000045170BD0EF0004E4EEA113114EB5C04C2BFD4EB0C0541EA045170BD41F480114FF0000E013C90E645EA060E8DE60CEA135594EA0C0F08BF95EA0C0F3FF43BAFDB
:404F400094EA0C0F0AD150EA01347FF434AF95EA0C0F7FF425AF104619462CE795EA0C0F06D152EA03353FF4FDAE1046194622E750EA410618BF52EA43067FF4C5AE50EAD1
:404F800041047FF40DAF52EA43057FF4EBAE12E74FF0FF3C06E000BF4FF0010C02E000BF4FF0010C4DF804CD4FEA410C7FEA6C5C4FEA430C18BF7FEA6C5C1BD001B050EA69
:404FC000410C0CBF52EA430C91EA030F02BF90EA020F0020704710F1000F91EA030F58BF994208BF90422CBFD8176FEAE37040F0010070474FEA410C7FEA6C5C02D150EA04
:40500000013C07D14FEA430C7FEA6C5CD6D152EA033CD3D05DF8040B704700BF8446104662468C461946634600E000BF01B5FFF7B7FF002848BF10F1000F01BD4DF808ED29
:40504000FFF7F4FF0CBF012000205DF808FB00BF4DF808EDFFF7EAFF34BF012000205DF808FB00BF4DF808EDFFF7E0FF94BF012000205DF808FB00BF4DF808EDFFF7CEFF09
:4050800094BF012000205DF808FB00BF4DF808EDFFF7C4FF34BF012000205DF808FB00BF4FEA410C7FEA6C5C02D150EA013C0AD14FEA430C7FEA6C5C02D152EA033C02D151
:4050C0004FF0000070474FF0010070474FEA410212F5001215D211D56FF47873B3EB625212D94FEAC12343F0004343EA505311F0004F23FA02F018BF404270474FF00000C5
:40510000704750EA013005D111F0004008BF6FF0004070474FF00000704700BF4A0011D212F5001211D20DD56FF47873B3EB62520ED44FEAC12343F0004343EA505323FA57
:4051400002F070474FF00000704750EA013002D14FF0FF3070474FF000007047014B1868704700BF4481FF1F0E4B70B51E460E4C0025E41AA410A54204D056F825309847C2
:405180000135F8E702F04EFA084B094C1E46E41AA4100025A54204D056F8253098470135F8E770BD30760000307600003076000038760000024B0146186800F06BB800BFB8
:4051C0004481FF1F024B0146186800F017B800BF4481FF1F10B5431E0A44914204D011F8014B03F8014FF8E710BD03460244934202D003F8011BFAE77047000038B50546D3
:40520000002944D051F8043C0C1F002BB8BFE41801F084FB1E4A1368114613B96360146030E0A3420DD92268A018834201BF18685B681218226063600C6023E0A24203D8B0
:4052400013465A68002AF9D118681918A1420BD12168014458188242196013D110685268014419605A600DE002D90C232B6009E021686018824201BF1068526809182160E2
:4052800062605C602846BDE8384001F048BB38BDD081FF1F70B5CD1C25F0030508350C2D38BF0C25002D064601DBA94202D90C23336046E001F032FB234B1C681A462146EA
:4052C000A1B10B685B1B0ED40B2B03D90B60CC18CD501EE08C420BBF63684B681360636018BF0C4615E00C464968E9E7174C23681BB9304600F09EFC20602946304600F0C1
:4053000099FC431C18D0C41C24F00304A0420DD12560304601F003FB04F10B00231D20F00700C31A0ED05A42E25070BD211A304600F080FC0130EBD10C233360304601F0AC
:40534000EEFA002070BD00BFD081FF1FCC81FF1F2DE9F04788B0149F002B1E461299B8BF03F1004327F02007B6BF1E4600232D23462F1446109DDDF84CA00B7003D0452FB6
:4053800003D1013501E0032300E0022307AA049206AA03928DE828042246334600F014FD472F804602D1119BDB0728D5462F08EB050911D198F80030302B0AD1002200239B
:4053C00020463146FFF73AFE18B9C5F10105CAF80050DAF8003099440022002320463146FFF72CFE08B9302202E0CDF81C9006E0079B994503D9591C07911A70F8E740463E
:40540000079B159AC8EB0303136008B0BDE8F087034673B50029B8BF494203F8022BB4BF2D222B22092942701ADD0DF1070216460A2591FBF5F405FB1411092C01F13001E9
:4054400002F8011D2146F4DC3031541E02F8011CB4421A460AD214F8012B03F8012BF7E71A463024214402F8024B5970101A02B070BD00002DE9F04F91B00C46DDF86880AD
:4054800016461F46054601F037FA03681846099300F004FC00230E93D8F800300A90073323F0070303F1080294F81890D4F800B0C8F80020D3E90023C4E91223D4F84CA0AD
:4054C000D4F848802AF000430B934FF0FF32A74B40460B99FFF7E4FDA0B94FF0FF32A34B40460B99FFF7BEFD60B90022002340465146FFF7ADFD10B12D2384F843309C4B26
:405500009C4A0AE04246534640465146FFF7C8FD002800F09281984B984AB9F1470F8CBF90469846032323612BF0040323604FF0000A3DE0B9F1670F00F08A81B9F1470FE3
:4055400000F0868123600193636800210DF13302059002920093424653460691CDF81090CDF80CE02846FFF7F3FE09F0DF03472B804600F08481B9F1650F0D9900F28D8153
:4055800001394A4604F150000D91FFF741FF0E9A82468318012A236100F37C812268D10700F178819DF8333013B12D2384F84330009733460FAA2146284600F09FF90130C0
:4055C00002D14FF0FF3096E123685A0501D4236965E0B9F1650F40F2D580D4E9120100220023FFF72BFD78B30123654A31462846B8470130E5D00E9B0D9A9A420BDB236826
:40560000D80708D423689B0740F111814FF0000804F1190906E10A9B099A31462846B8470130CED04FF0000804F11A090E9B013B9845E7DA01234A4631462846B8470130D4
:40564000BFD008F10108F1E70D9B002B29DC01234B4A31462846B8470130B2D00D9B23B90E9B13B92368D907CCD50A9B099A31462846B8470130A4D04FF0000904F11A0A62
:405680000D9B5B42994509DA0123524631462846B847013095D009F10109F1E70E9B4246A7E00E9AA36D9A42A8BF1A46002A914606DC4FF0000A29EAE97904F11A0B11E013
:4056C0001346314642462846B8470130F1D178E701235A4631462846B84701303FF471AF0AF1010AA36DC9EB03029245F0DB08EB03090D9A0E9B9A420FDB2368DA070CD495
:405700000E9B0D9A9844C9EB08089B1A9845A8BF9846B8F1000F08DC0FE00A9B099A31462846B8470130EBD14BE743464A4631462846B84701303FF444AF4FF0000928EA1E
:40574000E87804F11A0A09E00123524631462846B84701303FF435AF09F101090D9A0E9B9B1AC8EB03039945EEDB4BE7FFFFEF7FC2740000C6740000CA740000CE740000E8
:40578000D27400000E9A012A01DCDB0738D50123424631462846B84701303FF412AF0A9B099A31462846B84701303FF40AAFD4E9120100220023FFF741FC20B14FF00008A6
:4057C00004F11A090EE00E9B08F10102013B19E001234A4631462846B84701303FF4F1AE08F101080E9B013B9845F1DB534604F1500231462846B84701307FF403AFE0E6BE
:405800004246012331462846B8470130EED1D8E601234A4631462846B84701303FF4D1AE08F10108E3680F9A9B1A9845F0DBE0680F9B9842B8BF18465DE062680EA8531C8F
:405840000DF1340E4BF480637FF474AE062201E012B90122626075E6002106910DF133018DE80C00236005904246CDF81090CDF80CE0029153462846FFF76AFD80460D9B97
:40588000D81C02DB626893421DDDA9F102095FFA89F970E60133236184E6B9F1660F14D10029636807DD216113B92268D2071DD501330B4419E013B92268D00701D5023353
:4058C00013E0012311E04FF067090D9B0E9A934205DB22682361D10708D5013305E0002BD4BFC3F102030123134423610D9B4FF0000AA36556E611B0BDE8F08F2DE9F04733
:4059000091461F460A698B6806469342B8BF1346C9F8003091F843200C46DDF8208012B10133C9F800302368990642BFD9F800300233C9F80030256815F0060510D104F183
:40594000190A07E00123524639463046C04701301AD00135E368D9F800209B1A9D42F1DB94F843302268003318BF012392060FD5E118302081F843005A1C94F84510224483
:40598000023382F8431003E04FF0FF30BDE8F08704F1430239463046C0470130F4D02268D9F80050E36802F00602042A08BF5D1B2269A3680CBF25EAE57500259342C4BFA9
:4059C0009B1AED184FF000091A344D4509D00123224639463046C0470130D5D009F10109F3E70020BDE8F0872DE9F04317460A7E85B06E2A984606460C460C9B01F1430E13
:405A000000F0AE8011D8632A22D009D8002A00F0BB80582A40F0CA8081F84520834955E0642A1ED0692A1CD0C0E0732A00F0B08009D86F2A2ED0702A40F0B8800A6842F059
:405A400020020A603EE0752A24D0782A3AD0ADE01A6801F14205111D1960136884F84230A8E021681A6811F0800F02D0111D196008E011F0400F02F10401196002D0B2F923
:405A8000003000E01368002B3CDA2D225B4284F8432037E021681A6811F0800F02D0111D196007E011F0400F02F10401196001D0138800E01368227E5C496F2A14BF0A22D8
:405AC00008221BE078225A4984F845202268186812F0800F00F104051D6003D1550601D5038800E00368D00744BF42F0200222601BB9226822F0200222601022002084F8E4
:405B0000430001E049490A226568002DA56008DB206820F0040020602BB9002D7DD175460CE0002B79D07546B3FBF2F002FB1033CB5C05F8013D03460028F5D1082A0BD1D9
:405B40002368DA0708D5236962689A42DEBF302305F8013C05F1FF35C5EB0E0323612EE008681A6810F0800F496903D0101D1860136808E010F0400F02F1040018601368BC
:405B800001D0198000E0196000232361754616E01A68111D1960156800216268284600F0AFFE08B1401B6060636804E004F1420584F8422001232361002384F84330CDF812
:405BC00000803B4603AA21463046FFF797FE013002D14FF0FF3026E023692A4639463046C0470130F5D023689B0710D5002504F1190907E001234A4639463046C047013013
:405C0000E7D00135E368039A9B1A9D42F2DBE068039B9842B8BF184605E00B7804F1420584F842308AE705B0BDE8F083D4740000E574000038B5064C0023054608462360AA
:405C4000FBF7CCFB431C02D1236803B12B6038BDB093FF1F0EB400B54FF402719CB0ADF814106FF00041049107914FF6FF711DAB02900690084853F8042BADF81610006868
:405C800002A9019301F08AF9029B00221A701CB05DF804EB03B070474481FF1F034613F8012B002AFBD1181A013870472DE9F74F03690C6980469C427FDC013C01F114076D
:405CC0004FEA840E00F1140606EB0E0357F82450019356F824300135B3FBF5F507EB0E09C5B34FF0000A3846B446D34650F8043B9AB205FB02A21B0C4FEA124A05FB03A3D1
:405D000092B2C2EB0B0BBCF800204FEA134A5A441FFA83FBDCF800308145CBEB134303EB224392B242EA03424FEA234B4CF8042BDCD256F80E306BB9019B043B9E421A464C
:405D400002D3C8F8104005E01268043B002AF8D1013CF3E7404600F0F0FF00282BDB304601354FF0000E57F8042B036891B2C1EB0E0E120C99B27144C2EB134303EB2143A3
:405D800089B24FEA234EB94541EA034340F8043BE9D256F8242006EB840362B9043B9E421A4602D3C8F8104005E01268043B002AF8D1013CF3E7284600E0002003B0BDE866
:405DC000F08F0000000000002DE9F04F456A95B08246219CCDE9022345B91020FFF7EAF9CAF82400456085600560C560DAF82430196859B15A68012393404A608B605046E5
:405E000000F0C3FDDAF8243000221A60039BA04A002BBDBF01232360039B0023BCBF23F000430393DDF80C80A8BF236028F000431B0D1B0593421DD142F20F73209A13605E
:405E4000029B43B9934A944BC8F31300002814BF1846104600E09048229B002B00F04685C37813B100F1080300E0C31C229A136000F03CBDDDE902450022002320462946FC
:405E8000FFF7DCF8074658B1209A01231360229B002B00F01E8581481860013800F026BD12AB019313AB009322462B46504600F0BFFFC8F30A56049056B1C5F3130343F033
:405EC0007F51204641F44011A6F2FF3611971DE0139B129E1E4406F23243202B0ADD029A06F21240C3F1400322FA00F008FA03F3184304E0C3F12000029B03FA00F0FEF7A2
:405F0000BFFD0123A1F1F871013E11930022644BFEF778FC58A3D3E90023FEF727FE58A3D3E90023FEF770FC044630460D46FEF7B7FD55A3D3E90023FEF718FE02460B4603
:405F400020462946FEF760FC04460D46FFF7BEF800228346002320462946FFF779F858B15846FEF79DFD02460B4620462946FFF765F808B90BF1FF3BBBF1160F0DD8DDE9FE
:405F80000223484901EBCB01D1E90001FFF77EF830B10BF1FF3B002300E00123109300E01090129B9E1B731E079343BFC3F10008002307934FF00008BBF1000F06DB079B5A
:405FC000CDF82CB05B440793002705E00023CBEB0808CBF100070B931E9B092B28D8052BC4BF043B1E931E9BC8BF0025A3F10203D8BF0125032B20D8DFE803F0060E02042C
:40600000012302E0012308E000230A931F9B002B1DDD9946059321E000230A931F9B0BEB030909F10103012B0593B8BF012315E0012500231E930A9501E001230A934FF0EF
:40604000FF390022CDF8149012231F9206E04FF001094B46CDF81490CDF87C90DAF8244000226260042101F114029A421CD86268490001326260F6E761436F63A787D23FCC
:40608000B3C8608B288AC63FFB799F501344D33F0000F07FF6740000FF740000D37400000000F83F107500006168504600F038FCDAF8243020601B680693059B0E2B00F298
:4060C0005B81002D00F05881DDE90234BBF1000FCDE90E3430DD9F4A0BF00F034FEA2B1502EBC303E80618CBCDE908340CD5DDE90E01994B05F00F05D3E90823FEF760FE50
:406100000324CDE9020100E00224934E6DB1E90708D5DDE90801D6E90023FEF727FDCDE9080101346D100836F0E7DDE90823DDE90201FEF745FE20E0CBF1000505B3DDE92C
:406140000E01844B05F00F0203EBC203D3E90023FEF70CFDCDE902017F4E2D110023022455B1EA0705D5D6E90023FEF7FFFC013401236D100836F3E71BB1CDE9020100E0A8
:406180000224109BE3B1DDE902560022734B28463146FEF75DFF98B1059B8BB1B9F1000F40F3E6800BF1FF330893314600226C4B2846FEF7DBFC0134CDE902014E4602E018
:4061C000059ECDF820B02046FEF76AFCDDE90223FEF7CCFC634B0022FEF716FBA1F1507304460C931D46D6B9DDE9020100225E4BFEF708FB22460C9BCDE90201FEF746FF6A
:40620000002840F03F820C99224601F10043DDE90201FEF71DFF002840F02B82A8E00A9A4C4B711E002A49D003EBC103D3E9002300204E49FEF7C4FD22462B46FEF7E2FAE7
:40624000CDE90C01069CDDE90201FEF73FFF0546FEF726FC02460B46DDE90201FEF7D2FADDE90C23303504F8015BCDE90201FEF7EFFE002840F01D83DDE902230020374968
:40628000FEF7C0FADDE90C23FEF7E2FE002840F0D180069BE31AB3426ADADDE90C0100222F4BFEF763FC0022CDE90C01DDE902012B4BFEF75BFCCDE90201C4E703EBC1019E
:4062C0002246D1E900012B46FEF750FC069BCDE90C011D469C19DDE90201FEF7F7FE0646FEF7DEFB02460B46DDE90201FEF78AFA303605F8016BAC42CDE902014FF00002EE
:4063000022D11A4BDDE90C01FEF77EFA02460B46DDE90201FEF7BAFE002840F08B80DDE90C2300201149FEF76DFA02460B46DDE90201FEF78DFED8B114F8013C621E302BF9
:4063400040F0B7821446F7E7054BFEF70FFCCDE90201C0E710750000E87500000000F03F0000244000001C40000014400000E03FDDE90E34CDE90234139B002B7CDBBBF1B8
:406380000E0F79DCAB4B03EBCB03D3E900671F9B002B14DA059B002B11DC40F06C810022A54B30463946FEF7E1FBDDE90223FEF763FE059D2E46002840F05F8165E1069C9F
:4063C000DDE9028932463B4640464946FEF7F8FCFEF77CFE0546FEF763FB32463B46FEF7C5FB0B46024649464046FEF70BFA05F1300E069B04F801EBC3EB040E059B73451D
:406400002DD102460B46FEF7FFF98046894602460B4630463946FEF71BFE78B942464B4630463946FEF70AFE002800F04482EB0704D440E2DDF820B000E01C4614F8012C81
:40644000631E392A07D1069A9A42F6D1069930220BF1010B0A701A7801321A702BE20022764BFEF783FB0022002380468946FEF7E5FD0028A6D01EE20A9A002A2BD01E9A28
:40648000012A0ADC119A12B103F2334302E0129BC3F136033D46444613E0059B5D1EAF42BFBF0B9BEA1B9B180B93059BB6BF2F467D1B0025002BA7BF4446059BC3EB080434
:4064C0000023079A01211A4450469844079200F0FBFA064602E03D4644460A9E5CB1079B002B08DDA342A8BF2346079AC3EB0808E41AD31A0793002F1DDD0A9BABB18DB1C5
:4065000031462A46504600F079FB049A01460646504600F0E2FA04990890504600F035FA089B04937A1B06D000E03A460499504600F064FB04900121504600F0C5FA0B9BD5
:4065400005465BB31A460146504600F057FB1E9B0546012B18DC029B83B9039BC3F3130373B9039B23F000473F0D3F054FB1079B08F1010801330793012702E0002700E0A5
:40658000029F0B9B73B100E000272B6905EB8303186900F04CFAC0F1200004E01E9B012BD9DD0B9F0120079B184410F01F0008D0C0F12003042B02DDC0F11C0002E006D031
:4065C00018461C30079B8044034404440793B8F1000F05DD42460499504600F05DFB0490079B002B05DD29461A46504600F054FB0546109B23B32946049800F09EFB002856
:406600001EDA00230A220499504600F0D5F90A9B0BF1FF3B0490002B00F05F81314600230A22504600F0C8F9B9F1000F06463FDC3BE000BF10750000000014400000244074
:40664000059B002B2BDC1E9B022B28DDDDF81490B9F1000F11D129464B460522504600F0ABF901460546049800F067FB00280CDC03E0354600E000252E461F9B069C6FEADC
:40668000030B09E03546DDF820B0069B069A5C1C312313700BF1010B05960026F7E00A9BDDF8149023B9069CB2E01E9B022BCFDC002C05DD31462246504600F0EDFA06462E
:4066C0009FB17168504600F02BF90446326906F10C01023292000C30FEF77CFD01222146504600F0D9FA059000E00596029B069F03F00103079329460498FFF7D7FA31465F
:40670000044600F13008049800F017FB059A02902946504600F02DFBC36802463BB901460A90049800F009FB0A9A034600E00123114650460A9300F028F90A9B53B91E9A2D
:4067400042B9079A32B9B8F1390F2AD0029B002B1CDC1DE0029A002A04DB1BD11E9ACAB9079ABAB9002B13DD01220499504600F093FA2946049000F0E0FA002803DC07D170
:4067800018F0010F04D0B8F1390F0AD004F131087C1C0CE0002B07F101040BDDB8F1390F03D139233B70013756E008F1010887F800806CE0069B2746E31A4B4504F8018CB5
:4067C0003BD000230A220499504600F0F5F8059B04909E424FF00A024FF000033146504604D100F0E9F80646059084E700F0E4F8002306460A220599504600F0DDF805909A
:4068000079E700230A220499504600F0D5F8049029460498FFF74AFA069B00F1300804F8018BE31A4B45ECDB069B0596B9F1010FACBF4B4401331F46002601220499504635
:4068400000F02AFA2946049000F077FA002803DC15D118F0010F12D03C4614F8013C621E392B09D1069B934204D10BF1010B3123069A02E01446F0E70133137007E03C46B6
:4068800014F8013C621E302B01D11446F8E72946504600F07AF8059B6BB12EB19E4203D03146504600F071F80599504600F06DF801E0DDF820B00499504600F066F80023DB
:4068C000209A23700BF101031360229B1BB11C6001E008480AE0069808E0B9F1000F3FF7E2AE1E9B022B7FF7DEAEB1E615B0BDE8F08F00BFD2740000004870474881FF1F60
:4069000010B5C9B202449042034605D01C7801308C42F8D1184610BD002010BD7047704770B5456A04460E463DB91020FEF742FC6062456085600560C560656AEB6843B148
:40694000636ADB6853F8260078B1026843F8262017E021220421204600F0B8FA636AE860DB68002BECD1002070BD012101FA06F56A1D9200204600F0A9FA0028F3D04660D3
:40698000856000230361C36070BD70B5446A06460D463CB91020FEF70DFC7062446084600460C4603DB1736A6A68DB6853F82210296043F8225070BD2DE9F04106460C46FF
:4069C0000D691F4601F1140E0023DEF80000013381B202FB0171000C0F0C02FB007089B201EB00419D424FEA10474EF8041BECDCD7B1A3689D4212DB616830460131FFF77B
:406A00008FFF8046226904F10C01023292000C30FEF7E0FB21463046FFF7B7FF444604EB850301355F6125612046BDE8F081030C1B0413B90004102300E0002310F07F4F1F
:406A400004BF0002083310F0704F04BF0001043310F0404F04BF80000233002803DB420003D5581C70471846704720207047036813F007020BD0D90722D49A074BBF5B08C8
:406A80009B08036003604CBF01200220704799B209B91B0C102213F0FF0F04BF1B0A0832190704BF1B090432990704BF9B080232D90702D45B0805D00132036010467047C7
:406AC000002070472020704710B50C460121FFF727FF01224461026110BD2DE9F74F14460A69236988469A42BEBF0B46A0461C46D8F81070D4F81090D8F80830D8F804105E
:406B000007EB09069E42C8BF0131FFF709FF00F114052B4605EB860C0022634502D243F8042BFAE704F1140208F1140102EB890301EB87070093009B0192934257D9B2F85B
:406B400000B0BBF1000F23D08946AE464FF0000859F8044BBEF800A0A3B20BFB03A34FEA144ADEF8004043444FEA14480BFB0A84F24604EB13449BB243EA04434F454FEA4D
:406B800014484AF8043B01D9D646E1E7CEF80480019B0432B3F802A0BAF1000F21D02C4689462B684FF00008B9F800E0B4F802B09BB20AFB0EBEA346F04443EA08434BF826
:406BC000043B59F8043BB4F804E01B0C0AFB03E34F4503EB18434FEA134801D95C46E3E763600435A7E75CF8043D13B9013E002EF9DC066103B0BDE8F08F00002DE9F843B1
:406C0000154612F0030206460F4607D0214C013A002354F82220FFF7CFFE0746AD1036D0746A3CB91020FEF7C5FA7062446084600460C460D6F82480D8F808404CB940F2F4
:406C400071213046FFF740FF04460023C8F8080003604FF00008EB070AD5394622463046FFF73BFF814639463046FFF78EFE4F466D100CD0206808B10446ECE72246214641
:406C80003046FFF72AFF2060C0F80080F4E73846BDE8F883D87500002DE9F0470C460746914626694FEA621A56444968A368751CAB4202DA01315B00FAE73846FFF730FEFA
:406CC000002380461A4600F11401534503DA41F823200133F9E72AEAEA73206901EB830319F01F0904F1140101EB800E14D0C9F1200C002208689A4600FA09F0024343F870
:406D0000042B51F8042B8E4522FA0CF2F2D8CAF8042042B1B51C06E0043B51F8042B8E4543F8042FF9D8013D3846C8F810502146FFF72BFE4046BDE8F08703690A6910B5F4
:406D40009B1A11D192001430143183180A4453F8044D52F8041D8C4202D007D3012010BD9842F4D3002010BD184610BD4FF0FF3010BD2DE9F8430C4607461146204615460D
:406D8000FFF7DBFF061E08D131463846FFF7C8FD012303614661BDE8F883BCBF23462C4638466168BABF1D4601260026FFF7B8FD2B69C660266905F1140904F1140101EB44
:406DC000860709EB830800F114054FF0000C51F8042B59F8044B93B29C44A3B2240CC3EB0C03C4EB124202EB23429BB24FEA224CC84543EA02428E4645F8042BE7D8BE45EA
:406E00000ED25EF8041B8AB26244131403EB114392B242EA03424FEA234C45F8042BEEE755F8043D0BB9013EFAE70661BDE8F8832DE9F3411C4601219046089E099DFFF735
:406E40006FFDC4F31302C4F30A5407460CB142F480120192B8F1000F19D002A840F8088DFFF705FE009B48B1019AC0F1200102FA01F10B43C2407B61019200E07B61019B49
:406E8000002B14BF02210121BB61396107E001A8FFF7EDFD019B01217B613961203034B1A4F2334404443460C0F1350009E0A0F2324007EB810330601869FFF7B8FDC0EB67
:406EC00041102860384602B0BDE8F08138B502FB01F42146FEF7DEF9054618B122460021FEF783F9284638BD2DE9F0478E6882469E420C46914698463ED88A8912F4906FD0
:406F00003AD02568096902236F1A656905EB450595FBF3F57B1C43449D4238BF1D4653050FD52946FEF7B6F9064698B13A462169FEF750F9A38923F4906343F08003A38187
:406F400013E02A4600F039F9064670B921695046FEF754F90C23CAF80030A3894FF0FF3043F04003A381BDE8F08726613E44266046466561ED1BA560464528BF46464946C9
:406F80003246206800F0FEF8A36800209B1BA36023681E442660BDE8F08700002DE9F04F9DB003938B8980461C060D4616460DD50B695BB94021FEF76DF92860286118B98D
:406FC0000C23C8F80030CDE040236B610023099320238DF82930DFF89CB130238DF82A3037463C4614F8013B1BB9B7EB060910D003E0252BF9D02746F3E74B4632462946F9
:407000004046FFF771FF013000F0A780099B4B4409933B78002B00F0A08000234FF0FF3204930793059206938DF853301A930126052221784E48FFF763FC671C049B38B1D9
:407040004B4A3C46801A06FA00F018430490EFE7D90644BF20228DF853201A0744BF2B228DF8532022782A2A03D0079A00210A200BE0039A111D12680391002A10DA52420C
:4070800043F00200079204900BE027463B780134303B092B03D800FB02320121F5E701B107923B782E2B1ED17B782A2B0AD1039B02371A1D1B680392002BB8BF4FF0FF33E5
:4070C000059310E0002319460593781C0A2407463A780130303A092A03D804FB01210123F5E703B10591032239782248FFF708FC40B14023CBEB000003FA00F0049B013711
:4071000018430490397806221B487E1C8DF82810FFF7F6FB88B1194B33B9039B073323F007030833039314E003AB00932A46144B04A94046FEF79EF907E003AB00932A463C
:407140000F4B04A94046FEF74FFCB0F1FF3F824603D0099B5344099342E7AB895B0601D4099801E04FF0FF301DB0BDE8F08F00BF10760000167600001A7600007554000053
:40718000E96E0000884210B501EB020301D8421E0BE09842FBD28118D21AD34204D013F8014D01F8014DF8E710BD994204D011F8014B02F8014FF8E710BDF8B50746154624
:4071C0000E4621B91146BDE8F840FEF763B81AB9FEF714F82846F8BD00F015F885420ED929463846FEF756F8044650B131462A46FDF7F0FF31463846FEF700F801E03046FD
:40720000F8BD2046F8BD51F8040C0028BEBF091851F8043CC01804387047000000000000A4703D0AD70FAC407B14AE47E17A943F64783A20254C662C2064793A20254C66C5
