:400000000080002011000000491800004918000080B500AF024A034B1B68136001F048FCBC760040FA46004010B5054C237833B9044B13B10448AFF300800123237010BD10
:400040008881FF1F00000000E8710000084B10B51BB108490848AFF300800848036803B910BD074B002BFBD0BDE81040184700BF000000008C81FF1FE8710000C880FF1FD0
:400080000000000098B500AF164B1C8801F0A4FD0346E31A9AB2144B1A80144B1B781846114B1B881946124A831D42F823100F4B1B780133DAB20D4B1A700C4B1B78062B61
:4000C00005D10A4B00221A700A4B01221A60074B1B78184601F04AFFFF2001F0D3FC00BF98BD00BFCC80FF1F2882FF1FA581FF1F8083FF1FB081FF1F2DE9F04F89B000AFE5
:4001000002F06CFA7861B84B1B6C7A69D31A3B61B54A7B691364386904F0A6FCA6A3D3E9002304F007FD02460B4610461946A4A3D3E9002304F028FE02460B46104619460B
:40014000A1A3D3E9002304F01FFE02460B46A649C1E9042301F06EFF7861A44B1B6C7A69D31A3B61A14A7B691364386904F07CFC91A3D3E9002304F0DDFC02460B461046B7
:4001800019468FA3D3E9002304F0FEFD02460B46104619468CA3D3E9002304F0F5FD02460B469249C1E90423904BD3E904018F4BD3E90E2304F0BEFC02460B468B49C1E931
:4001C0000623894BD3E90401874BD3E90E2304F0B1FC02460B468449C1E90623824BD3E90601824BD3E9062304F0F0FA02460B46104619467E4BD3E9002304F0C5FD024694
:400200000B467B49C1E90A23774BD3E90601774BD3E9062304F0DCFA02460B46104619464FF000024FF0804304F0AEFD02460B466F49C1E908236E4BD3E902896C4BD3E913
:400240000A015FA3D3E9002304F074FC02460B464046494604F0BCFA02460B461046194601F066F802460B466149C1E90223604BD3E904895E4BD3E9080151A3D3E90023F2
:4002800004F058FC02460B4692469B46584BD3E902231046194602F095FE02460B465046594604F047FC02460B464046494604F08FFA02460B464E49C1E904234C4BD3E962
:4002C00006894B4BD3E908013DA3D3E9002304F031FC02460B4692469B46454BD3E902231046194602F040FF02460B465046594604F020FC02460B464046494604F068FAA9
:4003000002460B463A49C1E90623394BD3E90E01374BD3E9022304F059FA02460B46C7E906232BA3D3E90023D7E9060104F092FE0346002B0AD020A3D3E90023D7E90601B4
:4003400004F044FA02460B46C7E9062322A3D3E90023D7E9060104F05FFE0346002B0AD015A3D3E90023D7E9060104F031FA02460B46C7E906231E4BD3E90C89BC69FB699D
:4003800023F0004516A3D3E900232046294604F0D1FB03460C46184621460DA3D3E9002304F0F2FC03460C46184621464FF00002104B04F00DFA1FE0182D4454FB2119409F
:4003C0007B14AE47E17A943FA4703D0AD70FAC40182D4454FB210940182D4454FB2109C0D2AE2816157EFB3FE081FF1F3082FF1F1083FF1F0000F03F03460C461846214600
:4004000002F0DEFD03460C461A4623464FF000004C4904F0DBF903460C461A4623464046494604F087FB03460C46C7E90234464BD3E91401D7E9062304F0CAF903460C46E2
:40044000414AC2E91434404BD3E91201D7E9062304F070FB03460C461D4626463A4BD3E91001394B03F15004D4E900341A46234604F060FB03460C461A4623462846314682
:4004800004F0A6F903460C46C7E900342E4BD3E90001D7E9002304F04DFB03460C46184621464FF000024FF0804304F06DFC03460C4618462146D7E9022304F089F90346D1
:4004C0000C4618462146214B03F13804D4E900341A46234604F058FC03460C461B4AC2E90834194BD3E90001D7E9002304F022FB03460C46184621464FF000024FF08043A8
:4005000004F042FC03460C461A462346D7E9020104F05CF903460C46184621460C4B03F13804D4E900341A46234604F02DFC03460C46074AC2E9083400BF2437BD46BDE8C6
:40054000F08F00BF0000F03F1083FF1FE081FF1F3082FF1FF0B583B000AF514BD3E908014F4B03F11004D4E900341A46234604F02DF903460C46C7E90034494BD3E90201DE
:40058000D7E9002304F024F903460C46444AC2E90234434BD3E90045414BD3E90C01D7E9002304F0C7FA02460B462046294604F00FF903460C461D462646394BD3E90A01A2
:4005C000374B03F10804D4E900341A46234604F0B1FA03460C461A4623462846314604F0F7F803460C462E4AC2E900342C4B18CB1846214600F0D0FC2A4BD3E90801294B79
:4006000003F11004D4E900341A46234604F0DEF803460C46C7E90034224BD3E90201D7E9002304F0D5F803460C461E4AC2E902341C4BD3E900451B4BD3E90C01D7E9002381
:4006400004F078FA02460B462046294604F0C0F803460C461D462646124BD3E90A01114B03F10804D4E900341A46234604F062FA03460C461A4623462846314604F0A8F829
:4006800003460C46074AC2E90034064B18CB1846214600F0EDFC00BF0C37BD46F0BD00BF3082FF1FE081FF1F90B5B5B00CAF62B6914801F0EBFA914802F0C2F9904801F062
:4006C000EBFE01F0ABFB01F049FA01F085F901F095FC01F0FDFD01F065FF01F0F5FF02F033FA02F06DFB02F097FA4EF6602002F075FA75A4D4E90034C7E9203474A4D4E92C
:400700000034C7E91E3474A4D4E90034C7E91C34D7E91C34CDE90234D7E91E34CDE90034D7E92023774800F073FDD7E91C34CDE90234D7E91E34CDE90034D7E920237248AB
:4007400000F066FD66A4D4E90034C7E91A3466A4D4E90034C7E918344FF000036B4CC7E916344FF000036A4CC7E914344FF000034FF00004C7E912344FF000034FF0000453
:40078000C7E910345AA4D4E90034C7E90E34D7E90E34CDE90A34D7E91034CDE90834D7E91234CDE90634D7E91434CDE90434D7E91634CDE90234D7E91834CDE90034D7E9E0
:4007C0001A23544800F060FD534B00221A60524B1E225A60504B5A229A604F4B4FF48772DA604D4B4FF4A5721A6102237B634B4B3C1D0FCB84E80F007B68184604F034F9CB
:4008000003460C46434AC2E91634BB68184604F02BF903460C463F4AC2E9183400233B633F4BC7F89C305A23C7F89830394A30A4D4E90034C2E90E344FF00003FB62394BB5
:40084000BB62394BC7F89430374B7B6200233B620023C7F890300023C7F88C300F23FB61324B1B68002BFBD02B4B9B69184604F063FD0346D7F89410184604F04FFF0346A0
:40088000002B00F0B582244BDB6A184604F054FD0346D7F89410184604F040FF0346002B00F0A682D7F898305A2B41D05A2B03DC002B00F09F804CE2B42B00F08F81B3F536
:4008C000877F00F0E78144E2A60A46257502EE3F54E41071732AC93E7B14AE47E17A643F90C2F5285C0F3540691D554D1075FF3E182D4454FB21F93F85000000F9000000EE
:40090000550500003082FF1FE081FF1F0000E83F000014401083FF1F8083FF1F00720000DB0FC93F0AD7233C00004842B081FF1FA54A4FF000034FF00004C2E90C340520C0
:4009400000F03CFCA04BD3E902019DA3D3E9002303F03CFF03460C461846214600F0E8FC03460C461846214604F0DCFB0346C7F89C30D7F89C0004F089F803460C4618464C
:40098000214600F0E1FBD7F898305A3B184600F0FBFCC7F89800F86904F066F803460C46894AC2E90C34894B00221A60884BC7F89430786A04F0DAFE0246864BDA61786A86
:4009C00004F0D4FE0246834B1A62786A04F0CEFE0246804B5A62786A04F0C8FE02467D4B9A627C4B42F210729A617A4B42F21072DA62FDE1D7F88C30002B5AD1724A4FF09D
:400A000000034FF00004C2E90C346F4BD3E902016BA3D3E9002303F0D9FE03460C461846214600F085FC03460C461846214604F079FB0346C7F89C30D7F89C0004F026F86B
:400A400003460C461846214600F07EFB012000F0B5FB5D4BD3E9020159A3D3E9002303F0B7FE03460C461846214600F061FC03460C461846214604F055FB0346C7F89C30DD
:400A8000D7F89C0004F002F803460C461846214600F05AFB504BC7F894300123C7F88C30F86903F0E1FF03460C46474AC2E90C3464E0454A4FF000034FF00004C2E90C34ED
:400AC000414BD3E902013EA3D3E9002303F07EFE03460C461846214600F02AFC03460C461846214604F01EFB0346C7F89C30D7F89C0003F0CBFF03460C461846214600F04D
:400B000023FB022000F05AFB2F4BD3E902012CA3D3E9002303F05AFE03460C461846214600F006FC03460C461846214604F0FAFA0346C7F89C30D7F89C0003F0A7FF034643
:400B40000C461846214600F0FFFAD7F89830B43B184600F019FCC7F89800F86903F084FF03460C46184AC2E90C34184B00221A600123C7F890300023C7F88C30786A04F060
:400B8000F5FD0246134BDA61786A04F0EFFD0246104B1A62786A04F0E9FD02460D4B5A62786A04F0E3FD02460A4B9A62094B42F210729A61074B42F21072DA6218E100BF19
:400BC000182D4454FB21F93F1083FF1FB081FF1F0000E1438083FF1F00004842A44A4FF000034FF00004C2E90C34A14BD3E902019BA3D3E9002303F0EBFD03460C461846FB
:400C0000214600F095FB03460C461846214604F089FA0346C7F89C30D7F89C0003F036FF03460C461846214600F08EFAD7F898305A33184600F0A8FBC7F89800F86903F0F7
:400C400013FF03460C468A4AC2E90C34894B00221A60786A04F08AFD0246874BDA61786A04F084FD0246844B1A62786A04F07EFD0246814B5A62786A04F078FD02467E4B7F
:400C80009A627D4B42F210729A617B4B42F21072DA62ADE0764A4FF000034FF00004C2E90C34734BD3E902016FA3D3E9002303F08DFD03460C461846214600F039FB034692
:400CC0000C461846214604F02DFA0346C7F89C30D7F89C0003F0DAFE03460C461846214600F032FAD7F89830B43B184600F04CFBC7F89800F86903F0B7FE03460C465C4A80
:400D0000C2E90C345B4B00221A600023C7F89030786A04F02BFD0246574BDA61786A04F025FD0246544B1A62786A04F01FFD0246514B5A62786A04F019FD02464E4B9A620B
:400D40004D4B42F210729A614B4B42F21072DA624EE0474A4FF000034FF00004C2E90C343FA1D1E9000100F0EFF9D7F89C0003F08DFE3BA3D3E9002303F028FD03460C46A7
:400D80001846214600F0D4FA03460C461846214604F0C8F90346C7F89C30F86903F064FE03460C46324AC2E90C34324B00221A60786A04F0DBFC02462F4BDA61786A04F076
:400DC000D5FC02462C4B1A62786A04F0CFFC0246294B5A62786A04F0C9FC0246264B9A62254B42F210729A61234B42F21072DA624FF00003BB61204B9B69632B05DC1E4B58
:400E0000DB6A952B01DC012300E000237B61D7F89030002B02D0012B59D0A0E07B69002B05D1F86903F020FE03460C4602E04FF00003124C0E4AC2E90C340F4BDA690E4BBF
:400E40001B6A9A421CDA0C4BDB69184604F074FA03461946786A04F0B9F903461BE000BF182D4454FB21F93F182D4454FB2109401083FF1FB081FF1F8083FF1F00001440A5
:400E8000414B1B6A184604F057FA03461946786A04F09CF90346BB61BB6983F00043B96A184604F09DFA0346FB62F96AD7F89C0004F08EF90346184603F0E8FD03460C4617
:400EC000324AC2E90E34324B00221A6054E07B69002B05D1F86903F0C7FD03460C4602E04FF000032B4C294AC2E90C34264B5A6A254B9B6A9A420BDA234B5B6A184604F0BB
:400F00001BFA03461946786A04F060F903460AE01D4B9B6A184604F00FFA03461946786A04F054F90346BB61BB6983F00043B96A184604F055FA0346FB62F96AD7F89C0088
:400F400004F044F90346184603F0A0FD03460C460E4AC2E90E340E4B00221A600CE00B4A4FF000034FF00004C2E90C34074A04A4D4E90034C2E90E3472E400BFAFF3008075
:400F800000000000803107418083FF1F1083FF1FB081FF1F0000144090B583B000AFC7E900014FF00002304BD7E9000104F034F80346002B05D04FF000032B4CC7E9003468
:400FC0000EE04FF00002294BD7E9000104F042F80346002B04D04FF00003244CC7E900344FF000024FF00003D7E9000104F014F80346002B1BD03B683B607B6883F0004307
:401000007B60002001F000FA15A3D3E90023D7E9000103F08FFD03460C461846214604F061F803469BB2184601F0FEF914E00CA3D3E90023D7E9000103F07CFD03460C4620
:401040001846214604F04EF803469BB2184601F0DBF9002001F0E8F900BF0C37BD4690BD000000000088C3400000F0BF0000F03F90B583B000AFC7E900014FF00002304B77
:40108000D7E9000103F0C8FF0346002B05D04FF000032B4CC7E900340EE04FF00002294BD7E9000103F0D6FF0346002B04D04FF00003244CC7E900344FF000024FF0000342
:4010C000D7E9000103F0A8FF0346002B1BD03B683B607B6883F000437B60002001F090FB15A3D3E90023D7E9000103F023FD03460C461846214603F0F5FF03469BB2184642
:4011000001F08EFB14E00CA3D3E90023D7E9000103F010FD03460C461846214603F0E2FF03469BB2184601F06BFB002001F078FB00BF0C37BD4690BD000000000088B34022
:401140000000F0BF0000F03FF0B583B000AFC7E90001194AD7E90034C2E90E3400BF164BD3E90201144B03F13804D4E900341A46234603F02BFB03460C461D4624F000467C
:4011800001231C460AA3D3E900232846314603F043FF0346002B01D100231C46E3B283F00103DBB2002BDAD100BF0C37BD46F0BD9A9999999999C93F1083FF1F80B582B060
:4011C00000AF7860642000F0BBFD4FF4FA6001F07FFE4FF47A6001F08BFE7B68DBB2184601F0CEFE012001F0BBFE40F6F61000F0A7FD4FF47A6001F06BFE4FF4FA6001F06F
:4012000077FE002001F0ACFE00BF0837BD4680BD90B585B000AFF860C7E90023FA684FF000034FF00004C2E90034FA684FF000034FF00004C2E90234FA684FF000034FF07B
:401240000004C2E908344FF000020E4BD7E9000103F070FC03460C46FA68C2E90E34FB6800221A64FA68D7E90834C2E90A34FA68D7E90A34C2E90C34FB6818461437BD463B
:4012800090BD00BF0000064090B484B000AFF860C7E90023FA68D7E90034C2E90034FA684FF000034FF00004C2E91434FA68D7E90634C2E91034FA68D7E90834C2E91234E1
:4012C000FA684FF000034FF00004C2E90C34FA684FF000034FF00004C2E90E34FA68D7E91034C2E90234FA68D7E90C34C2E90434FA68D7E90E34C2E90634FA68D7E90A3413
:40130000C2E91A34FA684FF000034FF00004C2E91634FA684FF000034FF00004C2E91834FB6818461037BD4690BC70470000000090B583B000AFC7E9000111A3D3E9002381
:40134000D7E9000103F020FD03460C461846214601F082FE0AA3D3E9002303F0EBFB03460C461A462346D7E9000103F02FFA03460C46184621460C37BD4690BDAFF3008010
:40138000182D4454FB21194080B483B000AF78607B680D4A83FB02121A441112DA178A1A4FF4B47101FB02F29B1A7B607B68002B03DA7B6803F5B4737B607B6818460C37D7
:4013C000BD4680BC704700BFB7600BB680B582B000AF786039603A680021786804F023FA00BF0837BD4680BD80B584B000AFF860B9607A607A68B968F86804F009FA00BF6B
:401400001037BD4680BD00BF80B483B000AF0346FB71FEE780B487B000AF7860396000233B6100237B6127E07B699B007A6813441B68BB60BB68FB73BB6823F0FF03BB602C
:4014400014E03B695B003A6813441B781A46BB68134419463B695B003A6813445B780B703B6901333B61FB7B013BFB73FB7B002BE7D17B6901337B617B69272BD4D900BFEB
:401480001C37BD4680BC704780B582B000AF464B0B221A80454B18221A70454B8C221A80444B18221A70444BEF221A80434B18221A70434B4FF49C721A80424B18221A70A0
:4014C000414B4BF67F321A80404B18221A70404B4EF65F221A803F4B19221A703E4B40F2E7321A803D4B1B221A703D4B40F2E7321A803C4B1B221A703B4B02221A704FF061
:40150000402308221A70394B03221A70384B394A1278D2B21A70384B08221A80374B41F251221A800023FB7019237B6014E0FB785B00DAB2324B1B78DBB203F00103DBB2A6
:401540001343DBB203F00303FB704FF4F07001F027FD7B68013B7B607B68002B02D0FB78032BE4D17B68002B02D10320FFF74CFF244B4FF480721A80224B07221A70224B2C
:4015800000221A70214B48221A701E4B00221A701F4B02221A701F4B1B781E4BFF221A7000BF0837BD4680BD80400040824000408440004086400040884000408A40004085
:4015C0008C4000408E40004090400040924000409440004096400040984000409A4000409C4000409E4000400043004000420040A146004008010049224200402042004055
:401600002542004004400040064000400840004001400040A243004080B483B000AF0B4B1B78FB710A4AFB7903F00703DBB21370084AFB791B09DBB21370074B44221A704F
:4016400000BF0C37BD4680BC704700BFCF0100496E5800406F5800407658004080B586B000AF72B6584A584B1B78DBB243F00403DBB213700023FB7513E0FA7D13465B00DD
:4016800013445B00514A13443B613B691A683B699B889BB219461046FFF798FEFB7D0133FB75FB7D052BE8D90023FB751CE0FA7D13469B0013445B00454A1344FB60FB689A
:4016C0001B68BB60FB685B687B60FB681A7A5B7A1B0213437B807B881A467968B868FFF783FEFB7D0133FB75FB7D012BDFD939494FF09040FFF78EFE374B384A1A60384BAA
:40170000384A1A60384B394A1A60394B394A1A60394A394B1B78DBB243F00203DBB21370364A364B1B78DBB243F00203DBB21370334A334B1B78DBB243F04003DBB2137033
:40174000304A304B1B78DBB243F01003DBB2137008222D492D48FFF747FE08222C492D48FFF742FE0A222C492C48FFF73DFE08222B492C48FFF738FE0A222B492B48FFF7D7
:4017800033FE08222A492B48FFF72EFE2A4A2A4B1B78DBB243F00803DBB21370274B61221A70FFF771FE254B81221A70244B01221A70FFF731FF0E2211492248FFF714FEB0
:4017C00000BF1837BD4680BDE84600401072000034720000A0000048D8080140040400C4D80A014004040484D80E01400404044458160140848B048B035001401350014081
:40180000A0430040C2430040B411004802510040BC110048C2510040C4110048F0510040D011004812510040D811004820510040E4110048325100402243004000480040BF
:4018400004000840B043004080B500AF03F0B4FF03461B680C2B00D1FEE7FEE780B584B000AF7860104B1A687B6813441A460F4BD31A4CF25032934209DC0B4B1B68FB6065
:40188000094B1A687B681344074A136007E003F093FF02460C2313604FF0FF33FB60FB6818461037BD4680BDD080FF1FB893FF1F80B586B000AF224B7B61224B3B61204B3C
:4018C0007B6135E03B691B68FB603B695B68BB603B699B683B6000237B600CE0FB681A68BB681A60BB680433BB60FB680433FB607B6804337B607A683B689A42EED13B6922
:40190000DB683B6000237B6008E0BB6800221A60BB680433BB607B6804337B607A683B689A42F2D13B6910333B617B69013B7B617B69002BC6D103F045FFFEF7B5FEFEE7AD
:40194000010000007C75000080B582B000AF184B184A1A60184A184B1B6843F40073136000237B600FE07B68032B04D8134A7B6852F8233000E0124B12497A6841F82230FF
:401980007B6801337B607B682F2BECD90E4B1B78DAB20E4B1A700E4B0A4A1A60FFF75EFE0C4B00221A6000BF0837BD4680BD00BF0CED00E00004FA0514ED00E000000000B2
:4019C000491800000080FF1FBC760040C480FF1F08ED00E0C080FF1F80B500AF064B1B78002B04D100F00AF8034B01221A7000F039F800BF80BD00BFB481FF1F80B582B096
:401A000000AF154B1B78DBB223F03F03FB71124AFB7943F02103DBB21370104A0F4B1B78DBB243F00103DBB213700D4A0C4B1B78DBB243F00103DBB213704FF47A7000F032
:401A400021F84FF47A7000F02DF8012000F03AF800BF0837BD4680BD7D6400409E6400409F64004080B400AF054A054B1B78DBB263F07F03DBB2137000BFBD4680BC7047A8
:401A80007D64004080B483B000AF0346FB80044AFB88138000BF0C37BD4680BC704700BF1C68004080B483B000AF0346FB80044AFB88138000BF0C37BD4680BC704700BF57
:401AC0009C68004080B483B000AF0346FB80044AFB88138000BF0C37BD4680BC704700BF5C68004080B582B000AF4FF6FF7000F063F84FF6FF7000F07BF801F059FA0346F0
:401B0000FB710D4A0C4B1B78DBB243F01003DBB21370FB79184601F04FFA00F079F8002000F086F800F0A4F8032000F029F800BF0837BD4680BD00BF9964004080B400AF3D
:401B4000054A054B1B78DBB263F07F03DBB2137000BFBD4680BC70477964004080B500AF064B1B78002B04D1FFF7BCFF034B01221A70FFF7E3FF00BF80BD00BFB581FF1F94
:401B800080B483B000AF0346FB71044AFB79137000BF0C37BD4680BC704700BF8964004080B400AF034B1B78DBB21846BD4680BC704700BF6964004080B483B000AF034661
:401BC000FB80044AFB88138000BF0C37BD4680BC704700BF506A004080B400AF034B1B889BB21846BD4680BC704700BF906A004080B483B000AF0346FB80044AFB881380A9
:401C000000BF0C37BD4680BC704700BF106A004080B400AF054A054B1B78DBB243F01003DBB2137000BFBD4680BC70477964004080B483B000AF0346FB71FB7903F0030331
:401C4000FB710A4A094B1B78DBB223F00303DBB213700649054B1B78DAB2FB791343DBB20B7000BF0C37BD4680BC70477964004080B500AF01E0FFF7AFFFFFF791FF03462A
:401C800003F00803002BF6D100BF80BD80B582B000AF786000F03CF8786800F009F8022000F018F800F028F800BF0837BD4680BD80B485B000AF7860054B1B68FB60FB6864
:401CC0004C337A681A6000BF1437BD4680BC704708ED00E080B483B000AF0346FB71054AFB795B01DBB2137000BF0C37BD4680BC704700BF03E400E080B400AF034B082261
:401D00001A6000BFBD4680BC704700BF00E100E080B400AF034B08221A6000BFBD4680BC704700BF80E100E080B483B000AF0346FB7101BE00BF0C37BD4680BC704700BF29
:401D400080B582B000AF786008E00C4B1B68184601F026F97B68A3F500437B607B68B3F5004FF2D8064B1B687A6802FB03F3184601F016F900BF0837BD4680BDE080FF1F45
:401D8000D880FF1F80B584B000AF03463960FB710F4B1B68FB60FB791F2B02D90020FFF7C3FFFB7903F01F0310339B00FA6813441B68BB60FB7903F01F0310339B00FA6817
:401DC00013443A681A60BB6818461037BD4680BD08ED00E080B582B000AF03460A46FB711346BB71BB79072B02D90020FFF79CFFFB791F2B02D90020FFF796FFFB7903F056
:401E00001F0303F1604303F56443BA795201D2B21A7000BF0837BD4680BD00BF80B500AF064B1B78002B04D100F00AF8034B01221A7000F023F800BF80BD00BFB681FF1FE9
:401E400080B500AF09490620FFF79CFF07210620FFF7C0FF064B06221A70064B47221A70054B02221A7000BF80BD00BFC91E000028640040386400408C64004080B582B04C
:401E800000AF01F095F80346FB710C4A0B4B1B78DBB243F01003DBB21370094B40221A60084B40221A6000F047F8FB79184601F083F800BF0837BD4680BD00BF9C64004015
:401EC00080E200E000E100E080B400AF18E0154B1B889BB2B3F5805F02D3124B00221A80114B104A128892B21146104A525CD2B21A700C4B1B889BB201339AB2094B1A8089
:401F0000084B1B889AB20A4B1B889A4206D0094B1B78DBB203F00403002BD8D000BFBD4680BC7047B881FF1F4B640040B083FF1FBA81FF1F6C64004080B400AF094A094B35
:401F40001B78DBB243F00803DBB21370064A064B1B78DBB243F00803DBB2137000BFBD4680BC7047A2430040B243004080B483B000AF0346FB71044AFB79137000BF0C37C3
:401F8000BD4680BC704700BF7965004080B500AF064B10221A6006490420FFF7F3FE07210420FFF717FF00BF80BD00BF80E100E0C120000080B582B000AF0F2000F06CF845
:401FC00000F05CF800F0F4FF0346FB71094A094B1B78DBB243F01003DBB21370FB79184600F0EAFF044B10221A6000BF0837BD4680BD00BF9264004000E100E080B500AF6A
:4020000000F0DEF84FF4004000F008F9074B00221A60074B1B78002B04D1FFF7B7FF044B01221A70FFF7C6FF00BF80BDC081FF1FBD81FF1F80B582B000AF0D4B10221A605F
:4020400000F0FCF80346FB80FB88A3F500439BB2BB80B7F90420074B1B6813443B60064B10221A603B6818460837BD4680BD00BF80E100E0C081FF1F00E100E080B400AFB7
:40208000044B1B78DBB203F00F03DBB21846BD4680BC70476264004080B483B000AF0346FB71FB7943F00703FB71044AFB79137000BF0C37BD4680BC704700BF82640040BB
:4020C00080B483B000AF144B1B78FB71FB7903F00103002B07D0114B1B6803F5FF437F330E4A13600AE0FB7903F00203002B05D00A4B1B68A3F50043084A1360FB7903F034
:402100000403002B02D0054B00221A6000BF0C37BD4680BC704700BF62640040C081FF1F80B582B000AF1C4B1B78DBB223F00703FB71194AFB791370174B1B78DBB223F07E
:402140000303FB71144AFB79137000F0B3F84FF4004000F08FF84FF4004000F05FF8002000F040F800F04EF84FF4004000F092F800F01EFF0346BB71084A084B1B78DBB277
:4021800043F01003DBB21370BB79184600F014FF00BF0837BD4680BD7E6400409B64004080B400AF054A054B1B78DBB263F07F03DBB2137000BFBD4680BC70477E64004037
:4021C00080B500AF064B1B78002B04D1FFF7A8FF034B01221A70FFF7E3FF00BF80BD00BFC481FF1F80B483B000AF0346FB71044AFB79137000BF0C37BD4680BC704700BFC2
:402200008B64004080B400AF034B1B78DBB21846BD4680BC704700BF6B64004080B483B000AF0346FB80044AFB88138000BF0C37BD4680BC704700BF1868004080B400AF64
:40224000044B1B78044B1B889BB21846BD4680BC704700BF0C6400409868004080B400AF034B1B889BB21846BD4680BC704700BF9868004080B483B000AF0346FB80044A9E
:40228000FB88138000BF0C37BD4680BC704700BF5868004080B483B000AF0346FB80044AFB88138000BF0C37BD4680BC704700BF7868004080B500AF01E0FFF7CFFFFFF7BD
:4022C000A1FF034603F04003002BF6D100BF80BD80B500AF064B1B78002B04D100F00AF8034B01221A7000F051F800BF80BD00BFC581FF1F80B582B000AF214B1B78DBB222
:4023000023F03F03FB711E4AFB7943F00903DBB213701C4A1B4B1B78DBB243F00103DBB21370194A184B1B78DBB243F00103DBB2137041F2883000F039F841F2883000F06A
:4023400053F8002000F060F8002000F06DF8002000F07AF800F02CFE0346BB710A4A0A4B1B78DBB243F01003DBB21370BB79184600F022FE00F02AF800BF0837BD4680BD13
:4023800070640040906400409164004080B400AF054A054B1B78DBB263F07F03DBB2137000BFBD4680BC70477064004080B483B000AF0346FB80044AFB88138000BF0C3710
:4023C000BD4680BC704700BF0068004080B500AF01E000F055F800F047F8034603F01003002BF6D100BF80BD80B483B000AF0346FB80044AFB88138000BF0C37BD4680BC93
:40240000704700BF8068004080B483B000AF0346FB80044AFB88138000BF0C37BD4680BC704700BF4068004080B483B000AF0346FB80044AFB88138000BF0C37BD4680BCA2
:40244000704700BF6068004080B483B000AF0346FB71044AFB79137000BF0C37BD4680BC704700BF8164004080B400AF034B1B78DBB21846BD4680BC704700BF6164004089
:4024800080B400AF034B1B889BB21846BD4680BC704700BFA068004080B582B000AF786000F03CF8786800F009F8012000F018F800F028F800BF0837BD4680BD80B485B0E5
:4024C00000AF7860054B1B68FB60FB6840337A681A6000BF1437BD4680BC704708ED00E080B483B000AF0346FB71054AFB795B01DBB2137000BF0C37BD4680BC704700BF6F
:4025000000E400E080B400AF034B01221A6000BFBD4680BC704700BF00E100E080B400AF034B01221A6000BFBD4680BC704700BF80E100E080B500AF064B20221A60064911
:402540000520FFF71FFC07210520FFF743FC00BF80BD00BF80E100E06926000080B582B000AF0F2000F06CF800F05CF800F020FD0346FB71094A094B1B78DBB243F010036C
:40258000DBB21370FB79184600F016FD044B20221A6000BF0837BD4680BD00BF9764004000E100E080B500AF00F0C2F94FF4004000F0ECF9074B00221A60074B1B78002B4D
:4025C00004D1FFF7B7FF044B01221A70FFF7C6FF00BF80BDC881FF1FC681FF1F80B582B000AF0D4B20221A6000F0E0F90346FB80FB88A3F500439BB2BB80B7F90420074B18
:402600001B6813443B60064B20221A603B6818460837BD4680BD00BF80E100E0C881FF1F00E100E080B400AF044B1B78DBB203F00F03DBB21846BD4680BC7047676400402D
:4026400080B483B000AF0346FB71FB7943F00703FB71044AFB79137000BF0C37BD4680BC704700BF8764004080B483B000AF144B1B78FB71FB7903F00103002B07D0114B0E
:402680001B6803F5FF437F330E4A13600AE0FB7903F00203002B05D00A4B1B68A3F50043084A1360FB7903F00403002B02D0054B00221A6000BF0C37BD4680BC704700BF04
:4026C00067640040C881FF1F80B500AF064B1B78002B04D100F00AF8034B01221A7000F051F800BF80BD00BFCC81FF1F80B582B000AF214B1B78DBB223F03F03FB711E4A89
:40270000FB7943F00903DBB213701C4A1B4B1B78DBB243F00103DBB21370194A184B1B78DBB243F00103DBB2137041F2883000F039F841F2883000F053F8002000F060F8DC
:40274000002000F06DF8002000F07AF800F030FC0346BB710A4A0A4B1B78DBB243F01003DBB21370BB79184600F026FC00F02AF800BF0837BD4680BD75640040926400406F
:402780009364004080B400AF054A054B1B78DBB263F07F03DBB2137000BFBD4680BC70477564004080B483B000AF0346FB80044AFB88138000BF0C37BD4680BC704700BF98
:4027C0000468004080B500AF01E000F055F800F047F8034603F01003002BF6D100BF80BD80B483B000AF0346FB80044AFB88138000BF0C37BD4680BC704700BF846800409E
:4028000080B483B000AF0346FB80044AFB88138000BF0C37BD4680BC704700BF4468004080B483B000AF0346FB80044AFB88138000BF0C37BD4680BC704700BF64680040B6
:4028400080B483B000AF0346FB71044AFB79137000BF0C37BD4680BC704700BF8364004080B400AF034B1B78DBB21846BD4680BC704700BF6364004080B400AF034B1B882B
:402880009BB21846BD4680BC704700BFA468004080B582B000AF1C4B1B78DBB223F00703FB71194AFB791370174B1B78DBB223F00303FB71144AFB79137000F0B3F84FF4B2
:4028C000004000F08FF84FF4004000F05FF8002000F040F800F04EF84FF4004000F092F800F066FB0346BB71084A084B1B78DBB243F01003DBB21370BB79184600F05CFB22
:4029000000BF0837BD4680BD746500409F64004080B400AF054A054B1B78DBB263F07F03DBB2137000BFBD4680BC70477465004080B500AF064B1B78002B04D1FFF7A8FF43
:40294000034B01221A70FFF7E3FF00BF80BD00BFCD81FF1F80B483B000AF0346FB71044AFB79137000BF0C37BD4680BC704700BF8F64004080B400AF034B1B78DBB21846B4
:40298000BD4680BC704700BF6F64004080B483B000AF0346FB80044AFB88138000BF0C37BD4680BC704700BF0C68004080B400AF044B1B78044B1B889BB21846BD4680BC05
:4029C000704700BF066400408C68004080B400AF034B1B889BB21846BD4680BC704700BF8C68004080B483B000AF0346FB80044AFB88138000BF0C37BD4680BC704700BF26
:402A00004C68004080B483B000AF0346FB80044AFB88138000BF0C37BD4680BC704700BF6C68004080B500AF01E0FFF7CFFFFFF7A1FF034603F04003002BF6D100BF80BD0D
:402A400080B582B000AF786000F03CF8786800F009F8002000F018F800F028F800BF0837BD4680BD80B485B000AF7860054B1B68FB60FB6844337A681A6000BF1437BD46A4
:402A800080BC704708ED00E080B483B000AF0346FB71054AFB795B01DBB2137000BF0C37BD4680BC704700BF01E400E080B400AF034B02221A6000BFBD4680BC704700BF95
:402AC00000E100E080B400AF034B02221A6000BFBD4680BC704700BF80E100E080B582B000AF4FF6FF7000F05DF84FF6FF7000F075F800F05DFA0346FB710A4A094B1B783A
:402B0000DBB243F01003DBB21370FB79184600F053FA00F073F8002000F028F800BF0837BD4680BD9464004080B400AF054A054B1B78DBB263F07F03DBB2137000BFBD4659
:402B400080BC70477464004080B500AF064B1B78002B04D1FFF7C2FF034B01221A70FFF7E3FF00BF80BD00BFCE81FF1F80B483B000AF0346FB71044AFB79137000BF0C37BE
:402B8000BD4680BC704700BF8464004080B400AF034B1B78DBB21846BD4680BC704700BF6464004080B483B000AF0346FB80044AFB88138000BF0C37BD4680BC704700BFD7
:402BC0004868004080B400AF034B1B889BB21846BD4680BC704700BF8868004080B483B000AF0346FB80044AFB88138000BF0C37BD4680BC704700BF0868004080B500AFF8
:402C000001E0FFF7DFFFFFF7C1FF034603F00803002BF6D100BF80BD80B500AF064B1B78002B04D100F00AF8034B01221A7000F051F800BF80BD00BFCF81FF1F80B582B076
:402C400000AF204B1B78DBB223F03F03FB711D4AFB7943F00B03DBB213701B4A1A4B1B78DBB243F00103DBB21370184A174B1B78DBB243F00103DBB2137040F6B83000F0C3
:402C800039F840F6B83000F053F8002000F060F8002000F06DF800F08BF90346BB710C4A0B4B1B78DBB243F01003DBB21370BB79184600F081F900F02DF800BF0837BD4690
:402CC00080BD00BF7765004094650040956500409665004080B400AF054A054B1B78DBB263F07F03DBB2137000BFBD4680BC70477765004080B483B000AF0346FB80044A8E
:402D0000FB88138000BF0C37BD4680BC704700BF086A004080B500AF01E000F045F800F037F8034603F01003002BF6D100BF80BD80B483B000AF0346FB80044AFB88138088
:402D400000BF0C37BD4680BC704700BF886A004080B483B000AF0346FB80044AFB88138000BF0C37BD4680BC704700BF486A004080B483B000AF0346FB71044AFB79137073
:402D800000BF0C37BD4680BC704700BF8665004080B400AF034B1B78DBB21846BD4680BC704700BF6665004080B400AF034B1B889BB21846BD4680BC704700BFA86A00403C
:402DC00080B500AF064B1B78002B04D100F00AF8034B01221A7000F047F800BF80BD00BFD081FF1F80B582B000AF1C4A1B4B1B78DBB243F00103DBB21370194A184B1B7823
:402E0000DBB243F00103DBB2137049F6404000F031F849F6404000F04BF84FF47A6000F057F84FF4FA6000F063F8002000F070F800F0BEF80346FB710A4A0A4B1B78DBB214
:402E400043F01003DBB21370FB79184600F0B4F800F020F800BF0837BD4680BD96650040976500409565004080B400AF00BFBD4680BC704780B483B000AF0346FB80044AD7
:402E8000FB88138000BF0C37BD4680BC704700BF0C6A004080B500AF01E000F055F800F047F8034603F01003002BF6D100BF80BD80B483B000AF0346FB80044AFB881380E3
:402EC00000BF0C37BD4680BC704700BF8C6A004080B483B000AF0346FB80044AFB88138000BF0C37BD4680BC704700BF4C6A004080B483B000AF0346FB80044AFB881380BC
:402F000000BF0C37BD4680BC704700BF6C6A004080B483B000AF0346FB71044AFB79137000BF0C37BD4680BC704700BF8565004080B400AF034B1B78DBB21846BD4680BCE5
:402F4000704700BF6565004080B400AF034B1B889BB21846BD4680BC704700BFAC6A004080B483B000AF0346FB71044AFB79137000BF0C37BD4680BC704700BF7664004066
:402F800080B483B000AF0346FB71044AFB79137000BF0C37BD4680BC704700BF766500400230800803D000BF01380046FCD17047EFF3108072B6704780F31088704700BF0E
:402FC00000F01AB930B5214A21F00043934287B01BDD1F4A934205DD02460B4601F0F6FB07B030BD02AA00F07BFB00F0030001281AD002280FD008B3DDE9020101230093CB
:40300000DDE9042301F0A0FAEAE70022002300F07FFD07B030BDDDE90423DDE9020100F077FD01F10041DBE70090DDE90423DDE9020101F089FA01F10041D1E7DDE9042351
:40304000DDE9020100F064FDCAE700BFFB21E93FFFFFEF7F00000000C1F30A522DE9F843A2F2FF36132E0B4604460D46884607461CDC002E3FDB3A4A864642FA06F901EAEC
:403080000902024317D034A3D3E9002301F0A0FB0022002301F0DEFF20B1002D40DB28EA0905002738462946BDE8F883332E06DDB6F5806F2FD020461946BDE8F883A2F2C1
:4030C00013424FF0FF3929FA02F910EA090FF2D021A3D3E9002301F07BFB0022002301F0B9FF0028DED0002D20DB454627EA090738462946D8E718A3D3E9002301F068FBD6
:403100000022002301F0A6FF0028CBD0002D18DB00273D46C6E702460B4601F059FBCCE74FF4801343FA06F6B044B8E7142E10D00123C6F1340603FA06F6371928BF984404
:40314000D3E725F00042074B224318BF1D460027A8E705F10108C8E79C7500883CE4377EFFFF0F000000F0BF30B5214A21F00043934287B01BDD1F4A934205DD02460B465E
:4031800001F024FB07B030BD02AA00F0A9FA00F0030001281ED0022811D0DDE9042300B3DDE9020100F0B4FC01F10041EAE7002300930022002301F0C7F907B030BD012386
:4031C0000093DDE90201DDE9042301F0BDF901F10041D7E7DDE90423DDE9020100F098FCD0E70124DDE90201009401F0ADF9C9E7FB21E93FFFFFEF7F2DE9F0418AB00446B9
:403200000D4600F079F8374B064693F900800F46B8F1FF3F0DD022462B462046294601F023FF30B9002200232046294601F012FF20B1304639460AB0BDE8F0812A4B08907E
:40324000CDE90245CDE904450193B8F1000F19D1264F4FF060462046294600220023CDE9066701F0CFFE002834D002230093684601F024FAA8B1089BC3B9DDE906010AB027
:40328000BDE8F0811A4F00262046294600220023CDE9066701F0B6FE68B1022398450093E5D102F089FA22230360E4E702F084FA089B0360E1E70123B8F1020F00930BD1B0
:4032C00002F07AFA212303600A4801F0F9F9CDE90601D0E701230093684601F0EFF90028F2D1EDE7E480FF1F48720000FFFFEFC70000F0FF4C7200002DE9F04FB1F5801FE4
:4033000085B006460F460B465ADA024621F00044224300F0F7800029C0F279810022D64B01F008FC0B460F46D44906468B426FF0350249DCC3F3130505F5152404F6647452
:4033400004F4801E8EF07F5181F440111B15A3F2FF3341EA05079C1830460022C84B394604EB1E5401F032FAAB1CC3F31303022B82468B464FF000022FDC002301F042FE20
:40338000002800F0C880002C00F04A81204601F06BFBA5A3D3E9002306460F4601F0CAFBA3A3D3E9002304460D463046394601F0C1FB02460B462046294601F009FA09E0DC
:4033C000AE4900228B42B5DD32463B463046394601F0FEF905B0BDE8F08F4FF0804301F0F7F902460B465046594601F0CDFC064620460F4601F038FB3246CDE900013B4660
:4034000030463946CDE9026701F094FB02460B468046894601F08EFB87A3D3E9002306460F4601F087FB86A3D3E9002301F0D0F932463B4601F07EFB83A3D3E9002301F018
:40344000C7F932463B4601F075FB81A3D3E9002301F0BEF942464B4601F06CFB7EA3D3E90023804689463046394601F063FB7CA3D3E9002301F0ACF932463B4601F05AFB6A
:4034800079A3D3E9002301F0A3F932463B4601F051FB0B4602464946404601F099F9A5F5C223C5F5D725A3F27A4351351D43002D8046894656DD0022724B5046594601F0B6
:4034C00039FB52465B4601F035FB06460F46002C68D132463B464046494601F079F9DDE9022301F027FB02460B463046394601F06DF902460B465046594601F067F905B010
:40350000BDE8F08F0022002300205F4901F03CFC05B0BDE8F08F56A3D3E900235046594601F008FB02460B460020564901F04EF9524606460F465B465046594601F0FAFAD3
:4035400002460B463046394601F0F4FA06460F46002C40F09B8002460B465046594601F035F937E7002C00F0A5802FA3D3E90023DDE9000101F0DEFA42464B4604460D4683
:403580005046594601F022F9DDE9022301F0D2FA27A3D3E9002306460F46DDE9000101F0C9FA21E020A3D3E90023DDE9000101F0C1FA32463B4604460D464046494601F0AB
:4035C00007F9DDE9022301F0B5FA19A3D3E9002380468946DDE9000101F0ACFA02460B464046494601F0F4F802460B463046394601F0ECF852465B4601F0E8F802460B4621
:403600002046294601F0E2F805B0BDE8F08F02460B4601F0DBF80022002301F0B5FBD9E600200021D6E600BF0000E0FE422EE63F763C7935EF39EA3D44523EDF12F1C23F7A
:40364000DE03CB966446C73F599322942449D23F935555555555E53F9FC678D0099AC33FAF788E1DC571CC3F04FA97999999D93F555555555555D53F00005043FFFFEF7FEA
:403680000000F03F0000E03F000050C3204601F0EBF90FA3D3E900238046894601F04AFA0DA3D3E9002304460D464046494601F041FA99E702460B465046594601F086F8E9
:4036C000DDE9022301F036FA13E700BFAFF300800000E0FE422EE63F763C7935EF39EA3D2DE9F04F944C21F00047A7428FB040F381801446914A0E46974226DC84A3D3E991
:403700000023002940F3A08101F060F88C4B80469F42894600F083807FA3D3E9002301F055F802460B464046C4E90023494601F04DF879A3D3E9002301F048F80125C4E96E
:40374000020128460FB0BDE8F08F7E4A974240F383807D4A974258DC3D15A5F21645A7EB05518B46824601F095FC01F07DF98046894642464B4650465946CDE9088901F081
:4037800025F80022714B01F0D5F98B46824601F081FC01F069F98046894642464B4650465946CDE90A8901F011F80022674B01F0C1F900220023CDE90C0101F023FC002810
:4037C00000F06A81002340464946002201F01AFC002814BF012302235D480221019000912A46214608A800F0B7FA002EC0F24A81054606E0C2E9000100250024C2E9024574
:40380000002528460FB0BDE8F08F02460B4600F0DDFF0025C4E90201C4E90001F1E740A3D3E9002300F0D2FF3FA3D3E9002306460F4600F0CBFF02460B463046C4E90023D4
:40384000394600F0C3FF38A3D3E9002300F0BEFF0125C4E90201D4E700F02CFF34A3D3E900238046894601F065F90022394B00F0AFFF01F00FFC054601F0F6F824A3D3E97D
:403880000023CDE9040101F055F902460B464046494600F09BFF20A3D3E9002382468B46DDE9040101F046F91F2DCDE9020155DC294B6A1E53F822309F424FD002460B4615
:4038C0005046594600F082FF02460B4681468846C4E900234A4643465046594600F076FFDDE9022300F072FF02460B46002EC4E9022386DA4A4608F1004301F1004184E8C1
:403900000C00E160A0606D427BE700BFAFF3008000004054FB21F93F3163621A61B4D03D0000601A61B4D03D7370032E8A19A33B83C8C96D305FE43FFB21E93F7BD90240F0
:40394000FB21F93FFB213941FFFFEF7F00007041D07200000000E03F50720000DDE902235046594600F032FF3F15C1F30A53FB1A102B81468846C4E90001ABDD58A3D3E9A5
:403980000023DDE9040101F0D5F88046894602460B465046594600F019FFCDE9060102460B465046594600F011FF42464B4600F00DFF4DA3D3E9002380468946DDE9040121
:4039C00001F0B8F842464B4600F000FF02460B46CDE90201DDE9060100F0F8FE0B4602468846C1F30A517F1A312F8146C4E9002372DD3FA3D3E90023DDE9040101F09AF8B5
:403A00008046894602460B46DDE9060100F0DEFE02460B4682468B46DDE9060100F0D6FE42464B4600F0D2FE33A3D3E9002380468946DDE9040101F07DF842464B4600F09F
:403A4000C5FECDE9020139E700F0C2FE2E4B80469F42894622D02AA3D3E9002300F0B8FE02460B464046C4E90023494600F0AEFE23A3D3E9002300F0ABFE4FF0FF35C4E94F
:403A80000201BEE66268E36802F1004203F1004345426260E360B4E603239DE610A3D3E9002300F095FE10A3D3E9002306460F4600F08EFE02460B463046C4E900233946ED
:403AC00000F084FE08A3D3E9002300F081FE4FF0FF35C4E9020194E6DDE906ABFAE600BF0000601A61B4D03D7370032E8A19A33B0000002E8A19A33BC14920259A837B39A8
:403B00003163621A61B4D03DFB21F93F000000002DE9F04F21F00046B6F1795F85B00C4692469B4605466BDA01F0B4FA002800F0E7802A4623462846214600F0FBFF74A337
:403B4000D3E900238046894600F0F4FF72A3D3E9002300F03DFE42464B4600F0EBFF70A3D3E9002300F032FE42464B4600F0E2FF6DA3D3E9002300F02BFE42464B4600F0CF
:403B8000D9FF6BA3D3E9002300F020FE42464B4600F0D0FF68A3D3E9002300F019FE42464B4600F0C7FFCDE900010022644B4046494600F0BFFFDDE9002306460F4640463F
:403BC000494600F0B7FF5246804689465B462846214600F0AFFF02460B464046494600F0F5FD02460B463046394600F0EFFD02460B460020534900F0E9FD05B0BDE8F08F51
:403C000002460B4600F096FF41A3D3E900238046894600F08FFF40A3D3E9002300F0D8FD42464B4600F086FF3DA3D3E9002300F0CDFD42464B4600F07DFF3BA3D3E90023C0
:403C400000F0C6FD42464B4600F074FF38A3D3E9002300F0BBFD42464B4600F06BFF36A3D3E9002300F0B4FD4B46424600F062FF354BCDE900019E4297DD344B00229E4271
:403C800038DCA6F5001300202E4916461F4600F09DFDCDE902010022294B4046494600F049FF32463B4600F091FDDDE9002306460F464046494600F03DFF52468046894655
:403CC0005B462846214600F035FF02460B464046494600F07BFD02460B463046394600F075FD02460B46DDE9020100F06FFD05B0BDE8F08F164B0026CDE90223154FCAE716
:403D00001049002005B0BDE8F08F00BFAFF30080D43888BEE9FAA8BDC4B1B4BD9EEE213EAD529C804F7E923E9015CB19A001FA3E7751C1166CC1563F4C5555555555A53F91
:403D40000000E03F0000F03F3233D33F0000E93F0000E73F0000D23F2DE9F04F794CADF51D7D1F460B93D31E84FB0354DB17C3EBA403A69E744C23EAE37554F826406B1C16
:403D800026460994A3EB83037C1E0D95029402EBC3032D1B341904900A91089316D42C44013422AEA79F08E057F8250000F05CFE0135A542E6E9020108D0002DF4DA0135BF
:403DC00000200021A542E6E90201F6D1099B002B2FDB099B74AADDF8089002EBC30B0DF5E47A029B002BC0F295810B9B0026C3EB090824AB03EBC808049B0027A3F10805D0
:403E000024AB03EBC904F5E9022374E8020100F091FE02460B463046394600F0D9FC444506460F46EFD1EAE90267DA4509F10109D7D1099B10A91D4603F18043023B9B0084
:403E40001A1D0A440B440F920E939CAB03EBC503002D53E928672BDD9CAB03EBC504A83C0DF13C0A0DF5E47B0022384B3046394600F060FE01F00EF900F0F6FD0022344B44
:403E80008046894600F056FE02460B463046394600F09CFC01F0FEF874E802234AF8040F4946404600F094FC5C4506460F46DBD1089C30463946224600F00AFC00224FF07B
:403EC0007F5306460F4600F035FEFFF7C5F80022204B00F02FFE02460B463046394600F075FC0F46064601F0D5F8814600F0BCFD02460B463046394600F068FC002C0646B7
:403F00000F4640F3EE80681E10AB53F82030C4F1180243FA02F101FA02F29B1AC4F1170810AA42F82030894443FA08F8B8F1000F3DDD002D09F1010940F3D38200221446E3
:403F40000FA911E0ABAAAA2AD87300000000703E0000704100002040C3F180700BB108600124013295420DDD51F8043F002CF3D0C3F1FF13013203F57F4395420B604FF0D5
:403F80000104F1DC089B002B0DDD012B00F0B180022B08D16A1E10AB53F8223010A9C3F3150341F82230B8F1020F00F08180002200233046394601F025F8002800F05B824A
:403FC000099B05F1FF3B5B4510DC05F1804310AA013B0F9802EB8303002253F80419834242EA0102F9D1002A40F0B180099B10AA013B52F82330002B40F071820E9A012374
:4040000052F8041901330029FAD0E9186A1C8A420C914BDC0D990B985118DB0001F180410593A79B05440139E80003EB810A24ABD20003EB000B74AB13440193A2F108039B
:40404000069007934FF000095AF8040F00F00CFD029BEBE80201002B4FF000064FF000071BDB069B03EB0904079B09EB030824AB1C449844049BA3F10805F5E9022374E864
:40408000020100F057FD02460B463046394600F09FFB444506460F46EFD1019B09F10809E3E802670193059B9945CDD10C9DCCE632463B460020B04900F088FB06460F46AB
:4040C000002C3FF474AF089A0020AB4900F000FB02460B463046394600F078FB06460F4665E710D16B1E10AA52F823304FEAE3581CE76A1E10AB53F8223010A9C3F316031F
:4041000041F822304FE700229C4B00F099FF58B980464CE700260027EAE90267DA4509F101097FF45EAE84E6002D09F10109C8BF4FF002083FF702AF32463B4600208E49B6
:4041400000F044FB4FF0020806460F462FE7089A10AB53F82B30183ACDF81490CDF8048008926BB90BF18043013B10A901EB830353F804190BF1FF3B183A0029F8D00892AA
:40418000089A00207C4900F0A3FABBF1000F04460D46C0F2B6814FEACB030DF5E87810AA02EB8B0608EB03090493043609F1080756F8040D00F058FC22462B4600F0BAFC0E
:4041C000002267E902016E4B2046294600F0B2FCB84504460D46EBD14B46CDF818B09B460DF5987ACDF808A0DDF824A04FF00009BAF1000FC0F226815DA3D3E90023DFF89E
:4042000084815D4600260027002403E0A14510DBF8E90223F5E8020100F08CFC02460B463046394600F0D4FA0134A24506460F46ECDA029BABF1080B03EBC903C3E900676B
:4042400072AB5B4509F10109D2D1A69BDDF818B0DDF808A0032B00F28380DFE813F0D100950095000400BBF1000F40F35481049BCDF808B053449846D3E90067D34658E9C2
:40428000029A32463B464846514600F0A1FA04460D4602460B464846514600F097FA32463B4600F095FAC8E9000168E90245C34526462F46E3D1DA46DDF808B0BBF1010F15
:4042C00040F32981049B0DF59C7B53449846D3E90067994659E902343046CDE902341A463946234600F074FA04460D4602460B46DDE9020100F06AFA32463B4600F068FA94
:40430000C9E9000169E90245CB4526462F46E1D100231D4608F1080850AC184678E90223294600F055FA444503460D46F5D1019A002A00F0D880DAF80440DAF80C200A9FBC
:40434000DAF80010DAF8080005F1004504F1004402F100427D613B617C60FA603960B860059B03F007000DF51D7DBDE8F08F00BF00000040FB21F93F0000F03F0000E03F7C
:404380000000703EE873000000242146049D0835554475E90223204600F01AFA55450446F7D1019B002B50D00A9F01F100450B46DAE9000187E83000224600F007FABBF1D9
:4043C000000F03460D460DDD01241846FAE90223294600F0FDF90134A34503460D46F4DA019A0AB105F10045184629460A9BC3E90201059B03F007000DF51D7DBDE8F08FB5
:4044000000231C46049A0832924418467AE90223214600F0DDF90BF1FF3BBBF1FF3F03460C46F2D1019A0AB104F10044184621460A9BC3E90001059B03F007000DF51D7DDC
:40444000BDE8F08F00260027F3E626460F4622460A9C0B46DAE90001C4E9006700F0B6F9BBF1000F03460D46AEDC184629460A9BC3E90201BDE7089B30465A423946CDF8BC
:404480001490CDF8048000F023F900222C4B06460F4600F0D5FD002840D00022294B3046394600F047FB00F0F5FD044600F0DCFA0022234B00F03EFB0B46024639463046D9
:4044C00000F084F900F0E6FD089B05F1010B1833089310AB43F8250043F82B4050E6012393E500244EE51846DAE90067DAE9022329460A9DC5E90067C5E90401C5E90223E6
:404500002EE7A69B032B3FF62BAFDFE803F0151010020DF5987A00231D4608E73046394600F0B8FD10ABAB4643F8250028E6002421460DF5987A34E700231C4672E700BF63
:40454000000070410000703E2DE9F04F21F00046B6F1795F85B00C4690469946054604DA00F098FD002800F085802A4623462846214600F0DFFA06460F4602460B4628468B
:40458000214600F0D7FA3EA3D3E9002382468B463046394600F0CEFA3BA3D3E9002300F015F932463B4600F0C5FA39A3D3E9002300F00EF932463B4600F0BCFA36A3D3E984
:4045C000002300F003F932463B4600F0B3FA34A3D3E9002300F0FCF80E9BCDE900019BB30022334B4046494600F0A4FADDE90023CDE902015046594600F09CFA02460B4695
:40460000DDE9020100F0E2F832463B4600F092FA42464B4600F0DAF823A3D3E9002306460F465046594600F085FA02460B463046394600F0CDF802460B462846214600F00C
:40464000C5F805B0BDE8F08F02460B463046394600F070FA14A3D3E9002300F0B7F852465B4600F067FA2A46234600F0B1F805B0BDE8F08F2846214605B0BDE8F08F00BF45
:404680007CD5CF5A3AD9E53DEB9C2B8AE6E55A3E7DFEB157E31DC73ED561C119A0012A3FA6F810111111813F495555555555C53F0000E03F21F00041704700BF00207047B5
:4046C00000200149704700BF0000F87F00000000F8B5C1F30A5604460D460B46174606BB21F00043034325D000222F4B00F022FA2E4A044697420D460B462ADBC1F30A5607
:40470000363E40F2FE723E44964228DC002E12DD23F0FF4323F4E00343EA065520462946F8BD40F2FF729642EBD102460B4600F04FF8F8BDF8BD16F1350F1DDA4CF2503313
:404740009F420CDC14A1D1E9000122462B4600F031F811A3D3E9002300F0ECF9F8BD22460FA1D1E900012B4600F024F80CA3D3E9002300F0DFF9F8BD23F0FF4323F4E00347
:40478000363643EA0655204629460022084B00F0D1F9F8BDAFF3008059F3F8C21F6EA5019C7500883CE4377E00005043B03CFFFF0000903C03F0004321F0004242EA030181
:4047C000704700BF81F0004102E000BF83F0004330B54FEA41044FEA430594EA050F08BF90EA020F1FBF54EA000C55EA020C7FEA645C7FEA655C00F0E2804FEA5454D4EBB8
:404800005555B8BF6D420CDD2C4480EA020281EA030382EA000083EA010180EA020281EA0303362D88BF30BD11F0004F4FEA01314FF4801C4CEA113102D0404261EB41012B
:4048400013F0004F4FEA03334CEA133302D0524263EB430394EA050F00F0A780A4F10104D5F1200E0DDB02FA0EFC22FA05F2801841F1000103FA0EF2801843FA05F359419A
:404880000EE0A5F120050EF1200E012A03FA0EFC28BF4CF0020C43FA05F3C01851EBE37101F0004507D54FF0000EDCF1000C7EEB00006EEB0101B1F5801F1BD3B1F5001F2E
:4048C0000CD349085FEA30004FEA3C0C04F101044FEA445212F5800F80F09A80BCF1004F08BF5FEA500C50F1000041EB045141EA050130BD5FEA4C0C404141EB010111F408
:40490000801FA4F10104E9D191F0000F04BF01460020B1FA81F308BF2033A3F10B03B3F120020CDA0C3208DD02F1140CC2F10C0201FA0CF021FA02F10CE002F11402D8BFBB
:40494000C2F1200C01FA02F120FA0CFCDCBF41EA0C019040E41AA2BF01EB0451294330BD6FEA04041F3C1CDA0C340EDC04F11404C4F1200220FA04F001FA02F340EA0300C1
:4049800021FA04F345EA030130BDC4F10C04C4F1200220FA02F001FA04F340EA0300294630BD21FA04F0294630BD94F0000F83F4801306BF81F480110134013D4EE77FEABE
:4049C000645C18BF7FEA655C29D094EA050F08BF90EA020F05D054EA000C04BF1946104630BD91EA030F1EBF0021002030BD5FEA545C05D14000494128BF41F0004130BD1E
:404A000014F580043CBF01F5801130BD01F0004545F0FE4141F470014FF0000030BD7FEA645C1ABF194610467FEA655C1CBF0B46024650EA013406BF52EA033591EA030F74
:404A400041F4002130BD00BF90F0000F04BF0021704730B54FF4806404F132044FF000054FF0000150E700BF90F0000F04BF0021704730B54FF4806404F1320410F00045B3
:404A800048BF40424FF000013EE700BF42004FEAE2014FEA31014FEA02701FBF12F07F4393F07F4F81F06051704792F0000F14BF93F07F4F704730B54FF4607401F000456B
:404AC00021F0004120E700BF50EA010208BF704730B54FF000050AE050EA010208BF704730B511F0004502D5404261EB41014FF4806404F132045FEA915C3FF4DCAE4FF07F
:404B000003025FEADC0C18BF03325FEADC0C18BF033202EBDC02C2F1200300FA03FC20FA02F001FA03FE40EA0E0021FA02F11444C1E600BF70B54FF0FF0C4CF4E06C1CEA4F
:404B400011541DBF1CEA135594EA0C0F95EA0C0F00F0DEF82C4481EA030621EA4C5123EA4C5350EA013518BF52EA033541F4801143F4801338D0A0FB02CE4FF00005E1FB77
:404B800002E506F00042E0FB03E54FF00006E1FB03569CF0000F18BF4EF0010EA4F1FF04B6F5007F64F5407404D25FEA4E0E6D4146EB060642EAC62141EA55514FEAC520A3
:404BC00040EA5E504FEACE2EB4F1FD0C88BFBCF5E06F1ED8BEF1004F08BF5FEA500E50F1000041EB045170BD06F0004646EA010140EA020081EA0301B4EB5C04C2BFD4EB1A
:404C00000C0541EA045170BD41F480114FF0000E013C00F3AB8014F1360FDEBF002001F0004170BDC4F10004203C35DA0C341BDC04F11404C4F1200500FA05F320FA04F0A0
:404C400001FA05F240EA020001F0004221F0004110EBD37021FA04F642EB06015EEA430E08BF20EAD37070BDC4F10C04C4F1200500FA04F320FA05F001FA04F240EA020074
:404C800001F0004110EBD37041F100015EEA430E08BF20EAD37070BDC4F1200500FA05F24EEA020E20FA04F301FA05F243EA020321FA04F001F0004121FA04F220EA0200D1
:404CC00000EBD3705EEA430E08BF20EAD37070BD94F0000F0FD101F00046400041EB010111F4801F08BF013CF7D041EA060195F0000F18BF704703F00046520043EB030312
:404D000013F4801F08BF013DF7D043EA0603704794EA0C0F0CEA135518BF95EA0C0F0CD050EA410618BF52EA4306D1D181EA030101F000414FF0000070BD50EA410606BFFE
:404D40001046194652EA430619D094EA0C0F02D150EA013613D195EA0C0F05D152EA03361CBF104619460AD181EA030101F0004141F0FE4141F470014FF0000070BD41F0AB
:404D8000FE4141F4780170BD70B54FF0FF0C4CF4E06C1CEA11541DBF1CEA135594EA0C0F95EA0C0F00F0A7F8A4EB050481EA030E52EA03354FEA013100F088804FEA03330D
:404DC0004FF0805545EA131343EA12634FEA022245EA111545EA10654FEA00260EF000419D4208BF964244F1FD0404F5407402D25B084FEA3202B61A65EB03055B084FEAEB
:404E000032024FF480104FF4002CB6EB020E75EB030E22BFB61A754640EA0C005B084FEA3202B6EB020E75EB030E22BFB61A754640EA5C005B084FEA3202B6EB020E75EB73
:404E4000030E22BFB61A754640EA9C005B084FEA3202B6EB020E75EB030E22BFB61A754640EADC0055EA060E18D04FEA051545EA16754FEA06164FEAC30343EA52734FEAC4
:404E8000C2025FEA1C1CC0D111F4801F0BD141EA00014FF000004FF0004CB6E711F4801F04BF01430020B4F1FD0C88BFBCF5E06F3FF6AFAEB5EB030C04BFB6EB020C5FEA4D
:404EC000500C50F1000041EB045170BD0EF0004E4EEA113114EB5C04C2BFD4EB0C0541EA045170BD41F480114FF0000E013C90E645EA060E8DE60CEA135594EA0C0F08BF0A
:404F000095EA0C0F3FF43BAF94EA0C0F0AD150EA01347FF434AF95EA0C0F7FF425AF104619462CE795EA0C0F06D152EA03353FF4FDAE1046194622E750EA410618BF52EAC3
:404F400043067FF4C5AE50EA41047FF40DAF52EA43057FF4EBAE12E74FF0FF3C06E000BF4FF0010C02E000BF4FF0010C4DF804CD4FEA410C7FEA6C5C4FEA430C18BF7FEADE
:404F80006C5C1BD001B050EA410C0CBF52EA430C91EA030F02BF90EA020F0020704710F1000F91EA030F58BF994208BF90422CBFD8176FEAE37040F0010070474FEA410CE4
:404FC0007FEA6C5C02D150EA013C07D14FEA430C7FEA6C5CD6D152EA033CD3D05DF8040B704700BF8446104662468C461946634600E000BF01B5FFF7B7FF002848BF10F133
:40500000000F01BD4DF808EDFFF7F4FF0CBF012000205DF808FB00BF4DF808EDFFF7EAFF34BF012000205DF808FB00BF4DF808EDFFF7E0FF94BF012000205DF808FB00BF3F
:405040004DF808EDFFF7CEFF94BF012000205DF808FB00BF4DF808EDFFF7C4FF34BF012000205DF808FB00BF4FEA410C7FEA6C5C02D150EA013C0AD14FEA430C7FEA6C5CB5
:4050800002D152EA033C02D14FF0000070474FF0010070474FEA410212F5001215D211D56FF47873B3EB625212D94FEAC12343F0004343EA505311F0004F23FA02F018BF5C
:4050C000404270474FF00000704750EA013005D111F0004008BF6FF0004070474FF00000704700BF4A0011D212F5001211D20DD56FF47873B3EB62520ED44FEAC12343F050
:40510000004343EA505323FA02F070474FF00000704750EA013002D14FF0FF3070474FF0000070474FEA4102B2F1E04324BFB3F5001CDCF1FE5C0DD901F0004C4FEAC00219
:405140004CEA5070B2F1004F40EB830008BF20F00100704711F0804F21D113F13872BCBF01F00040704741F480114FEA5252C2F11802C2F1200C10FA0CF320FA02F018BFFC
:4051800040F001004FEAC1234FEAD32303FA0CFC40EA0C0023FA02F34FEA4303CCE77FEA625307D150EA01331EBF4FF0FE4040F44000704701F0004040F0FE4040F4000037
:4051C000704700BF80F0004002E000BF81F0004142001FBF5FEA410392EA030F7FEA226C7FEA236C6AD04FEA1262D2EB1363C1BFD218414048404140B8BF5B42192B88BF5F
:40520000704710F0004F40F4000020F07F4018BF404211F0004F41F4000121F07F4118BF494292EA030F3FD0A2F1010241FA03FC10EB0C00C3F1200301FA03F100F00043E6
:4052400002D5494260EB4000B0F5000F13D3B0F1807F06D340084FEA310102F10102FE2A51D2B1F1004F40EBC25008BF20F0010040EA03007047490040EB000010F4000FC9
:40528000A2F10102EDD1B0FA80FCACF1080CB2EB0C0200FA0CF0AABF00EBC25052421843BCBFD0401843704792F0000F81F4000106BF80F400000132013BB5E74FEA410368
:4052C0007FEA226C18BF7FEA236C21D092EA030F04D092F0000F08BF0846704790EA010F1CBF0020704712F07F4F04D1400028BF40F00040704712F100723CBF00F50000A4
:40530000704700F0004343F0FE4040F4000070477FEA226216BF08467FEA23630146420206BF5FEA412390EA010F40F4800070474FF0000304E000BF10F0004348BF404285
:405340005FEA000C08BF704743F0964301464FF000001CE050EA010208BF70474FF000030AE000BF50EA010208BF704711F0004302D5404261EB41015FEA010C02BF84465F
:405380000146002043F0B64308BFA3F18053A3F50003BCFA8CF2083AA3EBC25310DB01FA02FC634400FA02FCC2F12002BCF1004F20FA02F243EB020008BF20F00100704757
:4053C00002F1200201FA02FCC2F1200250EA4C0021FA02F243EB020008BF20EADC7070474FF0FF0C1CEAD0521EBF1CEAD15392EA0C0F93EA0C0F6FD01A4480EA010C400233
:4054000018BF5FEA41211ED04FF0006343EA501043EA5111A0FB01310CF00040B1F5000F3EBF490041EAD3715B0040EA010062F17F02FD2A1DD8B3F1004F40EBC25008BF5E
:4054400020F00100704790F0000F0CF0004C08BF49024CEA502040EA51207F3AC2BFD2F1FF0340EAC250704740F400004FF00003013A5DDC12F1190FDCBF00F000407047B1
:40548000C2F10002410021FA02F1C2F1200200FA02FC5FEA310040F1000053EA4C0308BF20EADC70704792F0000F00F0004C02BF400010F4000F013AF9D040EA0C0093F072
:4054C000000F01F0004C02BF490011F4000F013BF9D041EA0C018FE70CEAD15392EA0C0F18BF93EA0C0F0AD030F0004C18BF31F0004CD8D180EA010000F00040704790F06A
:40550000000F17BF90F0004F084691F0000F91F0004F14D092EA0C0F01D142020FD193EA0C0F03D14B0218BF084608D180EA010000F0004040F0FE4040F40000704740F0BD
:40554000FE4040F4400070474FF0FF0C1CEAD0521EBF1CEAD15392EA0C0F93EA0C0F69D0A2EB030280EA010C49024FEA402037D04FF0805343EA111143EA10130CF0004000
:405580008B4238BF5B0042F17D024FF4000C8B4224BF5B1A40EA0C00B3EB510F24BFA3EB510340EA5C00B3EB910F24BFA3EB910340EA9C00B3EBD10F24BFA3EBD10340EA31
:4055C000DC001B0118BF5FEA1C1CE0D1FD2A3FF650AF8B4240EBC25008BF20F0010070470CF0004C4CEA50207F32C2BFD2F1FF0340EAC250704740F400004FF00003013A2D
:4056000037E792F0000F00F0004C02BF400010F4000F013AF9D040EA0C0093F0000F01F0004C02BF490011F4000F013BF9D041EA0C0195E70CEAD15392EA0C0F08D14202BD
:405640007FF47DAF93EA0C0F7FF470AF084676E793EA0C0F04D14B023FF44CAF08466EE730F0004C18BF31F0004CCAD130F000427FF45CAF31F000437FF43CAF5FE700BF39
:405680004FF0FF3C06E000BF4FF0010C02E000BF4FF0010C4DF804CD4FEA40024FEA41037FEA226C18BF7FEA236C11D001B052EA530C18BF90EA010F58BFB2EB030088BF32
:4056C000C81738BF6FEAE17018BF40F0010070477FEA226C02D15FEA402C05D17FEA236CE4D15FEA412CE1D05DF8040B704700BF844608466146FFE70FB5FFF7C9FF0028D9
:4057000048BF10F1000F0FBD4DF808EDFFF7F4FF0CBF012000205DF808FB00BF4DF808EDFFF7EAFF34BF012000205DF808FB00BF4DF808EDFFF7E0FF94BF012000205DF8E4
:4057400008FB00BF4DF808EDFFF7D2FF94BF012000205DF808FB00BF4DF808EDFFF7C8FF34BF012000205DF808FB00BF4FEA4002B2F1FE4F0FD34FF09E03B3EB12620DD954
:405780004FEA002343F0004310F0004F23FA02F018BF404270474FF00000704712F1610F01D1420205D110F0004008BF6FF0004070474FF000007047014B1868704700BFBF
:4057C0004881FF1F0E4B70B51E460E4C0025E41AA410A54204D056F8253098470135F8E701F0BAFE084B094C1E46E41AA4100025A54204D056F8253098470135F8E770BD52
:405800006475000064750000647500006C75000010B5431E0A44914204D011F8014B03F8014FF8E710BD03460244934202D003F8011BFAE770472DE9F04788B0149F002B4D
:405840001E461299B8BF03F1004327F02007B6BF1E4600232D23462F1446109DDDF84CA00B7003D0452F03D1013501E0032300E0022307AA049206AA03928DE82804224637
:40588000334600F0B9FB472F804602D1119BDB0728D5462F08EB050911D198F80030302B0AD10022002320463146FFF7ABFB18B9C5F10105CAF80050DAF800309944002285
:4058C000002320463146FFF79DFB08B9302202E0CDF81C9006E0079B994503D9591C07911A70F8E74046079B159AC8EB0303136008B0BDE8F087034673B50029B8BF494289
:4059000003F8022BB4BF2D222B22092942701ADD0DF1070216460A2591FBF5F405FB1411092C01F1300102F8011D2146F4DC3031541E02F8011CB4421A460AD214F8012B2E
:4059400003F8012BF7E71A463024214402F8024B5970101A02B070BD2DE9F04F91B00C46DDF8688016461F46054601F0DDF803681846099300F0AAFA00230E93D8F80030BC
:405980000A90073323F0070303F1080294F81890D4F800B0C8F80020D3E90023C4E91223D4F84CA0D4F848802AF000430B934FF0FF32A74B40460B99FFF756FBA0B94FF0F5
:4059C000FF32A34B40460B99FFF730FB60B90022002340465146FFF71FFB10B12D2384F843309C4B9C4A0AE04246534640465146FFF73AFB002800F09281984B984AB9F1F8
:405A0000470F8CBF90469846032323612BF0040323604FF0000A3DE0B9F1670F00F08A81B9F1470F00F0868123600193636800210DF13302059002920093424653460691A0
:405A4000CDF81090CDF80CE02846FFF7F4FE09F0DF03472B804600F08481B9F1650F0D9900F28D8101394A4604F150000D91FFF742FF0E9A82468318012A236100F37C8160
:405A80002268D10700F178819DF8333013B12D2384F84330009733460FAA2146284600F09FF9013002D14FF0FF3096E123685A0501D4236965E0B9F1650F40F2D580D4E99E
:405AC000120100220023FFF79DFA78B30123654A31462846B8470130E5D00E9B0D9A9A420BDB2368D80708D423689B0740F111814FF0000804F1190906E10A9B099A3146AD
:405B00002846B8470130CED04FF0000804F11A090E9B013B9845E7DA01234A4631462846B8470130BFD008F10108F1E70D9B002B29DC01234B4A31462846B8470130B2D0ED
:405B40000D9B23B90E9B13B92368D907CCD50A9B099A31462846B8470130A4D04FF0000904F11A0A0D9B5B42994509DA0123524631462846B847013095D009F10109F1E7D6
:405B80000E9B4246A7E00E9AA36D9A42A8BF1A46002A914606DC4FF0000A29EAE97904F11A0B11E01346314642462846B8470130F1D178E701235A4631462846B847013036
:405BC0003FF471AF0AF1010AA36DC9EB03029245F0DB08EB03090D9A0E9B9A420FDB2368DA070CD40E9B0D9A9844C9EB08089B1A9845A8BF9846B8F1000F08DC0FE00A9B89
:405C0000099A31462846B8470130EBD14BE743464A4631462846B84701303FF444AF4FF0000928EAE87804F11A0A09E00123524631462846B84701303FF435AF09F10109C2
:405C40000D9A0E9B9B1AC8EB03039945EEDB4BE7FFFFEF7F2A7400002E74000032740000367400003A7400000E9A012A01DCDB0738D50123424631462846B84701303FF450
:405C800012AF0A9B099A31462846B84701303FF40AAFD4E9120100220023FFF7B3F920B14FF0000804F11A090EE00E9B08F10102013B19E001234A4631462846B847013062
:405CC0003FF4F1AE08F101080E9B013B9845F1DB534604F1500231462846B84701307FF403AFE0E64246012331462846B8470130EED1D8E601234A4631462846B84701305B
:405D00003FF4D1AE08F10108E3680F9A9B1A9845F0DBE0680F9B9842B8BF18465DE062680EA8531C0DF1340E4BF480637FF474AE062201E012B90122626075E600210691CE
:405D40000DF133018DE80C00236005904246CDF81090CDF80CE0029153462846FFF76BFD80460D9BD81C02DB626893421DDDA9F102095FFA89F970E60133236184E6B9F148
:405D8000660F14D10029636807DD216113B92268D2071DD501330B4419E013B92268D00701D5023313E0012311E04FF067090D9B0E9A934205DB22682361D10708D50133A7
:405DC00005E0002BD4BFC3F102030123134423610D9B4FF0000AA36556E611B0BDE8F08F2DE9F04791461F460A698B6806469342B8BF1346C9F8003091F843200C46DDF84A
:405E0000208012B10133C9F800302368990642BFD9F800300233C9F80030256815F0060510D104F1190A07E00123524639463046C04701301AD00135E368D9F800209B1A11
:405E40009D42F1DB94F843302268003318BF012392060FD5E118302081F843005A1C94F845102244023382F8431003E04FF0FF30BDE8F08704F1430239463046C0470130AC
:405E8000F4D02268D9F80050E36802F00602042A08BF5D1B2269A3680CBF25EAE57500259342C4BF9B1AED184FF000091A344D4509D00123224639463046C0470130D5D061
:405EC00009F10109F3E70020BDE8F087034613F8012B002AFBD1181A013870472DE9F74F03690C6980469C427FDC013C01F114074FEA840E00F1140606EB0E0357F82450CF
:405F0000019356F824300135B3FBF5F507EB0E09C5B34FF0000A3846B446D34650F8043B9AB205FB02A21B0C4FEA124A05FB03A392B2C2EB0B0BBCF800204FEA134A5A441A
:405F40001FFA83FBDCF800308145CBEB134303EB224392B242EA03424FEA234B4CF8042BDCD256F80E306BB9019B043B9E421A4602D3C8F8104005E01268043B002AF8D1A3
:405F8000013CF3E7404600F0E8FF00282BDB304601354FF0000E57F8042B036891B2C1EB0E0E120C99B27144C2EB134303EB214389B24FEA234EB94541EA034340F8043B14
:405FC000E9D256F8242006EB840362B9043B9E421A4602D3C8F8104005E01268043B002AF8D1013CF3E7284600E0002003B0BDE8F08F0000000000002DE9F04F456A95B027
:406000008246219CCDE9022345B9102000F090FDCAF82400456085600560C560DAF82430196859B15A68012393404A608B60504600F0BBFDDAF8243000221A60039BA04AD4
:40604000002BBDBF01232360039B0023BCBF23F000430393DDF80C80A8BF236028F000431B0D1B0593421DD142F20F73209A1360029B43B9934A944BC8F31300002814BFF8
:406080001846104600E09048229B002B00F04685C37813B100F1080300E0C31C229A136000F03CBDDDE902450022002320462946FEF7A8FF074658B1209A01231360229BD8
:4060C000002B00F01E8581481860013800F026BD12AB019313AB009322462B46504600F0B7FFC8F30A56049056B1C5F3130343F07F51204641F44011A6F2FF3611971DE0F9
:40610000139B129E1E4406F23243202B0ADD029A06F21240C3F1400322FA00F008FA03F3184304E0C3F12000029B03FA00F0FEF78BFC0123A1F1F871013E11930022644B33
:40614000FEF744FB58A3D3E90023FEF7F3FC58A3D3E90023FEF73CFB044630460D46FEF783FC55A3D3E90023FEF7E4FC02460B4620462946FEF72CFB04460D46FEF78AFF4F
:4061800000228346002320462946FEF745FF58B15846FEF769FC02460B4620462946FEF731FF08B90BF1FF3BBBF1160F0DD8DDE90223484901EBCB01D1E90001FEF74AFF55
:4061C00030B10BF1FF3B002300E00123109300E01090129B9E1B731E079343BFC3F10008002307934FF00008BBF1000F06DB079BCDF82CB05B440793002705E00023CBEBEE
:406200000808CBF100070B931E9B092B28D8052BC4BF043B1E931E9BC8BF0025A3F10203D8BF0125032B20D8DFE803F0060E0204012302E0012308E000230A931F9B002BF1
:406240001DDD9946059321E000230A931F9B0BEB030909F10103012B0593B8BF012315E0012500231E930A9501E001230A934FF0FF390022CDF8149012231F9206E04FF096
:4062800001094B46CDF81490CDF87C90DAF8244000226260042101F114029A421CD86268490001326260F6E761436F63A787D23FB3C8608B288AC63FFB799F501344D33F6F
:4062C0000000F07F3C740000457400003B7400000000F83F587400006168504600F030FCDAF8243020601B680693059B0E2B00F25B81002D00F05881DDE90234BBF1000F83
:40630000CDE90E3430DD9F4A0BF00F034FEA2B1502EBC303E80618CBCDE908340CD5DDE90E01994B05F00F05D3E90823FEF72CFD0324CDE9020100E00224934E6DB1E907F6
:4063400008D5DDE90801D6E90023FEF7F3FBCDE9080101346D100836F0E7DDE90823DDE90201FEF711FD20E0CBF1000505B3DDE90E01844B05F00F0203EBC203D3E90023B4
:40638000FEF7D8FBCDE902017F4E2D110023022455B1EA0705D5D6E90023FEF7CBFB013401236D100836F3E71BB1CDE9020100E00224109BE3B1DDE902560022734B284676
:4063C0003146FEF729FE98B1059B8BB1B9F1000F40F3E6800BF1FF330893314600226C4B2846FEF7A7FB0134CDE902014E4602E0059ECDF820B02046FEF736FBDDE9022362
:40640000FEF798FB634B0022FEF7E2F9A1F1507304460C931D46D6B9DDE9020100225E4BFEF7D4F922460C9BCDE90201FEF712FE002840F03F820C99224601F10043DDE9C0
:406440000201FEF7E9FD002840F02B82A8E00A9A4C4B711E002A49D003EBC103D3E9002300204E49FEF790FC22462B46FEF7AEF9CDE90C01069CDDE90201FEF70BFE0546EF
:40648000FEF7F2FA02460B46DDE90201FEF79EF9DDE90C23303504F8015BCDE90201FEF7BBFD002840F01D83DDE9022300203749FEF78CF9DDE90C23FEF7AEFD002840F00B
:4064C000D180069BE31AB3426ADADDE90C0100222F4BFEF72FFB0022CDE90C01DDE902012B4BFEF727FBCDE90201C4E703EBC1012246D1E900012B46FEF71CFB069BCDE9A0
:406500000C011D469C19DDE90201FEF7C3FD0646FEF7AAFA02460B46DDE90201FEF756F9303605F8016BAC42CDE902014FF0000222D11A4BDDE90C01FEF74AF902460B467A
:40654000DDE90201FEF786FD002840F08B80DDE90C2300201149FEF739F902460B46DDE90201FEF759FDD8B114F8013C621E302B40F0B7821446F7E7054BFEF7DBFACDE916
:406580000201C0E758740000307500000000F03F0000244000001C40000014400000E03FDDE90E34CDE90234139B002B7CDBBBF10E0F79DCAB4B03EBCB03D3E900671F9B8D
:4065C000002B14DA059B002B11DC40F06C810022A54B30463946FEF7ADFADDE90223FEF72FFD059D2E46002840F05F8165E1069CDDE9028932463B4640464946FEF7C4FBB5
:40660000FEF748FD0546FEF72FFA32463B46FEF791FA0B46024649464046FEF7D7F805F1300E069B04F801EBC3EB040E059B73452DD102460B46FEF7CBF8804689460246CB
:406640000B4630463946FEF7E7FC78B942464B4630463946FEF7D6FC002800F04482EB0704D440E2DDF820B000E01C4614F8012C631E392A07D1069A9A42F6D1069930221C
:406680000BF1010B0A701A7801321A702BE20022764BFEF74FFA0022002380468946FEF7B1FC0028A6D01EE20A9A002A2BD01E9A012A0ADC119A12B103F2334302E0129BC7
:4066C000C3F136033D46444613E0059B5D1EAF42BFBF0B9BEA1B9B180B93059BB6BF2F467D1B0025002BA7BF4446059BC3EB08040023079A01211A4450469844079200F02C
:40670000F3FA064602E03D4644460A9E5CB1079B002B08DDA342A8BF2346079AC3EB0808E41AD31A0793002F1DDD0A9BABB18DB131462A46504600F071FB049A01460646BF
:40674000504600F0DAFA04990890504600F02DFA089B04937A1B06D000E03A460499504600F05CFB04900121504600F0BDFA0B9B05465BB31A460146504600F04FFB1E9B3C
:406780000546012B18DC029B83B9039BC3F3130373B9039B23F000473F0D3F054FB1079B08F1010801330793012702E0002700E0029F0B9B73B100E000272B6905EB830378
:4067C000186900F044FAC0F1200004E01E9B012BD9DD0B9F0120079B184410F01F0008D0C0F12003042B02DDC0F11C0002E006D018461C30079B8044034404440793B8F191
:40680000000F05DD42460499504600F055FB0490079B002B05DD29461A46504600F04CFB0546109B23B32946049800F096FB00281EDA00230A220499504600F0CDF90A9B38
:406840000BF1FF3B0490002B00F05F81314600230A22504600F0C0F9B9F1000F06463FDC3BE000BF587400000000144000002440059B002B2BDC1E9B022B28DDDDF814909A
:40688000B9F1000F11D129464B460522504600F0A3F901460546049800F05FFB00280CDC03E0354600E000252E461F9B069C6FEA030B09E03546DDF820B0069B069A5C1C10
:4068C000312313700BF1010B05960026F7E00A9BDDF8149023B9069CB2E01E9B022BCFDC002C05DD31462246504600F0E5FA06469FB17168504600F023F90446326906F11D
:406900000C01023292000C30FEF782FF01222146504600F0D1FA059000E00596029B069F03F00103079329460498FFF7D7FA3146044600F13008049800F00FFB059A029091
:406940002946504600F025FBC36802463BB901460A90049800F001FB0A9A034600E00123114650460A9300F020F90A9B53B91E9A42B9079A32B9B8F1390F2AD0029B002B0B
:406980001CDC1DE0029A002A04DB1BD11E9ACAB9079ABAB9002B13DD01220499504600F08BFA2946049000F0D8FA002803DC07D118F0010F04D0B8F1390F0AD004F1310893
:4069C0007C1C0CE0002B07F101040BDDB8F1390F03D139233B70013756E008F1010887F800806CE0069B2746E31A4B4504F8018C3BD000230A220499504600F0EDF8059B56
:406A000004909E424FF00A024FF000033146504604D100F0E1F80646059084E700F0DCF8002306460A220599504600F0D5F8059079E700230A220499504600F0CDF804904E
:406A400029460498FFF74AFA069B00F1300804F8018BE31A4B45ECDB069B0596B9F1010FACBF4B4401331F46002601220499504600F022FA2946049000F06FFA002803DCB7
:406A800015D118F0010F12D03C4614F8013C621E392B09D1069B934204D10BF1010B3123069A02E01446F0E70133137007E03C4614F8013C621E302B01D11446F8E7294655
:406AC000504600F072F8059B6BB12EB19E4203D03146504600F069F80599504600F065F801E0DDF820B00499504600F05EF80023209A23700BF101031360229B1BB11C6092
:406B000001E008480AE0069808E0B9F1000F3FF7E2AE1E9B022B7FF7DEAEB1E615B0BDE8F08F00BF3A740000004870474C81FF1F024B0146186800F0E7BA00BF4881FF1F2B
:406B400070B5456A04460E463DB91020FFF7F0FF6062456085600560C560656AEB6843B1636ADB6853F8260078B1026843F8262017E021220421204600F0B8FA636AE8609B
:406B8000DB68002BECD1002070BD012101FA06F56A1D9200204600F0A9FA0028F3D04660856000230361C36070BD70B5446A06460D463CB91020FFF7BBFF70624460846045
:406BC0000460C4603DB1736A6A68DB6853F82210296043F8225070BD2DE9F04106460C460D691F4601F1140E0023DEF80000013381B202FB0171000C0F0C02FB007089B2DB
:406C000001EB00419D424FEA10474EF8041BECDCD7B1A3689D4212DB616830460131FFF78FFF8046226904F10C01023292000C30FEF7EEFD21463046FFF7B7FF444604EB00
:406C4000850301355F6125612046BDE8F081030C1B0413B90004102300E0002310F07F4F04BF0002083310F0704F04BF0001043310F0404F04BF80000233002803DB420089
:406C800003D5581C70471846704720207047036813F007020BD0D90722D49A074BBF5B089B08036003604CBF01200220704799B209B91B0C102213F0FF0F04BF1B0A083288
:406CC000190704BF1B090432990704BF9B080232D90702D45B0805D00132036010467047002070472020704710B50C460121FFF727FF01224461026110BD2DE9F74F1446BB
:406D00000A69236988469A42BEBF0B46A0461C46D8F81070D4F81090D8F80830D8F8041007EB09069E42C8BF0131FFF709FF00F114052B4605EB860C0022634502D243F87E
:406D4000042BFAE704F1140208F1140102EB890301EB87070093009B0192934257D9B2F800B0BBF1000F23D08946AE464FF0000859F8044BBEF800A0A3B20BFB03A34FEAEF
:406D8000144ADEF8004043444FEA14480BFB0A84F24604EB13449BB243EA04434F454FEA14484AF8043B01D9D646E1E7CEF80480019B0432B3F802A0BAF1000F21D02C4682
:406DC00089462B684FF00008B9F800E0B4F802B09BB20AFB0EBEA346F04443EA08434BF8043B59F8043BB4F804E01B0C0AFB03E34F4503EB18434FEA134801D95C46E3E7DD
:406E000063600435A7E75CF8043D13B9013E002EF9DC066103B0BDE8F08F00002DE9F843154612F0030206460F4607D0214C013A002354F82220FFF7CFFE0746AD1036D090
:406E4000746A3CB91020FFF773FE7062446084600460C460D6F82480D8F808404CB940F271213046FFF740FF04460023C8F8080003604FF00008EB070AD5394622463046BB
:406E8000FFF73BFF814639463046FFF78EFE4F466D100CD0206808B10446ECE7224621463046FFF72AFF2060C0F80080F4E73846BDE8F883207500002DE9F0470C46074602
:406EC000914626694FEA621A56444968A368751CAB4202DA01315B00FAE73846FFF730FE002380461A4600F11401534503DA41F823200133F9E72AEAEA73206901EB8303F7
:406F000019F01F0904F1140101EB800E14D0C9F1200C002208689A4600FA09F0024343F8042B51F8042B8E4522FA0CF2F2D8CAF8042042B1B51C06E0043B51F8042B8E4575
:406F400043F8042FF9D8013D3846C8F810502146FFF72BFE4046BDE8F08703690A6910B59B1A11D192001430143183180A4453F8044D52F8041D8C4202D007D3012010BD20
:406F80009842F4D3002010BD184610BD4FF0FF3010BD2DE9F8430C460746114620461546FFF7DBFF061E08D131463846FFF7C8FD012303614661BDE8F883BCBF23462C46B3
:406FC00038466168BABF1D4601260026FFF7B8FD2B69C660266905F1140904F1140101EB860709EB830800F114054FF0000C51F8042B59F8044B93B29C44A3B2240CC3EB53
:407000000C03C4EB124202EB23429BB24FEA224CC84543EA02428E4645F8042BE7D8BE450ED25EF8041B8AB26244131403EB114392B242EA03424FEA234C45F8042BEEE73A
:4070400055F8043D0BB9013EFAE70661BDE8F8832DE9F3411C4601219046089E099DFFF76FFDC4F31302C4F30A5407460CB142F480120192B8F1000F19D002A840F8088D67
:40708000FFF705FE009B48B1019AC0F1200102FA01F10B43C2407B61019200E07B61019B002B14BF02210121BB61396107E001A8FFF7EDFD019B01217B613961203034B1FF
:4070C000A4F2334404443460C0F1350009E0A0F2324007EB810330601869FFF7B8FDC0EB41102860384602B0BDE8F08138B502FB01F4214600F008F8054618B12246002105
:40710000FEF791FB284638BD70B5CD1C25F0030508350C2D38BF0C25002D064601DBA94202D90C23336046E000F05CF8234B1C681A462146A1B10B685B1B0ED40B2B03D973
:407140000B60CC18CD501EE08C420BBF63684B681360636018BF0C4615E00C464968E9E7174C23681BB9304600F02CF820602946304600F027F8431C18D0C41C24F0030466
:40718000A0420DD12560304600F02DF804F10B00231D20F00700C31A0ED05A42E25070BD211A304600F00EF80130EBD10C233360304600F018F8002070BD00BFD881FF1FA3
:4071C000D481FF1F38B5064C0023054608462360FAF744FB431C02D1236803B12B6038BDB093FF1F704770470000000000000000A4703D0AD70FAC407B14AE47E17A943FCF
:40720000000000005A0000005A0000005A00000040510040300000000140001000140140000800400140000A004C01400002105001401000185200409C11004807000050D0
