:400000000080002011000000E9290000E929000080B500AF024A034B1B68136002F018FDBC760040FA46004010B5054C237833B9044B13B10448AFF300800123237010BDDC
:400040008881FF1F00000000CC970000084B10B51BB108490848AFF300800848036803B910BD074B002BFBD0BDE81040184700BF000000008C81FF1FCC970000C880FF1FBC
:400080000000000098B500AF194B1C8802F082FE0346E31A9AB2174B1A80174B1B781846144B1B881946154A031D9B0013445960114B1B780133DAB20F4B1A700E4B1B78DF
:4000C000052B07D10E4A0D490E4801F05DFA0A4B00221A70084B1B78184603F0A5F802F03DFE40F6863002F09FFD00BF98BD00BFCC80FF1F3082FF1FA581FF1FA083FF1F9E
:400100002883FF1FD881FF1F2DE9F04F89B000AF03F0C4FB7861B84B1B6C7A69D31A3B61B54A7B691364386906F05AFFA6A3D3E9002306F0BBFF02460B4610461946A4A30A
:40014000D3E9002307F0DCF802460B4610461946A1A3D3E9002307F0D3F802460B46A649C1E9042303F0C4F87861A44B1B6C7A69D31A3B61A14A7B691364386906F030FFD3
:4001800091A3D3E9002306F091FF02460B46104619468FA3D3E9002307F0B2F802460B46104619468CA3D3E9002307F0A9F802460B469249C1E90423904BD3E904018F4BF7
:4001C000D3E90E2306F072FF02460B468B49C1E90623894BD3E90401874BD3E90E2306F065FF02460B468449C1E90623824BD3E90601824BD3E9062306F0A4FD02460B4612
:40020000104619467E4BD3E9002307F079F802460B467B49C1E90A23774BD3E90601774BD3E9062306F090FD02460B46104619464FF000024FF0804307F062F802460B469B
:400240006F49C1E908236E4BD3E902896C4BD3E90A015FA3D3E9002306F028FF02460B464046494606F070FD02460B461046194602F026F902460B466149C1E90223604B48
:40028000D3E904895E4BD3E9080151A3D3E9002306F00CFF02460B4692469B46584BD3E902231046194603F029FE02460B465046594606F0FBFE02460B464046494606F0AD
:4002C00043FD02460B464E49C1E904234C4BD3E906894B4BD3E908013DA3D3E9002306F0E5FE02460B4692469B46454BD3E902231046194603F0D4FE02460B4650465946DD
:4003000006F0D4FE02460B464046494606F01CFD02460B463A49C1E90623394BD3E90E01374BD3E9022306F00DFD02460B46C7E906232BA3D3E90023D7E9060107F046F97B
:400340000346002B0AD020A3D3E90023D7E9060106F0F8FC02460B46C7E9062322A3D3E90023D7E9060107F013F90346002B0AD015A3D3E90023D7E9060106F0E5FC024631
:400380000B46C7E906231E4BD3E90C89BC69FB6923F0004516A3D3E900232046294606F085FE03460C46184621460DA3D3E9002306F0A6FF03460C46184621464FF0000267
:4003C000104B06F0C1FC1FE0182D4454FB2119407B14AE47E17A943FA4703D0AD70FAC40182D4454FB210940182D4454FB2109C0D2AE2816157EFB3FE881FF1F4882FF1FC1
:400400002883FF1F0000F03F03460C461846214603F072FD03460C461A4623464FF000004C4906F08FFC03460C461A4623464046494606F03BFE03460C46C7E90234464B8F
:40044000D3E91401D7E9062306F07EFC03460C46414AC2E91434404BD3E91201D7E9062306F024FE03460C461D4626463A4BD3E91001394B03F15004D4E900341A4623469C
:4004800006F014FE03460C461A4623462846314606F05AFC03460C46C7E900342E4BD3E90001D7E9002306F001FE03460C46184621464FF000024FF0804306F021FF034610
:4004C0000C4618462146D7E9022306F03DFC03460C4618462146214B03F13804D4E900341A46234606F00CFF03460C461B4AC2E90834194BD3E90001D7E9002306F0D6FD66
:4005000003460C46184621464FF000024FF0804306F0F6FE03460C461A462346D7E9020106F010FC03460C46184621460C4B03F13804D4E900341A46234606F0E1FE034646
:400540000C46074AC2E9083400BF2437BD46BDE8F08F00BF0000F03F2883FF1FE881FF1F4882FF1FF0B583B000AF514BD3E908014F4B03F11004D4E900341A46234606F050
:40058000E1FB03460C46C7E90034494BD3E90201D7E9002306F0D8FB03460C46444AC2E90234434BD3E90045414BD3E90C01D7E9002306F07BFD02460B462046294606F03E
:4005C000C3FB03460C461D462646394BD3E90A01374B03F10804D4E900341A46234606F065FD03460C461A4623462846314606F0ABFB03460C462E4AC2E900342C4B18CBC3
:400600001846214600F044FE2A4BD3E90801294B03F11004D4E900341A46234606F092FB03460C46C7E90034224BD3E90201D7E9002306F089FB03460C461E4AC2E90234E4
:400640001C4BD3E900451B4BD3E90C01D7E9002306F02CFD02460B462046294606F074FB03460C461D462646124BD3E90A01114B03F10804D4E900341A46234606F016FD61
:4006800003460C461A4623462846314606F05CFB03460C46074AC2E90034064B18CB1846214600F061FE00BF0C37BD46F0BD00BF4882FF1FE881FF1F2DE9F043ADF51F7D2A
:4006C0000AAF62B6B44802F0BFFBB44803F018FBB34803F041F802F07FFC02F011FB02F04BFA02F0E9FD02F051FF03F0BBF803F04BF903F089FB4EF6602003F0CFFB9AA489
:40070000D4E9003407F50672C2E9003498A4D4E9003407F50472C2E9003497A4D4E9003407F50272C2E9003407F5027318CBCDE9023407F5047318CBCDE9003407F5067387
:40074000D3E90023974801F029FE07F5027318CBCDE9023407F5047318CBCDE9003407F50673D3E90023904801F018FE84A4D4E9003407F50072C2E9003483A4D4E9003472
:4007800007F5FC72C2E900344FF00003874C07F5F872C2E900344FF00003854C07F5F472C2E900344FF00003824C07F5F072C2E900344FF000037F4C07F5EC72C2E90034AF
:4007C00007F5EC7318CBCDE9083407F5F07318CBCDE9063407F5F47318CBCDE9043407F5F87318CBCDE9023407F5FC7318CBCDE9003407F50073D3E900236F4801F00AFEF7
:400800006E4B00221A606D4B1E225A606B4B5A229A606A4B4FF48772DA60684B4FF4A5721A614FF00003664C07F5E872C2E9003407F59073634A1C4615460FCD0FC40FCDB5
:400840000FC40FCD0FC495E80F0084E80F0007F5907318CB584AC2E9163407F5907303F10804D4E90034544AC2E918340023C7F84C3202224121412000F028FE0246524BAF
:400880001C4613460FCB84E80F004F4BDB68002B05D14E2002F0F6FB4C4802F02FFB4FF000034B4C07F5E472C2E900344FF00003484C07F5E072C2E900341E23C7F8BC314F
:4008C0004FF00003424C07F5D872C2E90034D7F8BC31013BDA0F13445B10184606F080FB2BA3D3E9002306F0E1FB03460C461A46234607F5D871D1E9000106F001FD034671
:400900000C4607F5D472C2E900340222D7F8BC11D7F8BC0100F0DAFD02462F4B1C4613460FCB84E80F0007F5E473D3E9000101F04FF80246294B92E8030083E803004FF031
:400940000003274C07F5D072C2E900344FF00003244C07F5CC72C2E900344FF00003224C07F5C87242E000BFA60A46257502EE3F54E41071732AC93E7B14AE47E17A643FB4
:4009800090C2F5285C0F3540691D554D1075FF3ECD3B7F669EA0F63F8500000009010000650500004882FF1FE881FF1F0000E03F00002440008041402883FF1FA083FF1FA8
:4009C0000000184028980000D881FF1F8096980000001440000008403482FF1F9883FF1F0000594000408F4000003440C2E900344FF00003BA4C07F5C472C2E9003400239A
:400A0000C7F848323EE00023C7F844322CE007F0B1FB0346184606F0E3FA4FF00002B14B06F044FB03460C4618462146AAA3D3E9002306F065FC03460C461846214606F033
:400A4000E5FD0146A84AD7F8443242F82310A64AD7F8443204339B00134414225A60D7F844320133C7F84432D7F84432042BCEDD9E4A9D499E4800F087FDD7F848320133E9
:400A8000C7F84832D7F84832632BBCDD0023C7F8403247E00023C7F83C3235E007F06AFB0346184606F09CFA4FF000028D4B06F0FDFA03460C461846214687A3D3E90023AF
:400AC00006F01EFC03460C46184621464FF00002884B06F039F903460C461846214606F095FD0146804AD7F83C3242F823107E4AD7F83C3204339B00134414225A60D7F8BA
:400B00003C320133C7F83C32D7F83C32042BC5DD764A7549764800F037FDD7F840320133C7F84032D7F84032632BB3DD0023C7F8383247E00023C7F8343235E007F01AFB97
:400B40000346184606F04CFA4FF000026A4B06F0ADFA03460C46184621465FA3D3E9002306F0CEFB03460C46184621464FF00002624B06F0E9F803460C461846214606F084
:400B800045FD0146584AD7F8343242F82310564AD7F8343204339B00134446225A60D7F834320133C7F83432D7F83432042BC5DD4E4A4D494E4800F0E7FCD7F838320133B0
:400BC000C7F83832D7F83832632BB3DD0523C7F884310123C7F83032444BD3E90456434BD3E90689414B03F15804D4E900343F4AD2E91812CDE90212CDE9003442464B460E
:400C00002846314601F088FC07F5BC73C3E90001364A4FF000033A4CC2E90C34334BD3E91A0107F5BC73D3E9002306F0C5FC0346002B3DD0D7F84C0206F0D2F907F5E87383
:400C4000D3E9002306F0A4FC0346002B1BD0D7F84C32023307F59072DB00134418CB234AC2E91634D7F84C32033307F59072DB00134418CB1D4AC2E91834D7F84C32023333
:400C8000C7F84C32A8E71F4A1F4B15461C460FCC28606960AA60EB6003CC2861696123782B76184802F04CFA184802F027F993E7D7F83022D7F884319A42C0F2C1810C4BA9
:400CC0005B68013BC7F82C32B2E10023C7F828329BE100BFAFF300800000C0FFFFFFDF410000244000004E40A083FF1F2883FF1FD881FF1F00005E4000003E40008046403A
:400D0000000014409082FF1FE0970000400D0300AD4BD3E90445AD4B9B68184606F060F902460B462046294606F0EAFA03460C461846214603F02CF904460D46D7F828026D
:400D400006F04EF902460B462046294605F0FAFF03460C461846214606F058FC0346B3F1FF3FC0F28380984BD3E90445974B9B68184606F035F902460B462046294606F09D
:400D8000BFFA03460C461846214603F001F904460D46D7F8280206F023F902460B462046294605F0CFFF03460C461846214606F02DFC0346012B59DC834BD3E90645834B88
:400DC0009B68184606F00CF902460B462046294606F096FA03460C461846214603F0D8F804460D46D7F82C0206F0FAF802460B462046294605F0A6FF03460C461846214696
:400E000006F004FC0346B3F1FF3F2FDB6E4BD3E906456E4B9B68184606F0E2F802460B462046294606F06CFA03460C461846214603F0AEF804460D46D7F82C0206F0D0F8C2
:400E400002460B462046294605F07CFF03460C461846214606F0DAFB0346012B06DC5C4B58221A705A4B20225A70C6E0564BD3E91645564B9B68184606F0B2F802460B461D
:400E80002046294606F03CFA03460C461846214603F07EF804460D46D7F8280206F0A0F802460B462046294605F04CFF03460C461846214606F0AAFB0346B3F1FF3FC0F2BE
:400EC0008980414BD3E91645404B9B68184606F087F802460B462046294606F011FA03460C461846214603F053F804460D46D7F8280206F075F802460B462046294605F07C
:400F000021FF03460C461846214606F07FFB0346012B5FDC2C4BD3E918452C4B9B68184606F05EF802460B462046294606F0E8F903460C461846214603F02AF804460D4606
:400F4000D7F82C0206F04CF802460B462046294605F0F8FE03460C461846214606F056FB0346B3F1FF3F35DB174BD3E91845174B9B68184606F034F802460B462046294631
:400F800006F0BEF903460C461846214603F000F804460D46D7F82C0206F022F802460B462046294605F0CEFE03460C461846214606F02CFB0346012B0CDC054B47221A7043
:400FC000034B20225A7018E02883FF1FD881FF1F9082FF1FA24BDA68A14B1B68D7F8281201FB03F1D7F82C320B449B0013441B681A469C499C4807F007F99B4802F0A0F81A
:40100000D7F828320133C7F82832954B1A68D7F828329A423FF77CAE934A944B1B881380914802F08DF8D7F82C32013BC7F82C32D7F82C32002BBFF648AE8D4802F080F869
:401040008C4A8D49864800F047FC07F5D47318CBCDE9043407F5D87318CBCDE9023407F5E07318CBCDE9003407F5E473D3E900238149824800F01CFD0023C7F8243236E060
:401080007E4B5A68D7F82432DB00134418CB07F5B872C2E9003407F5D073D3E9002307F5B871D1E9000106F073FA0346002B06D03B46D7F82422002143F8221012E007F5A9
:4010C000CC73D3E9002307F5B871D1E9000106F07DFA0346002B05D03B46D7F82422012143F82210D7F824320133C7F82432634B1A68D7F824329A42C2DC07F5C873D3E9E7
:40110000000106F083FA03463A46029307F5E47318CBCDE900345749584800F0D1FE07F5B473C3E900014CA3D3E9002307F5B471D1E9000105F0BAFF03460C461846214636
:401140004FF000024E4B06F0DBF803460C4607F5B472C2E9003407F5C47318CBCDE9023407F5E47318CBCDE9003407F5B473D3E90023424801F098F807F5B073C3E9000135
:401180003C4BD3E9044507F5B473D3E9000102F0B5FE4FF000023B4B05F088FF02460B462046294605F0D0FD03460C46314AC2E90434304BD3E9064507F5B473D3E9000150
:4011C00002F06EFF4FF000022E4B05F06FFF02460B462046294605F0B7FD03460C46254AC2E90634D7F83022D7F884319A4226DB4FF00002224B07F5B471D1E9000105F06C
:4012000055FF03460C461846214613A3D3E9002306F076F803460C461946224607F5B07318CBCDE9003413460A4617490E4806F0EBFF0D4801F084FF0023C7F83032D7F898
:4012400030320133C7F830320A4A07F5B47318CBC2E90E34C0E400BF182D4454FB210940D881FF1FFC9700009082FF1F00980000049800002883FF1F3482FF1F9883FF1F87
:4012800000806640000004400C9800000000000090B583B000AFC7E900014FF00002304BD7E9000106F074F90346002B05D04FF000032B4CC7E900340EE04FF00002294BDF
:4012C000D7E9000106F082F90346002B04D04FF00003244CC7E900344FF000024FF00003D7E9000106F054F90346002B1BD03B683B607B6883F000437B60002002F0E4F957
:4013000015A3D3E90023D7E9000105F0CFFE03460C461846214606F0A1F903469BB2184602F0E2F914E00CA3D3E90023D7E9000105F0BCFE03460C461846214606F08EF913
:4013400003469BB2184602F0BFF9002002F0CCF900BF0C37BD4690BD000000000088C3400000F0BF0000F03F90B583B000AFC7E900014FF00002304BD7E9000106F008F9F1
:401380000346002B05D04FF000032B4CC7E900340EE04FF00002294BD7E9000106F016F90346002B04D04FF00003244CC7E900344FF000024FF00003D7E9000106F0E8F8E6
:4013C0000346002B1BD03B683B607B6883F000437B60002002F074FB15A3D3E90023D7E9000105F063FE03460C461846214606F035F903469BB2184602F072FB14E00CA333
:40140000D3E90023D7E9000105F050FE03460C461846214606F022F903469BB2184602F04FFB002002F05CFB00BF0C37BD4690BD000000000088B3400000F0BF0000F03F14
:4014400090B585B000AFC7E90201C7E90023D7E90023D7E9020105F053FF03460C461846214602F095FDD7E9002305F01FFE03460C461A462346D7E9020105F063FC034633
:401480000C46184621461437BD4690BD80B487B000AFF860B9607A60FA68BB68D31A002BB8BF5B427B617B68DA0F13445B101A467B699A4203DA7A687B69D31A00E07B6986
:4014C00018461C37BD4680BC704700BF80B588B000AFF860B9607A60102006F00BF903467B617B69002B04D1786906F00BF9002343E07B69FA681A607B69BA685A607B6967
:401500007A689A60FB68BA6802FB03F39B00184606F0F0F803461A467B69DA607B69DB68002B09D1786906F0EDF87B69DB68184606F0E8F8002320E00023FB6118E00023B9
:40154000BB610EE07B69DA68FB69F96801FB03F1BB690B449B00134400221A60BB690133BB61BA69BB689A42ECDBFB690133FB61FA69FB689A42E2DB7B6918462037BD4639
:4015800080BD00BF000000002DE9F043A1B000AFF860B9607A60FB68002B01D1002388E1FB68DB68002B01D1002382E17B6803F11004D4E90034C7E918347B6803F11804BB
:4015C000D4E90034C7E916347B6803F10804D4E90034C7E914340023FB6719E0BA68FB6F04339B0013445A68FB689B6892FBF3F3184605F0F5FC03460C46FA6FD20007F154
:4016000080010A44703AC2E90034FB6F0133FB67FB6F042BE2DD0023FB6645E1BB68FA6E53F82230184605F0DBFCA5A3D3E9002305F03CFD03460C46184621464FF0000208
:40164000A34B05F05DFE03460C46C7E91234D7E91223D7E9140105F077FB03460C46184621464FF000024FF0000305F091FF0346002B13D0D7E91223D7E9140105F064FB8D
:4016800003460C46184621468FA3D3E9002305F05BFB03460C46C7E91C342FE0D7E91223D7E9140105F050FB03460C461846214685A3D3E9002305F07FFF0346002B13D089
:4016C000D7E91223D7E9140105F03EFB03460C46184621467CA3D3E9002305F033FB03460C46C7E91C3409E0D7E91223D7E9140105F02AFB03460C46C7E91C34FB689B6808
:40170000184605F06DFC03460C461A462346D7E9180105F0F5FD03460C46184621464FF000026C4B05F00EFB03460C469846A146FB6EDB0007F180021344703BD3E9004552
:40174000D7E91C0102F0DAFB02460B462046294605F0ACFC03460C461846214602F018FC03460C461A4623464046494605F0ECFA03460C46C7E91034FB689B68184605F0B8
:401780002FFC03460C461A462346D7E9160105F0B7FD03460C46184621464FF000024D4B05F0D0FA03460C469846A146FB6EDB0007F180021344703BD3E90045D7E91C0124
:4017C00002F06EFC02460B462046294605F06EFC03460C461846214602F0DAFB03460C461A4623464046494605F0AEFA03460C46C7E90E34FB681B68184605F0F1FBD7E911
:40180000102305F0E3FE0346002B4AD0FB685B68184605F0E5FBD7E90E2305F0D7FE0346002B3ED04FF000024FF00003D7E9100105F0C2FE0346002B33D04FF000024FF07B
:401840000003D7E90E0105F0B7FE0346002B28D0FB68DC68D7E9100105F0D8FE0246FB681B6803FB02F5D7E90E0105F0CFFE03462B449B001C44FB68DD68D7E9100105F068
:40188000C5FE0246FB681B6803FB02F6D7E90E0105F0BCFE034633449B002B441B6801332360FB6E0133FB66FB6E042B7FF7B6AE012318468437BD46BDE8F083AFF30080D5
:4018C000182D4454FB210940182D4454FB211940008066400000F03F90B58BB000AFF860B9607A607B6803F11004D4E900341846214605F08BFE0346FB617B6803F11804CE
:40190000D4E900341846214605F080FE0346BB6100237B6253E000233B6248E0FB689B68FA6992FBF3F27B6A1A44BB681B68013BD90F0B445B10D31A7B61FB689B68BA69AA
:4019400092FBF3F23B6A1A44BB685B68013BD90F0B445B10D31A3B61FB681A687B699A4222DDFB685A683B699A421DDD7B69002B1ADB3B69002B17DBBB68DA68BB681B6892
:40198000796A01FB03F13B6A0B449B001344FA68D168FA681268786900FB02F03A69024492000A4412681A603B6A01333B62BB685A683B6A9A42B1DC7B6A01337B62BB68EA
:4019C0001A687B6A9A42A6DC00BF2C37BD4690BD90B585B000AFC7E90001082005F08AFE0346BB60BB68002B04D1B86805F08AFE002352E0D7E900234FF00000294905F02F
:401A00007FFC03460C461846214605F0FFFD0246BB681A60D7E900234FF00000214905F06FFC03460C46184621464FF000021E4B05F03CFB03460C461846214605F00EFE72
:401A40000346184605F056FE03461A46BB685A60BB685B68002B09D1B86805F053FEBB685B68184605F04EFE002316E00023FB600DE0BB685A68FB68DB001A444FF00003D3
:401A80004FF00004C2E90034FB680133FB60BB681A68FB689A42ECDCBB6818461437BD4690BD00BF0080764000002040000000002DE9F04397B000AFF860B960C7E9002372
:401AC0006B461E46FB681B68BB63BB681B687B63BB685B683B63B96B4B1EFB620B461A464FF000034FEA831949EA92694FEA82180B461A464FF000039D0145EA92659401C6
:401B00000B46DB0007330733DB08DB00ADEB030D6B460733DB08DB00BB6200237B650CE0BA6A7B6DDB001A444FF000034FF00004C2E900347B6D01337B657A6DBB6B9A425C
:401B4000EEDB00233B65D4E00023FB64C9E03B6BDA0F13445B101A46FB6C9B1A184605F03FFA04460D467B6BDA0F13445B101A463B6D9B1A184605F033FA02460B46204637
:401B8000294602F0D5FA4FF000028B4B05F08EFA03460C461846214685A3D3E9002305F0AFFB03460C46184621464FF00002834BFFF746FCC7E90801BB68DA683B6D796B0A
:401BC00001FB03F1FB6C0B449B0013441B68184605F0F6F94FF000024FF0804302F02AFBC7E906017B6BDA0F13445B101A463B6D9B1A184605F0F4F94FF000024FF08043A6
:401C000002F018FB04460D463B6BDA0F13445B101A46FB6C9B1A184605F0E2F94FF000024FF0804302F006FB02460B462046294605F08AF803460C461846214602F092FC0C
:401C4000D7E9222305F032FA03460C461A462346D7E9200105F076F803460C461A462346D7E9060105F022FA03460C46C7E90634D7E90023D7E9080105F042FB03460C465C
:401C80001846214602F084F903460C461846214605F0BCFC0546D7E90023D7E9080105F02FFB03460C461846214602F071F903460C461846214605F0A9FC0346BA6ADB00CF
:401CC0001344D3E90001D7E9062305F03DF803460C46B96AEA000A44C2E90034FB6C0133FB64FA6C3B6B9A42FFF631AF3B6D01333B653A6D7B6B9A42FFF626AF0023BB6440
:401D0000CEE0BA6ABB6CDB001344D3E90001D7E91E2305F0CBF903460C46C7E910340023FB638BE0FB6B0133BA6CD31A002B47DAFB6B0133BA6CD21ABB6B1344BA6ADB0065
:401D40001344D3E90001FB6B5A1CBB6C1344BA6B93FBF2F2BC6B04FB02F29B1ABA6ADB00134418CB1A46234604F0EEFF03460C4625461C46F86B05F033F902460B46D7E967
:401D80001E0104F0DFFF02460B462046294605F08DF903460C461A462346D7E9100104F0D3FF03460C46C7E9103444E0AFF30080182D4454FB2109400080664000807640DB
:401DC000FB6B0133BA6CD31ABA6ADB001344D3E90001FB6B5A1CBB6C1344BA6B93FBF2F2BC6B04FB02F29B1ABA6ADB00134418CB1A46234604F0A8FF03460C4625461C465E
:401E0000F86B05F0EDF802460B46D7E91E0104F099FF02460B462046294605F047F903460C461A462346D7E9100104F08DFF03460C46C7E91034FB6B0133FB63F86B05F02A
:401E4000CFF8D7E91E2305F0A3FB0346002B7FF469AFD7E91E0102460B4604F075FF03460C46184621464FF00002134B04F06CFF03460C461A462346D7E9100105F040FA66
:401E800003460C46C7E90434FB685A68BB6CDB001A44D7E90434C2E90034BB6C0133BB64BA6CBB6B9A42FFF62CAFB54600BF5C37BD46BDE8F08300BF0000F03F000000007B
:401EC000B0B59CB000AFF860B9607A60D7E920234FF00000BC4905F013FA03460C461846214605F093FB03463B65FB681B68FB64BB6803F11004D4E90034C7E91034BB68AA
:401F000003F11804D4E90034C7E90E34BB6803F10804D4E90034C7E90C34BB6803F15804D4E90034C7E90A34BB6803F16004D4E90034C7E90834D7E90E23D7E9080104F052
:401F400001FF03460C4625461C46D7E91023D7E90A0104F0F7FE02460B462046294602F0E7F84FF00002994B05F0A0F803460C461846214692A3D3E9002305F0C1F90346F5
:401F80000C46184621464FF000028F4BFFF758FAC7E90601D7E92023D7E9060105F0B0F903460C461846214601F0F2FF03460C461846214605F02AFB03467B617B699B0028
:401FC0007A6813441B68002B02D1D7E9063465E10123FB667A69FB6ED31A184605F000F804460D46F86C04F0FBFF02460B4620462946FFF725FA03460C461846214605F017
:4020000005FB0346BB667A69FB6E1344184604F0E7FF04460D46F86C04F0E2FF02460B4620462946FFF70CFA03460C461846214605F0ECFA03467B6634E0FB6E0133FB66A4
:402040007A69FB6ED31A184604F0CAFF04460D46F86C04F0C5FF02460B4620462946FFF7EFF903460C461846214605F0CFFA0346BB667A69FB6E1344184604F0B1FF044690
:402080000D46F86C04F0ACFF02460B4620462946FFF7D6F903460C461846214605F0B6FA03467B66BB6E9B007A6813441B68012B0ED17B6E9B007A6813441B68012B07D199
:4020C000FB6CDA0F13445B101A46FB6E9A42B4DCFB6CDA0F13445B101A46FB6E9A4203D14FF000033A4CD9E0BB6E9B007A6813441B68002B6ED101233B66BA6E3B6ED31A20
:40210000184604F06DFF04460D46F86C04F068FF02460B4620462946FFF792F903460C461846214605F072FA0346FB651BE03B6E01333B66BA6E3B6ED31A184604F050FF54
:4021400004460D46F86C04F04BFF02460B4620462946FFF775F903460C461846214605F055FA0346FB65FB6D9B007A6813441B68002B04D13A6ED7F888309A42D7DBFA6C1F
:40218000B96EF86DFFF782F90346DA0F13445B101A46FB6D1344184604F022FF04460D46F86C04F01DFF02460B4620462946FFF747F9D7E9202304F079FF03460C466DE090
:4021C000182D4454FB21094000807640008066400000F0BF0123BB657A6EBB6D1344184604F0FEFE04460D46F86C04F0F9FE02460B4620462946FFF723F903460C46184634
:40220000214605F003FA03467B651BE0BB6D0133BB657A6EBB6D1344184604F0E1FE04460D46F86C04F0DCFE02460B4620462946FFF706F903460C461846214605F0E6F9A7
:4022400003467B657B6D9B007A6813441B68002B04D1BA6DD7F888309A42D7DBFA6C796E786DFFF713F90346DA0F13445B101A467B6E1344184604F0B3FE04460D46F86CEE
:4022800004F0AEFE02460B4620462946FFF7D8F8D7E9202304F00AFF03460C46184621467037BD46B0BD00BF90B58FB000AFF860C7E900234FF00003354CC7E90A34D7E945
:4022C000000100F0FDF84FF00002324B04F0EEFE03460C46184621462BA3D3E9002305F00FF803460C4618462146D7E9122305F007F803460C461846214601F049FE034627
:402300000C461846214605F081F903467B62FB685A687B6ADB00134418CBC7E90634D7E91423D7E9060105F051F90346002B04D0D7E91434C7E90C3403E0D7E90634C7E91E
:402340000C34D7E91423D7E90C0104F0D9FF03460C461A4623464FF000000F4904F0F2FC03460C4618462146D7E90A2304F09EFE03460C46C7E90434D7E904341846214693
:402380003C37BD4690BD00BF182D4454FB21094000002440008066400000F03F90B585B000AFF860C7E90023FA684FF000034FF00004C2E90034FA684FF000034FF000049F
:4023C000C2E90234FA684FF000034FF00004C2E908344FF000020E4BD7E9000104F066FE03460C46FA68C2E90E34FB6800221A64FA68D7E90834C2E90A34FA68D7E90A34E7
:40240000C2E90C34FB6818461437BD4690BD00BF0000064090B484B000AFF860C7E90023FA68D7E90034C2E90034FA684FF000034FF00004C2E91434FA68D7E90634C2E9E8
:402440001034FA68D7E90834C2E91234FA684FF000034FF00004C2E90C34FA684FF000034FF00004C2E90E34FA684FF000034FF00004C2E90234FA68D7E90C34C2E9043416
:40248000FA68D7E90E34C2E90634FA68D7E90A34C2E91A34FA684FF000034FF00004C2E91634FA684FF000034FF00004C2E91834FB6818461037BD4690BC704700000000B2
:4024C00090B583B000AFC7E9000111A3D3E90023D7E9000104F014FF03460C461846214601F056FD0AA3D3E9002304F0DFFD03460C461A462346D7E9000104F023FC034628
:402500000C46184621460C37BD4690BDAFF30080182D4454FB211940B0B586B000AFC7E90201C7E90023D7E90223D7E90A0104F009FC03460C46184621464FF000024FF024
:40254000804301F077FE04460D46D7E90023D7E90C0104F0F7FB02460B46104619464FF000024FF0804301F065FE02460B462046294604F0E9FB03460C461846214601F083
:40258000F1FFC7E90401D7E90434184621461837BD46B0BD80B582B000AF786039603A680021786805F0C1F800BF0837BD4680BD80B584B000AFF860B9607A607A68B9687E
:4025C000F86805F0A7F800BF1037BD4680BD00BF80B483B000AF0346FB71FEE780B487B000AF7860396000233B6100237B6127E07B699B007A6813441B68BB60BB68FB73FB
:40260000BB6823F0FF03BB6014E03B695B003A6813441B781A46BB68134419463B695B003A6813445B780B703B6901333B61FB7B013BFB73FB7B002BE7D17B6901337B6168
:402640007B69252BD4D900BF1C37BD4680BC704780B582B000AF454B19221A80444B18221A70444BEF221A80434B18221A70434B40F283521A80424B18221A70414B4BF6CA
:402680007F321A80404B18221A70404B4EF65F221A803F4B19221A703E4B40F2E7321A803D4B1B221A703D4B40F2E7321A803C4B1B221A703B4B02221A704FF040230822CF
:4026C0001A70394B03221A70384B394A1278D2B21A70384B08221A80374B41F251221A800023FB7019237B6014E0FB785B00DAB2324B1B78DBB203F00103DBB21343DBB27F
:4027000003F00303FB704FF4F07001F0E5FB7B68013B7B607B68002B02D0FB78032BE4D17B68002B02D10320FFF752FF244B4FF480721A80224B07221A70224B00221A70CF
:40274000214B48221A701E4B00221A701F4B02221A701F4A1E4B1B78DBB243F07F03DBB2137000BF0837BD4680BD00BF804000408240004084400040864000408840004004
:402780008A4000408C4000408E40004090400040924000409440004096400040984000409A4000400043004000420040A1460040080100492242004020420040254200400C
:4027C00004400040064000400840004001400040A243004080B483B000AF0B4B1B78FB710A4AFB7903F00703DBB21370084AFB791B09DBB21370074B44221A7000BF0C3723
:40280000BD4680BC704700BFCF0100496E5800406F5800407658004080B586B000AF72B6554A554B1B78DBB243F00403DBB213700023FB7513E0FA7D13465B0013445B0061
:402840004E4A13443B613B691A683B699B889BB219461046FFF79EFEFB7D0133FB75FB7D052BE8D90023FB751CE0FA7D13469B0013445B00424A1344FB60FB681B68BB60DC
:40288000FB685B687B60FB681A7A5B7A1B0213437B807B881A467968B868FFF789FEFB7D0133FB75FB7D002BDFD036494FF09040FFF794FE344B354A1A60354B354A1A6087
:4028C000354A354B1B78DBB243F00203DBB21370324A324B1B78DBB243F00203DBB213702F4A2F4B1B78DBB243F04003DBB213702C4A2C4B1B78DBB243F01003DBB2137014
:40290000082229492948FFF753FE082228492948FFF74EFE0A2228492848FFF749FE082227492848FFF744FE0A2227492748FFF73FFE082226492748FFF73AFE264A264B14
:402940001B78DBB243F00803DBB21370234B61221A70FFF77DFE214B81221A70204B01221A70FFF737FF0E220D491E48FFF720FE00BF1837BD4680BDE84600406898000064
:402980008C980000980000485808014004040444D8140140040004440350014013500140A0430040C2430040500F004802510040580F0048C2510040600F0048F051004095
:4029C0006C0F004812510040740F004820510040800F004832510040224300400048004004000840B043004080B500AF04F056FE03461B680C2B00D1FEE7FEE780B584B07C
:402A000000AF7860104B1A687B6813441A460F4BD31A4CF25032934209DC0B4B1B68FB60094B1A687B681344074A136007E004F035FE02460C2313604FF0FF33FB60FB68A8
:402A400018461037BD4680BDD080FF1FD093FF1F80B586B000AF224B7B61224B3B61204B7B6135E03B691B68FB603B695B68BB603B699B683B6000237B600CE0FB681A68A5
:402A8000BB681A60BB680433BB60FB680433FB607B6804337B607A683B689A42EED13B69DB683B6000237B6008E0BB6800221A60BB680433BB607B6804337B607A683B68E4
:402AC0009A42F2D13B6910333B617B69013B7B617B69002BC6D104F0E7FDFDF7EDFDFEE701000000589C000080B582B000AF184B184A1A60184A184B1B6843F400731360C8
:402B000000237B600FE07B68032B04D8134A7B6852F8233000E0124B12497A6841F822307B6801337B607B682F2BECD90E4B1B78DAB20E4B1A700E4B0A4A1A60FFF76CFE03
:402B40000C4B00221A6000BF0837BD4680BD00BF0CED00E00004FA0514ED00E000000000E92900000080FF1FBC760040C480FF1F08ED00E0C080FF1F80B500AF064B1B7829
:402B8000002B04D100F00AF8034B01221A7000F03BF800BF80BD00BFB081FF1F80B582B000AF164B1B78DBB223F03F03FB71134AFB7943F02303DBB21370114A104B1B7820
:402BC000DBB243F00103DBB213700E4A0D4B1B78DBB243F00103DBB2137040F6863000F023F840F6863000F02FF840F6853000F03BF800BF0837BD4680BD00BF77640040CA
:402C00009A6500409B65004080B400AF054A054B1B78DBB263F07F03DBB2137000BFBD4680BC70477764004080B483B000AF0346FB80044AFB88138000BF0C37BD4680BC3F
:402C4000704700BF146A004080B483B000AF0346FB80044AFB88138000BF0C37BD4680BC704700BF946A004080B483B000AF0346FB80044AFB88138000BF0C37BD4680BC6E
:402C8000704700BF546A004080B582B000AF42F2331000F06FF842F2331000F087F801F023F90346FB710D4A0C4B1B78DBB243F01003DBB21370FB79184601F019F900F02B
:402CC00085F8002000F092F800F0B0F8032000F029F800BF0837BD4680BD00BF9565004080B400AF054A054B1B78DBB263F07F03DBB2137000BFBD4680BC70477664004064
:402D000080B500AF064B1B78002B04D1FFF7BCFF034B01221A70FFF7E3FF00BF80BD00BFB181FF1F80B483B000AF0346FB71044AFB79137000BF0C37BD4680BC704700BF75
:402D40008565004080B400AF034B1B78DBB21846BD4680BC704700BF6565004080B400AF034B1B78DBB21846BD4680BC704700BF7664004080B483B000AF0346FB80044A15
:402D8000FB88138000BF0C37BD4680BC704700BF486A004080B400AF034B1B889BB21846BD4680BC704700BF886A004080B483B000AF0346FB80044AFB88138000BF0C37AE
:402DC000BD4680BC704700BF086A004080B400AF054A054B1B78DBB243F01003DBB2137000BFBD4680BC70477664004080B483B000AF0346FB71FB7903F00303FB710A4AAD
:402E0000094B1B78DBB223F00303DBB213700649054B1B78DAB2FB791343DBB20B7000BF0C37BD4680BC70477664004080B500AF01E0FFF7AFFFFFF785FF034603F0080329
:402E4000002BF6D100BF80BD80B582B000AF786000F03CF8786800F009F8022000F018F800F028F800BF0837BD4680BD80B485B000AF7860054B1B68FB60FB684C337A682F
:402E80001A6000BF1437BD4680BC704708ED00E080B483B000AF0346FB71054AFB795B01DBB2137000BF0C37BD4680BC704700BF03E400E080B400AF034B08221A6000BFB7
:402EC000BD4680BC704700BF00E100E080B400AF034B08221A6000BFBD4680BC704700BF80E100E080B483B000AF0346FB7101BE00BF0C37BD4680BC704700BF80B582B02A
:402F000000AF786008E00C4B1B68184600F0E4FF7B68A3F500437B607B68B3F5004FF2D8064B1B687A6802FB03F3184600F0D4FF00BF0837BD4680BDE080FF1FD880FF1FDE
:402F400080B584B000AF03463960FB710F4B1B68FB60FB791F2B02D90020FFF7C3FFFB7903F01F0310339B00FA6813441B68BB60FB7903F01F0310339B00FA6813443A68C2
:402F80001A60BB6818461037BD4680BD08ED00E080B582B000AF03460A46FB711346BB71BB79072B02D90020FFF79CFFFB791F2B02D90020FFF796FFFB7903F01F0303F167
:402FC000604303F56443BA795201D2B21A7000BF0837BD4680BD00BF80B500AF064B1B78002B04D100F00AF8034B01221A7000F023F800BF80BD00BFB281FF1F80B500AF4E
:4030000009490620FFF79CFF07210620FFF7C0FF064B06221A70064B47221A70054B02221A7000BF80BD00BF8531000025640040356400408865004080B582B000AF00F0F9
:4030400053FF0346FB710C4A0B4B1B78DBB243F01003DBB21370094B40221A60084B40221A6000F0C7F8FB79184600F041FF00BF0837BD4680BD00BF9865004080E200E09B
:4030800000E100E080B485B000AF0346FB71264B1B88FB81254B1B88BB81FA89BB899A4208D2FA89BB89013B9A420CBF01230023DBB209E0FA89BB89D31A40F6FF7293428F
:4030C0000CBF01230023DBB2002BE0D1BA89FB899A420AD1164B1B78DBB203F00403002B03D1144AFB79137019E0FB89B3F5805F01D30023FB81FB890F49FA79CA54FB89A0
:403100000133FB81084AFB891380094B1B78DBB203F00203002B02D0084B40221A6000BF1437BD4680BC7047B681FF1FB481FF1F6865004048650040C883FF1F00E200E011
:4031400080B584B000AF78600023FB810C4B1B78002B10D009E0FB897A6813441B781846FFF790FFFB890133FB81FB897A6813441B78002BEFD100BF1037BD4680BD00BF3B
:40318000B281FF1F80B400AF18E0154B1B889BB2B3F5805F02D3124B00221A80114B104A128892B21146104A525CD2B21A700C4B1B889BB201339AB2094B1A80084B1B8872
:4031C0009AB20A4B1B889A4206D0094B1B78DBB203F00403002BD8D000BFBD4680BC7047B481FF1F48650040C883FF1FB681FF1F6865004080B400AF094A094B1B78DBB22E
:4032000043F00103DBB21370064A064B1B78DBB243F00103DBB2137000BFBD4680BC7047A2430040B243004080B483B000AF0346FB71044AFB79137000BF0C37BD4680BCDF
:40324000704700BF7465004080B500AF064B10221A6006490420FFF773FE07210420FFF797FE00BF80BD00BF80E100E07D33000080B582B000AF0F2000F06CF800F05CF8A4
:4032800000F032FE0346FB71094A094B1B78DBB243F01003DBB21370FB79184600F028FE044B10221A6000BF0837BD4680BD00BF9C64004000E100E080B500AF00F0DEF891
:4032C0004FF4004000F008F9074B00221A60074B1B78002B04D1FFF7B7FF044B01221A70FFF7C6FF00BF80BDBC81FF1FB981FF1F80B582B000AF0D4B10221A6000F0FCF877
:403300000346FB80FB88A3F500439BB2BB80B7F90420074B1B6813443B60064B10221A603B6818460837BD4680BD00BF80E100E0BC81FF1F00E100E080B400AF044B1B78EA
:40334000DBB203F00F03DBB21846BD4680BC70476C64004080B483B000AF0346FB71FB7943F00703FB71044AFB79137000BF0C37BD4680BC704700BF8C64004080B483B04F
:4033800000AF144B1B78FB71FB7903F00103002B07D0114B1B6803F5FF437F330E4A13600AE0FB7903F00203002B05D00A4B1B68A3F50043084A1360FB7903F00403002B96
:4033C00002D0054B00221A6000BF0C37BD4680BC704700BF6C640040BC81FF1F80B582B000AF1C4B1B78DBB223F00703FB71194AFB791370174B1B78DBB223F00303FB7166
:40340000144AFB79137000F0B3F84FF4004000F08FF84FF4004000F05FF8002000F040F800F04EF84FF4004000F092F800F05CFD0346BB71084A084B1B78DBB243F0100394
:40344000DBB21370BB79184600F052FD00BF0837BD4680BD7F6400409B64004080B400AF054A054B1B78DBB263F07F03DBB2137000BFBD4680BC70477F64004080B500AF88
:40348000064B1B78002B04D1FFF7A8FF034B01221A70FFF7E3FF00BF80BD00BFC081FF1F80B483B000AF0346FB71044AFB79137000BF0C37BD4680BC704700BF8B640040A8
:4034C00080B400AF034B1B78DBB21846BD4680BC704700BF6B64004080B483B000AF0346FB80044AFB88138000BF0C37BD4680BC704700BF1468004080B400AF044B1B78E3
:40350000044B1B889BB21846BD4680BC704700BF0A6400409468004080B400AF034B1B889BB21846BD4680BC704700BF9468004080B483B000AF0346FB80044AFB881380A1
:4035400000BF0C37BD4680BC704700BF5468004080B483B000AF0346FB80044AFB88138000BF0C37BD4680BC704700BF7468004080B500AF01E0FFF7CFFFFFF7A1FF03461F
:4035800003F04003002BF6D100BF80BD80B500AF064B1B78002B04D100F00AF8034B01221A7000F053F800BF80BD00BFC181FF1F80B582B000AF214B1B78DBB223F03F03E5
:4035C000FB711E4AFB7943F00903DBB213701C4A1B4B1B78DBB243F00103DBB21370194A184B1B78DBB243F00103DBB2137041F2883000F03BF841F2883000F055F800207E
:4036000000F062F8002000F06FF8002000F07CF800F06AFC0346BB710B4A0B4B1B78DBB243F01003DBB21370BB79184600F060FC00F02CF800BF0837BD4680BD7C64004009
:403640009C6400409D6400409E64004080B400AF054A054B1B78DBB263F07F03DBB2137000BFBD4680BC70477C64004080B483B000AF0346FB80044AFB88138000BF0C37EB
:40368000BD4680BC704700BF1868004080B500AF01E000F055F800F047F8034603F01003002BF6D100BF80BD80B483B000AF0346FB80044AFB88138000BF0C37BD4680BCA8
:4036C000704700BF9868004080B483B000AF0346FB80044AFB88138000BF0C37BD4680BC704700BF5868004080B483B000AF0346FB80044AFB88138000BF0C37BD4680BCA0
:40370000704700BF7868004080B483B000AF0346FB71044AFB79137000BF0C37BD4680BC704700BF8E64004080B400AF034B1B78DBB21846BD4680BC704700BF6E64004084
:4037400080B400AF034B1B889BB21846BD4680BC704700BFB868004080B582B000AF786000F03CF8786800F009F8012000F018F800F028F800BF0837BD4680BD80B485B0FA
:4037800000AF7860054B1B68FB60FB6840337A681A6000BF1437BD4680BC704708ED00E080B483B000AF0346FB71054AFB795B01DBB2137000BF0C37BD4680BC704700BF9C
:4037C00000E400E080B400AF034B01221A6000BFBD4680BC704700BF00E100E080B400AF034B01221A6000BFBD4680BC704700BF80E100E080B500AF064B20221A6006493F
:403800000520FFF79DFB07210520FFF7C1FB00BF80BD00BF80E100E02939000080B582B000AF0F2000F06CF800F05CF800F05CFB0346FB71094A094B1B78DBB243F0100392
:40384000DBB21370FB79184600F052FB044B20221A6000BF0837BD4680BD00BF9964004000E100E080B500AF00F0C2F94FF4004000F0ECF9074B00221A60074B1B78002B3E
:4038800004D1FFF7B7FF044B01221A70FFF7C6FF00BF80BDC481FF1FC281FF1F80B582B000AF0D4B20221A6000F0E0F90346FB80FB88A3F500439BB2BB80B7F90420074B4D
:4038C0001B6813443B60064B20221A603B6818460837BD4680BD00BF80E100E0C481FF1F00E100E080B400AF044B1B78DBB203F00F03DBB21846BD4680BC7047696400405D
:4039000080B483B000AF0346FB71FB7943F00703FB71044AFB79137000BF0C37BD4680BC704700BF8964004080B483B000AF144B1B78FB71FB7903F00103002B07D0114B39
:403940001B6803F5FF437F330E4A13600AE0FB7903F00203002B05D00A4B1B68A3F50043084A1360FB7903F00403002B02D0054B00221A6000BF0C37BD4680BC704700BF31
:4039800069640040C481FF1F80B500AF064B1B78002B04D100F00AF8034B01221A7000F051F800BF80BD00BFC881FF1F80B582B000AF214B1B78DBB223F03F03FB711E4ABC
:4039C000FB7943F00903DBB213701C4A1B4B1B78DBB243F00103DBB21370194A184B1B78DBB243F00103DBB2137041F2883000F039F841F2883000F053F8002000F060F80A
:403A0000002000F06DF8002000F07AF800F06CFA0346BB71094A094B1B78DBB243F01003DBB21370BB79184600F062FA00F02AF800BF0837BD4680BD73640040926400402C
:403A40009364004080B400AF054A054B1B78DBB263F07F03DBB2137000BFBD4680BC70477364004080B483B000AF0346FB80044AFB88138000BF0C37BD4680BC704700BFC7
:403A80000468004080B500AF01E000F055F800F047F8034603F01003002BF6D100BF80BD80B483B000AF0346FB80044AFB88138000BF0C37BD4680BC704700BF84680040CB
:403AC00080B483B000AF0346FB80044AFB88138000BF0C37BD4680BC704700BF4468004080B483B000AF0346FB80044AFB88138000BF0C37BD4680BC704700BF64680040E4
:403B000080B483B000AF0346FB71044AFB79137000BF0C37BD4680BC704700BF8264004080B400AF034B1B78DBB21846BD4680BC704700BF6264004080B400AF034B1B885A
:403B40009BB21846BD4680BC704700BFA468004080B582B000AF1C4B1B78DBB223F00703FB71194AFB791370174B1B78DBB223F00303FB71144AFB79137000F0B3F84FF4DF
:403B8000004000F08FF84FF4004000F05FF8002000F040F800F04EF84FF4004000F092F800F0A2F90346BB71084A084B1B78DBB243F01003DBB21370BB79184600F098F9DB
:403BC00000BF0837BD4680BD796400409864004080B400AF054A054B1B78DBB263F07F03DBB2137000BFBD4680BC70477964004080B500AF064B1B78002B04D1FFF7A8FF70
:403C0000034B01221A70FFF7E3FF00BF80BD00BFC981FF1F80B483B000AF0346FB71044AFB79137000BF0C37BD4680BC704700BF8864004080B400AF034B1B78DBB21846EC
:403C4000BD4680BC704700BF6864004080B483B000AF0346FB80044AFB88138000BF0C37BD4680BC704700BF0E68004080B400AF044B1B78044B1B889BB21846BD4680BC37
:403C8000704700BF076400408E68004080B400AF034B1B889BB21846BD4680BC704700BF8E68004080B483B000AF0346FB80044AFB88138000BF0C37BD4680BC704700BF4E
:403CC0004E68004080B483B000AF0346FB80044AFB88138000BF0C37BD4680BC704700BF6E68004080B500AF01E0FFF7CFFFFFF7A1FF034603F04003002BF6D100BF80BD37
:403D000080B582B000AF786000F03CF8786800F009F8002000F018F800F028F800BF0837BD4680BD80B485B000AF7860054B1B68FB60FB6844337A681A6000BF1437BD46D1
:403D400080BC704708ED00E080B483B000AF0346FB71054AFB795B01DBB2137000BF0C37BD4680BC704700BF01E400E080B400AF034B02221A6000BFBD4680BC704700BFC2
:403D800000E100E080B400AF034B02221A6000BFBD4680BC704700BF80E100E080B582B000AF4FF6FF7000F05DF84FF6FF7000F075F800F099F80346FB710A4A094B1B782D
:403DC000DBB243F01003DBB21370FB79184600F08FF800F073F8002000F028F800BF0837BD4680BD9765004080B400AF054A054B1B78DBB263F07F03DBB2137000BFBD4649
:403E000080BC70477765004080B500AF064B1B78002B04D1FFF7C2FF034B01221A70FFF7E3FF00BF80BD00BFCA81FF1F80B483B000AF0346FB71044AFB79137000BF0C37EB
:403E4000BD4680BC704700BF8765004080B400AF034B1B78DBB21846BD4680BC704700BF6765004080B483B000AF0346FB80044AFB88138000BF0C37BD4680BC704700BFFC
:403E80004C6A004080B400AF034B1B889BB21846BD4680BC704700BF8C6A004080B483B000AF0346FB80044AFB88138000BF0C37BD4680BC704700BF0C6A004080B500AF13
:403EC00001E0FFF7DFFFFFF7C1FF034603F00803002BF6D100BF80BD0230800803D000BF01380046FCD17047EFF3108072B6704780F31088704700BF00F01CB930B5214AEC
:403F000021F00043934287B01BDD1F4A934205DD02460B4602F016FF07B030BD02AA01F0A3FB00F0030001281AD002280FD008B3DDE9020101230093DDE9042302F08CFBDA
:403F4000EAE70022002301F06BFE07B030BDDDE90423DDE9020101F063FE01F10041DBE70090DDE90423DDE9020102F075FB01F10041D1E7DDE90423DDE9020101F050FEA8
:403F8000CAE700BFFB21E93FFFFFEF7F00000000C1F30A522DE9F843A2F2FF36132E0B4604460D46884607461CDC002E3FDB3A4A864642FA06F901EA0902024317D034A3A9
:403FC000D3E9002302F0C0FE0022002303F0FEFA20B1002D40DB28EA0905002738462946BDE8F883332E06DDB6F5806F2FD020461946BDE8F883A2F213424FF0FF3929FA50
:4040000002F910EA090FF2D021A3D3E9002302F09BFE0022002303F0D9FA0028DED0002D20DB454627EA090738462946D8E718A3D3E9002302F088FE0022002303F0C6FA18
:404040000028CBD0002D18DB00273D46C6E702460B4602F079FECCE74FF4801343FA06F6B044B8E7142E10D00123C6F1340603FA06F6371928BF9844D3E725F00042074B09
:40408000224318BF1D460027A8E705F10108C8E79C7500883CE4377EFFFF0F000000F0BF30B5214A21F00043934287B01BDD1F4A934205DD02460B4602F044FE07B030BD9A
:4040C00002AA01F0D1FA00F0030001281ED0022811D0DDE9042300B3DDE9020101F0A0FD01F10041EAE7002300930022002302F0B3FA07B030BD01230093DDE90201DDE9C4
:40410000042302F0A9FA01F10041D7E7DDE90423DDE9020101F084FDD0E70124DDE90201009402F099FAC9E7FB21E93FFFFFEF7F00F076BA2DE9F0418AB004460D4600F05E
:404140003BFB374B064693F900800F46B8F1FF3F0DD022462B462046294603F041FA30B9002200232046294603F030FA20B1304639460AB0BDE8F0812A4B0890CDE902457A
:40418000CDE904450193B8F1000F19D1264F4FF060462046294600220023CDE9066703F0EDF9002834D002230093684602F0B4FCA8B1089BC3B9DDE906010AB0BDE8F08111
:4041C0001A4F00262046294600220023CDE9066703F0D4F968B1022398450093E5D103F05DFA22230360E4E703F058FA089B0360E1E70123B8F1020F00930BD103F04EFA77
:40420000212303600A4802F089FCCDE90601D0E701230093684602F07FFC0028F2D1EDE7E480FF1F98980000FFFFEFC70000F0FFA49800002DE9F04F8DB006460F461446EB
:404240001D4600F0ADFCDFF81093CDE9000199F90080B8F1FF3F46D022462B462046294603F0BEF9834600283DD132463B463046394603F0B5F98246002874D130463946F2
:404280000022002303F07AF9002833D0002200232046294603F072F98346B8B1A94A012300200021CDF828A0CDE90467CDE90645CDE9080103920293B8F1000F6CD0A24BAD
:4042C0000022104619460DB0BDE8F08F2046294602F01CFC38B1002200232046294603F057F900286AD1DDE90023104619460DB0BDE8F08FDDE9000102F008FC8046002854
:404300007DD0DDE900014FF0000A4FF0000B52465B4603F033F90028E5D03046394602F0F5FB0028DFD02046294602F0EFFB0028D9D099F90030834804210022022BCDE9BA
:404340000467CDE90645CDE908AB039002910A9204D002A802F0E0FB002847D103F09EF92223036042E0002200232046294603F005F90028B7D0744B724800220121B8F1A7
:40438000020FCDF828B0CDE90467CDE90645CDE9082303900291A8D002A802F0BDFB00287ED00A9B43B303F079F9DDE908230A990160104619460DB0BDE8F08F614999F91D
:4043C00000300122CDF828B0CDE90467CDE9064503910292002B68D05C490020022BCDE9080166D103F05AF9212303600A9B1BB103F054F90A9B0360DDE9082375E73046CF
:40440000394602F083FB00283FF47BAF2046294602F07CFB00283FF474AFDDE900231046194603F0DDF800286FD1464B99F90080039303230A90CDE90467CDE906450293CE
:40444000B8F1000F3BD1DFF814B14FF0604A0022002330463946CDE908AB03F099F800283FF477AF00223A4B2046294602F01EFE04460D4602F058FB02460B462046294671
:4044800003F07CF800283DD1324B4FF06042CDE9082399F90080B8F1020F7FF45AAF5DE703F0FCF8212303607BE700230024CDE9083402A802F030FB002897D192E7DFF8C4
:4044C000A0B04FF0000A0022002330463946CDE908AB03F05DF80028DDD000221C4B2046294602F0E3FD04460D4602F01DFB02460B462046294603F041F818B9134B0022A1
:40450000CDE9082399F90080C5E70E4A99F900900123CDF82880CDE90467CDE9064503920293B9F1000FC0D0002200231046194602F0E6FEB9F1020FCDE908013FF452AFBE
:40454000B7E700BF9C9800000000F03F0000F0FF0000E03FFFFFEFC7E480FF1FFFFFEF470000F07F2DE9F04F8BB004460D4601F091FA284B064693F900A00F46BAF1FF3FC2
:4045800012D022462B462046294603F029F8834650B94FF000084FF000092046294642464B4602F0F5FF20B9304639460BB0BDE8F08F194A0123CDF820B0CDE90445CDE9A4
:4045C000024501920093BAF1000F15D042464B464046494602F094FEBAF1020FCDE906010CD103F05BF821230360089B63B9DDE906010BB0BDE8F08FCDE90689684602F06A
:404600008BFA0028F1D1ECE703F048F8089B0360EDE700BFE480FF1FA0980000000000002DE9F84F5442144323F00049DFF880E149EAD474744506460D463ED8444204431E
:4046400021F0004B4BEAD47474458A4635D803F1404404F58014144344D09C1704F0020444EAD17450EA0B012FD052EA090133D0F14546D0F3452FD0C9EB0B094FEA2959A7
:40468000B9F13C0F34DC002B57DB3046294602F037FE02F037FA02F097F8012C4AD0022C3BD084B132A3D3E9002302F04BFB32A3D3E9002302F046FB05E01046194632464E
:4046C0002B4602F041FBBDE8F88F022C14D0032C0CD12D482D49F6E7BAF1000F2A480EDB2B49F0E7BDE8F84F02F06EB82946EAE723A1D1E90001D0E723482649E3E726491C
:40470000E1E7CB451FD0022CF6D0032CE1D0012C4FF0000020D00146D5E715A3D3E9002302F010FB02460B4613A1D1E9000102F009FBC8E701F10041C5E719F13C0FA4DA8C
:4047400000200021A9E7022C0ED0032C09D0012C0D4804D01149B6E74FF00041B3E71049B1E710481049AEE70E481049ABE700BF075C143326A6A13C182D4454FB21094021
:40478000182D4454FB21F93F182D4454FB2109C0FB21F93FFB210940FB21F9BFFB21E93FFB21E9BFD221337F7CD902C07CD902400000F07F000000002DE9F04FB1F5801F15
:4047C00085B006460F460B465ADA024621F00044224300F0F7800029C0F279810022D64B02F064FC0B460F46D44906468B426FF0350249DCC3F3130505F5152404F6647421
:4048000004F4801E8EF07F5181F440111B15A3F2FF3341EA05079C1830460022C84B394604EB1E5402F08EFAAB1CC3F31303022B82468B464FF000022FDC002302F09EFE91
:40484000002800F0C880002C00F04A81204602F0C7FBA5A3D3E9002306460F4602F026FCA3A3D3E9002304460D463046394602F01DFC02460B462046294602F065FA09E091
:40488000AE4900228B42B5DD32463B463046394602F05AFA05B0BDE8F08F4FF0804302F053FA02460B465046594602F029FD064620460F4602F094FB3246CDE900013B4614
:4048C00030463946CDE9026702F0F0FB02460B468046894602F0EAFB87A3D3E9002306460F4602F0E3FB86A3D3E9002302F02CFA32463B4602F0DAFB83A3D3E9002302F071
:4049000023FA32463B4602F0D1FB81A3D3E9002302F01AFA42464B4602F0C8FB7EA3D3E90023804689463046394602F0BFFB7CA3D3E9002302F008FA32463B4602F0B6FB08
:4049400079A3D3E9002302F0FFF932463B4602F0ADFB0B4602464946404602F0F5F9A5F5C223C5F5D725A3F27A4351351D43002D8046894656DD0022724B5046594602F0C9
:4049800095FB52465B4602F091FB06460F46002C68D132463B464046494602F0D5F9DDE9022302F083FB02460B463046394602F0C9F902460B465046594602F0C3F905B00E
:4049C000BDE8F08F0022002300205F4902F098FC05B0BDE8F08F56A3D3E900235046594602F064FB02460B460020564902F0AAF9524606460F465B465046594602F056FB8A
:404A000002460B463046394602F050FB06460F46002C40F09B8002460B465046594602F091F937E7002C00F0A5802FA3D3E90023DDE9000102F03AFB42464B4604460D4695
:404A40005046594602F07EF9DDE9022302F02EFB27A3D3E9002306460F46DDE9000102F025FB21E020A3D3E90023DDE9000102F01DFB32463B4604460D464046494602F05E
:404A800063F9DDE9022302F011FB19A3D3E9002380468946DDE9000102F008FB02460B464046494602F050F902460B463046394602F048F952465B4602F044F902460B461A
:404AC0002046294602F03EF905B0BDE8F08F02460B4602F037F90022002302F011FCD9E600200021D6E600BF0000E0FE422EE63F763C7935EF39EA3D44523EDF12F1C23F8C
:404B0000DE03CB966446C73F599322942449D23F935555555555E53F9FC678D0099AC33FAF788E1DC571CC3F04FA97999999D93F555555555555D53F00005043FFFFEF7F15
:404B40000000F03F0000E03F000050C3204602F047FA0FA3D3E900238046894602F0A6FA0DA3D3E9002304460D464046494602F09DFA99E702460B465046594602F0E2F89F
:404B8000DDE9022302F092FA13E700BFAFF300800000E0FE422EE63F763C7935EF39EA3D2DE9F04F23F0004858EA020993B03CD0714C21F00046A64283460D460CDD06F14B
:404BC000404606F5801656EA0B0038D183466B49584613B0BDE8F08F9A4696462BD0A045EDDC654CA04578D0002D0F468146CDE9002376DB0024BEF1000F27D15E4B984532
:404C000000F08B805D4B984552D0BAF1804F00F0C9835B4B9A4519D1002D17DB4846394613B0BDE8F04F00F035BFCB465846534913B0BDE8F08F0028C1D1B045D1DD5148CE
:404C400013B0BDE8F04F01F069BF00244846394601F058FFBBF1000F1CD0ED0F013D54EA050370D0484B984540F3948003F10473984540F30D84454B9E4270DDBAF1000F5A
:404C800070DD3BA3D3E900231046194602F00EFA83469DE726B1394B25F040429A42DCD1BAF1000FC0F2B783002D08DB83468FE7BAF1000FC0F25E84CB46394688E706F13A
:404CC000404606F5801656EA040300F08384012CECD101F1004183467AE7BEF1000F83D06DE72B4B98452CDCA3F15473984581DD4FEA2853A3F2FF33142B40F35384C3F14A
:404D000034032EFA03F202FA03F39E457FF472AF02F00102C2F102046DE706F1404303F5801353EA0B0300F03A83184B9E4240F36783BAF1000F15DBDDE900349B4621466B
:404D400046E7022457E74A4648463B46394601F0F9FF02460B4602F0D3FA834638E7BAF1000F8EDB4FF0000B594631E7AFF300809C7500883CE4377E0000F07F0000F03F09
:404D80000000E03FA49800000000E041FFFFEF3FFFFF3F43B6F5801F4FF0000205DAD04B02F084F90E466FF03402DFF844E33315C6F31306A3F2FF3346F07F57764503EB5A
:404DC000020A47F4401740F3C983C64B00229E4240F304840023CDE90823CDE90C23C24B0022CDE906230AF1010AA7F5801700263946DDE90623CDE90A0101F0A3FFDDE9EA
:404E0000062380468946DDE90A0101F09DFF02460B460020B44902F073FA0A4601461346CDE90E1202464946404602F03FF98C4683467B1043F0005303F50023991900205B
:404E4000CDE904BC06460F464FF0000B6146584632463B46CDE910BCCDE9020102F026F902460B464046494601F06CFFDDE90623804689463046394601F064FF02460B46D7
:404E8000DDE90A0101F05EFFDDE9022302F00EF902460B464046494601F054FFDDE90E2302F004F9DDE90478CDE906013A4643463846414602F0FAF877A3D3E900230646E1
:404EC0000F4602F0F3F876A3D3E9002301F03CFF32463B4602F0EAF873A3D3E9002301F033FF32463B4602F0E1F871A3D3E9002301F02AFF32463B4602F0D8F86EA3D3E91E
:404F0000002301F021FF32463B4602F0CFF86CA3D3E9002301F018FF3246804689463B463046394602F0C2F802460B464046494602F0BCF8DDE9022306460F46DDE90401BB
:404F400001F002FFDDE9062302F0B0F832463B4601F0FAFEDDE902678046894632463B463046394602F0A2F80022604BCDE90A0101F0EAFE42464B4601F0E6FEDDE910BCAF
:404F80000F46DDE902015A463B46CDE90EBC5E4602F08CF80022CDE90201544B3046394601F0D0FEDDE90A2301F0CCFE02460B464046494601F0C6FEDDE9042302F076F88C
:404FC000324680468946DDE906013B4602F06EF802460B464046494601F0B6FE8046894602460B46DDE9020101F0AEFEDDE90EBC35A3D3E900235846CDE906BC5E460F46C1
:4050000002F054F8DDE90223CDE904013046394601F098FE02460B464046494601F092FE2BA3D3E9002302F041F82BA3D3E90023804689463046394602F038F802460B4617
:405040004046494601F080FEDDE90C2301F07CFE80465046894601F0C3FF06460F46DDE9040142464B4601F06FFEDDE9082301F06BFE32463B4601F067FEDDE906BC3246F1
:4050800058463B46DA468B4601F05CFEDDE9082330E000BFAFF30080EF4E454A287ECA3F65DBC9934A86CD3F01411DA96074D13F4D268F515555D53FFFAB6FDBB66DDB3F92
:4050C000033333333333E33F000000E009C7EE3FFD033ADC09C7EE3FF5015B14E02F3EBE0000404379B60B000000F03F000008408E98030001F026FEDDE9042301F022FEBC
:4051000002460B464046494601F01CFE80468946DDE90012013C54EA050314BFD64CD74C0023CDE904340B461446CDE9023400230293DDE9024508462B461146224601F0D2
:4051400001FE52465B4601F0B1FFDDE9002306460F464046494601F0A9FF02460B463046394601F0F1FD06460F4622462B4650465946CDE9006701F099FF0B4602468046FD
:4051800089463046394601F0DFFDBD4B064699420D460C4640F30E8101F13F4303F5E003034340F0F081A0A3D3E90023DDE9000101F0CAFD424682468B464B46304629465A
:4051C00001F0C0FD02460B465046594602F0FEF9002840F0D8812F463B154FF48012A3F2FE3342FA03F32344C3F30A52A54EA2F2FF321641C3F3130B0020C2F1140523EAB2
:4052000006014BF4801B02460B46002C4BFA05FB40464946B8BFCBF1000B01F093FD02460B4680468946DDE9000101F08DFD4FEA0B5A00247EA3D3E9002320460D4601F0D3
:4052400035FF424606460F464B462046294601F079FD02460B46DDE9000101F073FD76A3D3E9002301F022FF75A3D3E90023804689462046294601F019FF02460B464046B0
:40528000494601F061FD8046894602460B463046394601F059FD32463B4604460D4601F051FD02460B464046494601F04BFD2246804689462B462046294601F0F7FE62A3BC
:4052C000D3E9002306460F4601F0F0FE60A3D3E9002301F037FD32463B4601F0E7FE5EA3D3E9002301F030FD32463B4601F0DEFE5BA3D3E9002301F025FD32463B4601F0DB
:40530000D5FE59A3D3E9002301F01EFD32463B4601F0CCFE02460B462046294601F012FD06460F4602460B462046294601F0BEFE0022CDE900014FF080433046394601F014
:4053400001FD02460B46DDE9000101F0D9FF424606460F464B462046294601F0A7FE42464B4601F0F1FC02460B463046394601F0E9FC22462B4601F0E5FC02460B46002022
:405380003D4901F0DFFC8A44BAF5801FC0F237815146DDE9042301F089FE834618E4F346354915E44A4648463B46394601F07EFE83460DE4344B21F000479F4240F30181F2
:4053C000324B0B4403430CD142464B4601F0BAFC02460B46DDE9000102F0E4F800283FF4FBAE23A3D3E90023DDE9040101F05EFE1FA3D3E9002301F059FE8346FFF7E8BBC4
:40540000BAF1000FBFF6AEACDDE900349B4604F10041FFF7DDBB02460B460020164901F06FFF41E4AFF30080FE822B654715973C00000000432EE63FEF39FAFE422EE63FBC
:40544000396CA80C615C20BED0A4BE726937663EF16BD2C541BDBB3E2CDE25AF6A56113F93BDBE166CC1663F3E5555555555C53F59F3F8C21F6EA5010000F03F0000F0BF80
:40548000FFFF8F40FFFF0F00FFCB904000346F3F6F4B9E427FF763AC6E4B9E423FF7EEAB00226C4B01F04EFC5BA3D3E9002306460F4601F0FBFD5AA3D3E900238046894623
:4054C0003046394601F0F2FD002282468B46624B3046394601F0EAFD02460B4652A1D1E9000101F02FFC32463B4601F0DFFD02460B460020594901F025FC3246CDE90201DB
:405500003B463046394601F0D1FD02460B46DDE9020101F0CBFD46A3D3E9002301F0C6FD02460B465046594601F00CFC02460B4606460F464046494601F006FC42464B467D
:40554000002082468B4601F0FDFB02460B463046394601F0F7FB80468946D9E500220023CDE90823CDE90C233A4B00220026CDE906233DE44A463B460020364901F0C0FE8E
:405580008346FFF725BB2CA3D3E90023DDE9040101F08CFD28A3D3E9002301F087FD8346FFF716BBBEF1000F7FF44FABC3F1140348FA03F202FA03F3984524D07446FFF70A
:4055C00021BB264B9F423FF707AEDDE902349A469B462EE602460B46FFF7B9BB204B4FF48026CDE9062316A3D3E90023CDE9082315A3D3E90023CDE90C23FFF7F9BB5A464C
:4056000001F022FBC5E602F00102C2F10204FFF7F9BA00BFAFF30080000000604715F73F44DF5DF80BAE543E555555555555D53FFE822B654715F73F9C7500883CE4377EA2
:405640000000004003B8E23F06D0CF43EBFD4C3EFEFFEF3F0000F03F0000D03F0000E03F0000F83F000000002DE9F04F944C21F00047A7428FB040F381801446914A0E4683
:40568000974226DC84A3D3E90023002940F3A08101F058FB8C4B80469F42894600F083807FA3D3E9002301F04DFB02460B464046C4E90023494601F045FB79A3D3E9002324
:4056C00001F040FB0125C4E9020128460FB0BDE8F08F7E4A974240F383807D4A974258DC3D15A5F21645A7EB05518B46824601F08DFF01F075FC8046894642464B465046C4
:405700005946CDE9088901F01DFB0022714B01F0CDFC8B46824601F079FF01F061FC8046894642464B4650465946CDE90A8901F009FB0022674B01F0B9FC00220023CDE9FC
:405740000C0101F01BFF002800F06A81002340464946002201F012FF002814BF012302235D480221019000912A46214608A800F07BFB002EC0F24A81054606E0C2E900010F
:4057800000250024C2E90245002528460FB0BDE8F08F02460B4601F0D5FA0025C4E90201C4E90001F1E740A3D3E9002301F0CAFA3FA3D3E9002306460F4601F0C3FA0246B5
:4057C0000B463046C4E90023394601F0BBFA38A3D3E9002301F0B6FA0125C4E90201D4E701F090F934A3D3E900238046894601F05DFC0022394B01F0A7FA01F007FF054678
:4058000001F0EEFB24A3D3E90023CDE9040101F04DFC02460B464046494601F093FA20A3D3E9002382468B46DDE9040101F03EFC1F2DCDE9020155DC294B6A1E53F82230C7
:405840009F424FD002460B465046594601F07AFA02460B4681468846C4E900234A4643465046594601F06EFADDE9022301F06AFA02460B46002EC4E9022386DA4A4608F18E
:40588000004301F1004184E80C00E160A0606D427BE700BFAFF3008000004054FB21F93F3163621A61B4D03D0000601A61B4D03D7370032E8A19A33B83C8C96D305FE43F49
:4058C000FB21E93F7BD90240FB21F93FFB213941FFFFEF7F00007041289900000000E03FA8980000DDE902235046594601F02AFA3F15C1F30A53FB1A102B81468846C4E97B
:405900000001ABDD58A3D3E90023DDE9040101F0CDFB8046894602460B465046594601F011FACDE9060102460B465046594601F009FA42464B4601F005FA4DA3D3E90023CA
:4059400080468946DDE9040101F0B0FB42464B4601F0F8F902460B46CDE90201DDE9060101F0F0F90B4602468846C1F30A517F1A312F8146C4E9002372DD3FA3D3E9002321
:40598000DDE9040101F092FB8046894602460B46DDE9060101F0D6F902460B4682468B46DDE9060101F0CEF942464B4601F0CAF933A3D3E9002380468946DDE9040101F059
:4059C00075FB42464B4601F0BDF9CDE9020139E701F0BAF92E4B80469F42894622D02AA3D3E9002301F0B0F902460B464046C4E90023494601F0A6F923A3D3E9002301F02F
:405A0000A3F94FF0FF35C4E90201BEE66268E36802F1004203F1004345426260E360B4E603239DE610A3D3E9002301F08DF910A3D3E9002306460F4601F086F902460B466E
:405A40003046C4E90023394601F07CF908A3D3E9002301F079F94FF0FF35C4E9020194E6DDE906ABFAE600BF0000601A61B4D03D7370032E8A19A33B0000002E8A19A33B7B
:405A8000C14920259A837B393163621A61B4D03DFB21F93F2DE9F0415F4E0C46B6460E407645054600F0988000290B46024674DD5FEA215E7FD0AEF2FF3EC3F313031EF0C1
:405AC000010F43F4801363D100273E4603EBD2710B444FEA6E0E520016204FF4001174189C424FEAD2754FEA420202DC1B1B66180F44013805EB43034FEA5101EFD184460C
:405B000020244FF0004109E020D003EBD275013C4FEA51012B444FEA420220D09E4201EB0C05F1DA002D05EB010C09DBB0469542A3EB060300D9013B4646521B0844E4E7B0
:405B4000BCF1000FF2DB06F10108F0E7954217D8002D05EB010C49DB98460023ECE7134310D140087B1003F17F5303F50013FA0703EB0E57394648BF40F00040BDE8F081A2
:405B80003346C2E7411C35D000F001031844E8E75B0003EBD273520096E721F000460643ECD079BB8E46D30AAEF1150E5205002BF9D0DD0221D4002100E001465B00DC0242
:405BC00001F10100F9D5C0F1200422FA04F42343C1EB0E0E82406EE702460B4601F066FA2A46234601F0B0F8BDE8F081BCF1000FA9DAB1E701372046B4E720244FF0FF3181
:405C00000020E2E702460B4601F09CF802460B4601F076FBB2E700BF0000F07F000000002DE9F04F21F00046B6F1795F85B00C4692469B4605466BDA01F0E8FC002800F0B3
:405C4000E7802A4623462846214601F02FFA74A3D3E900238046894601F028FA72A3D3E9002301F071F842464B4601F01FFA70A3D3E9002301F066F842464B4601F016FA8B
:405C80006DA3D3E9002301F05FF842464B4601F00DFA6BA3D3E9002301F054F842464B4601F004FA68A3D3E9002301F04DF842464B4601F0FBF9CDE900010022644B40463E
:405CC000494601F0F3F9DDE9002306460F464046494601F0EBF95246804689465B462846214601F0E3F902460B464046494601F029F802460B463046394601F023F80246B2
:405D00000B460020534901F01DF805B0BDE8F08F02460B4601F0CAF941A3D3E900238046894601F0C3F940A3D3E9002301F00CF842464B4601F0BAF93DA3D3E9002301F001
:405D400001F842464B4601F0B1F93BA3D3E9002300F0FAFF42464B4601F0A8F938A3D3E9002300F0EFFF42464B4601F09FF936A3D3E9002300F0E8FF4B46424601F096F9C3
:405D8000354BCDE900019E4297DD344B00229E4238DCA6F5001300202E4916461F4600F0D1FFCDE902010022294B4046494601F07DF932463B4600F0C5FFDDE90023064650
:405DC0000F464046494601F071F95246804689465B462846214601F069F902460B464046494600F0AFFF02460B463046394600F0A9FF02460B46DDE9020100F0A3FF05B0CD
:405E0000BDE8F08F164B0026CDE90223154FCAE71049002005B0BDE8F08F00BFAFF30080D43888BEE9FAA8BDC4B1B4BD9EEE213EAD529C804F7E923E9015CB19A001FA3E0F
:405E40007751C1166CC1563F4C5555555555A53F0000E03F0000F03F3233D33F0000E93F0000E73F0000D23F2DE9F04F794CADF51D7D1F460B93D31E84FB0354DB17C3EB04
:405E8000A403A69E744C23EAE37554F826406B1C26460994A3EB83037C1E0D95029402EBC3032D1B341904900A91089316D42C44013422AEA79F08E057F8250001F090F81E
:405EC0000135A542E6E9020108D0002DF4DA013500200021A542E6E90201F6D1099B002B2FDB099B74AADDF8089002EBC30B0DF5E47A029B002BC0F295810B9B0026C3EBBC
:405F0000090824AB03EBC808049B0027A3F1080524AB03EBC904F5E9022374E8020101F0C5F802460B463046394600F00DFF444506460F46EFD1EAE90267DA4509F10109EF
:405F4000D7D1099B10A91D4603F18043023B9B001A1D0A440B440F920E939CAB03EBC503002D53E928672BDD9CAB03EBC504A83C0DF13C0A0DF5E47B0022384B30463946F6
:405F800001F094F801F042FB01F02AF80022344B8046894601F08AF802460B463046394600F0D0FE01F032FB74E802234AF8040F4946404600F0C8FE5C4506460F46DBD181
:405FC000089C30463946224600F03EFE00224FF07F5306460F4601F069F8FDF7D9FF0022204B01F063F802460B463046394600F0A9FE0F46064601F009FB814600F0F0FF48
:4060000002460B463046394600F09CFE002C06460F4640F3EE80681E10AB53F82030C4F1180243FA02F101FA02F29B1AC4F1170810AA42F82030894443FA08F8B8F1000F81
:406040003DDD002D09F1010940F3D382002214460FA911E0ABAAAA2A309A00000000703E0000704100002040C3F180700BB108600124013295420DDD51F8043F002CF3D01A
:40608000C3F1FF13013203F57F4395420B604FF00104F1DC089B002B0DDD012B00F0B180022B08D16A1E10AB53F8223010A9C3F3150341F82230B8F1020F00F08180002210
:4060C00000233046394601F059FA002800F05B82099B05F1FF3B5B4510DC05F1804310AA013B0F9802EB8303002253F80419834242EA0102F9D1002A40F0B180099B10AAF5
:40610000013B52F82330002B40F071820E9A012352F8041901330029FAD0E9186A1C8A420C914BDC0D990B985118DB0001F180410593A79B05440139E80003EB810A24ABFA
:40614000D20003EB000B74AB13440193A2F10803069007934FF000095AF8040F00F040FF029BEBE80201002B4FF000064FF000071BDB069B03EB0904079B09EB030824AB75
:406180001C449844049BA3F10805F5E9022374E8020100F08BFF02460B463046394600F0D3FD444506460F46EFD1019B09F10809E3E802670193059B9945CDD10C9DCCE669
:4061C00032463B460020B04900F0BCFD06460F46002C3FF474AF089A0020AB4900F034FD02460B463046394600F0ACFD06460F4665E710D16B1E10AA52F823304FEAE358A1
:406200001CE76A1E10AB53F8223010A9C3F3160341F822304FE700229C4B01F0CDF958B980464CE700260027EAE90267DA4509F101097FF45EAE84E6002D09F10109C8BF1B
:406240004FF002083FF702AF32463B4600208E4900F078FD4FF0020806460F462FE7089A10AB53F82B30183ACDF81490CDF8048008926BB90BF18043013B10A901EB8303AE
:4062800053F804190BF1FF3B183A0029F8D00892089A00207C4900F0D7FCBBF1000F04460D46C0F2B6814FEACB030DF5E87810AA02EB8B0608EB03090493043609F108075E
:4062C00056F8040D00F08CFE22462B4600F0EEFE002267E902016E4B2046294600F0E6FEB84504460D46EBD14B46CDF818B09B460DF5987ACDF808A0DDF824A04FF0000982
:40630000BAF1000FC0F226815DA3D3E90023DFF884815D4600260027002403E0A14510DBF8E90223F5E8020100F0C0FE02460B463046394600F008FD0134A24506460F46F3
:40634000ECDA029BABF1080B03EBC903C3E9006772AB5B4509F10109D2D1A69BDDF818B0DDF808A0032B00F28380DFE813F0D100950095000400BBF1000F40F35481049B31
:40638000CDF808B053449846D3E90067D34658E9029A32463B464846514600F0D5FC04460D4602460B464846514600F0CBFC32463B4600F0C9FCC8E9000168E90245C345E1
:4063C00026462F46E3D1DA46DDF808B0BBF1010F40F32981049B0DF59C7B53449846D3E90067994659E902343046CDE902341A463946234600F0A8FC04460D4602460B46A7
:40640000DDE9020100F09EFC32463B4600F09CFCC9E9000169E90245CB4526462F46E1D100231D4608F1080850AC184678E90223294600F089FC444503460D46F5D1019AC0
:40644000002A00F0D880DAF80440DAF80C200A9FDAF80010DAF8080005F1004504F1004402F100427D613B617C60FA603960B860059B03F007000DF51D7DBDE8F08F00BF0E
:4064800000000040FB21F93F0000F03F0000E03F0000703E409A000000242146049D0835554475E90223204600F04EFC55450446F7D1019B002B50D00A9F01F100450B4689
:4064C000DAE9000187E83000224600F03BFCBBF1000F03460D460DDD01241846FAE90223294600F031FC0134A34503460D46F4DA019A0AB105F10045184629460A9BC3E91C
:406500000201059B03F007000DF51D7DBDE8F08F00231C46049A0832924418467AE90223214600F011FC0BF1FF3BBBF1FF3F03460C46F2D1019A0AB104F1004418462146AF
:406540000A9BC3E90001059B03F007000DF51D7DBDE8F08F00260027F3E626460F4622460A9C0B46DAE90001C4E9006700F0EAFBBBF1000F03460D46AEDC184629460A9B29
:40658000C3E90201BDE7089B30465A423946CDF81490CDF8048000F057FB00222C4B06460F4601F009F8002840D00022294B3046394600F07BFD01F029F8044600F010FDB0
:4065C0000022234B00F072FD0B4602463946304600F0B8FB01F01AF8089B05F1010B1833089310AB43F8250043F82B4050E6012393E500244EE51846DAE90067DAE9022393
:4066000029460A9DC5E90067C5E90401C5E902232EE7A69B032B3FF62BAFDFE803F0151010020DF5987A00231D4608E73046394600F0ECFF10ABAB4643F8250028E600248E
:4066400021460DF5987A34E700231C4672E700BF000070410000703E2DE9F04F21F00046B6F1795F85B00C4690469946054604DA00F0CCFF002800F085802A4623462846D9
:40668000214600F013FD06460F4602460B462846214600F00BFD3EA3D3E9002382468B463046394600F002FD3BA3D3E9002300F049FB32463B4600F0F9FC39A3D3E90023A5
:4066C00000F042FB32463B4600F0F0FC36A3D3E9002300F037FB32463B4600F0E7FC34A3D3E9002300F030FB0E9BCDE900019BB30022334B4046494600F0D8FCDDE9002311
:40670000CDE902015046594600F0D0FC02460B46DDE9020100F016FB32463B4600F0C6FC42464B4600F00EFB23A3D3E9002306460F465046594600F0B9FC02460B46304660
:40674000394600F001FB02460B462846214600F0F9FA05B0BDE8F08F02460B463046394600F0A4FC14A3D3E9002300F0EBFA52465B4600F09BFC2A46234600F0E5FA05B0DE
:40678000BDE8F08F2846214605B0BDE8F08F00BF7CD5CF5A3AD9E53DEB9C2B8AE6E55A3E7DFEB157E31DC73ED561C119A0012A3FA6F810111111813F495555555555C53FC1
:4067C0000000E03F000000002DE9F84FC04B21F000469E420D468A4604460FDDBD4B9E4200F3B28000F0AD80BB4BBC49BC4CBAF1000FC8BF19462046BDE8F88FB94B9E422F
:4068000000F3BC80A3F1DE739E4240F3A7804FF0FF3B22462B462046294600F047FC02460B468046894600F041FC91A3D3E9002306460F4600F03AFC8FA3D3E9002300F07A
:4068400083FA32463B4600F031FC8DA3D3E9002300F07AFA32463B4600F028FC8AA3D3E9002300F071FA32463B4600F01FFC88A3D3E9002300F068FA32463B4600F016FC43
:4068800085A3D3E9002300F05FFA42464B4600F00DFC83A3D3E90023804689463046394600F004FC80A3D3E9002300F04BFA32463B4600F0FBFB7EA3D3E9002300F042FAB5
:4068C00032463B4600F0F2FB7BA3D3E9002300F039FA32463B4600F0E9FB79A3D3E9002300F030FA32463B4600F0E0FBBBF1FF3F02460B4669D04046494600F025FA2246B4
:406900002B4600F0D3FB784E784B4FEACB0B5E449B44DBE9002300F015FA22462B4600F011FA02460B46D6E9000100F00BFABAF1000F0446BFF65FAF01F100412046BDE802
:40694000F88F00283FF450AF224620462B46294600F0FAF904462046BDE8F88F5AA3D3E9002300F0F1F90022614B00F02FFE00283FF44DAF29462046BDE8F88F00F0C2F826
:406980005C4B04469E420D462FDCA3F550239E4254DC02460B4600F0D7F90022544B00F0D1F9002206460F464FF080432046294600F0CAF902460B463046394600F0A0FC52
:4069C0004FF0000B04460D4623E74046494600F0BBF922462B4600F069FB02460B462046294600F0AFF9044605E7434B9E421ADC0022424B00F0A6F9002206460F463F4B95
:406A00002046294600F052FB0022394B00F09CF902460B463046394600F072FC4FF0020B04460D46F5E602460B460020344900F067FC4FF0030B04460D46EAE600222C4B8D
:406A400000F080F9002206460F46294B2046294600F07AF902460B463046394600F050FC4FF0010B04460D46D3E600BFAFF3008011DA22E33AAD903FEB0D76244B7BA93F0C
:406A8000513DD0A0660DB13F6E204CC5CD45B73FFF8300922449C23F0D5555555555D53F2F6C6A2C44B4A2BF9AFDDE522DDEAD3F6D9A74AFF2B0B33F711623FEC671BC3FA2
:406AC000C4EB98999999C93F9C7500883CE4377EFFFF0F440000F07FFB21F93FFB21F9BF182D4454FFFFDB3FA09A0000809A00000000F03FFFFFF23FFF7F03400000F83F87
:406B00000000F0BF21F00041704700BF41F0004101F58010C00F70470020704700200149704700BF0000F87FF0B5C1F30A5EAEF2FF36132E83B002460B460C464FEAD175BE
:406B400007462EDC002E49DB3D49314103EA010010432BD049080B4053EA02070CD04FF48023132E24EA010143FA06F444EA01040CBF4FF000470027324B214603EBC505C5
:406B8000D5E90045384622462B4600F0DDF8CDE90001DDE9000122462B4600F0D3F803B0F0BD332E06DDB6F5806F45D01046194603B0F0BDAEF2134E4FF0FF3121FA0EF1B2
:406BC0000842F3D049080842D6D04FF0804320EA010143FA0EFE4EEA0107CDE721F0004101431946E4D0C3F3130343EA000CCCF1000343EA0C0C134B640C4FEA1C3C0CF4EA
:406C0000002C03EBC5036404D3E900674CEA040132463B4600F098F8CDE90001DDE9000132463B4600F08EF8024621F0004141EAC57310461946BBE700F086F8B8E700BF26
:406C4000FFFF0F00C09A0000F8B5C1F30A5604460D460B46174606BB21F00043034325D000222F4B00F022FA2E4A044697420D460B462ADBC1F30A56363E40F2FE723E44B9
:406C8000964228DC002E12DD23F0FF4323F4E00343EA065520462946F8BD40F2FF729642EBD102460B4600F04FF8F8BDF8BD16F1350F1DDA4CF250339F420CDC14A1D1E9CE
:406CC000000122462B4600F031F811A3D3E9002300F0ECF9F8BD22460FA1D1E900012B4600F024F80CA3D3E9002300F0DFF9F8BD23F0FF4323F4E003363643EA0655204680
:406D000029460022084B00F0D1F9F8BDAFF3008059F3F8C21F6EA5019C7500883CE4377E00005043B03CFFFF0000903C03F0004321F0004242EA0301704700BF81F000410D
:406D400002E000BF83F0004330B54FEA41044FEA430594EA050F08BF90EA020F1FBF54EA000C55EA020C7FEA645C7FEA655C00F0E2804FEA5454D4EB5555B8BF6D420CDD81
:406D80002C4480EA020281EA030382EA000083EA010180EA020281EA0303362D88BF30BD11F0004F4FEA01314FF4801C4CEA113102D0404261EB410113F0004F4FEA03337E
:406DC0004CEA133302D0524263EB430394EA050F00F0A780A4F10104D5F1200E0DDB02FA0EFC22FA05F2801841F1000103FA0EF2801843FA05F359410EE0A5F120050EF10E
:406E0000200E012A03FA0EFC28BF4CF0020C43FA05F3C01851EBE37101F0004507D54FF0000EDCF1000C7EEB00006EEB0101B1F5801F1BD3B1F5001F0CD349085FEA300087
:406E40004FEA3C0C04F101044FEA445212F5800F80F09A80BCF1004F08BF5FEA500C50F1000041EB045141EA050130BD5FEA4C0C404141EB010111F4801FA4F10104E9D118
:406E800091F0000F04BF01460020B1FA81F308BF2033A3F10B03B3F120020CDA0C3208DD02F1140CC2F10C0201FA0CF021FA02F10CE002F11402D8BFC2F1200C01FA02F13C
:406EC00020FA0CFCDCBF41EA0C019040E41AA2BF01EB0451294330BD6FEA04041F3C1CDA0C340EDC04F11404C4F1200220FA04F001FA02F340EA030021FA04F345EA0301A4
:406F000030BDC4F10C04C4F1200220FA02F001FA04F340EA0300294630BD21FA04F0294630BD94F0000F83F4801306BF81F480110134013D4EE77FEA645C18BF7FEA655C9C
:406F400029D094EA050F08BF90EA020F05D054EA000C04BF1946104630BD91EA030F1EBF0021002030BD5FEA545C05D14000494128BF41F0004130BD14F580043CBF01F5BB
:406F8000801130BD01F0004545F0FE4141F470014FF0000030BD7FEA645C1ABF194610467FEA655C1CBF0B46024650EA013406BF52EA033591EA030F41F4002130BD00BF4B
:406FC00090F0000F04BF0021704730B54FF4806404F132044FF000054FF0000150E700BF90F0000F04BF0021704730B54FF4806404F1320410F0004548BF40424FF0000147
:407000003EE700BF42004FEAE2014FEA31014FEA02701FBF12F07F4393F07F4F81F06051704792F0000F14BF93F07F4F704730B54FF4607401F0004521F0004120E700BF76
:4070400050EA010208BF704730B54FF000050AE050EA010208BF704730B511F0004502D5404261EB41014FF4806404F132045FEA915C3FF4DCAE4FF003025FEADC0C18BFE4
:4070800003325FEADC0C18BF033202EBDC02C2F1200300FA03FC20FA02F001FA03FE40EA0E0021FA02F11444C1E600BF70B54FF0FF0C4CF4E06C1CEA11541DBF1CEA135508
:4070C00094EA0C0F95EA0C0F00F0DEF82C4481EA030621EA4C5123EA4C5350EA013518BF52EA033541F4801143F4801338D0A0FB02CE4FF00005E1FB02E506F00042E0FB87
:4071000003E54FF00006E1FB03569CF0000F18BF4EF0010EA4F1FF04B6F5007F64F5407404D25FEA4E0E6D4146EB060642EAC62141EA55514FEAC52040EA5E504FEACE2EEA
:40714000B4F1FD0C88BFBCF5E06F1ED8BEF1004F08BF5FEA500E50F1000041EB045170BD06F0004646EA010140EA020081EA0301B4EB5C04C2BFD4EB0C0541EA045170BDC3
:4071800041F480114FF0000E013C00F3AB8014F1360FDEBF002001F0004170BDC4F10004203C35DA0C341BDC04F11404C4F1200500FA05F320FA04F001FA05F240EA02009B
:4071C00001F0004221F0004110EBD37021FA04F642EB06015EEA430E08BF20EAD37070BDC4F10C04C4F1200500FA04F320FA05F001FA04F240EA020001F0004110EBD3707D
:4072000041F100015EEA430E08BF20EAD37070BDC4F1200500FA05F24EEA020E20FA04F301FA05F243EA020321FA04F001F0004121FA04F220EA020000EBD3705EEA430ED4
